:020000040000FA
:10000000380C00206501000073010000750100003C
:1000100000000000000000000000000000000000E0
:100020000000000000000000000000007701000058
:1000300000000000000000007901000029450000D8
:10004000214600002946000041300000B130000088
:1000500011300000013C0000B5290000392C0000DF
:100060005D48000041160000D1130000751A000021
:10007000494A0000413D000000000000000000006F
:100080000000000000000000000000000000000070
:100090000000000000000000000000000000000060
:1000A0000000000000000000000000000000000050
:1000B0000000000000000000000000000000000040
:1000C00000F002F800F03EF80CA030C80838241800
:1000D0002D18A246671EAB4654465D46AC4201D180
:1000E00000F030F87E460F3E0FCCB6460126334274
:1000F00000D0FB1AA246AB463343184734580000E1
:1001000054580000103A02D378C878C1FAD8520780
:1001100001D330C830C101D504680C6070470000BD
:100120000023002400250026103A01D378C1FBD813
:10013000520700D330C100D50B6070471FB51FBDFB
:1001400010B510BD01F010F91146FFF7F7FF04F0EC
:10015000E7FC01F028F903B4FFF7F2FF03BC01F05C
:100160002FF90000094880F30888094880470948AA
:100170000047FEE7FEE7FEE7FEE7FEE7FEE70000DA
:1001800005480649064A074B70470000380C002016
:1001900019460000C100000038060020380C00207D
:1001A000380800203808002010B5202A04DB01465A
:1001B000203A9140002010BD914020239C1A034614
:1001C000E3401943904010BD10B5202A06DB0846D5
:1001D000CB17203A1041C1170B4306E00B462024F1
:1001E0001341D040A21A91400843194610BD434321
:1001F000514330B55C18010C130C0D4692B25D43AF
:1002000080B251432C19054655430A0C09044D1977
:1002100062415843010C00044019514130BD70B592
:1002200000252C46AD1A9C4112DA00252C462D1AC9
:100230008C4102DA01F017F870BD002440428C4175
:10024000214601F010F8002440428C41214619E07B
:1002500000252C462D1A8C410ADA002452429C417A
:10026000234601F000F8002440428C41214670BD35
:10027000002452429C414042234600248C412146A6
:1002800000F0F1FF002452429C41234670BD01E082
:1002900004C0091F0429FBD28B0701D50280801CF2
:1002A000C90700D00270704700290BD0C30702D0E5
:1002B0000270401C491E022904D3830702D5028024
:1002C000801C891EE3E70022EEE70022DFE7002220
:1002D00003098B422CD3030A8B4211D300239C4683
:1002E0004EE003460B433CD4002243088B4231D3FB
:1002F00003098B421CD3030A8B4201D394463FE08F
:10030000C3098B4201D3CB01C01A524183098B42EE
:1003100001D38B01C01A524143098B4201D34B01D7
:10032000C01A524103098B4201D30B01C01A52413A
:10033000C3088B4201D3CB00C01A524183088B42C1
:1003400001D38B00C01A524143088B4201D34B00AA
:10035000C01A5241411A00D201465241104670471C
:100360005DE0CA0F00D04942031000D34042534021
:1003700000229C4603098B422DD3030A8B4212D3E1
:10038000FC22890112BA030A8B420CD38901921113
:100390008B4208D3890192118B4204D389013AD050
:1003A000921100E08909C3098B4201D3CB01C01A25
:1003B000524183098B4201D38B01C01A5241430938
:1003C0008B4201D34B01C01A524103098B4201D326
:1003D0000B01C01A5241C3088B4201D3CB00C01A93
:1003E000524183088B4201D38B00C01A5241D9D2AB
:1003F00043088B4201D34B00C01A5241411A00D22C
:100400000146634652415B10104601D34042002B27
:1004100000D54942704763465B1000D3404201B5A6
:100420000020C046C04602BD7047704770470000BC
:10043000F0B50C46871A9C410D46861A9D4103D2A1
:10044000C01BA141D21963410D0D1F0DC94EEC1BFC
:10045000AE435CD07F057F0D0026002F51D02D05C7
:10046000AC46A943DD020123ED0A1B051D432023F1
:100470001B1B24D41746E740381871412F46E7402C
:10048000CC199D402818314661410C0D27D161449B
:100490009A4013D50023401C594152000ED1400808
:1004A000400001224B005205D34207D305204007EC
:1004B000C14201D5B04900E0B0493046F0BD6B0003
:1004C000002A00D001229A181F23203C1B1B01D5B3
:1004D000002302E0E540281871410C0DD7D001241B
:1004E00024050919C407CD0740084908E40F28432B
:1004F0006144002CD5D00024401C61419A40D0D1E9
:10050000CDE76A05520DD9D1C90FC907D5E79C4D72
:100510004E00002801D0012400E0002434195F00BF
:10052000002A01D0012600E00026BE19954FAC42FA
:100530000CD8AE420AD8B44206D001256D05EC4273
:10054000BCD010461946F0BD9942FCD00020394677
:10055000F0BDF0B51FB40C460F46811A9F412546E9
:10056000861A9D4106D20125ED076F40401ABC4115
:1005700052187B41210D1E0D8D1BAC467D4D8D43C8
:100580007ED075056D0D7CD00D05AE46AC431B03CA
:100590001B0B794D52429D41202366469B1B14D371
:1005A0001746F740381800260090744160462F46E1
:1005B0000741E41900989D402818664116D47146F9
:1005C00071189A4025D5012320E093182A466A41E4
:1005D0005200002B00D0521C1E23203E9B1B002BE0
:1005E00061DD3541EE1728186641E8D500187641DF
:1005F0005B1C9A4000D3401C4B05F3181524E340C4
:1006000010D3002B52D071467118D30FC01802D3EB
:10061000491C05B0F0BD0123DB079A42F9D140081F
:100620004000F6E701225205B21801D1002853D04C
:100630000123CC0ADB029943891E002A08D1020C4F
:1006400003D0020C0004103902E0024600202039D9
:100650000023550B05D112020823550B01D152017D
:100660000D23550C01D112011B1DD50C01D1920097
:100670009B1C150D01D152005B1C2025EE1A01E0D8
:100680002CE022E00546F54015439840CA1AE107E0
:1006900069181305C918002ABBDA03204007081897
:1006A000C10FC9070FE071466118B2E7F1074008B2
:1006B0000843711071444A000CD001235B059A4233
:1006C000A7D2C90FC9070020A3E74905490D26D1C4
:1006D000002001E00028F4D100219AE7284D6600AF
:1006E000002801D0012100E0002171185F00002ADC
:1006F00001D0012600E00026BE19224FA94210D8E1
:10070000AE420ED8B14208D001256D05E94206D0AF
:100710001946A802414010467BE79C4201D0214681
:1007200077E70020394674E710B50C465C4005D5E4
:100730000124E4076340FFF70CFF10BDFFF778FECC
:1007400010BD30B40C465C4004D50124E40763407E
:1007500030BC6DE630BCFCE670B50124E4076140B6
:100760000D465D4002D4FFF763FE70BD6340FFF7A6
:10077000F0FE70BDFF0700000000F0FF0000F07FFA
:100780000000E0FF0000F87FF0B5F94D0C091E09EC
:100790002C402E402F468BB0A7437DD0B543FCD0D4
:1007A000002E7AD0002CFCD00D465D40ED0F254385
:1007B000AC1BFF25AD0464190894C502440DC902A1
:1007C0002143500DDC0204430120C00701430443D0
:1007D000D2020191200C110C00958C460104234695
:1007E0008B430A9161460904E24D8A430991010A4B
:1007F0007D4449198039097805464D4301266D1815
:10080000F605751B6943C90C640B891C4C436418BD
:10081000B5012C1B250C2E04B4434C434D43210C35
:10082000691889090591009DE90701D00121C907CF
:1008300004912C4601996708CD072F434C08059D6C
:10084000E10B4D432D0C29466646754302950D4636
:1008500045432E46029D7D1BB44100950D465D43E8
:1008600001942C0C2F040D465543AE462D0C3D43F0
:10087000029503947546049C2D04641B049406D2CF
:10088000029C039D641C002675410395029401ACF3
:1008900070CC009F7D1B01E03EE162E1B4410904A0
:1008A0000095079101940599A4086143090C0C4631
:1008B0004443650BE7040C4666467443A646640B46
:1008C0003C43039502947446049DE4042C1B049459
:1008D00006D2029C039D641C002675410395029478
:1008E00001AC70CC009F7D1BB44101940C465C436D
:1008F0000095650FE7000C465443A646640F3C4341
:10090000039502947446049DE4002C1B049406D2C3
:10091000029C039D641C002675410395029401AC62
:1009200070CC009F7D1BB441AE09AF06049DC90089
:10093000AD092F43049DA406AD060495079D3443DD
:1009400069180791059DE10B4D432D0C294666461C
:10095000754302950D4645432E46029D7D1BB441CD
:1009600000950D465D4301942C0C2F040D46554314
:10097000AE462D0C3D43029503947546049C2D0410
:10098000641B049406D2029C039D641C00267541DE
:100990000395029401AC70CC009F7D1BB44101947F
:1009A0008C050694079C890A611800950791019CA3
:1009B0000599A4086143090C0D464543680BEF04F3
:1009C0000D46644665436C0B3C43049FED047D1B60
:1009D000AC4602D20025641C6841009E019D371B75
:1009E00085410846584301950C46460FC5005443BF
:1009F000600F28436546E4002C1B02D20025401CF2
:100A00006E41019D3F1AB5412846BD098006284325
:100A10008446A009BF064E020699A406761807432D
:100A2000079D002068410A99079019430020099BFF
:100A300000906046FF1913434041E20F64003A43BF
:100A4000A4460446D71A8C41A04203D90120009045
:100A500020463A46C70F941840416246D20F2243BF
:100A6000644664000494009CBE466400D71AA44601
:100A7000044602978C417746002F01D1A04204D949
:100A80006046401C8446029A2046C40FA64694182D
:100A90004041049A0546D20F224364466400D31AAB
:100AA0008D417146002901D1A84202D928461A4633
:100AB000641C10430122002800D01643610200206C
:100AC000079B891904465C410223002C02DB49186C
:100AD00013466441089DCE0A2D145D194B05670528
:100AE000E10A2C050D1908993E43C9076940002BFE
:100AF00008D0934006D30022761C5141002B01D12F
:100B0000760876001C4A002D43DB154241D0AA43EB
:100B10003FD030460BB0F0BD06180D464D41174C86
:100B20007642AC411AD395181C465C41134A6D427B
:100B3000A24113D3012252054C00D4420AD15C00D9
:100B4000D4420BD04B4002D592021143E2E7490058
:100B50004908DFE75940C90FC90718E000200849D4
:100B6000D8E7054801420DD10342F7D0F2E7000073
:100B70000000FF077C5000000000F07F0000E0FF55
:100B80000000F87F114859400143C0124140002045
:100B9000C0E70123089A9B069A4205DC032252070C
:100BA0008918C90FC907B5E7052252078918074AEE
:100BB0001143D2125140ADE770B515461C460246AE
:100BC0000B4628462146FFF7DFFD70BDFFFFFF7F84
:100BD00030B50346CA02400D1043164D164C0A1597
:100BE00002D02043002A06DBAA1A002A12DDD040D8
:100BF000FF2A0BDC30BD5205520D01D140004008E8
:100C0000AA1A07D4D0404042FF2A01DD002030BD9F
:100C10000028FCDD4A00002B01D0012000E000206C
:100C2000101801225205D042F0D8C817C0436040C6
:100C300030BD00001E040000000000800346CA0210
:100C4000400D10B510430A1504D00124E4072043D9
:100C5000002A05DB0A4CA21A04D4D040FF2A00DD8A
:100C6000002010BD4A00002B01D0012000E0002030
:100C7000101801225205D042F2D8C817C04310BD47
:100C80001E0400001F22030C02D10F22000402D018
:100C9000030E03D004E00020014670470002083A2A
:100CA000030F01D10001121F830F01D18000921E9A
:100CB000002801DB4000521E120551184205C012E7
:100CC000411810467047C10FC90700D040420122A9
:100CD00092071143D6E701218907D3E710B50B1E10
:100CE00001D0202301E0011E2BD00C0C01D10904FE
:100CF000103B0C0E01D10902083B0C0F01D1090178
:100D00001B1F8C0F01D189009B1E002901DB4900AC
:100D10005B1E0446DC4021431C05A4182022D21A85
:100D200090404B05C20AC90A1A430919830501D12B
:100D3000430818401623984002D30020521C41411A
:100D4000104610BDCA0FD20703D00B460021404207
:100D50009941024B1A43C1E7004ABFE70000D04166
:100D6000F0B58B4C0F09254689B0BD437BD01D09DA
:100D70002646AE43FAD00E465E402740F60F3E436D
:100D8000254071D024012142FBD0FF24AD19A404D9
:100D90002D1B039501252D05DB02DB0AC9022B4320
:100DA000C90A29431E010901040F130F050121433C
:100DB0001701880B820391432D098C46A90B1E4312
:100DC0008A039543B30B9A0396433F09BA0B9403E6
:100DD000A74302962E467E430497B6464E19D7196E
:100DE0000C460196544305977E43371B7646BF1B3E
:100DF0003601B646BE0B361900967646BC04371946
:100E0000009C01D3641C00946400002F01D00126D3
:100E10003443029E049F754366467E4304967600E3
:100E200034196E0034190094029C019E1C1966430B
:100E3000751BAE46069465464519059C05956C43A1
:100E4000594375460891691A0191049E0146514320
:100E5000A41B0491611A009C0791E10605D0610969
:100E60000122114302E072E06EE06109089D002753
:100E70002C0A2D066918049D7C412A0A2D06691842
:100E8000019D6241AC0DAD026D185441079A910D60
:100E9000920255196141029A644658435443069B95
:100EA000059A5A43121A131B9A0E9B015B187A413A
:100EB000010B0005C3185141220A200644195A416A
:100EC0009A4200D2491C01204002814203D31523DB
:100ED0000226F64302E014230326F6432020C51A17
:100EE000A9401746AF40DA400A4320460399D8404C
:100EF0000914731819055118039A3843D207514041
:100F0000AC4009D00122944006D30022401C51413C
:100F1000002C01D1400840001E4A934212D3012206
:100F200003989206904207DB0520400709181A48EB
:100F30000143C012414004E0032040070818C10FDC
:100F4000C907002009B0F0BD0020F107FAE7051835
:100F50000C464C4111486D42A04115D394181A46D5
:100F60005A410E48644290410ED301204A00400588
:100F7000824209D35A00824206D35940C90F084A17
:100F8000C90700201143DDE700200649DAE7000029
:100F90000000FF07FE070000FFFFFF7F0000E0FFEB
:100FA0000000F07F0000F87F70B505464800440D52
:100FB000124B0020002C0AD0634008D09A4206DA77
:100FC0006642B24203DD12054019514170BD002C4A
:100FD00008D0002B09D0C90FC907002AF6DB084A40
:100FE000114370BDC90FC90770BD28460A031043DD
:100FF00002D00020034970BD284670BDFF070000E5
:101000000000F07F0000F87F0121C905012341188D
:1010100042001B06D3185B0E0AD0C1100722D2066D
:10102000891840075242D14201D5520089187047B1
:10103000090208D50146002A03D0C10FC9070020C4
:10104000704710467047420202D0002002497047A4
:10105000072109050143F4E70000F87FF0B5FF25FB
:101060002D04C609C209FF2704462E400137CB09CB
:101070003E4348402A402B400746002A6BD0002BB5
:1010800069D0AA4267D0AB4265D0002800DA324668
:101090000125ED0529432C4309022002090AD21A31
:1010A0004B0C7F24E31A434C000A7C44E35C7D2410
:1010B0002404121914145B00A218884201D3521C94
:1010C00000E0400049420C465C4324115C43DB01D4
:1010D0006415E318040A5C43C502200D0C46444322
:1010E0006419250A5D432303EC0C0D466543000398
:1010F0000019EB184C42A34201D35B18401CD405E5
:101100002018002B07D05B00C91804D3401C00290D
:1011100001D1400840003F2189048A4209D3002AB6
:1011200008DC1106090F04D0032149074018C00F3D
:10113000C007F0BD01224100120689187F22520625
:101140009142F6D205214907C84201D59010F0BD61
:10115000FF20C005F0BD002F00DA32461648AA4233
:1011600007D2AB4205D21902090E17D0F80FC007FB
:10117000F0BDFF2563002D06AB42F9D84900A94216
:10118000F6D8AB4201D1A942F2D0A94201D1002147
:1011900001E061004908D0050843F0BD1102090EC5
:1011A000FBD0FF200243D005F0BD0A4601461046A1
:1011B00054E70000424800000000C07F10B501461F
:1011C0009E240002CA15A307002A02D01843002A51
:1011D00004DBA21A002A0CDDD04010BD1206120E4C
:1011E00001D140004008A21A03D4D0404042002858
:1011F000F3DDFF2248001206904201D9002010BD05
:10120000C817C043584010BD1F22030C02D10F2243
:1012100000041CD0030E01D10002083A030F01D1D3
:101220000001121F830F01D18000921E002801DBF4
:101230004000521ED2055118021251181922904036
:1012400004D3491C002801D14908490008467047C9
:10125000C10FC90700D04042012292071143D3E7D2
:1012600001218907D0E7FEB5054610460C46184314
:1012700073D0AE468C460020AD1A01469C4167D320
:101280006646002701243D46B61A9D4102D3134607
:101290003A462124654676462F04360C3E432D0CF3
:1012A000B61A9D4104D3150C1B042B4312041034B1
:1012B000654676462F06360A3E432D0AB61A9D41EC
:1012C00004D3150E1B022B431202083465467646E2
:1012D0002F0736093E432D09B61A9D4104D3150F39
:1012E0001B012B431201241D65467646AF07B60845
:1012F0003E43AD08B61A9D4104D3950F9B002B4386
:101300009200A41C65467646EF0776083E436D08BA
:10131000B61A9D411AD392185B41641C16E000185E
:10132000764665464941B71A9D410191009009D31F
:101330006046B11A98418E4684460098019900256E
:10134000401C6941DD0752082A435B08641EE6D54C
:101350007246634603B0F0BDFFE700200146C04679
:10136000C0462A462346F5E7754600F025F8AE4606
:10137000050069465346C008C000854618B020B530
:10138000FEF7FEFE60BC00274908B6460026C0C531
:10139000C0C5C0C5C0C5C0C5C0C5C0C5C0C5403D2D
:1013A00049008D46704710B50446C046C0462046E9
:1013B000FEF7D1FE10BD000000487047D8050020A0
:1013C00001491820ABBEFEE726000200704700006E
:1013D00010B51E48C16A03221143C1621C4800F0C7
:1013E0003DFC1B4C2088401C20801A49012088703D
:1013F0001648403800891849488400B200F062FB62
:10140000207907280CD1154A1549134800F010FA25
:1014100014480021415E144A0020105E00F0CAFC0E
:1014200001F0BCFC114C6069C00602D46069800602
:101430000BD50E480021803802F038FA3020606168
:101440000B48018802221143018010BD4004014075
:1014500008010020F8000020180100200A000020E8
:10146000AC030020C40300201C00002080070140C2
:101470000800002070B50C4605460121080202F064
:1014800061FC2088A866A178608A89020843217DD2
:10149000E2880903120111430843217C0902084331
:1014A00080B268656189208909010843A189E289C0
:1014B0000902120311430843286570BD0348837C69
:1014C000044803497A220160426070470805002001
:1014D000208500004004014000210180418081807E
:1014E000C180018141818181C181018241828182EA
:1014F000C18201834183704710B588B06846FFF709
:10150000EBFF002469464C8004220A8101204C81B3
:1015100048828C820C8208800A48FFF7ABFF09489A
:10152000FF214030C1624169C21411434161FFF79C
:10153000C5FF064804498162C1058C61846208B018
:1015400010BD000000040140837A000080000040CC
:101550001CB5144B19886C462180014640310A465F
:10156000C9882488091B09B26C4621809B89238085
:1015700012899BB2D21A12B20B4B62805C6A614331
:10158000C91301805B6A5A43D21312B28B185B42B3
:1015900042801BB28380D21A044B5A4312144282F7
:1015A00001821CBD0004014004020020CE93000013
:1015B00002490A8889785043084170475C0300203B
:1015C00002490A89897A5043084170475C03002028
:1015D00010B5174CF521206D89000014A083154823
:1015E0001022C08E48431449800A8A5E1349801A2B
:1015F0000861084600F080FB002801DD002106E0BC
:101600000C49182240318A5E5142814201DD6182DB
:1016100000E060821221615E401A084914310861BD
:10162000084600F069FBA0821220205E10BD000079
:101630005400002018010020E0020020B005002026
:101640001CB5134803214160416889071FD500215B
:101650006A46117007E04169890702D51178491C73
:1016600011701179491C117111790529F3D3107882
:1016700003280CD90021074802F018F90549302049
:1016800080314861044801880222114301801CBD59
:1016900000020140000701400800002070B5044628
:1016A0000121082002F070FB6069616C4002014377
:1016B000A06CA26900025200104301432B48016054
:1016C000216862680901D2001143A2681143816058
:1016D000E169226AC90192011143626A5201114310
:1016E000A26A12011143E26CD2001143226D9200F2
:1016F0001143626D52001143A26D1143C160616BD1
:10170000A26BC90192011143E26B52011143226C99
:1017100012011143626ED2001143A26E9200114376
:10172000E26E52001143226F11430161114A1049C8
:10173000916243055969104D2940E56A2D032943FB
:10174000E568ED022943E56D2D0229432569ED0188
:101750002943256B246E2D012943A400214359619F
:10176000002191620321416070BD00000002014030
:10177000837A0000800000404380000000210122A5
:1017800006C001608160C160016141618161C16128
:10179000016241628162C162016341638163C1632D
:1017A000016441648164C164016541658165C1650D
:1017B0000166416642608166704700B59DB068462B
:1017C000FFF7DCFF01200021400302F0BBFA0121FA
:1017D000880302F0B7FA0A200090022101220020BB
:1017E00002910692119015900C910A901690099210
:1017F00005200323189117900B9304926846FFF776
:101800004DFF1DB000BD0000074806498162C105BB
:101810000A69C3131A430A610168044A114301604B
:1018200070470000837A000080000040FF01000044
:1018300010B50021415E002901DB0B4600E04B4260
:101840000024145FA34203DD002900DA494211801D
:101850000221415E002901DB0B4600E04B420224DD
:10186000145FA34203DD002900DA494251800421BC
:10187000415E002901DB084600E048420423D35EB4
:10188000984203DD002900DA4942918010BD000032
:1018900010B50D4810221421825E415E0B4B8A4226
:1018A00006DDDC8A121B12B202828A4200DC01824F
:1018B0001022825E8A4206DC9B8AD21812B2028211
:1018C0008A4200DB018210BD580100204402002042
:1018D00010B50D480E221221825E415E0B4B8A42EA
:1018E00006DDDC8A121B12B2C2818A4200DCC18191
:1018F0000E22825E8A4206DC9B8AD21812B2C28114
:101900008A4200DBC18110BD580100204402002042
:1019100010B5024640320E230C21D35E415E0446D0
:101920005B1A803003601023D35E0E22A25E9A1AE7
:10193000C261074801802046703000F079F8A0822B
:1019400020468C3000F074F8E08201F027FD10BDD5
:101950001E000020F8B572B600242E4F7C61796914
:10196000F81401437961FFF7A9FD2B48448584856C
:10197000C48501F07FFB0121284801F097FF28482A
:1019800000940099491C00918142FAD30020012360
:101990002546DB022349B961F96AC907FCD0F96A17
:1019A00003221143F9627969194379611949403970
:1019B00000228A5EA4180C228A5EAD1808228A5E74
:1019C000B6180C228A5E401C80B249158842E1D3C9
:1019D000FFF792FDFFF772FD62B6601201B20E488A
:1019E0006A124030C18012B2731202811BB243816D
:1019F0000D480C1841008C4205D812188A4202D8B2
:101A00001818884205D909480188FF22013211437C
:101A10000180F8BD4004014018010020000701408A
:101A2000FFFF0700A55A0000AC0D000008000020D1
:101A3000026941690389511A594343890901534392
:101A40005918C3685918C1600368994202DC436899
:101A5000994200DAC360C1684261091408467047C0
:101A600010B50121C80202F06DF91E20012189077D
:101A7000C86210BD7047000010B50E48006900280C
:101A800000DA40420C4A0421515E0C4B0C4C884257
:101A900005DDD88AE083988AA083012007E04910F9
:101AA000814205DD588AE083188AA0830020508097
:101AB000002010BD880200205400002004020020F5
:101AC000400500200F49104A896A4143C8130104A8
:101AD000106C091A4910081810640014012800DA63
:101AE0000120012309491B060B624862896A084BE1
:101AF00089B29983074BD886074B59430913D163A1
:101B0000704700000402002054000020000B014038
:101B10002005002018010020354F0200F0B5844652
:101B2000184D1748A862174B17484033174E9913A2
:101B300082420ED11E61164C164F54407C402768DD
:101B4000154807402760604648602068CF03384347
:101B500020600D4882420AD11E611048104C42405C
:101B6000624010481060086840004008086000208B
:101B700018610A68520052080A60A862F0BD0000AD
:101B8000837A0000800000401F360D9ACA8F000043
:101B90000A060CB01530002AFF7FFF7F1A3401B00F
:101BA00015020D2ABADC547638B50D48417B01295F
:101BB00015D10C49C978002911D1417372B60A4A6E
:101BC0003F2464022046FFF7A9FF0849044A009118
:101BD00000232C320421204601F096FF62B638BD66
:101BE00020000020080100201F360D9A0CA4FD9A49
:101BF000F0B516481449C162154A01469389403927
:101C00000B87D3894B87134D0346803B00276E42D9
:101C1000DF671E675D67148984825289C28287618B
:101C2000C6600D4A0561026302460124203A14731E
:101C30007D225201DA8692100A83C8218187C187EA
:101C4000403001834183F0BD4A4C000098010020E0
:101C500004020020000090E87530000070B5244CAC
:101C600005462046FFF774FC287925468035042870
:101C70000FD003280DD007280BD0092808D1002049
:101C80006085A085E08520866086A086286B8047D9
:101C900070BD12201C21205E615E1E224843C113CC
:101CA0001020205EA25E5043C013081AA0811020AD
:101CB0001C21205E615E4843C1131220205E504308
:101CC000C0130818E0812046FFF722FE204601F0ED
:101CD00099FF286B804701F081FE01F08BFD0548DC
:101CE000006A000C00B202F07DFDE06170BD0000F2
:101CF000180100200402002030B5018843890469DE
:101D00000A04C56881886343EB180904C3609342E1
:101D100001DD134602E08B4200DA0B46C360008906
:101D2000444320011818904201DD104602E0884229
:101D300000DA0846001430BD10B519490220085ECB
:101D4000052801DA401C00E00120488004B2164852
:101D5000144A0079230002F0A8FE0509040A0917B5
:101D600009002220105E114900F00AFA10BD072870
:101D7000FCD10C21515E0E480C4B094A40681433CB
:101D8000921D00F09BF910BD0728FCD1074A0448BA
:101D9000323211467239801D00F0AAF810BD0000E1
:101DA000040000201801002008010020EC0300209E
:101DB0008802002010B50E4A8842108811DD0028E4
:101DC0000CD00020108001460A4801F06FFD084841
:101DD000001D018801221143018010BD1088401CA4
:101DE00003E00028F9D01088401E108010BD0000CC
:101DF000040000200007014070B5324802F0E8FD01
:101E0000FFF7D6FB304D0024288030480480448002
:101E1000848028462830048044802D4802F0F8FD54
:101E200068802C4802F0F4FDA880284632300480F7
:101E3000294802F0CDFDFFF7BBFB284E68813046F4
:101E400002F0D6FDFFF7BCFB2946E8603C310C8070
:101E50004C80CC80F00202F0BBFDFFF7A9FB28828A
:101E60001F4802F0C5FDFFF7ABFB6861304602F08A
:101E7000BFFDFFF7A5FBA8611A4802F0A9FDFFF717
:101E800097FB2884184802F0B3FDFFF799FBE8613F
:101E900028466C845A30048072380470048244826C
:101EA0008482448044608460C4601048048044801C
:101EB0008480284650300480143004804480C480DC
:101EC00070BD000033333340C403002018010020EC
:101ED0000000AA4300007E439A99993E00004842C0
:101EE00000C08F45CDCCCC3D0000F0410A00002061
:101EF00070B504460020105EFF219131884202DA5D
:101F0000401C108070BD00251580605F0221615E5D
:101F100082108A4207DC8A100421615E8A4202DC58
:101F2000891081420BDD0021074801F0BFFC074802
:101F3000018840221143018005490120C884258081
:101F40006580A58070BD00000007014008000020EA
:101F5000C403002070B5444B1888FF214207434C4E
:101F60002D310020002A02DB1A8812071CD5404DB3
:101F70002222AA5E08263D4DA65F2835B24212DB1A
:101F80000626A65FB2420EDC0422AA5E8A4202DA6C
:101F9000521CAA8008E01A880426B2431A801A88C4
:101FA0000826B2431A80A8801A88D2060ED52F4D73
:101FB00004223C35AA5E8A4202DA521CAA8005E05D
:101FC0001A881026B2431A80A88060841A88920664
:101FD0000DD5264D04223235AA5E8A4202DA521C01
:101FE000AA8004E01A882026B2431A80A8801A88A2
:101FF00052060DD51D4D04225A35AA5E8A4202DAD8
:10200000521CAA8004E01A884026B2431A80A88095
:102010001A88120613D5174D2822AA5E134D473A87
:102020005035312A0AD20422AA5E8A4202DA521CB0
:10203000AA8004E01A888026B2431A80A8801A88F1
:10204000920507D5094D04226435AA5E8A4202DA58
:10205000521CAA8070BD1988012252029143198036
:10206000A880A08470BD000008000020C4030020E8
:10207000180100204402002010B50C4900200880FF
:102080000B4988800A3188800A31888008811E398E
:10209000888028318880074802F0BAFC044C323C22
:1020A000E080054802F0B4FC208110BD080000204B
:1020B000F60300200000AF4300008743F8B5054653
:1020C0000620185E1C460F46282802DA401CD880DD
:1020D000F8BD6E42002D01DB284600E03046254960
:1020E0004969884208DC002D01DB284600E03046C3
:1020F0002049896988422BDA0020205E642802DAB0
:10210000401C20800DE000211B4801F0CFFB002087
:1021100020801A48018810221143018015480121AE
:102120004184002D00DB2E46124DE86986421FDAFD
:10213000002F00DA7F422020285E874218DD02202F
:10214000205EFF219131884204DA401C6080F8BD96
:102150000020D6E70021084801F0A8FB002060809D
:102160000648018810221143018002206884F8BDCE
:102170000020EBE7C4030020000701400800002016
:10218000F8B50C461A49897F00292CD11949022239
:102190008A5E0025824203DC2088401C208006E005
:1021A00004228A5E82421FDD6088401C608000201D
:1021B000205E114F114E282808DB0021384601F01F
:1021C00075FB258030880421084330800220205E82
:1021D000282808DB0021384601F068FB658030883C
:1021E000082108433080F8BD25806580F8BD0000D7
:1021F000B8040020C40300200007014008000020AC
:102200000246002001235B031146814089B29942B6
:1022100003D8401C00B20D28F6DB704710B51248F9
:102220000021018241823222C2824B22120182822B
:102230007D22920102800D4A428082800C4AC28037
:102240000C4A42630C4A82630C4C9620E086A186BD
:1022500000F018F8FFF7CCFC1E20A0810520A07329
:102260000748608610BD000004020020102700000F
:10227000307500005C4C0000884C000040050020D8
:1022800066060000F0B5FF4E0A20756B8BB0285E25
:10229000B46BFEF7DDFF0746FB49206902F078FCCE
:1022A0006169FEF7DBFEA169FEF7D8FE3946FEF74D
:1022B000D5FEFEF783FF70620020205EFEF7C8FFA8
:1022C000F24F00903946206902F062FCE169FEF7A6
:1022D000C5FE0099FEF7C2FEFEF770FFB062012056
:1022E00000076968FDF7FDFFF0620020205EFEF741
:1022F000AFFF00903946206902F04AFC216AFEF7E0
:10230000ADFE0099FEF7AAFEFEF758FF3063A289E2
:102310006E6864204243F117F00849070143D31760
:102320007007FDF77CFF0905000B0843D84E6421B8
:1023300030836868FDF7D5FF0004A189FDF7D1FF60
:1023400070832A691921D317009317464904E86856
:1023500002F07BFB3A46009BFDF761FFA289002358
:10236000FDF75DFF0121C903081A3060C949E8681B
:10237000695E02F06AFB020F090111430022A25EAE
:102380000001D317FDF74BFFC349C8646421686897
:10239000FDF7A7FF069004900A20285E0290C01760
:1023A000039004980026C017059068690090C01734
:1023B0000190A05F0890C0170990324605990498D3
:1023C000FDF7F2FE019B009AFDF711FF039B029AB5
:1023D000FDF70DFF099B089AFDF721FFAF4A002387
:1023E000FDF71DFFAE49884202DA761C36B2E4E7FB
:1023F000A94A9064D683AB48029000980199C70C13
:102400002A694E033E43D31740033146FDF707FFC9
:1024100080B2069F00260090F8170390A0890190D3
:10242000384632460399FDF7BFFE012252030023CE
:10243000FDF7F5FE0023019AFDF7F1FE7D218901EC
:10244000884202DA761C36B2EAE7C1170023029A04
:10245000FDF7CDFE0023009AFDF7C9FECA00410F2B
:102460008B48114341601E3E0121467389028182DF
:1024700000262A690020D31700931746205E8A4958
:1024800002F0E3FA3246FDF78FFE3A46009BFDF775
:10249000C6FE0A27EF5FFB173A46FDF7C0FEA2898A
:1024A0000023FDF7BCFE7D21C901884202DA761CBB
:1024B00036B2DEE77D4902F0C8FA0903000D084391
:1024C00073490E3E8860084686730020205E784A75
:1024D000A9695043FDF7FBFE6F4948640020205E68
:1024E000FEF7B6FE06467349206902F051FB216AE9
:1024F000FEF7B4FD3146FEF7B1FDFEF75FFE614920
:1025000008630020205E6C49484302140A200092B0
:10251000285E6A49484306147D21A089C900FDF759
:10252000D6FE6749F3178883564800210088324653
:102530000593FDF75CFE2A69D317FDF758FEFF23CC
:10254000009A87335A430092D2170192019B009A56
:10255000FDF765FE4B4980B208810490A089FEF723
:10256000BAFB0391029047490498498802F085FA22
:10257000FEF7E8FB0022534BFEF7F2FB039B029AA7
:10258000FEF702F9FEF75AFB3E49324648810846FB
:1025900000880021059BFDF72AFE6A69D317FDF725
:1025A00026FE019B009AFDF73AFE87B235488781E7
:1025B000A089FEF790FB06463248009141883846D4
:1025C00002F05BFAFEF7BEFB00223E4BFEF7C8FBB3
:1025D0003246009BFEF7D8F8FEF730FB2949082267
:1025E000C8810846825E2C480A2382840846C35E5E
:1025F00029480E26C38408460C21415E2648264FF2
:1026000001852048865F244846851E4880884243CD
:102610009212BA851B4AD28853439B12FB8503460C
:102620004B439812394608867243901248861548E3
:10263000254B0289164858300281124841891448B6
:10264000583041811C30028141811F4964208880BB
:102650001D4A0A2111837D22D2001A801A46108158
:102660009181114608827D20C00088820020488028
:1026700048814882C881C882C8804883205EA021E2
:10268000484323E0040200200046E24600002047C1
:10269000200500200A00000054000020CFFD0000AB
:1026A0001027000010C9000040420F002F880600CC
:1026B000F266010080908A47CE9300000A6A01000A
:1026C000E0020020000024401C030020010C794E91
:1026D0000846B183FFF794FDF08300230146E35ED3
:1026E000A02043431027781AC340B38300203083CF
:1026F000FFF786FD7083391AE1200001C84030835E
:102700000A20285E6C494843800C3080FFF778FD32
:10271000014670800A20285E674A50431222511AEF
:10272000C84030800020205E64494843800DB0805E
:10273000FFF766FD0146F0800020205E5F4A5043AF
:102740001622511AC840B0806868000C3081FFF72B
:1027500057FD70816B68381AC34033810A21695E66
:102760005748FDF7B4FD010C564E08463180FFF77F
:1027700047FD708000900A21695E5148FDF7A7FD72
:1027800000990246781AC24032800021615E4E48AC
:10279000FDF79DFD000CB080FFF732FDF08000904A
:1027A0000021615E4848FDF792FD01460098381A05
:1027B000C140B1803F0338466968FDF788FD81B2AA
:1027C00031810846FFF71CFD70813B468340184667
:1027D0006968FDF77CFD308112203083FFF710FD22
:1027E00087407083E12109013846FDF770FD308391
:1027F0000021615E0A20012741433F033846FDF76F
:1028000070FD81B2B1830846FFF7FAFCF083002126
:102810000246615E0A20414397403846FDF757FD66
:10282000B0832A4E2A49F08E16224843000CF086C7
:10283000B08E891048432749001488800420B07363
:102840000020205E69695043FDF74BFD0A21695E57
:10285000FDF747FD80B2411EB08113290DD2002043
:10286000205E1D4A69695043FDF73BFD0A21695E00
:10287000FDF737FDB081062010E0142801D30020B9
:102880000CE00020205E154A69695043FDF729FDE0
:102890000A21695EFDF725FDB0810A20B0730D495C
:1028A0000220C880A0890A225043800908810BB009
:1028B000F0BD00003C0300205B230000181700005F
:1028C0008DF61C005C030020B172C502400500209B
:1028D000402F0200540000206A050000A5560000A9
:1028E00007480022418E01814260818E0B045B42C9
:1028F00083610904026241610248C26570470000B9
:102900004005002054000020F0B52748857A27496B
:1029100001274B8B264C0022022D0BD0867AE12515
:102920002D01012E11D0867A002E19D0817A03292B
:1029300026D029E05B1C9BB27D25ED004B83AB428A
:1029400022D9827202743C230DE0067C6423012E9E
:1029500001D182724B83868AAE4215D9827202E01F
:10296000002B02D05B1E4B830EE0818AA9420BD262
:10297000017C012901D0877206E00221817203E007
:102980002188002900D182722188002901D00321E9
:102990008172817A012904D0817A022900D1877459
:1029A000F0BD8274F0BD000008050020200000206A
:1029B00008000020704770B5002301252A460C68E6
:1029C0009A40144094422AD10C79002C04D0012C56
:1029D00011D0022C04D006E0046816462643066097
:1029E0004468944344604C79012C0BD0022C10D0E5
:1029F000002C0BD00DE00468944304604668144634
:102A00003443EFE706691446344301E00469944314
:102A1000046184698E68012E05D0944384615B1C37
:102A2000102BCBD370BD1443F8E70000F0B5324F44
:102A30001601150214030B0002F037F810090D13EC
:102A4000181E22282D33373D42484C52571D016A2B
:102A5000394089180EE0016A274AE13A114071189D
:102A600008E0016A254A1140691803E0016A090576
:102A7000090D61180162F0BD416A394089180EE004
:102A8000416A1D4AE13A1140711808E0416A1B4A47
:102A90001140691803E0416A0905090D6118416296
:102AA000F0BD816A394089180EE0816A124AE13A24
:102AB0001140711808E0816A104A1140691803E05A
:102AC000816A0905090D61188162F0BDC16A39404A
:102AD00089180EE0C16A084AE13A1140711808E00D
:102AE000C16A064A1140691803E0C16A0905090D67
:102AF0006118C162F0BD0000F0FF0000FFF00000AF
:102B00000246926800200A4200D0012070474163CB
:102B1000704701637047002101600171417181605C
:102B2000704700003EB56846FFF7F5FF01206A4692
:102B300010717D2040021B4C009069462046FFF733
:102B40003AFF032209212046FFF770FF03220B21E1
:102B50002046FFF76BFF03220C212046FFF766FF9C
:102B600003220D212046FFF761FF03220E2120469C
:102B7000FFF75CFF03220F212046FFF757FF68464F
:102B8000FFF7C9FF00216A46117140210091694693
:102B90002046FFF710FF002206212046FFF746FFE0
:102BA0003EBD00000008014070B51748174CC08EAC
:102BB00001014118A06A091A89120818A0620011BF
:102BC0006082012080026084114801F011FFFEF74D
:102BD000F7FC2221615E0F4D4843800A28600E48B1
:102BE00001F006FFFEF7ECFC2221615E4843800AFB
:102BF00068600A4801F0FCFEFEF7E2FC2221615EFB
:102C00004843800AA86070BD180100202000002001
:102C100000E08145FC04002000301B4500C0DA4480
:102C2000044910B50846024A083800F053FF10BDA9
:102C3000380400202C0100207047000010B5044625
:102C40000121022001F0A0F8A078218800040143AE
:102C5000E0782279000512061043014360794006AE
:102C60000143A07980060143E07900070143207AFF
:102C700040070143207C8007014303480160E1686D
:102C8000C1600021416010BD0003014000B585B066
:102C90000121022001F078F8684600F015F80120C3
:102CA00040026946088000208870C87001200871C1
:102CB000C8710872034803906846FFF7BFFF05B06C
:102CC00000BD0000007C9200074901800021817056
:102CD0000122C2700271C271417181717D22017243
:102CE000D200C26001747047FF03000010B572B6D5
:102CF0002648274988622848264901600F21890211
:102D00004160012000040168C200114301600121FB
:102D1000001201F039F8FEF7EFFB00F0E3FA01F0E2
:102D200017FEFFF7FFFEFEF79BFE00F0A9FDFEF782
:102D300044FDFFF7ABFF01F047FD642001F036F8DA
:102D400001210A2001F0CAFE0221072001F0C6FE7F
:102D50000221084601F0C2FE0021092001F0BEFE5A
:102D60000221002001F0BAFE0221012001F0B6FE8E
:102D70000A2001F0A7FE002001F0A4FE012001F0CE
:102D8000A1FE092001F09EFE62B610BD837A00000C
:102D900080000040B4A60000000C0140F8B5464891
:102DA00000260079454D072811D14548454900695D
:102DB00088420CDD44480088002808D1288A7D21FB
:102DC0000901884203D34148807A01280CD0AE74AF
:102DD00040213F48FFF794FEE874384C297D3D4F71
:102DE0002034012903D004E00120A874F0E7002872
:102DF00003D0A87C012836D002E0A87C012812D09C
:102E000004213348FFF785FEEE62267038780028EB
:102E10004FD0E88C002847D080B2401E0004000C40
:102E2000E88441D045E00120207060782A49401CA8
:102E3000C0B26070227A012A0BD0632800D9667074
:102E4000607A32225043627852088018085CA0727F
:102E50000CE0312800D96670607A322362785843DA
:102E60004018105CF3E720780128CFD1E86A401CB5
:102E7000E86229793229C9D1698C8842C6D3EE62C9
:102E8000A07A012805D004211148FFF742FE2670E0
:102E90000EE004210E48FFF73AFE2670012038703C
:102EA000FF204B30E884B7E704210948FFF731FEE3
:102EB0003E70E87C2875F8BD08010020B8040020A9
:102EC00088020020983A0000080000200805002031
:102ED0000008014010000020AC4C00001C4810B558
:102EE0000124014604722039CA7C2038408B00231B
:102EF000012A02D0002A05D01AE0322818D2401C3C
:102F0000488315E0124A203A928B00280BD00F28F4
:102F100006D20F2A04D2C87F642801D2401CC87789
:102F20004B838B8301E0322A05D2888B401C888337
:102F3000888B0F2801D98C77CB77488B0F2802D943
:102F40008C77CB7710BDC87F0528FBD98B7710BD58
:102F5000D804002010B52B48002201782A482B4CB9
:102F60000078002902D0012911D018E0012802D0F0
:102F7000022806D00FE0322000F012FC60860F20FD
:102F800030E03C2000F00CFC608624202AE0012880
:102F90001DD0022821D06286A2632264E2631B480E
:102FA000E26B2030417A914202D8236C994201D2DF
:102FB000218F417234213223615EE35E994215DD37
:102FC000417A91421CD231291AD2491C17E0502073
:102FD00000F0E6FB6086142004E0642000F0E0FBD3
:102FE00060862F20A0632064E063D8E7994207DA67
:102FF000417A226C914203D9002901D0491E4172C5
:1030000010BD00002100002020000020B804002096
:10301000704770B50446008826690004C1176569C9
:10302000801B0822A941A25EFDF7CEF880196941F4
:10303000616120610904000C0843606070BD0000FC
:1030400010B50A4C6069C00602D4606980060BD5D1
:1030500006480021803800F029FC302060610448D7
:10306000018802221143018010BD00008007014049
:1030700008000020F0B50B48877C0B492E254D5FDA
:103080002C246A420C5F16B2624213B22A228A5E74
:103090000648514209B206808580038184810182FD
:1030A0008282F0BD080500201801002000070140C1
:1030B00070470000F8B50D4606460121102000F0CB
:1030C00063FE30468149803001636A792979920034
:1030D0001143AA7AEB7A12015B011A431143AA79D0
:1030E00092011143EA79D20111432A7B1202114362
:1030F0006A7B52021143F1672988316369887163E1
:10310000E98B3162298C7162698CB162A98CF162A0
:103110002989316729462031CB7D8A7D5B001A439E
:103120008B7FEC8A9B01E40123431A430B7E1B0235
:103130001A434B7E5B021A43CB7F9B031A432B8BB4
:10314000DB031A430262CB7E8A7E5B002C461A4365
:10315000403423786F8B9B01FF013B431A430B7F65
:10316000497F1B021A4349020A43617889030A43D3
:10317000A98BC9030A434262A27B217B92001143BF
:10318000A27AE37A12015B011A431143627B520077
:103190001143E27BD2001143227CD2011143227EF3
:1031A00012021143E27D52021143A27E92021143A8
:1031B000627ED2021143227F12031143E27E520348
:1031C00011438162627DE17C92001143627CA37CA9
:1031D00012015B011A431143227D52001143A27D6B
:1031E000D2001143227CD2011143627F12021143AB
:1031F000A27F52021143C1622279A17812011143C8
:103200006279237A52019B011A431143E278120238
:103210001143A27912031143E27952031143627AF6
:10322000920311437167E98C3165298D7165A18E17
:10323000B167E989B164298AF1641221695EB163D9
:103240001421695EF16360352A78E17F52001143F1
:103250006A78AB789202DB021A43114301602A7943
:10326000E978520011436A79AB799202DB021A4382
:1032700011438160E97B2A7C0901520111436A7C78
:1032800092011143AA7CD201114301612A7AE979A2
:10329000520011436A7AAB7A9200DB001A43114361
:1032A000EA7A120111432A7B520111436A7B92018F
:1032B0001143AA7BD2011143816105493164416008
:1032C000C160416103490163F8BD0000ADDE00004B
:1032D000FFFF0000FECA000010B57621FCF7F3FFE7
:1032E00010BD000000B59FB06846FFF7F5FF002055
:1032F0006B461871012159719971D971D88218835F
:1033000058831D4A10AB9A860C226B461A720F2204
:10331000597292011A805A80EB229200DA839F221E
:10332000D2431A844322DA841A855A859A85DA852B
:103330001A8608AB9875D8750E909877D87710AB29
:103340001870D8751690187718741971587199718A
:10335000D871D87718ABD873197410ABD972597368
:10336000D87369460548FFF7A5FE04488030006A17
:10337000034988831FB000BDFF1F00000007014004
:103380007C0300200449088E0007000F08730328FF
:1033900000D300200870704720000020F8B52D4DA4
:1033A00016222D4CAA5E22841421695E6184E88E67
:1033B0002A4B2A4E58432B46DB8E001473431B14B2
:1033C0005B42824201DD024602E09A4200DA1A467E
:1033D00012B22284814201DD014602E0994200DA04
:1033E000194640435243801A09B21D4A6184106352
:1033F000506B002900B201DB0A4600E04A428242DB
:1034000003DD002900DC404260841648A16B006A9D
:103410004018001401F0E6F9E8611C221E21AA5EA2
:103420002026695E2220A65F205E17460B46774362
:103430004343FB1A714342438818C01301B2E06B47
:10344000DB131BB24343DA1341432A83C813688357
:10345000F8BD0000180100205400002000130100F6
:10346000000B01400402002070B52821944CC84292
:1034700001DC944813E001462731934E934D1D29FA
:103480000FD82830FDF71FFC3246914BFDF768FC42
:1034900000222B46FDF778F900228E4B08E1A06050
:1034A00070BD0146093109290AD80A30FDF70BFC25
:1034B000854A894B521EFDF753FC0022874BF7E0EB
:1034C000411E1D290CD8FDF7FEFB854A854BFDF7F3
:1034D00047FC00222B46FDF757F90022824BE7E01C
:1034E000014600251F39ED4313290DD81E38FDF77D
:1034F000EAFB7E4E7E4B3246FDF732FC2A46FDF754
:1035000053FD32467B4BD3E00146333909290AD8B3
:103510003238FDF7D8FB784A784BFDF721FC6A4A30
:10352000774BD243C4E001463D3909290AD83C38DB
:10353000FDF7C9FB6A4A734B921EFDF711FC324638
:10354000714BB5E001464739092909D84638FDF7DE
:10355000BAFB6E4A6E4BFDF703FC00226D4BA7E0F1
:103560000146513909290AD85038FDF7ACFB6A4A9F
:103570006A4BFDF7F5FB5D4A694B521E98E0014628
:103580005B39684E09290AD85A38FDF79CFB324648
:10359000654BFDF7E5FB4C4A644B521C88E0014645
:1035A0006539092909D86438FDF78DFB604A614BFC
:1035B000FDF7D6FB604A614B7AE001466F39092975
:1035C0000AD86E38FDF77FFB564A5D4B921CFDF71B
:1035D000C7FB5C4A5C4B6BE001467939092909D885
:1035E0007838FDF770FB594A594BFDF7B9FB594A3A
:1035F000594B5DE00146833909290AD88238FDF725
:1036000062FB544A554B921EFDF7AAFB544A554B98
:103610004EE001468D3909290AD88C38FDF753FB55
:10362000514A524BFDF79CFB4A4A514B52423FE0F4
:1036300001469739092909D89638FDF744FB4D4AC8
:103640004D4BFDF78DFB32464C4B31E00146A13925
:10365000092909D8A038FDF736FB494A494BFDF73F
:103660007FFB0022484B23E00146AB3913290DD8DC
:10367000AA38FDF728FB454A454BFDF771FB2A4662
:10368000FDF792FC1C4A434B521E11E00146BF3924
:10369000132912D8BE38FDF716FB364A3E4B52426C
:1036A000FDF75EFB2A46FDF77FFC1B4A3B4B521C95
:1036B000FDF73AF8FDF78CFAF1E60520EFE6000099
:1036C00010000020177C000099999999000008408B
:1036D0009995A4C0C005DF4099396BC0002BB54057
:1036E00052B81E85EB796EC00052A9403433333393
:1036F000333346C0331789402085EB51B81E26C0AE
:10370000666E7640EB511DC099096F40E27A14AEA7
:1037100047E113C000E0654084EB51B81E850BC043
:1037200033535F405C8FC2F5285C03C099B95640A3
:10373000480C022B8716FBBFCDCCCCCCCCAC504078
:10374000285CF3BFC3F5285C8FE24840A8C64B371E
:103750008941ECBFF6285C8FC2D54240C2F5E4BF78
:10376000D7A3703D0AD73C405C643BDF4F8DDFBF81
:103770003D4A3640E8FBA9F1D24DD2BF285C31402A
:10378000D022DBF97E6AD4BF00002D40F4FDD4784E
:10379000E926D9BFB89E26402DB2CDBF1E851D405B
:1037A00010B5FFF761FE0B4C6060FDF78CFA00224C
:1037B000094BFCF7B9FF0022084BFCF7B5FF0246A6
:1037C0000B4600200649FCF7DFFFFDF701FA00B2C7
:1037D000608010BD1000002000804940000059406A
:1037E000565C514102480021C1608161816070478F
:1037F000E002002030B50D480D4A0E4B047998695F
:103800001169042C0DD20C4D14682D8B64106C437F
:10381000DD696419DC611862516008490120087093
:1038200030BD18625160D86130BD00000801002031
:1038300088020020040200202005002054000020FF
:103840000421415E8268C9008A4206DA0023C35E11
:10385000D21882608A4200DB816082688A4206DD7B
:103860000223C35ED21A82608A4200DA81608268D3
:10387000D310C3808A4201D10120704700207047D5
:1038800010B50121480200F05DFA07490548886239
:10389000C805016989088900016101690122114394
:1038A000016110BD837A000080000040074A80302B
:1038B00002630129816A05D0054A114081620549E8
:1038C0000163704740221143F8E70000ADDE0000BD
:1038D000BFFF0000FECA0000144A106A0021C3079F
:1038E0001348002B08D001231362C38113690360BE
:1038F000D36883608182C182136A5B0714D5042375
:103900001362C289002A01D0818206E0094A9268C6
:10391000920504D5828A521C8282C18203E0C28A47
:10392000521CC2828182C1817047000000050140A3
:10393000980400200008014070B5214D2148698994
:103940000181A989418100241F4A18210460515E28
:10395000621F51438910C46041606C82AC82143094
:1039600004601A49C4604160E9890181298A418162
:103970001449174838390A46434209C11C32D460F9
:1039800009C20B463220603B4C60D8821148068940
:103990000E8046894E8081891180C18951806C6575
:1039A0000D4AAC651168E965846111612C651C6183
:1039B0000A212C66C187AC63FEF792FF6C8070BD54
:1039C00054000020B005002058010020E0FCFFFF5B
:1039D000000070170402002088020020F0B5354E68
:1039E0001A213046415E1E227588825E846CC36C4B
:1039F000C9003148AC46012D0068304D41D04035FA
:103A00000E27EF5F67437C131027EF5F5F437B1345
:103A1000C91A60431041081829494042884202DC13
:103A20004942884200DA0846F08230832248182151
:103A3000C28B715E036A4A439A180262838B5213E7
:103A40004B4319138A180260C18E8A4202DC01605E
:103A5000490301620068F16D0203521A9211511874
:103A6000F165184A091311611349174A2039498B26
:103A70004843716B0918716391616146002907D051
:103A800007E00C27EF5F67437C130E27EF5FBDE76E
:103A90000020B063308C7083084A16201421105E19
:103AA000515E40434943411808480163406B08494F
:103AB0000882F0BD540000204005002018010020BD
:103AC000E02E00008802002004020020000B0140CC
:103AD000E002002010B51446024602200223105EC8
:103AE000CB5E584300D540420023D35E00228A5E5D
:103AF0005343C01860600013A06020460830FFF7F1
:103B000088FA206010BD0000FEB501246D46089BB8
:103B10002C72344C324DA562334C01263604A3423C
:103B200050D1304C314D40346561314D314C6B409A
:103B300063401C68304D2C401C6070601C68F502AE
:103B40002C431C60C91C8F08BF00134600970190CE
:103B500015E0019989088900716019785C78240260
:103B600009199C78DD7824042D0664190919B160BF
:103B70000099091F00910199091D1B1D01910099D0
:103B80000029E6D10097019019E001988008800093
:103B90007060107853781B02C0189378D4781B0497
:103BA00024061B19C018F368834201D068460172CD
:103BB0000098001F00900198001D121D01900098B0
:103BC0000028E2D1074900204031486131680B4AA2
:103BD00011403160034988626846007AFEBD0000EA
:103BE000837A0000800000400CA4FD9A358F00000D
:103BF0000F045C6A03A0A0F0FF7FFF7FFFF7FFF7D1
:103C000070470000FCB5418B182349420AB2428339
:103C1000C35E69460B80494902254A4399035118FE
:103C20004942CA17520C5118C9130CB269464C804C
:103C3000191949420AB269468A8001462031A342D5
:103C40001CDC93420BDC944204DC01264E760E769B
:103C5000164602E04D760D7626469E191EE0161990
:103C6000F70FBE1976109B1B6F463B80A31B7B8012
:103C7000921BBA8003224A760D7629E0944218DC22
:103C8000934205DC04264E7601260E76164604E0A5
:103C900005264E7603260E761E46A619F70FBE1988
:103CA00076109B1B6F463B80A31B7B80921BBA80C8
:103CB0000EE0D618F70FBE1976109B1B6F463B809F
:103CC000A31B7B80921BBA8006224A7603220A76C7
:103CD000AC2300221B58BA5E0124A4039E8912194A
:103CE0007243D213643E964201DA324602E0392A28
:103CF00000DA002242850222BA5E9E8912197243BE
:103D0000D213643E964201DA324602E0392A00DAE2
:103D1000002282850422BA5E9B8912195A43D2136B
:103D2000643B934201DA1A4602E0392A00DA0022A3
:103D3000C285012048768D76FCBD0000DA6E000059
:103D40007047000010B50F4C0D4AA26223151A05EA
:103D500001290BD0410503D511691943116118439D
:103D60001169814311610020A06210BD410503D596
:103D7000116999431161984311690143F2E7000009
:103D8000837A000080000040074A064B93620029B6
:103D9000D16901D0014300E08143D16100209062EC
:103DA00070470000837A00008000004008B50021C1
:103DB0000091814202D200BF491CF9E708BD000012
:103DC00010B506C8891A084AC1610838914202DC58
:103DD0005242914200DA11464162183000F01CF85C
:103DE0000249C88110BD0000FF7F0000580100207B
:103DF0000268C1688A4205DA836BD21802608A427F
:103E000000DB016002688A4205DDC36BD21A0260E2
:103E10008A4200DC01607047FEB501680446C8179D
:103E20008A0A80051043029060688F05C117820AD4
:103E300086058D05E0681543C117019100906289E0
:103E40000023FCF7D4F9E161A061236962691B18C2
:103E50004A41236162610298F91A904104DB981B80
:103E6000AA4101DA2661656122890023019900983F
:103E7000FCF7BDF9420EC90111432269C001636913
:103E800082185941A261E1610298BB1A884103DAA4
:103E90000298A761E06104E0901BA94101DAA661E4
:103EA000E561217FA0698902800D084300B2FEBD53
:103EB000C1684269C9018A4206DA1023C35ED2187A
:103EC00042618A4200DB416142698A4206DD122377
:103ED000C35ED21A42618A4200DC41617047000031
:103EE00070B515480024154A04600220105E144B7A
:103EF000411C144D09B20A2802DA5180988803E067
:103F0000142803DA51801888A88003E00E490420A1
:103F1000087154800D4E304600F05AFD288030461E
:103F200000F056FD68800748FFF78AFC0848C48106
:103F300044828482048270BD880200209C03002099
:103F40004402002004030020080100200AD7233C7B
:103F500058010020F8B53B4D3B4FA87B3E468036CC
:103F6000002400280BD03949394B085F39493A4AB7
:103F7000002814D0642822D0C82826D02CE00120A4
:103F8000A873FF2021307885B885F88540423886AF
:103F90007886B886306B80472C48048025E00B6318
:103FA000908B2E4B18430862908B0C221043486272
:103FB0000C63284801218038FFF778FC0BE00B6385
:103FC000908B274A1043086204E00B63908B082211
:103FD000104348620C6300BF1C490020085EFF22AA
:103FE0002D32904210DA401C0880E87B01280AD16B
:103FF0001648AC730480EC7300F046F815480121B4
:104000008038FFF753FCF8BD124800218038FFF7D5
:104010004DFC72B67C85BC85FC853C867C86BC8666
:10402000306B80470B49FF2040390860FFF75AF991
:104030000C484169C2141143416162B60120E87322
:10404000D6E7000044020020180100209C03002055
:10405000ADDE0000800701407C030020080C00005A
:104060000C0800004004014010B505490020C8704C
:1040700001460448FFF71AFCFDF76CFF10BD000075
:104080000801002000070140F8B500217448FFF73F
:104090000DFC744800F0ACFC734E3082734800F0A5
:1040A000A7FC7082724800248477782101840C2157
:1040B00041848480448004808460846144610482FB
:1040C000C460FFF78FFB6B488470B473F4730020F7
:1040D00000F06CFC684DB081284600F079FCFDF7DB
:1040E00067FAB082284600F073FCFDF761FAF082AF
:1040F000624DFF20E130288068802F46A8808037FD
:10410000386B8047284640300482C481EC81AC8102
:104110002C826C82848244822C806C80AC802C86C1
:104120006C86AC86BC613C62EC677C602C836C83E3
:10413000EC82AC82AC84EC842C85002000F048FC3E
:1041400030604F4800F044FC70604E480482448266
:10415000446184808460C4804B4800F049FCB060B6
:10416000B4774A48B483448042480A21C180494D0B
:1041700047482884401068840020A8627F27FF05F4
:10418000E862384600F024FCFDF712FAA8613846D0
:1041900000F01EFCFDF70CFA6C622C604042EC60F3
:1041A000E8613D4800F024FCFDF70AFAA8632D48B9
:1041B00000F01EFCFDF704FA6C606C64E8632948AB
:1041C00000F016FCFDF7FCF92864FF200130A8641C
:1041D000324800F0FDFBFDF7EBF929464031C8817C
:1041E0002F4800F005FCFDF7EBF92865FFF7A4FB6D
:1041F000254800F0FDFBFDF7E3F92A4988872A48A6
:1042000000F0F6FBFDF7DCF9F063284800F0F0FB66
:10421000FDF7D6F930642648048044808480C48049
:10422000048144818481FDF7E7FD1248055FFDF7B5
:1042300063F910490888401B088801D4401B00E03E
:10424000281A0228F6DB1B48F021C180C821018111
:104250004181AA2181814484848432210171F8BD85
:104260000007014000002041440200200000A0415E
:10427000E002002008010020CDCCCC3D1801002038
:104280003333333F0403002000007042000000205D
:1042900010270000880200200000E0409A9919BF12
:1042A00000009643040200200000F0410000FA43A1
:1042B0009C030020B8040020F8B52E4DA87F0028EC
:1042C00057D12D4C2846A17880682C4E002900D06B
:1042D0004042F060002000F08BFB3082284800F064
:1042E00087FB70822548FFF7E3FD7069254EC011FA
:1042F000F060FDF765F9306023488169C069081AEC
:10430000286200D540420014204928624018204904
:104310000026884203D2A88C401CA88400E0AE840A
:10432000072020710120A877A1781A481A4C00298B
:1043300002D0012905D00AE000F04AFBFDF738F968
:1043400004E000F045FBFDF733F940426082134F73
:10435000384600F03DFBFDF72BF9A882384600F007
:1043600037FBFDF725F9E882FDF792FAFDF7B0FA81
:10437000A682F8BD440200200801002004030020AA
:104380000000A04188020020040200202FF8FFFF57
:104390007F3E00003333333F58010020CDCCCC3D6D
:1043A000F8B54C4B0C21595E4B4F4C4E4C4D4D4C7F
:1043B000022910DA4C480088012809D12869002810
:1043C00000DA40423A6C904202DD491C998161E07A
:1043D000002098815EE006204149185E4968022865
:1043E0000CDA401CD8800E20205EC217830A92058A
:1043F0001A43EA6280052960A8624BE0BA8B521C1E
:1044000012B2BA83002A34DB0022BA8302280DD10B
:104410000320D8801220205EC217830A92051A4317
:10442000EA6280052960A862FDF752FA2F480078F9
:1044300081002F4840582F49E8608978002902D030
:10444000012903D006E0002802DB03E0002801DD9B
:104450004042E8603078012817D001207070204871
:10446000FFF7C6FC1E48FFF7ABFCFDF7B1F8224989
:1044700008802248807F01280FD0002030701E481D
:104480000088A082FDF704FAF8BD1D4900200880CD
:1044900019490880FDF71CFAEBE712484030818F7C
:1044A0002187C18F6187014640310A8B8282498B07
:1044B000C1820B484030C089608201203070286979
:1044C000002800DA4042296D8842D8DA09480921DB
:1044D0000171D4E79C03002044020020000000206A
:1044E00088020020580100205600002021000020F2
:1044F000FC0400200801002066000020B804002011
:104500006800002006490A20085EFA2802DA401CEA
:10451000488170470020488102490871C87070477F
:104520009C0300200801002070470000F8B5354CBE
:104530000127207934490025344E030000F0B5FAF4
:104540000C071C1824274B4B2A4B3E41454B887FB8
:10455000002805D12E48807A002801D0E77002E0BB
:10456000E07800283AD0FFF78FFD0220207132E07A
:10457000FFF7F0FC27712EE0FFF786FD01212548AB
:10458000FFF794F90320F1E7FFF7AAFC23E0FFF718
:1045900093FE20E0088A7D221201904201D2401C45
:1045A0000882FFF7FDFEE078002821D1308800283E
:1045B00014D100211748FFF779F90BE0FFF7A2FFAC
:1045C00009E0E088002805D105E0FFF74DFD3088BF
:1045D000002800D12571E078002809D13088002812
:1045E00006D100210B48FFF761F9C820E080257152
:1045F0003088002805D000210648FFF757F90B2026
:104600002071F8BD08010020B80400200800002037
:10461000080500200007014000B5FDF7F5F800BDD2
:1046200010B5FFF759F910BD0948016A042211437A
:1046300001620848C178491CC1708188491C818089
:10464000C188491CC1800189491C01817047000053
:1046500000060140F800002070B5054627480C46CA
:10466000854203D101212020FFF78EFB244885429B
:1046700003D101214020FFF787FB20782179C00773
:10468000C9060843217A89060843217B09060843A5
:10469000218A09050843A18A09040843E16909033D
:1046A0000843216AC9020843616A89020843A16A72
:1046B00049020843E16A09020843616B09010843A2
:1046C000A16BC9000843E16B89000843216C4900D4
:1046D0000843616C08432860A0696860E06CA860CA
:1046E000A06CE860206B2861206D6861606DA86136
:1046F000A06DE8610720286270BD00000005014040
:10470000000601400021016041608160C1600161DB
:1047100041610122C261816141628162C1620163C2
:1047200002624163C163016441648164C1640165E3
:10473000416582638165704770B51E4D0024E8783D
:10474000022819D31C4EEC70F088002801D0401EBE
:10475000F080FDF7F1FA00F088F8FEF725FA174827
:104760000088002801D00B203071FFF7DFFE1449CC
:104770002220085EFDF780F9A888142802D3AC80B7
:1047800000F06DF8E888C82806D30E48EC80807CDD
:10479000012801D1FEF7DEFB28897D21C90088426E
:1047A00002D32C8100F0E8F9A878002800D0AC7082
:1047B00070BD0000F8000020080100200800002063
:1047C00018010020B804002010B50549034888628C
:1047D00001210803FFF7B6FA10BD0000837A00003C
:1047E000800000400121C903411809048A0D0321FA
:1047F00009020A40012118B5C90340188004010EBE
:104800004800FF24611A144B4900002A16D0FF3AD1
:10481000521E1AD0FF3A521E03D0FF3A012A0BD182
:1048200004E0185A6A465080585A04E0595A6A46B9
:104830005180185A07E01080009818BD185A6A462F
:1048400040425080585A4042F5E7595A6A46494218
:104850005180185AEFE7000070560000704710B5FD
:10486000FEF7DEF9FEF750F810BD10B5FEF736FB87
:10487000FDF79AF910BD0000FEB56846FEF74BF94A
:10488000274E02213046FEF744F908213046FEF754
:1048900040F901256846057145710A200090694676
:1048A0003046FEF788F869463046FEF784F8022164
:1048B0003046FEF72EF908213046FEF72AF900248B
:1048C0006846047144710520000200906946304634
:1048D000FEF771F868460471447140200090694603
:1048E0003046FEF768F804213046FEF712F96846B4
:1048F000FEF711F9684605710420009069463046BC
:10490000FEF759F804213046FEF703F90648054939
:10491000816241682022114341608462FEBD000033
:1049200000080140837A00008000004000B506487E
:1049300000218174817281823F2040020349006816
:104940000863FEF71FFD00BD0805002020000020C1
:1049500010B598B06846FFF7D5FE104806900420C1
:1049600001241690009469460D48FFF775FE6846CD
:10497000FFF7C8FE0B4806900294002011940D909A
:104980000094079405200F94169009940A946946A0
:104990000548FFF761FE18B010BD0000C05D0000C3
:1049A00000060140FFFF00000005014070B5074C04
:1049B0000546208BFCF754FC294600F0E9F8FCF78B
:1049C000FDFBA17E084180B270BD00001C030020E9
:1049D00070B5064C05462088FCF742FC294600F0DD
:1049E000D7F8FCF7EBFBA178084170BD1C03002051
:1049F00070B5064C05462089FCF732FC294600F0CC
:104A0000C7F8FCF7DBFBA17A084170BD1C0300204E
:104A100010B5FCF7F9FA074A074BFCF7A1F9002299
:104A2000064BFCF79DF9064A064BFBF7ADFEFCF77B
:104A3000CFF810BD72DF92CEF66A7D3FC0FFDF4037
:104A4000CDCCCCCCCCCC0C407047F8B504148BB298
:104A5000264682B25E430D1410463714584336047E
:104A600080190021794116466E43371436048019A7
:104A7000794126466E438919F8BDF8B5040C8BB20E
:104A8000264682B25E430D0C1046370C584336045E
:104A900080190021794116466E43370C360480197F
:104AA000794126466E438919F8BD30B47446641EB8
:104AB0002578641CAB4200D21D46635D5B00E318A1
:104AC00030BC1847002805DBC106C90E012088400C
:104AD000014908607047000000E100E08307FF2201
:104AE000DB0E9A408907090E9940002808DB8308ED
:104AF00009489B001818036893430B4303607047F1
:104B00000007000F0838830804489B001818C36981
:104B100093430B43C361704700E400E000ED00E005
:104B200009488168021411438160FEF7DFF800F044
:104B300011F8FFF7A1FEFFF7F9FE054903480880C9
:104B400062B6FFF7F9FDFCE780000040C4090000F1
:104B5000BA00002010B5FCF7FDFEFDF75FFBFDF786
:104B60004BF9FDF789FA03490148C86010BD000000
:104B7000404C0000F800002004490A7B087882427B
:104B800003D00873C86201204873704720000020DA
:104B900070B5420064414B005C41120E39D01B0ECF
:104BA00038D0FF2A3CD0FF2B3AD040024902400ABD
:104BB000490A060045184E43000A090AD21848431C
:104BC000ED017F3A0104731A4019190C4318990F2B
:104BD00004D001215B0849075B1A521CD80904D391
:104BE000401CF50301D19D0607D0FF2A08D2D50548
:104BF00006D0E4072043401970BD0125A843F4E71F
:104C0000002A01DCE00770BD2402FF202043C0051C
:104C100070BD1B0EFF2A03D0FF2B01D0E00770BD33
:104C2000FF2645003606B54206D84D00B54203D8EA
:104C3000D218FF2A00D0E7E7004870BD0000C07F0F
:104C40005665725F332E390000000000000000003E
:104C5000000000000000C0039602000000000000F9
:104C6000C02709000200080030EC0100180800000D
:104C7000900800008E00000000000000000000000E
:104C800000000000000000001C0C0000000078057F
:104C9000C0270900A861000066666640CDCCCC3D07
:104CA000CDCC1041B657EB3B5E06A33B00000000A5
:104CB00000000000000000000000000000000000F4
:104CC00000000000000000000000000000000000E4
:104CD00000000000000000000000000000000100D3
:104CE00000000000000000000000000000000000C4
:104CF00000000000000000010000000000000000B3
:104D000000000000000000000000000000000000A3
:104D10000100000000000000000000000000000092
:104D20000001000000000000000000000000000082
:104D30000000010000000000000000000000000072
:104D40000000010000000000000000000000010061
:104D50000000000000000000000000010000000052
:104D60000000000000000001000000000000000042
:104D70000000000001000000000000000000010031
:104D80000000000000000000010000000000000022
:104D90000000010000000000000000000100000011
:104DA0000000000000000100000000000000010001
:104DB00000000000000001000000000000000001F1
:104DC00000000000000100000000000000000001E1
:104DD00000000000000000000100000000000001D1
:104DE00000000000000001000000000000010000C1
:104DF00000000000010000000000000100000000B1
:104E000000000100000000000000010000000000A0
:104E1000000100000000000100000000000100008F
:104E20000000000100000000000001000000000080
:104E3000010000000000010000000000010000006F
:104E4000000001000000000100000000000100005F
:104E5000000001000000000001000000000100004F
:104E6000000000010000000001000000000001003F
:104E7000000000010000000001000000000100002F
:104E8000000001000000000100000000010000001F
:104E9000000100000000010000000001000000000F
:104EA00001000000000100000001000000000100FE
:104EB00000000100000000010000000100000000EF
:104EC00001000000010000000001000000010000DE
:104ED00000000100000000010000000100000001CE
:104EE00000000001000000010000000100000000BF
:104EF00001000000010000000100000001000000AE
:104F0000010000000100000100000001000000019C
:104F1000000000010000000100000001000001008D
:104F2000000001000000010000000100000001007D
:104F3000000001000000010000000100000100006D
:104F4000000100000100000001000001000000015C
:104F5000000001000000010000010000000100004D
:104F6000010000000100000001000000010000013C
:104F7000000001000000010000010000010000002D
:104F8000010000010000010000000100000100001C
:104F9000010000000100000100000100000001000C
:104FA00000010000010000010000010000010000FC
:104FB00001000001000000010000010000010000EC
:104FC00001000001000001000001000001000001DB
:104FD00000000100000100000100000100000100CC
:104FE00000010000010000010000010000010000BC
:104FF00001000001000001000001000001000100AB
:10500000010000010000010000010001000001009A
:10501000000100000100000100010000010000018A
:10502000000001000100000100000100000100007B
:10503000010001000001000001000100000100006A
:10504000010001000001000001000100000100005A
:10505000010001000001000001000100000100004A
:105060000100010001000001000100000100010039
:10507000000100010000010001000001000100002A
:105080000100010000010001000001000100000119
:10509000000100000100000100010001000001000A
:1050A00001000100000100010001000001000100F9
:1050B00001000001000100010000010001000100E9
:1050C00000010001000001000001000100010000DA
:1050D00001000100010001000001000100010001C8
:1050E00000000100010001000001000100010001B9
:1050F00000000100010001000100000100010001A9
:105100000001000100010000010001000100010098
:105110000100010000010001000100010001000187
:105120000000010001000100010001000001000178
:105130000001000100010001000100010001000167
:105140000001000100000100010001000100010058
:105150000100010001000100010001000100010047
:105160000100010001000100010001000100010037
:105170000100010001000100010001000100010027
:105180000100010001000100010001000100010017
:105190000100010001000100010001000100010007
:1051A00001000100010000010001000100010001F7
:1051B00000010001000100010001000100010000E8
:1051C00001010001000100010001000100010100D6
:1051D00001000100010001000100010100010001C6
:1051E00000010001000100010100010001000100B7
:1051F00001000101000100010001010001000100A6
:105200000100010100010001000100010100010095
:105210000100010100010001000100010100010085
:105220000100010000010100010001000101000175
:105230000001000101000100010001010001000165
:105240000001010001000100010100010001000155
:105250000100010001010001000101000100010144
:105260000001000101000100010100010001010035
:105270000100010100010001010001000101000124
:105280000001010001000101000100010100010114
:105290000001000101000101000100010100010104
:1052A00000010001010001010001000101000101F4
:1052B00000010001010001010001000100010100E5
:1052C00001010001010001000101000101000101D3
:1052D00000010100010001010001010001010001C4
:1052E00000010100010100010100010100010100B4
:1052F00001010001010001010001010001010001A3
:105300000100010100010100010100010100010192
:105310000001010001010001010001010001000183
:105320000101000101000101000101000101000172
:105330000100010100010100010101000101000162
:105340000100010100010100010100010100010152
:105350000001010100010100010100010101000142
:105360000100010100010101000101000101000132
:105370000101000101000101000101010001010022
:105380000101000101010001010001010100010111
:105390000001010100010100010101000101000102
:1053A00001010001010001010100010100010101F1
:1053B00000010101000101000101010001010100E2
:1053C00001010100010101000101010001010001D1
:1053D00001010001010100010101000101010001C1
:1053E00001010001010100010101010001010100B1
:1053F00001010100010101000101010001010100A1
:10540000010101010001010100010101000101018F
:105410000001010100010101000101010100010180
:105420000100010101010001010100010101010070
:10543000010101000101010100010101000101015F
:105440000100010101000101010100010101010050
:10545000010101010001010101000101010100013F
:10546000010101000101010100010101010001012F
:10547000010100010101010001010101000101011F
:10548000010100010101010001010101010001010F
:1054900001010001010101010001010101000101FF
:1054A00001010100010101010001010101010001EF
:1054B00001010101010001010101010001010101DE
:1054C00001000101010101000101010101010001CF
:1054D00001010101000101010101000101010101BE
:1054E00000010101010101000101010101010001AF
:1054F000010101010100010101010101000101019E
:10550000010101000101010101010001010101018D
:10551000010100010101010101010001010101017D
:10552000010100010101010101010100010101016D
:10553000010001010101010101010100010101015D
:10554000010101010101010100010101010101014C
:10555000010100010101010101010101000101013D
:10556000010101010101000101010101010101012C
:10557000000101010101010001010101010101011D
:10558000010101000101010101010101010101010C
:1055900000010101010101010101010100010101FD
:1055A00001010101010101010100010101010101EC
:1055B00001010101010101010101000101010101DC
:1055C00001010101010101010101010001010101CC
:1055D00001010101010101010101010101010101BB
:1055E00001010101010101010101010101010101AB
:1055F000010100010101010101010101010101019C
:10560000010101010101010101010100010101018B
:10561000010101010101010101010101010101017A
:10562000010101010101010101010101010101016A
:10563000010101010101010101010101010001015B
:10564000010101010101010101010101010101014A
:10565000010101010101010101010101010101013A
:10566000010101010101010101010101010101012A
:105670000000C90092015B022403ED03B6047F051C
:1056800048061107D907A2086A09330AFB0AC40BA6
:105690008C0C540D1C0EE30EAB0F72103A1101125C
:1056A000C8128F1355141C15E215A8166E1733185F
:1056B000F918BE19821A471B0B1CCF1C931D571ECD
:1056C0001A1FDD1F9F2061212322E522A6236724C4
:1056D0002825E825A82667272628E528A329612A62
:1056E0001F2BDC2B992C552D112ECC2E872F4130C2
:1056F000FB30B5316E322633DF3396344D35043608
:10570000BA366F372438D9388C39403AF23AA53B4B
:10571000563C073DB83D683E173FC53F73402141A9
:10572000CE417A422543D0437A442445CD4575463F
:105730001C47C34769480F49B449584AFB4A9D4B27
:105740003F4CE04C814D204EBF4E5D4FFB4F97507C
:105750003351CE51685202539B533254C954605551
:10576000F5558A561D57B0574258D3586459F359C6
:10577000825A0F5B9C5B285CB35C3E5DC75D4F5EED
:10578000D75E5D5FE35F6860EB606E61F0617162E0
:10579000F1627063EE636C64E8646365DD655666B0
:1057A000CF664667BC673268A66819698B69FD6970
:1057B0006D6ADC6A4A6BB76B236C8E6CF86C616D3A
:1057C000C96D306E966EFB6E5E6FC16F2270837016
:1057D000E27040719D71F9715472AE7207735E731D
:1057E000B5730A745F74B27404755575A575F37555
:1057F00041768D76D87622776B77B377FA773F78D4
:105800008478C77809794A798979C879057A417A9B
:105810007C7AB67AEE7A267B5C7B917BC57BF87BC3
:10582000297C597C887CB67CE37C0E7D397D627D49
:10583000897DB07DD57DFA7D1D7E3E7E5F7E7E7E3C
:105840009C7EB97ED57EEF7E097F217F377F4D7F9D
:10585000617F747F867F977FA67FB47FC17FCD7F76
:10586000D87FE17FE97FF07FF57FF97FFD7FFE7FC5
:1058700080807F7E7D7C7B7A79787776767574738D
:10588000727171706F6E6E6D6C6C6B6A6A6968684C
:10589000676666656464636362616160605F5F5EE2
:1058A0005E5D5D5C5C5B5B5A5A5959585857575658
:1058B00056555555545453535252525151505050BD
:1058C0004F4F4F4E4E4D4D4D4C4C4C4B4B4B4A4A0F
:1058D0004A49494948484847474747464646454553
:1058E000454444444443434343424242424141418C
:1058F0008182838485868788898B8C8D8E8F919217
:1059000093959697999A9C9D9FA0A2A3A5A7A8AAB4
:10591000ACAEB0B2B3B5B7B9BCBEC0C2C5C7C9CCD6
:10592000CED1D4D7D9DCDFE2E6E9ECF0F3F7FAFE2A
:105930005059000000000020F800000004010000A1
:10594000485A0000F8000020400B00002001000031
:105950000000000000000000000000000000000047
:105960000000000000000000000000000000000037
:105970000000000000000000000000010000000026
:105980000000AC0D0000000000000000000000005E
:105990000000000000000000C0DA0000000000006D
:1059A0000000000000000000102700000000C800F8
:1059B0006400C80064000000000000000000000057
:1059C00000000000000000000000000000000000D7
:1059D00000000000000000000000000000000000C7
:1059E000354F020000000000000000000000000031
:1059F00000000000000000000000000000000000A7
:105A00000000000000000000000000000000000096
:105A10000000000000000000000000000000000086
:105A20000000000000000000000000000000000076
:105A30000000000000000000000000000000000066
:085A400000000000000000005E
:04000005000000C136
:00000001FF
