:020000040000FA
:10000000900C00209D010000AB010000AD0100003C
:1000100000000000000000000000000000000000E0
:10002000000000000000000000000000AF01000020
:100030000000000000000000B1010000514E00006F
:100040007D4F0000854F0000B136000035370000BD
:1000500015350000B5420000212E0000A53000003B
:10006000ED5100004517000065140000471D000019
:100070003956000025440000000000000000000088
:100080000000000000000000000000000000000070
:100090000000000000000000000000000000000060
:1000A0000000000000000000000000000000000050
:1000B0000000000000000000000000000000000040
:1000C00000F002F800F03EF80CA030C80838241800
:1000D0002D18A246671EAB4654465D46AC4201D180
:1000E00000F030F87E460F3E0FCCB6460126334274
:1000F00000D0FB1AA246AB46334318478066000087
:10010000A0660000103A02D378C878C1FAD8520726
:1001100001D330C830C101D504680C6070470000BD
:100120000023002400250026103A01D378C1FBD813
:10013000520700D330C100D50B6070471FB51FBDFB
:1001400010B510BD01F05AF91146FFF7F7FF05F0A1
:10015000DFFA01F072F903B4FFF7F2FF03BC01F01C
:1001600079F9000070B505460C46164602E00FCC42
:100170000FC5103E102EFAD2082E02D303CC03C5B1
:10018000083E042E07D301CC01C5361F03E02178B9
:100190002970641C6D1C761EF9D270BD094880F36D
:1001A00008880948804709480047FEE7FEE7FEE760
:1001B000FEE7FEE7FEE7000005480649064A074B52
:1001C00070470000900C0020754F0000C100000037
:1001D00090060020900C002090080020900800203D
:1001E00010B5202A04DB0146203A9140002010BDC2
:1001F000914020239C1A0346E3401943904010BDD0
:100200004343514330B55C18010C130C0D4692B2B8
:100210005D4380B251432C19054655430A0C09042D
:100220004D1962415843010C00044019514130BD41
:1002300070B500252C46AD1A9C4112DA00252C46DB
:100240002D1A8C4102DA01F058F870BD00244042AA
:100250008C41214601F051F8002440428C41214656
:1002600019E000252C462D1A8C410ADA002452424E
:100270009C41234601F041F8002440428C41214634
:1002800070BD002452429C414042234600248C41D0
:10029000214601F032F8002452429C41234670BDB1
:1002A000F8B5042A2CD3830712D00B78491C0370AD
:1002B000401C521E83070BD00B78491C0370401C56
:1002C000521E830704D00B78491C0370401C521E39
:1002D0008B079B0F05D0C91ADF002023DE1B08C93E
:1002E0000AE0FFF73FFFF8BD1D4608C9FD401C4668
:1002F000B4402C4310C0121F042AF5D2F308C91AC7
:10030000521EF0D40B78491C0370401C521EEAD4D4
:100310000B78491C0370401C012AE4D40978017051
:10032000F8BD01E004C0091F0429FBD28B0701D5E9
:100330000280801CC90700D00270704700290BD0D2
:10034000C30702D00270401C491E022904D3830750
:1003500002D50280801C891EE3E70022EEE700221E
:10036000DFE7002203098B422CD3030A8B4211D30F
:1003700000239C464EE003460B433CD40022430836
:100380008B4231D303098B421CD3030A8B4201D326
:1003900094463FE0C3098B4201D3CB01C01A5241BE
:1003A00083098B4201D38B01C01A524143098B420E
:1003B00001D34B01C01A524103098B4201D30B01F7
:1003C000C01A5241C3088B4201D3CB00C01A52411C
:1003D00083088B4201D38B00C01A524143088B42E1
:1003E00001D34B00C01A5241411A00D2014652417A
:1003F000104670475DE0CA0F00D04942031000D399
:100400004042534000229C4603098B422DD3030AED
:100410008B4212D3FC22890112BA030A8B420CD3FD
:10042000890192118B4208D3890192118B4204D326
:1004300089013AD0921100E08909C3098B4201D3A6
:10044000CB01C01A524183098B4201D38B01C01AE0
:10045000524143098B4201D34B01C01A5241030957
:100460008B4201D30B01C01A5241C3088B4201D306
:10047000CB00C01A524183088B4201D38B00C01AB3
:100480005241D9D243088B4201D34B00C01A52418A
:10049000411A00D20146634652415B10104601D317
:1004A0004042002B00D54942704763465B1000D3A1
:1004B000404201B50020C046C04602BD70477047AB
:1004C00070470000F0B50C46871A9C410D46861A0D
:1004D0009D4103D2C01BA141D21963410D0D1F0DD7
:1004E000C94EEC1BAE435CD07F057F0D0026002F6C
:1004F00051D02D05AC46A943DD020123ED0A1B05B1
:100500001D4320231B1B24D41746E7403818714194
:100510002F46E740CC199D402818314661410C0D0B
:1005200027D161449A4013D50023401C5941520001
:100530000ED14008400001224B005205D34207D3A0
:1005400005204007C14201D5B04900E0B04930461E
:10055000F0BD6B00002A00D001229A181F23203C16
:100560001B1B01D5002302E0E540281871410C0D4A
:10057000D7D0012424050919C407CD07400849082C
:10058000E40F28436144002CD5D00024401C614175
:100590009A40D0D1CDE76A05520DD9D1C90FC9070C
:1005A000D5E79C4D4E00002801D0012400E0002436
:1005B00034195F00002A01D0012600E00026BE1990
:1005C000954FAC420CD8AE420AD8B44206D00125B1
:1005D0006D05EC42BCD010461946F0BD9942FCD0E6
:1005E00000203946F0BDF0B51FB40C460F46811A05
:1005F0009F412546861A9D4106D20125ED076F4091
:10060000401ABC4152187B41210D1E0D8D1BAC467A
:100610007D4D8D437ED075056D0D7CD00D05AE46AC
:10062000AC431B031B0B794D52429D412023664670
:100630009B1B14D31746F7403818002600907441CE
:1006400060462F460741E41900989D4028186641EE
:1006500016D4714671189A4025D5012320E09318CD
:100660002A466A415200002B00D0521C1E23203E15
:100670009B1B002B61DD3541EE1728186641E8D53C
:10068000001876415B1C9A4000D3401C4B05F318C0
:100690001524E34010D3002B52D071467118D30FAC
:1006A000C01802D3491C05B0F0BD0123DB079A42F4
:1006B000F9D140084000F6E701225205B21801D1F5
:1006C000002853D00123CC0ADB029943891E002A5B
:1006D00008D1020C03D0020C0004103902E00246DB
:1006E000002020390023550B05D112020823550B99
:1006F00001D152010D23550C01D112011B1DD50C46
:1007000001D192009B1C150D01D152005B1C2025CC
:10071000EE1A01E02CE022E00546F5401543984032
:10072000CA1AE10769181305C918002ABBDA0320A1
:1007300040070818C10FC9070FE071466118B2E7FA
:10074000F10740080843711071444A000CD001239E
:100750005B059A42A7D2C90FC9070020A3E7490544
:10076000490D26D1002001E00028F4D100219AE7AC
:10077000284D6600002801D0012100E000217118F9
:100780005F00002A01D0012600E00026BE19224F9A
:10079000A94210D8AE420ED8B14208D001256D054D
:1007A000E94206D01946A802414010467BE79C4228
:1007B00001D0214677E70020394674E710B50C4692
:1007C0005C4005D50124E4076340FFF70CFF10BD32
:1007D000FFF778FE10BD30B40C465C4004D5012410
:1007E000E407634030BC6DE630BCFCE670B5012424
:1007F000E40761400D465D4002D4FFF763FE70BD23
:100800006340FFF7F0FE70BDFF0700000000F0FF3F
:100810000000F07F0000E0FF0000F87FF0B5F94D28
:100820000C091E092C402E402F468BB0A7437DD0CB
:10083000B543FCD0002E7AD0002CFCD00D465D4094
:10084000ED0F2543AC1BFF25AD0464190894C502C8
:10085000440DC9022143500DDC0204430120C007AE
:1008600001430443D2020191200C110C00958C46E7
:10087000010423468B430A9161460904E24D8A43F1
:100880000991010A7D4449198039097805464D438B
:1008900001266D18F605751B6943C90C640B891C8C
:1008A0004C436418B5012C1B250C2E04B4434C4357
:1008B0004D43210C691889090591009DE90701D074
:1008C0000121C90704912C4601996708CD072F43E0
:1008D0004C08059DE10B4D432D0C2946664675439A
:1008E00002950D4645432E46029D7D1BB441009561
:1008F0000D465D4301942C0C2F040D465543AE4626
:100900002D0C3D43029503947546049C2D04641BF5
:10091000049406D2029C039D641C00267541039535
:10092000029401AC70CC009F7D1B01E03EE162E1CE
:10093000B44109040095079101940599A408614305
:10094000090C0C464443650BE7040C4666467443A9
:10095000A646640B3C43039502947446049DE4044C
:100960002C1B049406D2029C039D641C0026754136
:100970000395029401AC70CC009F7D1BB44101949F
:100980000C465C430095650FE7000C465443A646B1
:10099000640F3C43039502947446049DE4002C1BB1
:1009A000049406D2029C039D641C002675410395A5
:1009B000029401AC70CC009F7D1BB441AE09AF0620
:1009C000049DC900AD092F43049DA406AD060495FE
:1009D000079D344369180791059DE10B4D432D0C8C
:1009E00029466646754302950D4645432E46029DAF
:1009F0007D1BB44100950D465D4301942C0C2F04E2
:100A00000D465543AE462D0C3D4302950394754665
:100A1000049C2D04641B049406D2029C039D641C58
:100A2000002675410395029401AC70CC009F7D1B9C
:100A3000B44101948C050694079C890A61180095BD
:100A40000791019C0599A4086143090C0D46454393
:100A5000680BEF040D46644665436C0B3C43049FF2
:100A6000ED047D1BAC4602D20025641C6841009E4B
:100A7000019D371B85410846584301950C46460F9A
:100A8000C5005443600F28436546E4002C1B02D286
:100A90000025401C6E41019D3F1AB5412846BD0905
:100AA000800628438446A009BF064E020699A40684
:100AB00076180743079D002068410A99079019435B
:100AC0000020099B00906046FF1913434041E20F4C
:100AD00064003A43A4460446D71A8C41A04203D985
:100AE0000120009020463A46C70F941840416246C4
:100AF000D20F2243644664000494009CBE46640006
:100B0000D71AA446044602978C417746002F01D19C
:100B1000A04204D96046401C8446029A2046C40F75
:100B2000A64694184041049A0546D20F22436446D3
:100B30006400D31A8D417146002901D1A84202D91F
:100B400028461A46641C10430122002800D0164390
:100B500061020020079B891904465C410223002C96
:100B600002DB491813466441089DCE0A2D145D1915
:100B70004B056705E10A2C050D1908993E43C90785
:100B80006940002B08D0934006D30022761C5141C7
:100B9000002B01D1760876001C4A002D43DB15425C
:100BA00041D0AA433FD030460BB0F0BD06180D46E9
:100BB0004D41174C7642AC411AD395181C465C4106
:100BC000134A6D42A24113D3012252054C00D44274
:100BD0000AD15C00D4420BD04B4002D592021143A3
:100BE000E2E749004908DFE75940C90FC90718E0A3
:100BF00000200849D8E7054801420DD10342F7D04B
:100C0000F2E700000000FF07345E00000000F07F04
:100C10000000E0FF0000F87F114859400143C01276
:100C200041400020C0E70123089A9B069A4205DC58
:100C3000032252078918C90FC907B5E705225207D1
:100C40008918074A1143D2125140ADE770B51546D5
:100C50001C4602460B4628462146FFF7DFFD70BDC5
:100C6000FFFFFF7F30B50346CA02400D1043164D0B
:100C7000164C0A1502D02043002A06DBAA1A002AC5
:100C800012DDD040FF2A0BDC30BD5205520D01D1E0
:100C900040004008AA1A07D4D0404042FF2A01DD94
:100CA000002030BD0028FCDD4A00002B01D00120CF
:100CB00000E00020101801225205D042F0D8C817D9
:100CC000C043604030BD00001E04000000000080F2
:100CD0000346CA02400D10B510430A1504D0012482
:100CE000E4072043002A05DB0A4CA21A04D4D040B2
:100CF000FF2A00DD002010BD4A00002B01D001209A
:100D000000E00020101801225205D042F2D8C81786
:100D1000C04310BD1E0400001F22030C02D10F228D
:100D2000000402D0030E03D004E000200146704707
:100D30000002083A030F01D10001121F830F01D1F5
:100D40008000921E002801DB4000521E120551183F
:100D50004205C012411810467047C10FC90700D0A4
:100D60004042012292071143D6E701218907D3E7C8
:100D700010B50B1E01D0202301E0011E2BD00C0C5E
:100D800001D10904103B0C0E01D10902083B0C0FE4
:100D900001D109011B1F8C0F01D189009B1E002965
:100DA00001DB49005B1E0446DC4021431C05A418FE
:100DB0002022D21A90404B05C20AC90A1A430919C7
:100DC000830501D1430818401623984002D3002020
:100DD000521C4141104610BDCA0FD20703D00B462A
:100DE000002140429941024B1A43C1E7004ABFE744
:100DF0000000D041F0B58B4C0F09254689B0BD43AA
:100E00007BD01D092646AE43FAD00E465E402740F1
:100E1000F60F3E43254071D024012142FBD0FF2430
:100E2000AD19A4042D1B039501252D05DB02DB0A5A
:100E3000C9022B43C90A29431E010901040F130FDC
:100E4000050121431701880B820391432D098C462C
:100E5000A90B1E438A039543B30B9A0396433F099C
:100E6000BA0B9403A74302962E467E430497B646D8
:100E70004E19D7190C460196544305977E43371BEC
:100E80007646BF1B3601B646BE0B3619009676462F
:100E9000BC043719009C01D3641C00946400002F2B
:100EA00001D001263443029E049F754366467E436B
:100EB0000496760034196E0034190094029C019E49
:100EC0001C196643751BAE46069465464519059C7C
:100ED00005956C43594375460891691A0191049E22
:100EE00001465143A41B0491611A009C0791E1063D
:100EF00005D061090122114302E072E06EE0610950
:100F0000089D00272C0A2D066918049D7C412A0A99
:100F10002D066918019D6241AC0DAD026D1854415A
:100F2000079A910D920255196141029A64465843FD
:100F30005443069B059A5A43121A131B9A0E9B019F
:100F40005B187A41010B0005C3185141220A2006A3
:100F500044195A419A4200D2491C01204002814260
:100F600003D315230226F64302E014230326F64397
:100F70002020C51AA9401746AF40DA400A43204650
:100F80000399D8400914731819055118039A384366
:100F9000D2075140AC4009D00122944006D3002230
:100FA000401C5141002C01D1400840001E4A934290
:100FB00012D3012203989206904207DB05204007D6
:100FC00009181A480143C012414004E003204007B9
:100FD0000818C10FC907002009B0F0BD0020F107B3
:100FE000FAE705180C464C4111486D42A04115D353
:100FF00094181A465A410E48644290410ED301207B
:101000004A004005824209D35A00824206D3594021
:10101000C90F084AC90700201143DDE7002006492F
:10102000DAE700000000FF07FE070000FFFFFF7F78
:101030000000E0FF0000F07F0000F87F70B505467B
:101040004800440D124B0020002C0AD0634008D009
:101050009A4206DA6642B24203DD12054019514156
:1010600070BD002C08D0002B09D0C90FC907002A79
:10107000F6DB084A114370BDC90FC90770BD284689
:101080000A03104302D00020034970BD284670BDFA
:10109000FF0700000000F07F0000F87F0121C90574
:1010A0000123411842001B06D3185B0E0AD0C11061
:1010B0000722D206891840075242D14201D5520078
:1010C00089187047090208D50146002A03D0C10FCC
:1010D000C9070020704710467047420202D0002026
:1010E00002497047072109050143F4E70000F87F32
:1010F000F0B5FF252D04C609C209FF2704462E407E
:101100000137CB093E4348402A402B400746002A7E
:101110006BD0002B69D0AA4267D0AB4265D00028C3
:1011200000DA32460125ED0529432C43090220024D
:10113000090AD21A4B0C7F24E31A434C000A7C4460
:10114000E35C7D242404121914145B00A218884265
:1011500001D3521C00E0400049420C465C4324117C
:101160005C43DB016415E318040A5C43C502200DEF
:101170000C4644436419250A5D432303EC0C0D46D9
:10118000654300030019EB184C42A34201D35B18DE
:10119000401CD4052018002B07D05B00C91804D3CD
:1011A000401C002901D1400840003F2189048A42A7
:1011B00009D3002A08DC1106090F04D003214907CE
:1011C0004018C00FC007F0BD012241001206891867
:1011D0007F2252069142F6D205214907C84201D525
:1011E0009010F0BDFF20C005F0BD002F00DA3246A0
:1011F0001648AA4207D2AB4205D21902090E17D0EF
:10120000F80FC007F0BDFF2563002D06AB42F9D8EB
:101210004900A942F6D8AB4201D1A942F2D0A94275
:1012200001D1002101E061004908D0050843F0BD6B
:101230001102090EFBD0FF200243D005F0BD0A4683
:101240000146104654E70000FA5500000000C07F38
:1012500010B501469E240002CA15A307002A02D039
:101260001843002A04DBA21A002A0CDDD04010BD6E
:101270001206120E01D140004008A21A03D4D04039
:1012800040420028F3DDFF2248001206904201D9B7
:10129000002010BDC817C043584010BD1F22030CCA
:1012A00002D10F2200041CD0030E01D10002083A23
:1012B000030F01D10001121F830F01D18000921E84
:1012C000002801DB4000521ED205511802125118AD
:1012D0001922904004D3491C002801D14908490033
:1012E00008467047C10FC90700D04042012292074B
:1012F0001143D3E701218907D0E7FEB50546104623
:101300000C46184373D0AE468C460020AD1A0146F9
:101310009C4167D36646002701243D46B61A9D418D
:1013200002D313463A462124654676462F04360CEE
:101330003E432D0CB61A9D4104D3150C1B042B43C0
:1013400012041034654676462F06360A3E432D0AAF
:10135000B61A9D4104D3150E1B022B43120208340A
:10136000654676462F0736093E432D09B61A9D413C
:1013700004D3150F1B012B431201241D654676462D
:10138000AF07B6083E43AD08B61A9D4104D3950F8A
:101390009B002B439200A41C65467646EF07760817
:1013A0003E436D08B61A9D411AD392185B41641CE6
:1013B00016E00018764665464941B71A9D410191ED
:1013C000009009D36046B11A98418E468446009831
:1013D00001990025401C6941DD0752082A435B083A
:1013E000641EE6D57246634603B0F0BDFFE70020F9
:1013F0000146C046C0462A462346F5E7754600F03A
:1014000025F8AE46050069465346C008C00085462B
:1014100018B020B5FEF7D0FE60BC00274908B646DC
:101420000026C0C5C0C5C0C5C0C5C0C5C0C5C0C5F3
:10143000C0C5403D49008D46704710B50446C046C2
:10144000C0462046FEF787FE10BD000000487047EA
:101450002C06002001491820ABBEFEE72600020042
:101460007047000010B51548C16A03221143C162DC
:10147000134800F05BFD124C2088401C208011496D
:10148000012088700D48403800890F49488400B217
:1014900000F080FC207907280CD10C4A0C490A483E
:1014A00000F026FB0B480021415E0B4A0020105E35
:1014B00000F0FCFD01F0A6FE10BD0000400401405C
:1014C0001C0100200C0100202C0100201200002033
:1014D000C4030020DC0300202C00002070B50C4663
:1014E00005460121080202F09FFF2088A866A17826
:1014F000608A89020843217DE288090312011143B1
:101500000843217C0902084380B26865618920890B
:1015100009010843A189E289090212031143084322
:10152000286570BD0748817C0748002904D0074919
:1015300001607321416070474B21C9000160132194
:10154000F8E700005C0500204004014050820000E4
:1015500003480249016022214160704722220000B5
:10156000400401400021018041808180C1800181CF
:1015700041818181C181018241828182C182018355
:101580004183704710B588B06846FFF7EBFF002431
:1015900069464C8006220A8101204C8148828C8257
:1015A0000C8208800B48FFF799FF0A48FF21403062
:1015B000C1624169C21411434161FFF7B3FF07489B
:1015C0000549816205210902C2059161846208B062
:1015D00010BD000000040140837A0000800000403C
:1015E0001FB50446014602A802F004FF02980090CD
:1015F0000F496B460020185E4A6A5043C01300B280
:10160000208002229A5E496A4A43D11309B24218E5
:101610005242618012B2A280891A064A51430914CB
:101620006182208200F0F6FA034908801FBD0000A5
:1016300018020020CE9300002C00002002490A88E6
:1016400089785043084170477403002002490A8991
:10165000897A5043084170477403002010B5174C35
:10166000F521206D89000014A08315481022C08E3A
:1016700048431449800A8A5E1349801A0861084663
:1016800000F0A4FC002801DD002106E00C4918222E
:1016900040318A5E5142814201DD618200E0608218
:1016A0001221615E401A084914310861084600F0B1
:1016B0008DFCA0821220205E10BD0000680000207A
:1016C0002C010020F80200200406002072B6194AFE
:1016D00010201221105E515E4043494341181648C4
:1016E0000163406B62B601041448826A8B1A1B12B4
:1016F0009A1813148262C26A891A49138918C1623E
:1017000009145A1A1304026B9B1A1B129A180263CB
:1017100010140B4A2023D35E8B4208DD002800DA28
:1017200040422221515E884201DA012000E000207F
:10173000907770472C010020000B0140CC00002066
:10174000F80200201CB51348032141604168C90715
:101750001FD000216A46117007E04169C90702D015
:101760001178491C11701179491C117111790529E1
:10177000F3D3107803280CD90021074802F0DAFBD4
:101780000549302080314861044801880222114314
:1017900001801CBD00020140000701401000002034
:1017A00070B504460121082002F060FE6069616C9A
:1017B00040020143A06CA2690002520010430143A1
:1017C0002B480160216862680901D2001143A268B8
:1017D00011438160E169226AC90192011143626A81
:1017E00052011143A26A12011143E26CD20011436B
:1017F000226D92001143626D52001143A26D11439C
:10180000C160616BA26BC90192011143E26B52018D
:101810001143226C12011143626ED2001143A26E79
:1018200092001143E26E52001143226F1143016195
:10183000114A1049916243055969104D2940E56AE2
:101840002D032943E568ED022943E56D2D02294367
:101850002569ED012943256B246E2D012943A40040
:1018600021435961002191620321416070BD000054
:1018700000020140837A00008000004043800000A5
:101880000021012206C001608160C16001614161E7
:101890008161C161016241628162C1620163416330
:1018A0008163C163016441648164C1640165416510
:1018B0008165C1650166416642608166704700B519
:1018C0009DB06846FFF7DCFF01200021400302F0D5
:1018D000ABFD0121880302F0A7FD0A200090012042
:1018E00009900690002002210291119015900C9110
:1018F0000A9016900520032217900B9218916846C3
:10190000FFF74EFF1DB000BDF8B54C1C6410A64695
:10191000CA030CB20092A446684A694B4C420028A4
:1019200067DB451C6F10C50306B2002931DB884216
:101930001ADB002811D00098C01910625662906A14
:10194000C1094900CA185288595A4006521A400E15
:1019500042434032D0090818ADE0002902D00120EE
:101960008003F8BD0020F8BD70462818106260465C
:101970005062906AC1094900CA185288595A4006F3
:10198000521A400E42434032D009081801218903FF
:1019900090E0A04216DB002812D0E003C0191062CC
:1019A0005662906AC1094900CA185288595A4006BD
:1019B000521A400E42434032D009081840427AE0A1
:1019C0004048F8BD601C40102818106220B25062D8
:1019D000906AC1094900CA185288595A4006521AD9
:1019E000400E42434032D009081801218903401AB1
:1019F00061E001254042ED0300292EDB884215DB22
:101A0000441C009964100919116200B25062906A76
:101A1000C1094900CA185288595A4006521A400E44
:101A200042434032D0090818281A44E0C1037046E6
:101A30000818106260465062906AC1094900CA18CD
:101A40005288595A4006521A400E42434032D00939
:101A500008180121890340182DE0A04215DB411C24
:101A6000E40349106118116200B25062906AC10922
:101A70004900CA185288595A4006521A400E424329
:101A80004032D0090818401B15E0C103601C40100B
:101A90000818106220B25062906AC1094900CA1841
:101AA0005288595A4006521A400E42434032D009D9
:101AB00008180449081A00B2F8BD0000000B0140E4
:101AC0009C64000000C0FFFF074806498162C10511
:101AD0000A69C3131A430A610168044A1143016089
:101AE00070470000837A000080000040FF01000082
:101AF00010B50021415E002901DB0B4600E04B429E
:101B00000024145FA34203DD002900DA494211805A
:101B10000221415E002901DB0B4600E04B4202241A
:101B2000145FA34203DD002900DA494251800421F9
:101B3000415E002901DB084600E048420423D35EF1
:101B4000984203DD002900DA4942918010BD00006F
:101B500010B50D4810221421825E415E0B4B8A4263
:101B600006DDDC8A121B12B202828A4200DC01828C
:101B70001022825E8A4206DC9B8AD21812B202824E
:101B80008A4200DB018210BD6C0100205802002057
:101B900010B50D480E221221825E415E0B4B8A4227
:101BA00006DDDC8A121B12B2C2818A4200DCC181CE
:101BB0000E22825E8A4206DC9B8AD21812B2C28151
:101BC0008A4200DBC18110BD6C0100205802002058
:101BD00010B5024640320E230C21D35E415E04460E
:101BE0005B1A803003601023D35E0E22A25E9A1A25
:101BF000C261074841802046703000F083F8A0821F
:101C000020468C3000F07EF8E08201F00BFF10BD22
:101C10002C00002040434943411802480163406BB7
:101C200080B27047000B0140F8B572B600242E4F09
:101C30007C617969F81401437961FFF773FC2B48E3
:101C400044858485C48501F04DFD0121284802F0BA
:101C500071F9284800940099491C00918142FAD3F7
:101C6000002001232546DB022349B961F96AC9072F
:101C7000FCD0F96A03221143F96279691943796149
:101C80001949403900228A5EA4180C228A5EAD18D8
:101C900014228A5EB6180C228A5E401C80B2491556
:101CA0008842E1D3FFF76EFCFFF73CFC62B660129E
:101CB00001B20E486A124030C18012B27312028122
:101CC0001BB243810D480C1841008C4205D81218F4
:101CD0008A4202D81818884205D909480188FF228B
:101CE000013211430180F8BD400401402C01002065
:101CF00000070140FFFF0700A55A0000AC0D0000DF
:101D000010000020026941690389511A594343892F
:101D1000090153435918C3685918C16003689942AF
:101D200002DC4368994200DAC360C1684261091469
:101D30000846704710B50121C80202F075FB282043
:101D4000C106C86210BD704710B50E480069002872
:101D500000DA40420C4A0421515E0C4B0C4C884284
:101D600005DDD88AE083988AA083012007E0491026
:101D7000814205DD588AE083188AA08300205080C4
:101D8000002010BDA00200206800002018020020E2
:101D9000940500200F49104A896A4143C813010481
:101DA000106C091A4910081810640014012800DA90
:101DB0000120012309491B060B624862896A084B0E
:101DC00089B29983074BD886074B59430913D163CE
:101DD000704700001802002068000020000B01403E
:101DE000740500202C010020354F0200F0B5844618
:101DF000184D1748A862174B17484033174E9913D0
:101E000082420ED11E61164C164F54407C4027680A
:101E1000154807402760604648602068CF03384374
:101E200020600D4882420AD11E611048104C424089
:101E300062401048106008684000400808600020B8
:101E400018610A68520052080A60A862F0BD0000DA
:101E5000837A0000800000401F360D9ACA8F000070
:101E60000A060CB01530002AFF7FFF7F1A3401B03C
:101E700015020D2ABADC547638B50D48817B01294C
:101E800015D10C49C978002911D1817372B60A4A5B
:101E90003F2464022046FFF7A9FF0849044A009145
:101EA00000232C320421204602F088F962B638BDA6
:101EB000300000201C0100201F360D9A0CA4FD9A52
:101EC000F0B516481449C162154A01469389403954
:101ED0000B87D3894B87134E0346803B77421F679E
:101EE00000245E67DC67158985825289C282C760DB
:101EF00006610D4A8461026302460125203A15738A
:101F00007D225201DA860C83642181872C22C287CC
:101F1000403001834283F0BD76580000AC010020C0
:101F200018020020000090E8E536000070B5254C4E
:101F300005462046FFF754FB2879254680350328BF
:101F400011D004280FD007280DD009280AD1FFF797
:101F5000BDFB00206085A085E08520866086A08688
:101F6000286B804770BD12201C21205E615E1E22FE
:101F70004843C1131020205EA25E5043C013081ACC
:101F8000A08110201C21205E615E4843C1131220F5
:101F9000205E5043C0130818E0812046FFF718FE6A
:101FA000204602F089F9286B804702F05BF801F0C7
:101FB00065FF0548006A000C00B203F0DBF8E06141
:101FC00070BD00002C0100201802002030B50188EF
:101FD000438904690A04C56881886343EB180904CE
:101FE000C360934201DD134602E08B4200DA0B46E8
:101FF000C3600089444320011818904201DD104657
:1020000002E0884200DA0846001430BD70B520496D
:102010000220085E052801DA401C00E0012048800B
:102020001D4904B21B4D1D480A790C21695E4068A8
:10203000230003F032FB060D040E0D19240D184881
:10204000807F002804D12220285E164900F0B4FACF
:1020500070BD072AFCD1144A927A124B0C4A1833ED
:10206000921D00F061F970BD072AFCD10D4A0848A5
:102070003C3211468C39801D00F0BEF870BD072A35
:10208000FCD1084B024A4833921D00F02FFA70BD74
:102090000C0000202C0100201C010020A0020020C8
:1020A000F8040020140400205C05002010B50E4A3E
:1020B0008842108811DD00280CD0002010800146D5
:1020C0000A4801F037FF0848001D0188012211432A
:1020D000018010BD1088401C03E00028F9D0108852
:1020E000401E108010BD00000C00002000070140C1
:1020F00070B5344803F03EFAFFF7A0FA324D0024E1
:102100002880324804804480848028463830048007
:1021100044802F4803F04EFA68802E4803F04AFAB4
:10212000A8802846443004802B4803F023FAFFF7A8
:1021300085FA6881294803F02DFAFFF787FAE860ED
:10214000284650300480448084800481244803F071
:1021500011FAFFF773FA2882224803F01BFAFFF7FF
:1021600075FA6861204803F015FAFFF76FFAA86165
:102170001E4803F0FFF9FFF761FA28841C4803F0BA
:1021800009FAFFF763FAE861AC854E2028857520CF
:1021900068852846743004808C3804700482448238
:1021A0008482448044608460C46012480480448017
:1021B000848028466830048018300480448004817C
:1021C000EC8670BD00002040DC0300202C010020C4
:1021D0000000B443000077439A99193E000034434D
:1021E0003333B33F0080094500004842CDCCCC3D9D
:1021F0000000F0411200002070B504460020105E7F
:10220000282802DA401C108070BD00251580605F10
:102210000221615E82108A4207DC8A100421615E1D
:102220008A4202DC891081420BDD0021074801F05F
:1022300081FE0748018840221143018005490120A1
:10224000088625806580A58070BD000000070140DC
:1022500010000020DC03002030B51E49088840072C
:1022600002D40888000720D51B4A1C4C2220105E8F
:102270000825655F224600233832A84214DB062574
:10228000655FA84210DC0620105EFF242D34A042BA
:1022900002DA401CD08008E008880424A0430880AB
:1022A00008880824A0430880D38008881022C30629
:1022B0000B48002B807F04DA012802D10B8893435E
:1022C0000B800B889B0504D5012802D10888904318
:1022D000088030BD100000202C010020DC0300200D
:1022E000F804002010B50C49002008800B49C88074
:1022F0000C31C8800C31C88048812439C880303105
:10230000C880074803F056F9044C443CE080054877
:1023100003F050F9208110BD10000020200400209F
:102320000000AF4300008343FFB505460820185E58
:1023300083B01C460F46282803DA401C188107B0DA
:10234000F0BD68420090002D00DB2846634900265E
:102350004969884223DDA05F0A2802DA401C2080F8
:102360001EE05E493420085E022808DA401C888698
:1023700000215B4801F0DEFD5A4806710BE00021A8
:10238000574801F0D7FD584A26801088102108438D
:1023900010805248868651480121818500E02680C0
:1023A000002D01DB284600E000984C49CA697942BB
:1023B000019190422EDA002F01DB384600E00846FA
:1023C000464920228A5E904224DD0220205E1428A5
:1023D00002DA401C60801EE040493420085E02287A
:1023E00008DA401C888600213D4801F0A3FD3D48E5
:1023F00006710BE000213A4801F09CFD3A4A6680E4
:102400001088102108431080344886863348022102
:10241000818500E0668005980022825E2F491020A9
:10242000085E824208DC059902228A5E824203DC51
:1024300004228A5E82421BDD28493420085E02287D
:1024400008DA401C88860021254801F073FD2548E4
:1024500006710AE00021224801F06CFD2248018843
:102460001022114301801D4886861C480321818566
:10247000002D01DB284600E00098184D696988426C
:1024800029DD002F00DA019F2020285E40008742CE
:1024900021DA0420205E322802DA401CA0804EE7B8
:1024A0003420285E022808DA401CA88600210C4847
:1024B00001F040FD0B4806710AE00021084801F0D8
:1024C00039FD0948A6800188102211430180AE869B
:1024D0000420A88533E7A68031E70000DC03002054
:1024E000000701401C01002010000020F8B52A4818
:1024F0002A4F008800242A4E2A4D002804D01C812F
:102500003079072820D025E00820185E642802DAF8
:10251000401C1881F4E73220285E022807DA401CAC
:1025200068860021204801F005FD347112E0002189
:102530001D4801F0FFFC388801214902084338801A
:102540000120E8856C86DBE73620285E642801DA06
:10255000401CE886E88E642813D11448807F002848
:102560000FD1134813494068884212DA3220285E9E
:10257000022807DA401C688600210B4801F0DAFCCB
:102580003471F8BD3888012149020843388002209F
:10259000E8856C86F8BD00006A000020100000206D
:1025A0001C010020DC03002000070140F80400208B
:1025B000A002002088130000F8B50C46184902223A
:1025C0008A5E0025824203DC2088401C208006E0D1
:1025D00004228A5E82421FDD6088401C60800020E9
:1025E000205E104F104E0A2808DB0021384601F00B
:1025F000A1FC258030880421084330800220205E21
:10260000642808DB0021384601F094FC658030889E
:10261000082108433080F8BD25806580F8BD0000A2
:10262000DC0300200007014010000020002801DA30
:10263000404200B2002901DA494209B2002A01DA17
:10264000524212B2884202DB904200DB01238142F7
:1026500002DB914200DB0223824202DB8A4200DB82
:102660000323184670470246002001235B031146EE
:10267000814089B2994203D8401C00B20D28F6DB94
:102680007047000010B51248002101824182642287
:10269000C282120182820F4A0280AF2292004280DF
:1026A0000D4A82800D4AC2800D4A42630D4A826300
:1026B0000D4C9620E086A18600F01AF8FFF700FC8A
:1026C0001E20A0810520A0730848608610BD000070
:1026D0001802002094110000B80B00001027000021
:1026E00088580000B45800009405002066060000D9
:1026F000F0B5FF4E0A20756B8BB0285EB46BFEF709
:10270000F1FD0746FB49206903F058F86169FEF7BF
:10271000EFFCA169FEF7ECFC3946FEF7E9FCFEF799
:1027200097FD70620020205EFEF7DCFDF24F009006
:102730003946206903F042F8E169FEF7D9FC0099B7
:10274000FEF7D6FCFEF784FDB06201200007696841
:10275000FDF711FEF0620020205EFEF7C3FD009041
:102760003946206903F02AF8216AFEF7C1FC009976
:10277000FEF7BEFCFEF76CFD3063A2896E68642034
:102780004243F117F00849070143D3177007FDF7DB
:102790004FFD0905000B0843D84E6421308368685B
:1027A000FDF7E9FD0004A189FDF7E5FD70832A69C5
:1027B0001921D317009317464904E86802F03DFF3A
:1027C0003A46009BFDF734FDA2890023FDF730FD5A
:1027D0000121C903081A3060C949E868695E02F03E
:1027E0002CFF020F090111430022A25E0001D31742
:1027F000FDF71EFDC349C86464216868FDF7BBFD91
:10280000069004900A20285E0290C0170390049856
:102810000026C017059068690090C0170190A05F5E
:102820000890C0170990324605990498FDF7D8FC26
:10283000019B009AFDF7E4FC039B029AFDF7E0FC84
:10284000099B089AFDF7F4FCAF4A0023FDF7F0FC62
:10285000AE49884202DA761C36B2E4E7A94A9064AF
:10286000D683AB48029000980199C70C2A694E03A1
:102870003E43D31740033146FDF7DAFC80B2069F92
:1028800000260090F8170390A08901903846324640
:102890000399FDF7A5FC012252030023FDF7C8FCB4
:1028A0000023019AFDF7C4FC7D218901884202DAE8
:1028B000761C36B2EAE7C1170023029AFDF7A0FCA6
:1028C0000023009AFDF79CFCCA00410F8B4811437E
:1028D00041601E3E012146738902818200262A69D9
:1028E0000020D31700931746205E8A4902F0A5FE08
:1028F0003246FDF775FC3A46009BFDF799FC0A2726
:10290000EF5FFB173A46FDF793FCA2890023FDF722
:102910008FFC7D21C901884202DA761C36B2DEE7DF
:102920007D4902F08AFE0903000D084373490E3EFB
:102930008860084686730020205E784AA969504363
:10294000FDF70FFD6F4948640020205EFEF7CAFCCA
:1029500006467349206902F031FF216AFEF7C8FB81
:102960003146FEF7C5FBFEF773FC614908630020A2
:10297000205E6C49484302140A200092285E6A498E
:10298000484306147D21A089C900FDF7EAFC674988
:10299000F317888356480021008832460593FDF7D7
:1029A0002FFC2A69D317FDF72BFCFF23009A8733EE
:1029B0005A430092D2170192019B009AFDF738FC0E
:1029C0004B4980B208810490A089FEF7CEF90391AB
:1029D000029047490498498802F047FEFEF7FCF947
:1029E0000022534BFEF706FA039B029AFDF716FFEF
:1029F000FEF76EF93E4932464881084600880021BC
:102A0000059BFDF7FDFB6A69D317FDF7F9FB019BF9
:102A1000009AFDF70DFC87B235488781A089FEF743
:102A2000A4F90646324800914188384602F01DFE5E
:102A3000FEF7D2F900223E4BFEF7DCF93246009B4E
:102A4000FDF7ECFEFEF744F929490822C881084643
:102A5000825E2C480A2382840846C35E29480E26DB
:102A6000C38408460C21415E2648264F0185204834
:102A7000865F244846851E48808842439212BA8564
:102A80001B4AD28853439B12FB8503464B43981243
:102A9000394608867243901248861548254B0289AC
:102AA00016485830028112484189144858304181F3
:102AB0001C30028141811F49642088801D4A0A21FF
:102AC00011837D22D2001A801A461081918111460D
:102AD00008827D20C000888200204880488148828A
:102AE000C881C882C8804883205EA021484323E073
:102AF000180200200046E24600002047740500202E
:102B00000A00000068000020CFFD00001027000030
:102B100010C9000040420F002F880600F266010035
:102B200080908A47CE9300000A6A0100F8020020D4
:102B30000000244034030020010C794E0846B18384
:102B4000FFF791FDF08300230146E35EA02043439D
:102B50001027781AC340B38300203083FFF783FD2A
:102B60007083391AE1200001C84030830A20285EB2
:102B70006C494843800C3080FFF775FD014670803A
:102B80000A20285E674A50431222511AC8403080FA
:102B90000020205E64494843800DB080FFF763FD4C
:102BA0000146F0800020205E5F4A50431622511AF1
:102BB000C840B0806868000C3081FFF754FD708118
:102BC0006B68381AC34033810A21695E5748FDF7A4
:102BD000C8FB010C564E08463180FFF744FD70805B
:102BE00000900A21695E5148FDF7BBFB009902463F
:102BF000781AC24032800021615E4E48FDF7B1FB79
:102C0000000CB080FFF72FFDF08000900021615E86
:102C10004848FDF7A6FB01460098381AC140B1802C
:102C20003F0338466968FDF79CFB81B23181084655
:102C3000FFF719FD70813B46834018466968FDF730
:102C400090FB308112203083FFF70DFD87407083A9
:102C5000E12109013846FDF784FB30830021615EE4
:102C60000A20012741433F033846FDF784FB81B228
:102C7000B1830846FFF7F7FCF08300210246615E4E
:102C80000A20414397403846FDF76BFBB0832A4E3C
:102C90002A49F08E16224843000CF086B08E891027
:102CA00048432749001488800420B0730020205E28
:102CB00069695043FDF75FFB0A21695EFDF75BFB25
:102CC00080B2411EB08113290DD20020205E1D4A22
:102CD00069695043FDF74FFB0A21695EFDF74BFB25
:102CE000B081062010E0142801D300200CE0002061
:102CF000205E154A69695043FDF73DFB0A21695E74
:102D0000FDF739FBB0810A20B0730D490220C8805D
:102D1000A0890A225043800908810BB0F0BD000051
:102D2000540300205B230000181700008DF61C00E0
:102D300074030020B172C50294050020402F0200E8
:102D4000680000206A050000A55600000748002220
:102D5000418E01814260818E0B045B4283610904D4
:102D6000026241610248C26570470000940500207C
:102D700068000020F0B52748857A274901274B8B4A
:102D8000264C0022022D0BD0867AE1252D01012E42
:102D900011D0867A002E19D0817A032926D029E015
:102DA0005B1C9BB27D25ED004B83AB4222D9827226
:102DB00002743C230DE0067C6423012E01D1827253
:102DC0004B83868AAE4215D9827202E0002B02D074
:102DD0005B1E4B830EE0818AA9420BD2017C012944
:102DE00001D0877206E00221817203E02188002968
:102DF00000D182722188002901D003218172817A59
:102E0000012904D0817A022900D18774F0BD82742F
:102E1000F0BD00005C050020300000201000002004
:102E2000704770B5002301252A460C689A4014406B
:102E300094422AD10C79002C04D0012C11D0022C00
:102E400004D006E0046816462643066044689443AE
:102E500044604C79012C0BD0022C10D0002C0BD0EC
:102E60000DE0046894430460466814463443EFE779
:102E700006691446344301E004699443046184699B
:102E80008E68012E05D0944384615B1C102BCBD33C
:102E900070BD1443F8E70000F0B5324F160115027B
:102EA00014030B0002F0F9FB10090D13181E222861
:102EB0002D33373D42484C52571D016A394089181D
:102EC0000EE0016A274AE13A1140711808E0016AF0
:102ED000254A1140691803E0016A0905090D6118C6
:102EE0000162F0BD416A394089180EE0416A1D4A0D
:102EF000E13A1140711808E0416A1B4A1140691813
:102F000003E0416A0905090D61184162F0BD816A5B
:102F1000394089180EE0816A124AE13A114071186D
:102F200008E0816A104A1140691803E0816A0905C6
:102F3000090D61188162F0BDC16A394089180EE03F
:102F4000C16A084AE13A1140711808E0C16A064AAC
:102F50001140691803E0C16A0905090D6118C162D1
:102F6000F0BD0000F0FF0000FFF000000246926894
:102F700000200A4200D0012070474163704701637E
:102F8000704700210160017141718160704700004C
:102F90003EB56846FFF7F5FF0120694608717D20C0
:102FA0004002124C00902046FFF73BFF032209210C
:102FB0002046FFF771FF03220B212046FFF76CFF2D
:102FC00003220C212046FFF767FF03220D21204634
:102FD000FFF762FF03220E212046FFF75DFF032269
:102FE0000F212046FFF758FF3EBD000000080140BA
:102FF0000B4881880B4881831C21415E002901DA3E
:10300000002181831C21415EC28B8918C903090CF0
:10301000C183C28B04498A4200D9C183C08B7047E7
:103020000004014030000020FF7F000070B5174809
:10303000174CC08E01014118A06A091A891208189C
:10304000A06200116082012080022084114802F0F9
:10305000A1FAFEF7FBFA2021615E0F4D4843800A7A
:1030600028600E4802F096FAFEF7F0FA2021615E21
:103070004843800A68600A4802F08CFAFEF7E6FAD4
:103080002021615E4843800AA86070BD2C010020A9
:103090003000002000409C445005002000E0D54452
:1030A00000C0DA447047000010B504460121022038
:1030B00001F0DCF9A078218800040143E07822794E
:1030C0000005120610430143607940060143A079D0
:1030D00080060143E07900070143207A400701435D
:1030E000207C8007014303480160E168C160002142
:1030F000416010BD0003014000B585B001210220F0
:1031000001F0B4F9684600F015F801204002694664
:10311000088000208870C87001200871C87108728A
:10312000034803906846FFF7BFFF05B000BD0000ED
:10313000007C920007490180002181700122C27049
:103140000271C271417181717D220172D200C2602F
:1031500001747047FF03000010B572B62548264978
:1031600088622748254901600F21890241600120BA
:1031700000040168C200114301600121001201F046
:1031800075F9FEF7FFF900F0EFFB02F0CBF9FFF75E
:10319000FFFEFEF7CFFD00F0B7FEFEF790FBFFF756
:1031A000ABFF01F0D9FF642001F072F901210A2080
:1031B00002F08CFA0221072002F088FA0221084668
:1031C00002F084FA0021092002F080FA0221002096
:1031D00002F07CFA0221012002F078FA0A2002F0C3
:1031E00069FA022002F066FA012002F063FA62B680
:1031F00010BD0000837A000080000040B4A60000EB
:10320000000C0140F8B54A4800260079494D0728CE
:1032100011D149480169494881420CDD484800887C
:10322000002808D1288A7D210901884203D3454816
:10323000807A01280DD0AE74FF2101314248FFF79A
:1032400095FEE8743B4C297D404F2034012903D082
:1032500004E00120A874EFE7002803D0A87C01282F
:1032600039D002E0A87C012813D037481021403023
:10327000FFF785FE2E6326703878002854D0E88C3E
:1032800000284BD080B2401E0004000CE88445D0DA
:103290004AE00120207060782D49401CC0B2607067
:1032A000227A012A0CD0632800D966702A20285E71
:1032B00032225043627852088018085C60730DE037
:1032C000312800D966702A20285E3223627858435C
:1032D0004018105CF2E720780128CDD1286B401C03
:1032E000286329793229C7D1698C8842C4D32E63D7
:1032F000607B012806D0144810214030FFF73FFEC4
:10330000267010E0104810214030FFF736FE26707E
:1033100001203870FF204B30E884B3E70A481021C1
:103320004030FFF72CFE3E70E87C2875F8BD0000A9
:103330001C010020F8040020A0020020983A0000A0
:10334000100000205C05002000080140180000204B
:10335000D85800002D4810B50124014604722039C8
:10336000CB7C2038408B0022012B02D0002B05D0D3
:103370001AE0322818D2401C488315E0234B203B2A
:103380009B8B00280BD0142806D2142B04D2C87FA4
:10339000642801D2401CC8774A838A8301E0322B1B
:1033A00005D2888B401C8883888B142801D98C77A0
:1033B000CA77488B142802D98C77CA7703E0C87F74
:1033C000052800D98A7712482221415E114804233A
:1033D000C35E994200DD81804178491CC9B24170C9
:1033E000142912D942700423C35E8168C918816010
:1033F00083785B1CDBB28370102B05D30B11034960
:1034000020310B8282608270828010BD18050020FE
:103410002C01002018000020F8B535491020085E66
:10342000FDF79BFC0022334BFDF7F8F9324A334B92
:10343000FDF7F4F9324A334BFDF7DCFCFDF748FCAD
:103440002B4D0F26403D68652F48002401782F48FA
:103450000029007802D001290AD011E0012835D0D6
:10346000022809D1502000F0DFFCE88624203AE051
:1034700001282BD0022831D0EC862C64AC646C641B
:10348000686DFDF772FC06460F46686CFDF76DFC33
:1034900000221F4BFDF7AEFC00221D4BFDF7AAFCDE
:1034A00032463B46FDF7BAF932463B46FDF7B6F9E0
:1034B000FDF7D8FB00B26864312801D93120686477
:1034C00012480078002800D16C64F8BD352000F067
:1034D000ABFCE8862E646E64AC64D1E75A2000F041
:1034E000A3FCE8862A202864AC646864C8E700006E
:1034F00038050020C0FFDF402F322BD4C67D7E3F31
:10350000CDCCCCCCCCCC0C406400002030000020D2
:103510000050734070470000F8B5214F388A798A0F
:10352000401805B2B88AF98A401804B2388B798BF2
:10353000401806B2324621462846FFF777F8C0B257
:10354000012811D002281CD01649281B4843C1135A
:103550007000401B144A001B5043C013FEF7D4F9FF
:1035600011494018B881F8BD0E49A01B4843C1134A
:103570006800001B0C4A801B5043C013FEF7C4F9BF
:10358000F0E70849701B4843C1136000401B064A1E
:10359000801B5043C013FEF7B7F90449E1E7000070
:1035A00094030020E7490000ABAA00005555000035
:1035B000F8B50024374F384E25463849887A012817
:1035C00063D1C87A072860D2401CC0B2C87202F02A
:1035D0000DF830488038418D49420186818D49423D
:1035E0004186C18D49428186386B80472D492C48E0
:1035F00008632C482C4A403802602C48086329484C
:103600000121803800F096FCB560244A1068B1684A
:103610008142FCD32148807F012813D01D48803887
:1036200045858585C585386B80471E4A1C481063D3
:103630001C491D48403908601C481063B560B068DB
:10364000C828FCD302F088F802F086F8114801215E
:1036500060384176022181762038FDF7C1FF0F489E
:10366000C07A00F07BFD0F480021803800F062FC3A
:10367000B5600A4A5068B1688142FCD3D07A062806
:1036800003D1D5729572FFF747FF641CE4B2062C94
:1036900093D3F8BDAC010020000301409403002047
:1036A000ADDE000080070140FFFF0000CDAB000051
:1036B00010B50A4C6069C00602D4606980060BD55B
:1036C00006480021803800F035FC30206061044855
:1036D000018802221143018010BD000080070140D3
:1036E00010000020F0B51048877C10492C254D5F54
:1036F0002A246A420C5F16B2624213B22E228A5EFC
:103700000B48514209B2002F06D001808280068109
:10371000858103828482F0BD068085800381848157
:1037200001828282F0BD00005C0500202C01002097
:103730000007014070470000F8B50D46064601211C
:10374000102000F093FE30468149803001636A7991
:10375000297992001143AA7AEB7A12015B011A438C
:103760001143AA7992011143EA79D20111432A7BCC
:10377000120211436A7B52021143F16729883163B7
:1037800069887163E98B3162298C7162698CB162DD
:10379000A98CF1622989316729462031CB7D8A7D48
:1037A0005B001A438B7FEC8A9B01E40123431A439D
:1037B0000B7E1B021A434B7E5B021A43CB7F9B039B
:1037C0001A432B8BDB031A430262CB7E8A7E5B009B
:1037D0002C461A43403423786F8B9B01FF013B43F7
:1037E0001A430B7F497F1B021A4349020A4361783F
:1037F00089030A43A98BC9030A434262A27B217B46
:1038000092001143A27AE37A12015B011A43114339
:10381000627B52001143E27BD2001143227CD20131
:103820001143227E12021143E27D52021143A27E15
:1038300092021143627ED2021143227F120311438E
:10384000E27E520311438162627DE17C920011436A
:10385000627CA37C12015B011A431143227D52005A
:103860001143A27DD2001143227CD2011143627F19
:1038700012021143A27F52021143C1622279A17840
:10388000120111436279237A52019B011A431143B9
:10389000E27812021143A27912031143E279520332
:1038A0001143627A920311437167E98C3165298D66
:1038B0007165A18EB167E989B164298AF164122129
:1038C000695EB1631421695EF16360352A78E17F36
:1038D000520011436A78AB789202DB021A4311431B
:1038E00001602A79E978520011436A79AB79920232
:1038F000DB021A4311438160E97B2A7C09015201F2
:1039000011436A7C92011143AA7CD20111430161E7
:103910002A7AE979520011436A7AAB7A9200DB0085
:103920001A431143EA7A120111432A7B52011143CF
:103930006A7B92011143AA7BD2011143816105493F
:1039400031644160C160416103490163F8BD000019
:10395000ADDE0000FFFF0000FECA000010B57621BA
:10396000FCF7FBFC10BD000000B59FB06846FFF7F8
:10397000F5FF00206B461871012159719971D971B9
:10398000D882188358831C4A10AB9A860C226B4647
:103990001A725972194A1A805A80184A143ADA83EC
:1039A000174A1A844C22DA841A855A859A85DA8550
:1039B0001A8608AB9875D8750E909877D87710ABA3
:1039C0001870D87516901877187419715871997104
:1039D000D871D87718ABD873197410ABD9725973E2
:1039E000D87369460748FFF7A7FE06488030006A8B
:1039F000054988831FB000BDFF1F0000760400004A
:103A0000AAFE000000070140940300200449088E2C
:103A10000007000F4873032800D300200870704788
:103A200030000020F8B52D4D16222D4CAA5E2284C0
:103A30001421695E6184E88E2A4B2A4E58432B4636
:103A4000DB8E001473431B145B42824201DD02468D
:103A500002E09A4200DA1A4612B22284814201DD63
:103A6000014602E0994200DA194640435243801A67
:103A700009B21D4A61841063506B002900B201DB5A
:103A80000A4600E04A42824203DD002900DC40424F
:103A900060841648A16B006A4018001401F06AFBAC
:103AA000E8611C221E21AA5E2026695E2220A65FF4
:103AB000205E17460B4677434343FB1A714342434C
:103AC0008818C01301B2E06BDB131BB24343DA1357
:103AD00041432A83C8136883F8BD00002C010020ED
:103AE0006800002000130100000B014018020020B4
:103AF00070B52821944CC84201DC944813E001467B
:103B00002731934E934D1D290FD82830FDF725F905
:103B10003246914BFDF76EF900222B46FCF77EFEF4
:103B200000228E4B08E1206170BD01460931092950
:103B30000AD80A30FDF711F9854A894B521EFDF764
:103B400059F90022874BF7E0411E1D290CD8FDF7DB
:103B500004F9854A854BFDF74DF900222B46FCF709
:103B60005DFE0022824BE7E0014600251F39ED4350
:103B700013290DD81E38FDF7F0F87E4E7E4B3246E5
:103B8000FDF738F92A46FDF759FA32467B4BD3E068
:103B90000146333909290AD83238FDF7DEF8784A68
:103BA000784BFDF727F96A4A774BD243C4E00146C8
:103BB0003D3909290AD83C38FDF7CFF86A4A734BDA
:103BC000921EFDF717F93246714BB5E001464739B1
:103BD000092909D84638FDF7C0F86E4A6E4BFDF743
:103BE00009F900226D4BA7E00146513909290AD88D
:103BF0005038FDF7B2F86A4A6A4BFDF7FBF85D4AA8
:103C0000694B521E98E001465B39684E09290AD873
:103C10005A38FDF7A2F83246654BFDF7EBF84C4AEF
:103C2000644B521C88E001466539092909D864387B
:103C3000FDF793F8604A614BFDF7DCF8604A614B91
:103C40007AE001466F3909290AD86E38FDF785F800
:103C5000564A5D4B921CFDF7CDF85C4A5C4B6BE01D
:103C600001467939092909D87838FDF776F8594A93
:103C7000594BFDF7BFF8594A594B5DE0014683396E
:103C800009290AD88238FDF768F8544A554B921E24
:103C9000FDF7B0F8544A554B4EE001468D390929DD
:103CA0000AD88C38FDF759F8514A524BFDF7A2F863
:103CB0004A4A514B52423FE001469739092909D8F7
:103CC0009638FDF74AF84D4A4D4BFDF793F83246CA
:103CD0004C4B31E00146A139092909D8A038FDF73C
:103CE0003CF8494A494BFDF785F80022484B23E050
:103CF0000146AB3913290DD8AA38FDF72EF8454AED
:103D0000454BFDF777F82A46FDF798F91C4A434BD7
:103D1000521E11E00146BF39132912D8BE38FDF7F3
:103D20001CF8364A3E4B5242FDF764F82A46FDF72E
:103D300085F91B4A3B4B521CFCF740FDFCF792FFF8
:103D4000F1E60520EFE6000018000020177C0000D7
:103D500099999999000008409995A4C0C005DF4041
:103D600099396BC0002BB54052B81E85EB796EC0F7
:103D70000052A94034333333333346C033178940BC
:103D80002085EB51B81E26C0666E7640EB511DC0F3
:103D900099096F40E27A14AE47E113C000E0654034
:103DA00084EB51B81E850BC033535F405C8FC2F566
:103DB000285C03C099B95640480C022B8716FBBFFC
:103DC000CDCCCCCCCCAC5040285CF3BFC3F5285C48
:103DD0008FE24840A8C64B378941ECBFF6285C8F7C
:103DE000C2D54240C2F5E4BFD7A3703D0AD73C40DC
:103DF0005C643BDF4F8DDFBF3D4A3640E8FBA9F1F5
:103E0000D24DD2BF285C3140D022DBF97E6AD4BFCC
:103E100000002D40F4FDD478E926D9BFB89E264095
:103E20002DB2CDBF1E851D4010B5FFF761FE0B4CB6
:103E3000E060FCF792FF0022094BFCF7BFFC002278
:103E4000084BFCF7BBFC02460B4600200649FCF77A
:103E5000E5FCFCF707FF00B2E08010BD1800002071
:103E60000080494000005940565C51410248002101
:103E7000C160816181607047F802002030B50D4853
:103E80000D4A0E4B047998691169042C0DD20C4D22
:103E900014682D8B64106C43DD696419DC61186251
:103EA000516008490120087030BD18625160D86126
:103EB00030BD00001C010020A002002018020020DC
:103EC00074050020680000200421415E8268C9005A
:103ED0008A4206DA0023C35ED21882608A4200DB7F
:103EE000816082688A4206DD0223C35ED21A826044
:103EF0008A4200DA81608268D310C3808A4201D18D
:103F0000012070470020704710B50121480200F0E1
:103F10008BFA074905488862C80501698908890044
:103F20000161016901221143016110BD837A000022
:103F300080000040074A803002630129816A05D071
:103F4000054A1140816205490163704740221143CF
:103F5000F8E70000ADDE0000BFFF0000FECA000071
:103F6000144A106A0021C3071348002B08D001230C
:103F70001362C38113690360D36883608182C18245
:103F8000136A5B0714D504231362C289002A01D087
:103F9000818206E0094A9268920504D5828A521C01
:103FA0008282C18203E0C28A521CC2828182C181A4
:103FB0007047000000050140D804002000080140BF
:103FC00070B5214D214869890181A9894181002469
:103FD0001F4A18210460515E621F51438910C4605A
:103FE00041606C82AC82143004601A49C460416044
:103FF000E9890181298A41811449174838390A46DB
:10400000434209C11C32D46009C20B463220603BD6
:104010004C60D882114806890E8046894E8081897D
:104020001180C18951806C650D4AAC651168E965E4
:10403000846111612C651C610A212C66C187AC6307
:10404000FEF784FE6C8070BD68000020040600202E
:104050006C010020E0FCFFFF000070171802002038
:10406000A0020020F0B5354E1A213046415E1E22D6
:104070007588825E846CC36CC9003148AC46012DE2
:104080000068304D41D040350E27EF5F67437C1309
:104090001027EF5F5F437B13C91A60431041081874
:1040A00029494042884202DC4942884200DA0846F7
:1040B000F082308322481821C28B715E036A4A4322
:1040C0009A180262838B52134B4319138A180260A9
:1040D000C18E8A4202DC0160490301620068F16D11
:1040E0000203521A92115118F165184A091311610D
:1040F0001349174A2039498B4843716B091871637A
:1041000091616146002907D007E00C27EF5F674304
:104110007C130E27EF5FBDE70020B063308C708307
:10412000084A16201421105E515E4043494341184D
:1041300008480163406B08490882F0BD6800002010
:10414000940500202C010020E02E0000A002002099
:1041500018020020000B0140F802002010B515499C
:10416000154B8C7F00229A5E012C0DD00221595EE6
:104170001B885B185B421CB2030001F08EFA070833
:10418000090C0F121518080040004018C28110BD1C
:104190000848028210BD0748428210BD054881824E
:1041A00010BD0448C18210BD0248048310BD0148FF
:1041B000448310BD940300202C010020FEB501248F
:1041C0006D46089B2C72344C324DA562334C01264F
:1041D0003604A34250D1304C314D40346561314DED
:1041E000314C6B4063401C68304D2C401C6070604B
:1041F0001C68F5022C431C60C91C8F08BF001346C5
:104200000097019015E0019989088900716019787B
:104210005C78240209199C78DD7824042D06641941
:104220000919B1600099091F00910199091D1B1D11
:10423000019100990029E6D10097019019E00198B9
:10424000800880007060107853781B02C018937843
:10425000D4781B0424061B19C018F368834201D0CC
:10426000684601720098001F00900198001D121D01
:10427000019000980028E2D10749002040314861B0
:1042800031680B4A11403160034988626846007A00
:10429000FEBD0000837A0000800000400CA4FD9A5F
:1042A000358F00000F045C6A03A0A0F0FF7FFF7F42
:1042B000FFF7FFF770470000FCB5418B1823494218
:1042C0000AB24283C35E69460B80494902254A43CC
:1042D000990351184942CA17520C5118C9130CB20C
:1042E00069464C80191949420AB269468A800146DA
:1042F0002031A3421CDC93420BDC944204DC0126F7
:104300004E760E76164602E04D760D7626469E19BE
:104310001EE01619F70FBE1976109B1B6F463B80E7
:10432000A31B7B80921BBA8003224A760D7629E07C
:10433000944218DC934205DC04264E7601260E7664
:10434000164604E005264E7603260E761E46A6196E
:10435000F70FBE1976109B1B6F463B80A31B7B801B
:10436000921BBA800EE0D618F70FBE1976109B1B71
:104370006F463B80A31B7B80921BBA8006224A7645
:1043800003220A76AC2300221B58BA5E0124A40340
:104390009E8912197243D213643E964201DA324664
:1043A00002E0392A00DA002242850222BA5E9E89A2
:1043B00012197243D213643E964201DA324602E089
:1043C000392A00DA002282850422BA5E9B891219FA
:1043D0005A43D213643B934201DA1A4602E0392A67
:1043E00000DA0022C285012048768D76FCBD0000EF
:1043F000DA6E00003EB50A4B1A886C4622804031C6
:10440000CA8824889B89121B6C46238009899BB229
:10441000A280C91AE180062201A9FBF741FF3EBD37
:10442000000401407047000010B50F4C0D4AA26215
:1044300023151A0501290BD0410503D5116919432C
:10444000116118431169814311610020A06210BD00
:10445000410503D5116999431161984311690143DD
:10446000F2E70000837A000080000040074A064B14
:1044700093620029D16901D0014300E08143D161F9
:104480000020906270470000837A000080000040A6
:1044900008B500210091814202D200BF491CF9E712
:1044A00008BD000010B506C8891A084AC16108385D
:1044B000914202DC5242914200DA114641621830C8
:1044C00000F01CF80249C88110BD0000FF7F000009
:1044D0006C0100200268C1688A4205DA836BD21839
:1044E00002608A4200DB016002688A4205DDC36B1C
:1044F000D21A02608A4200DC01607047FEB5016892
:104500000446C8178A0A80051043009060688F052A
:10451000C117820A86058D05E0681543C11702910F
:10452000019062890023FBF76BFEE161A0612369C2
:1045300062691B184A41236162610098F91A90412F
:1045400003DA00982761606104E0981BAA4101DA50
:10455000266165612289002302990198FBF750FECC
:10456000420EC90111432269C00163698218594191
:10457000A261E1610098BB1A884103DA0098A76143
:10458000E06104E0901BA94101DAA661E561217FA9
:10459000A0698902800D084300B2FEBDC16842696E
:1045A000C9018A4206DA1023C35ED21842618A42E8
:1045B00000DB416142698A4206DD1223C35ED21AE2
:1045C00042618A4200DC41617047000070B51548C5
:1045D0000024154A04600220105E144B411C144D47
:1045E00009B20A2802DA5180988803E0142803DA15
:1045F00051801888A88003E00E4904200871548077
:104600000D4E304600F0B6FF2880304600F0B2FF75
:1046100068800748FFF758FC0848C48144828482B8
:10462000048270BDA0020020B403002058020020C4
:104630001C0300201C0100200AD7233C6C01002031
:10464000F8B53B4D3B4FA87B3E4680360024002802
:104650000BD03949394B085F39493A4A002814D000
:10466000642822D0C82826D02CE00120A873FF207F
:1046700057307885B885F885404238867886B88680
:10468000306B80472C48048025E00B63908B2E4BC9
:1046900018430862908B0C22104348620C63284830
:1046A00001218038FFF746FC0BE00B63908B274A13
:1046B0001043086204E00B63908B082210434862A9
:1046C0000C6300BF1C490020085EFF222D3290427F
:1046D00010DA401C0880E87B01280AD11648AC7328
:1046E0000480EC7300F0AAF8154801218038FFF728
:1046F00021FCF8BD124800218038FFF71BFC72B680
:104700007C85BC85FC853C867C86BC86306B80477E
:104710000B49FF2040390860FFF726F90C48416932
:10472000C2141143416162B60120E873D6E700006C
:10473000580200202C010020B4030020ADDE000050
:104740008007014094030020080C00000C080000C2
:104750004004014070B51A4D1A4C688800280AD0F0
:10476000012811D0072602281FD0032822D00428B0
:1047700000D1267170BDFCF7EBFEE0880028F9D16E
:1047800001206880642018E0E0880028F2D1E078F9
:104790000028EFD00C48C068642801DA022000E04D
:1047A00003206880FCF7BEFE70BD01210748FFF7BB
:1047B000C1FBDEE7042068800520E08070BD0000BA
:1047C000000000201C010020F8020020000701402A
:1047D00010B505490020C87001460448FFF7AAFB40
:1047E000FDF73AFD10BD00001C010020000701404C
:1047F00070B50F4800F0CEFEFCF728FF0D4C0E4DB3
:10480000E060284600F0C6FEFCF720FFA0632846C3
:1048100000F0C0FEFCF71AFFE0632046FFF75AFEE7
:104820002046FFF73FFEFDF793F9FDF7B1F970BDA4
:104830000040E544A002002000004040F8B50021FF
:104840008448FFF777FB844800F0A4FE8349088280
:10485000834800F09FFE81490024488281487821E6
:10486000847701847F490C204884084684804480F2
:1048700004808460846144610482C460FFF7F6FAB6
:10488000794F7648BC708473C473002000F060FEDA
:104890007249764D8881284600F06CFEFCF7CEFE0A
:1048A0006E498882284600F065FEFCF7C7FE6B491A
:1048B000704DC8826E48288068802E46A880803659
:1048C000306B8047284640300482C481EC81AC8143
:1048D0002C826C82848244822C806C80AC802C86FA
:1048E0006C86AC86B4613462EC6774602C836C8334
:1048F000EC82AC82AC84EC842C85002000F03AFE83
:10490000564908605C4800F035FE544948605B48F1
:1049100004824482446184808460C480584800F0EA
:1049200039FE4E49584D886008468477848355483F
:10493000574E44800A20F8807D2040012884534847
:1049400068840020A862E862304600F013FEFCF79D
:1049500075FEA861304600F00DFEFCF76FFE6C623C
:104960002C6040424B4EEC60E861304600F012FE95
:10497000FCF76CFEA863304600F00CFEFCF766FE08
:104980006C606C64E863344800F004FEFCF75EFE83
:104990002864FF200130A8643F48007C002807D12C
:1049A0003E4800F0E7FDFCF749FE29464031C8814A
:1049B0003B4800F0EFFDFCF749FE2865394800222E
:1049C00004600262846005214262018304614461E3
:1049D000FFF7F6FA2A4800F0DDFDFCF737FE324912
:1049E0008887324800F0D6FDFCF730FE1B4DE863A7
:1049F0002F4800F0CFFDFCF729FE28642D480480E5
:104A000044808480C480048144818481FDF770FBEC
:104A100000257D5FFCF7B6FD3888401B388801D43F
:104A2000401B00E0281A0228F6DB2348F021C18051
:104A3000C82101814181AA21818144840146848465
:104A400040310C734C738C73CC7320390C7332214E
:104A50000171F8BD0007014000002041580200200C
:104A60000000A041F80200201C010020CDCCCC3D6C
:104A70003B0200002C010020CDCC0C3F1C03002089
:104A80000000704200000020A0020020701700000B
:104A9000CDCC4C3F000040405C050020CDCC0CBF8D
:104AA0000000AF4368040020180200200000F0411D
:104AB0000000FA43B4030020F8040020F8B52E4D9E
:104AC000A87F002857D12D4C2846A17880682C4E0D
:104AD000002900D04042F060002000F05BFD3082F1
:104AE000284800F057FD70822548FFF757FD706990
:104AF000254EC011F060FCF7A9FD306023488169A4
:104B0000C069081A286200D5404200142049286272
:104B1000401820490026884203D2A88C401CA88453
:104B200000E0AE84072020710120A877A1781A4800
:104B30001A4C002902D0012905D00AE000F01AFD24
:104B4000FCF77CFD04E000F015FDFCF777FD40422A
:104B50006082134F384600F00DFDFCF76FFDA88210
:104B6000384600F007FDFCF769FDE882FCF7F0FF2E
:104B7000FDF70EF8A682F8BD580200201C010020A7
:104B80001C0300200000A041A00200201802002009
:104B90002FF8FFFF7F3E0000CDCC0C3F6C010020C2
:104BA000CDCCCC3D10B5174C0120A0720021E17294
:104BB0000220A077302020604B2040016060124826
:104BC0002081124841614169C2141143416172B6AA
:104BD000FEF7EEFC62B6FCF7D5FCFEF7C5FE0C480E
:104BE0000C4980780C4A002807D0012804D1A089FC
:104BF0008989401A0004D06110BD8889A1894018B4
:104C0000F8E700009403002076040000400401400F
:104C10001C0100205802002018020020F8B5704B3B
:104C20000C21595E6F4F704E704D714C022910DA95
:104C300070480088012809D12869002800DA40421C
:104C40003A6C904202DD491C998170E00020988105
:104C50006DE006206549185E496802280CDA401CA0
:104C6000D8800E20205EC217830A92051A43EA629A
:104C700080052960A8625AE0BA8B521C12B2BA832E
:104C8000002A40DB0022BA8302280DD10320D880FD
:104C90001220205EC217830A92051A43EA62800539
:104CA0002960A862FCF774FF5348827A5349012AAD
:104CB00003D0807A022805D006E0514800788000B1
:104CC000085800E00868E8604E488078002802D064
:104CD000012804D008E0E868002803DB04E0E86865
:104CE000002801DD4042E860307801281AD0012018
:104CF00070703E48FFF7EEFB3C48FFF7D3FBFCF734
:104D0000ADFC414908804148817F39484030012944
:104D100010D03949897A00290CD0296900292FDB64
:104D20000A462EE03A490020088037490880FCF7FF
:104D30002FFFE8E7818F2187C18F61872C49803160
:104D40000A8B8282498BC1822B48007C274F4037D7
:104D5000012806D12F4800F00DFCFCF76FFC8010F5
:104D6000F881F8896082012030702869002800DA13
:104D70004042296D88422CDA22480921017128E03D
:104D80004A42254D254BAA420BDC9A892287DD89B0
:104D9000658719898182C182B180F18032817581F4
:104DA00015E0002900DA49421D4A91420FDB99893A
:104DB0001C4A5143090C2187D9891B4A5143090CCC
:104DC00061871989174A5143090C8182C1820020E9
:104DD00030700D480088A082FCF7BAFEF8BD0000D4
:104DE000B40300205802002000000020A002002090
:104DF0006C0100206A0000205C05002050050020A6
:104E0000640000201C0100207A000020F80400202B
:104E10007C000020CDCC0CBF7017000018020020D1
:104E20001027000000EE020000C4090006490A2015
:104E3000085EFA2802DA401C488170470020488149
:104E400002490871C8707047B40300201C0100209B
:104E500070470000F8B53F4C3F4F20793F4E00258A
:104E6000030000F01AFC0E08231D2F32202B3559A9
:104E70004C4F53594959B87F002809D13848807A96
:104E8000002805D00120E07037493648086002E06C
:104E9000E078002843D0FFF7D1FC022020713BE0EE
:104EA000FFF7CEFB0CE0FFF755FC35E0FFF7C6FC43
:104EB00001212E48FFF73EF80320EFE7FFF772FECF
:104EC0000120EBE7FFF782FB26E0FFF7F7FD23E089
:104ED000388A7D210901884201D2401C3882FFF7BF
:104EE0009DFEE078002824D13088002817D10021C9
:104EF0001E48FFF71FF80EE0FFF77AFC0CE0FFF703
:104F000095FF09E0E088002805D105E0FFF760FC87
:104F10003088002800D12571E078002809D1308838
:104F2000002806D100211148FFF704F8C820E080CE
:104F300025713088002805D000210C48FEF7FAFFC3
:104F40000B202071B87F012802D10948858645864B
:104F5000F8BD00001C010020F80400201000002013
:104F60005C050020C0DA0000580000200007014066
:104F7000DC03002000B5FCF7A7FD00BD10B5FEF76F
:104F8000EFFF10BD0A48016A04221143016209487B
:104F9000C178491CC1700179491C0171C188491C43
:104FA000C1800189491C01814189491C41817047A7
:104FB000000601400C01002070B5054627480C464C
:104FC000854203D101212020FFF750FA2448854271
:104FD00003D101214020FFF749FA20782179C00749
:104FE000C9060843217A89060843217B090608433C
:104FF000218A09050843A18A09040843E1690903D4
:105000000843216AC9020843616A89020843A16A08
:1050100049020843E16A09020843616B0901084338
:10502000A16BC9000843E16B89000843216C49006A
:105030000843616C08432860A0696860E06CA86060
:10504000A06CE860206B2861206D6861606DA861CC
:10505000A06DE8610720286270BD000000050140D6
:10506000000601400021016041608160C160016172
:1050700041610122C261816141628162C162016359
:1050800002624163C163016441648164C16401657A
:10509000416582638165704770B5274D0024E878CB
:1050A000002802D0EC7000F0A2F82879022819D369
:1050B000224E2C71F088002801D0401EF080FCF7B1
:1050C000A5FF00F0A5F8FDF7B1FF1D4800880028F6
:1050D00001D00B203071FFF7BDFE1A492220085E77
:1050E000FCF732FEE888142802D3EC8000F080F848
:1050F0002889154EC82805D32C81B07C012801D100
:10510000FEF78AF968891149884210D310486C81EA
:10511000818A104A914202D2818A491C8182B17FE0
:10512000012900D1848200F03DFB00F079F8A878D5
:10513000002800D0AC7070BD0C0100201C010020C4
:10514000100000202C010020F8040020EE020000D6
:105150005C0500208813000010B5054903488862EB
:1051600001210803FFF760F910BD0000837A0000F9
:10517000800000400121C903411809048A0D032160
:1051800009020A40012118B5C90340188004010E24
:105190004800FF24611A144B4900002A16D0FF3A38
:1051A000521E1AD0FF3A521E03D0FF3A012A0BD1E9
:1051B00004E0185A6A465080585A04E0595A6A4620
:1051C0005180185A07E01080009818BD185A6A4696
:1051D00040425080585A4042F5E7595A6A4649427F
:1051E0005180185AEFE700009C620000704770473A
:1051F00000B5FDF7BFFDFDF7FBFE034988818889F7
:105200000249088700BD00005C050020F80400206A
:1052100010B500F097FAFEF79DF8FCF72DFE10BDD3
:10522000F8B589490024C879401CC0B2C871022869
:105230007ED30846854DC4713821695E3623EB5E06
:105240002E463A250A46755FFF325F320126AC468C
:105250009A425BDD6A1A7D252D017D2755197F0154
:10526000BD4201D91E224FE07D25ED0057196D008A
:10527000AF4201D90A2247E0E125AD00E1275519E7
:10528000FF00BD4201D909223EE019256D01192711
:105290005519BF01BD4201D9082235E0AF25AD0047
:1052A000AF275519FF00BD4201D907222CE04B253D
:1052B000ED0057196D00AF4206D81546FF357D2722
:1052C000F535FF00BD4201D906221DE01546FF3528
:1052D000192791357F01BD4201D9052214E01546F9
:1052E000FF354B272D35FF00BD4201D904220BE0CD
:1052F0001546FF27C8359137BD4201D9032203E087
:105300006432C82A16D90222027214E04B25CA1A46
:10531000ED0057196D00AF42E8D81546FF35192743
:1053200091357F01BD42E9D87D10C832AA4200E024
:105330005AE0E8D80672454F3E257D5F3A6C9542AB
:1053400002D0954200D9C670FA878C4500DAC47045
:105350003E4D6A6C009212B294462A22AA5E4035F3
:1053600099421DDA3A4F5B1ABB4203DD374A604669
:10537000508513E02B7B002B0BD0AB7B5B1CDBB28F
:10538000AB73042B22D9AC73007A304B10185885BC
:105390001CE0007A2D4B101858852E736C7315E0A5
:1053A0002A4F994212DDC378012B3CD02C736B7BC2
:1053B000002B41D0EB7B5B1CDBB2EB73032B05D9DD
:1053C000EC73007A824201DB101A78851F482A228A
:1053D000825E002A00DA44852A23C35E009A934243
:1053E00001D9624642854187174D6879012819D154
:1053F0002878002800D0A87014482C704485A8791B
:10540000401CC0B2A8711E280CD96C71AC7100216F
:105410001048FEF78FFD104801888022114301805B
:10542000A8782870F8BD0279521CD2B20271162AEF
:10543000CCD9C4700471C9E7007A824201DB101A2A
:1054400078856E732C73C1E730000020F8040020CB
:10545000DC0500000007014010000020FEB5684692
:10546000FDF78FFD254D40212846FDF786FD234E93
:105470000221403E3046FDF780FD08213046FDF711
:105480007CFD012468460471447140200090694607
:105490002846FDF7C6FC6846047144710A20009056
:1054A00069463046FDF7BDFC40212846FDF765FD05
:1054B00002213046FDF761FD08213046FDF75DFD14
:1054C0000021684601714171200200906946304612
:1054D000FDF7A7FC10212846FDF751FD6846FDF7B2
:1054E00050FD684604711020009069462846FDF77B
:1054F00098FC10212846FDF742FDFEBD4008014002
:1055000000B5064800218174817281823F204002EB
:10551000034900680863FEF779FA00BD5C050020C6
:105520003000002000B597B06846FFF79BFD0120D2
:105530000090054806900420169069460348FFF73E
:105540003BFD17B000BD0000C05D0000000601403B
:1055500070B5074C0546208BFBF7CCFE294600F0C2
:105560002DF9FBF775FEA17E084180B270BD0000E9
:105570003403002070B5064C05462088FBF7BAFEC0
:10558000294600F01BF9FBF763FEA178084170BDC6
:105590003403002070B5064C05462089FBF7AAFEAF
:1055A000294600F00BF9FBF753FEA17A084170BDC4
:1055B0003403002010B5FBF771FD074A074BFBF7DA
:1055C00019FC0022064BFBF715FC064A064BFBF7BD
:1055D00025F9FBF747FB10BD2F322BD4C67D7E3F4C
:1055E000C0FFDF40CDCCCCCCCCCC0C4010B5104BA8
:1055F0000821595E00240F4A030000F04EF80717F7
:1056000005080B0D0F131700518594850CE0548588
:10561000918505E0548506E0518500E05485948528
:10562000D18510BD51859185D48510BD5485ECE799
:10563000940300202C0100207047F8B504148BB2AD
:10564000264682B25E430D14104637145843360482
:1056500080190021794116466E43371436048019AB
:10566000794126466E438919F8BDF8B5040C8BB212
:10567000264682B25E430D0C1046370C5843360462
:1056800080190021794116466E43370C3604801983
:10569000794126466E438919F8BD30B47446641EBC
:1056A0002578641CAB4200D21D46635D5B00E318A5
:1056B00030BC1847002805DBC106C90E0120884010
:1056C000014908607047000000E100E08307FF2205
:1056D000DB0E9A408907090E9940002808DB8308F1
:1056E00009489B001818036893430B4303607047F5
:1056F0000007000F0838830804489B001818C36986
:1057000093430B43C361704700E400E000ED00E009
:1057100009488168021411438160FFF79FFEFDF77D
:105720001BFD00F02DF8FFF7EBFE0549034808804C
:1057300062B6FFF7B1FCFCE780000040C40900003E
:10574000CE0000200248808A02490882704700008B
:10575000000401403000002007484169C214114391
:10576000416106498161C16AC907FCD0C16A03224F
:105770001143C1627047000040040140A55A000077
:1057800010B5FCF751FAFCF77DFFFCF7B1FCFCF714
:10579000A9FD03490148C86010BD00006C58000015
:1057A0000C01002004494A7B0878824203D04873E8
:1057B000C8620120887370473000002070B5420035
:1057C00064414B005C41120E39D01B0E38D0FF2AC9
:1057D0003CD0FF2B3AD040024902400A490A060059
:1057E00045184E43000A090AD2184843ED017F3A92
:1057F0000104731A4019190C4318990F04D00121A0
:105800005B0849075B1A521CD80904D3401CF503F6
:1058100001D19D0607D0FF2A08D2D50506D0E4079E
:105820002043401970BD0125A843F4E7002A01DC9C
:10583000E00770BD2402FF202043C00570BD1B0E91
:10584000FF2A03D0FF2B01D0E00770BDFF264500E3
:105850003606B54206D84D00B54203D8D218FF2A05
:1058600000D0E7E7004870BD0000C07F5665725F5A
:10587000332E39000000000000000000000000008E
:10588000000076047B02000000000000E0930400AA
:105890000100080038B50300D2070000E10800004D
:1058A0008E0000000000000000000000000000006A
:1058B000000000001C0C000000004006E093040003
:1058C0000852000066666640CDCCCC3DCDCC104180
:1058D00037EEF33B5E06A33B000000000000000033
:1058E00000000000000000000000000000000000B8
:1058F00000000000000000000000000000000000A8
:105900000000000000000000000001000000000096
:105910000000000000000000000000000000000087
:105920000000000100000000000000000000000076
:105930000000000000000000000000000100000066
:105940000000000000000000000000000001000056
:105950000000000000000000000000000000010046
:105960000000000000000000000000000000010036
:105970000000000000000000000001000000000026
:105980000000000000000001000000000000000016
:105990000000000100000000000000000000000006
:1059A00001000000000000000000010000000000F5
:1059B00000000000010000000000000000000100E5
:1059C00000000000000000000100000000000000D6
:1059D00000000100000000000000010000000000C5
:1059E00000000100000000000000000100000000B5
:1059F00000010000000000000000000100000000A5
:105A00000000000001000000000000010000000094
:105A10000000010000000000000100000000000084
:105A20000100000000000001000000000000010073
:105A30000000000000000100000000000001000064
:105A40000000000100000000000100000000000153
:105A50000000000000000100000000000100000044
:105A60000000010000000000010000000000010033
:105A70000000000100000000000100000000010023
:105A80000000000001000000000100000000000113
:105A90000000000001000000000001000000000103
:105AA00000000000010000000001000000000100F3
:105AB00000000001000000000100000000010000E3
:105AC00000000100000000010000000001000000D3
:105AD00000010000000100000000010000000100C2
