:020000040000FA
:10000000500D0020810100008F01000091010000CF
:1000100000000000000000000000000000000000E0
:10002000000000000000000000000000930100003C
:10003000000000000000000095010000C156000013
:10004000DD570000E1570000353C0000B93C0000DE
:1000500089370000E54B000005300000F132000058
:10006000355A0000B5180000F1150000931D00007E
:10007000CD5D0000554D00000000000000000000B4
:100080000000000000000000000000000000000070
:100090000000000000000000000000000000000060
:1000A0000000000000000000000000000000000050
:1000B0000000000000000000000000000000000040
:1000C00000F002F800F030F80CA030C8083824180E
:1000D0002D18A246671EAB4654465D46AC4201D180
:1000E00000F022F87E460F3E0FCCB6460126334282
:1000F00000D0FB1AA246AB4633431847A46C00005D
:10010000C46C00000023002400250026103A01D30F
:1001100078C1FBD8520700D330C100D50B607047BF
:100120001FB51FBD10B510BD01F0D6F91146FFF780
:10013000F7FF05F0B7FE01F0EEF903B4FFF7F2FFA9
:1001400003BC01F023FA000070B505460C461646C4
:1001500002E00FCC0FC5103E102EFAD2082E02D3AB
:1001600003CC03C5083E042E07D301CC01C5361FBE
:1001700003E021782970641C6D1C761EF9D270BDD5
:10018000094880F308880948804709480047FEE786
:10019000FEE7FEE7FEE7FEE7FEE70000054806494A
:1001A000064A074B70470000500D0020D55700004D
:1001B000C100000050070020500D00205009002011
:1001C0005009002010B5202A04DB0146203A914056
:1001D000002010BD914020239C1A0346E3401943A0
:1001E000904010BD10B5202A06DB0846CB17203AF8
:1001F0001041C1170B4306E00B4620241341D040A9
:10020000A21A91400843194610BD4343514330B5EB
:100210005C18010C130C0D4692B25D4380B2514341
:100220002C19054655430A0C09044D1962415843DF
:10023000010C00044019514130BD70B500252C4619
:10024000AD1A9C4112DA00252C462D1A8C4102DA97
:1002500001F057F870BD002440428C41214601F066
:1002600050F8002440428C41214619E000252C46DC
:100270002D1A8C410ADA002452429C41234601F097
:1002800040F8002440428C41214670BD0024524277
:100290009C414042234600248C41214601F031F824
:1002A000002452429C41234670BDF8B5042A2CD349
:1002B000830712D00B78491C0370401C521E830721
:1002C0000BD00B78491C0370401C521E830704D0CE
:1002D0000B78491C0370401C521E8B079B0F05D0E6
:1002E000C91ADF002023DE1B08C90AE0FFF72CFF34
:1002F000F8BD1D4608C9FD401C46B4402C4310C043
:10030000121F042AF5D2F308C91A521EF0D40B7832
:10031000491C0370401C521EEAD40B78491C037020
:10032000401C012AE4D409780170F8BD01E004C042
:10033000091F0429FBD28B0701D50280801CC90745
:1003400000D00270704700290BD0C30702D00270A2
:10035000401C491E022904D3830702D50280801C59
:10036000891EE3E70022EEE70022DFE7002203090F
:100370008B422CD3030A8B4211D300239C464EE0C0
:1003800003460B433CD4002243088B4231D303097C
:100390008B421CD3030A8B4201D394463FE0C3092E
:1003A0008B4201D3CB01C01A524183098B4201D346
:1003B0008B01C01A524143098B4201D34B01C01A31
:1003C000524103098B4201D30B01C01A5241C308A9
:1003D0008B4201D3CB00C01A524183088B4201D318
:1003E0008B00C01A524143088B4201D34B00C01A04
:1003F0005241411A00D201465241104670475DE019
:10040000CA0F00D04942031000D34042534000229B
:100410009C4603098B422DD3030A8B4212D3FC2244
:10042000890112BA030A8B420CD3890192118B42C3
:1004300008D3890192118B4204D389013AD09211D9
:1004400000E08909C3098B4201D3CB01C01A524194
:1004500083098B4201D38B01C01A524143098B425D
:1004600001D34B01C01A524103098B4201D30B0146
:10047000C01A5241C3088B4201D3CB00C01A52416B
:1004800083088B4201D38B00C01A5241D9D2430852
:100490008B4201D34B00C01A5241411A00D201468F
:1004A000634652415B10104601D34042002B00D5F9
:1004B0004942704763465B1000D3404201B50020BB
:1004C000C046C04602BD704770477047F0B50C4645
:1004D000871A9C410D46861A9D4103D2C01BA1413B
:1004E000D21963410D0D1F0DC94EEC1BAE435CD0FC
:1004F0007F057F0D0026002F51D02D05AC46A94366
:10050000DD020123ED0A1B051D4320231B1B24D400
:100510001746E740381871412F46E740CC199D40F7
:100520002818314661410C0D27D161449A4013D5FA
:100530000023401C594152000ED1400840000122C6
:100540004B005205D34207D305204007C14201D5D5
:10055000B04900E0B0493046F0BD6B00002A00D041
:1005600001229A181F23203C1B1B01D5002302E007
:10057000E540281871410C0DD7D001242405091934
:10058000C407CD0740084908E40F28436144002C04
:10059000D5D00024401C61419A40D0D1CDE76A05F6
:1005A000520DD9D1C90FC907D5E79C4D4E0000287F
:1005B00001D0012400E0002434195F00002A01D09A
:1005C000012600E00026BE19954FAC420CD8AE4281
:1005D0000AD8B44206D001256D05EC42BCD01046C5
:1005E0001946F0BD9942FCD000203946F0BDF0B567
:1005F0001FB40C460F46811A9F412546861A9D411D
:1006000006D20125ED076F40401ABC4152187B41CC
:10061000210D1E0D8D1BAC467D4D8D437ED0750585
:100620006D0D7CD00D05AE46AC431B031B0B794D05
:1006300052429D41202366469B1B14D31746F74028
:10064000381800260090744160462F460741E4198F
:1006500000989D402818664116D4714671189A403A
:1006600025D5012320E093182A466A415200002B29
:1006700000D0521C1E23203E9B1B002B61DD354108
:10068000EE1728186641E8D5001876415B1C9A40A1
:1006900000D3401C4B05F3181524E34010D3002B66
:1006A00052D071467118D30FC01802D3491C05B03F
:1006B000F0BD0123DB079A42F9D140084000F6E77C
:1006C00001225205B21801D1002853D00123CC0ACF
:1006D000DB029943891E002A08D1020C03D0020CC8
:1006E0000004103902E00246002020390023550B97
:1006F00005D112020823550B01D152010D23550CCF
:1007000001D112011B1DD50C01D192009B1C150DAE
:1007100001D152005B1C2025EE1A01E02CE022E002
:100720000546F54015439840CA1AE10769181305B4
:10073000C918002ABBDA032040070818C10FC907EF
:100740000FE071466118B2E7F107400808437110E5
:1007500071444A000CD001235B059A42A7D2C90F0D
:10076000C9070020A3E74905490D26D1002001E073
:100770000028F4D100219AE7284D6600002801D016
:10078000012100E0002171185F00002A01D001263C
:1007900000E00026BE19224FA94210D8AE420ED862
:1007A000B14208D001256D05E94206D01946A802DC
:1007B000414010467BE79C4201D0214677E700206C
:1007C000394674E710B50C465C4005D50124E407B2
:1007D0006340FFF70CFF10BDFFF778FE10BD30B48B
:1007E0000C465C4004D50124E407634030BC6DE650
:1007F00030BCFCE670B50124E40761400D465D4065
:1008000002D4FFF763FE70BD6340FFF7F0FE70BDDA
:10081000FF0700000000F0FF0000F07F0000E0FF95
:100820000000F87FF0B5F94D0C091E092C402E4050
:100830002F468BB0A7437DD0B543FCD0002E7AD095
:10084000002CFCD00D465D40ED0F2543AC1BFF2571
:10085000AD0464190894C502440DC9022143500D2A
:10086000DC0204430120C00701430443D20201918A
:10087000200C110C00958C46010423468B430A91F1
:1008800061460904E24D8A430991010A7D444919F0
:100890008039097805464D4301266D18F605751B0C
:1008A0006943C90C640B891C4C436418B5012C1BAB
:1008B000250C2E04B4434C434D43210C691889097F
:1008C0000591009DE90701D00121C90704912C463B
:1008D00001996708CD072F434C08059DE10B4D4357
:1008E0002D0C29466646754302950D4645432E4616
:1008F000029D7D1BB44100950D465D4301942C0C77
:100900002F040D465543AE462D0C3D4302950394EE
:100910007546049C2D04641B049406D2029C039D1E
:10092000641C002675410395029401AC70CC009FB5
:100930007D1B01E03EE162E1B441090400950791AD
:1009400001940599A4086143090C0C464443650BC6
:10095000E7040C4666467443A646640B3C43039585
:1009600002947446049DE4042C1B049406D2029C59
:10097000039D641C002675410395029401AC70CC64
:10098000009F7D1BB44101940C465C430095650FAC
:10099000E7000C465443A646640F3C43039502947B
:1009A0007446049DE4002C1B049406D2029C039D13
:1009B000641C002675410395029401AC70CC009F25
:1009C0007D1BB441AE09AF06049DC900AD092F439C
:1009D000049DA406AD060495079D3443691807914C
:1009E000059DE10B4D432D0C294666467543029546
:1009F0000D4645432E46029D7D1BB44100950D4694
:100A00005D4301942C0C2F040D465543AE462D0C2E
:100A10003D43029503947546049C2D04641B049485
:100A200006D2029C039D641C002675410395029426
:100A300001AC70CC009F7D1BB44101948C050694E1
:100A4000079C890A611800950791019C0599A408E3
:100A50006143090C0D464543680BEF040D4664469F
:100A600065436C0B3C43049FED047D1BAC4602D2F6
:100A70000025641C6841009E019D371B8541084686
:100A8000584301950C46460FC5005443600F284358
:100A90006546E4002C1B02D20025401C6E41019DDE
:100AA0003F1AB5412846BD09800628438446A0095F
:100AB000BF064E020699A40676180743079D00203C
:100AC00068410A99079019430020099B00906046ED
:100AD000FF1913434041E20F64003A43A446044621
:100AE000D71A8C41A04203D90120009020463A46F3
:100AF000C70F941840416246D20F224364466400F7
:100B00000494009CBE466400D71AA446044602978B
:100B10008C417746002F01D1A04204D96046401C89
:100B20008446029A2046C40FA64694184041049A6F
:100B30000546D20F224364466400D31A8D417146A4
:100B4000002901D1A84202D928461A46641C104344
:100B50000122002800D0164361020020079B89195A
:100B600004465C410223002C02DB49181346644111
:100B7000089DCE0A2D145D194B056705E10A2C0569
:100B80000D1908993E43C9076940002B08D09340CE
:100B900006D30022761C5141002B01D17608760045
:100BA0001C4A002D43DB154241D0AA433FD03046BA
:100BB0000BB0F0BD06180D464D41174C7642AC41C6
:100BC0001AD395181C465C41134A6D42A24113D3B7
:100BD000012252054C00D4420AD15C00D4420BD011
:100BE0004B4002D592021143E2E749004908DFE792
:100BF0005940C90FC90718E000200849D8E705483F
:100C000001420DD10342F7D0F2E700000000FF07D8
:100C1000506400000000F07F0000E0FF0000F87F5B
:100C2000114859400143C01241400020C0E7012350
:100C3000089A9B069A4205DC032252078918C90FBD
:100C4000C907B5E7052252078918074A1143D2128E
:100C50005140ADE770B515461C4602460B46284686
:100C60002146FFF7DFFD70BDFFFFFF7F30B5034674
:100C7000CA02400D1043164D164C0A1502D02043EF
:100C8000002A06DBAA1A002A12DDD040FF2A0BDC5C
:100C900030BD5205520D01D140004008AA1A07D4B8
:100CA000D0404042FF2A01DD002030BD0028FCDD9D
:100CB0004A00002B01D0012000E000201018012282
:100CC0005205D042F0D8C817C043604030BD000084
:100CD0001E040000000000800346CA02400D10B54B
:100CE00010430A1504D00124E4072043002A05DB41
:100CF0000A4CA21A04D4D040FF2A00DD002010BD07
:100D00004A00002B01D0012000E000201018012231
:100D10005205D042F2D8C817C04310BD1E040000CF
:100D20001F22030C02D10F22000402D0030E03D0B5
:100D300004E00020014670470002083A030F01D189
:100D40000001121F830F01D18000921E002801DBD9
:100D50004000521E120551184205C012411810469B
:100D60007047C10FC90700D04042012292071143CA
:100D7000D6E701218907D3E710B50B1E01D0202348
:100D800001E0011E2BD00C0C01D10904103B0C0E0C
:100D900001D10902083B0C0F01D109011B1F8C0F67
:100DA00001D189009B1E002901DB49005B1E04461E
:100DB000DC4021431C05A4182022D21A90404B0588
:100DC000C20AC90A1A430919830501D14308184008
:100DD0001623984002D30020521C4141104610BDFA
:100DE000CA0FD20703D00B46002140429941024B63
:100DF0001A43C1E7004ABFE70000D041F0B58B4C71
:100E00000F09254689B0BD437BD01D092646AE4358
:100E1000FAD00E465E402740F60F3E43254071D083
:100E200024012142FBD0FF24AD19A4042D1B0395FE
:100E300001252D05DB02DB0AC9022B43C90A294320
:100E40001E010901040F130F050121431701880B2F
:100E5000820391432D098C46A90B1E438A039543B7
:100E6000B30B9A0396433F09BA0B9403A743029628
:100E70002E467E430497B6464E19D7190C46019666
:100E8000544305977E43371B7646BF1B3601B64653
:100E9000BE0B361900967646BC043719009C01D368
:100EA000641C00946400002F01D001263443029E8C
:100EB000049F754366467E430496760034196E009F
:100EC00034190094029C019E1C196643751BAE46A2
:100ED000069465464519059C05956C43594375462E
:100EE0000891691A0191049E01465143A41B049183
:100EF000611A009C0791E10605D0610901221143A6
:100F000002E072E06EE06109089D00272C0A2D06C0
:100F10006918049D7C412A0A2D066918019D6241C9
:100F2000AC0DAD026D185441079A910D92025519FE
:100F30006141029A644658435443069B059A5A43BA
:100F4000121A131B9A0E9B015B187A41010B0005C4
:100F5000C3185141220A200644195A419A4200D22C
:100F6000491C01204002814203D315230226F64387
:100F700002E014230326F6432020C51AA940174691
:100F8000AF40DA400A4320460399D8400914731849
:100F900019055118039A3843D2075140AC4009D083
:100FA0000122944006D30022401C5141002C01D163
:100FB000400840001E4A934212D301220398920631
:100FC000904207DB0520400709181A480143C01268
:100FD000414004E0032040070818C10FC907002062
:100FE00009B0F0BD0020F107FAE705180C464C41A6
:100FF00011486D42A04115D394181A465A410E4823
:10100000644290410ED301204A004005824209D338
:101010005A00824206D35940C90F084AC907002026
:101020001143DDE700200649DAE700000000FF0772
:10103000FE070000FFFFFF7F0000E0FF0000F07FE1
:101040000000F87F70B505464800440D124B0020A3
:10105000002C0AD0634008D09A4206DA6642B242B7
:1010600003DD12054019514170BD002C08D0002B42
:1010700009D0C90FC907002AF6DB084A114370BD21
:10108000C90FC90770BD28460A03104302D00020CB
:10109000034970BD284670BDFF0700000000F07FC7
:1010A0000000F87F0121C9050123411842001B06F9
:1010B000D3185B0E0AD0C1100722D2068918400748
:1010C0005242D14201D5520089187047090208D511
:1010D0000146002A03D0C10FC907002070471046FF
:1010E0007047420202D000200249704707210905DB
:1010F0000143F4E70000F87FF0B5FF252D04C60991
:10110000C209FF2704462E400137CB093E43484021
:101110002A402B400746002A6BD0002B69D0AA42F8
:1011200067D0AB4265D0002800DA32460125ED05D4
:1011300029432C4309022002090AD21A4B0C7F24AE
:10114000E31A434C000A7C44E35C7D242404121916
:1011500014145B00A218884201D3521C00E0400026
:1011600049420C465C4324115C43DB016415E318DF
:10117000040A5C43C502200D0C4644436419250A49
:101180005D432303EC0C0D46654300030019EB1887
:101190004C42A34201D35B18401CD4052018002BFD
:1011A00007D05B00C91804D3401C002901D14008B6
:1011B00040003F2189048A4209D3002A08DC110635
:1011C000090F04D0032149074018C00FC007F0BD24
:1011D00001224100120689187F2252069142F6D25E
:1011E00005214907C84201D59010F0BDFF20C00578
:1011F000F0BD002F00DA32461648AA4207D2AB42B1
:1012000005D21902090E17D0F80FC007F0BDFF254F
:1012100063002D06AB42F9D84900A942F6D8AB428B
:1012200001D1A942F2D0A94201D1002101E061001F
:101230004908D0050843F0BD1102090EFBD0FF207C
:101240000243D005F0BD0A460146104654E70000AF
:10125000165C00000000C07F10B501469E2400020D
:10126000CA15A307002A02D01843002A04DBA21AD9
:10127000002A0CDDD04010BD1206120E01D1400034
:101280004008A21A03D4D04040420028F3DDFF22D8
:1012900048001206904201D9002010BDC817C04373
:1012A000584010BD1F22030C02D10F2200041CD095
:1012B000030E01D10002083A030F01D10001121FF1
:1012C000830F01D18000921E002801DB4000521ED6
:1012D000D2055118021251181922904004D3491C0A
:1012E000002801D14908490008467047C10FC907C5
:1012F00000D04042012292071143D3E70121890720
:10130000D0E7FEB5054610460C46184373D0AE46EE
:101310008C460020AD1A01469C4167D366460027E3
:1013200001243D46B61A9D4102D313463A46212474
:10133000654676462F04360C3E432D0CB61A9D4169
:1013400004D3150C1B042B43120410346546764657
:101350002F06360A3E432D0AB61A9D4104D3150EB8
:101360001B022B4312020834654676462F073609C6
:101370003E432D09B61A9D4104D3150F1B012B4383
:101380001201241D65467646AF07B6083E43AD08F8
:10139000B61A9D4104D3950F9B002B439200A41CC9
:1013A00065467646EF0776083E436D08B61A9D41BE
:1013B0001AD392185B41641C16E000187646654605
:1013C0004941B71A9D410191009009D36046B11A75
:1013D00098418E468446009801990025401C694139
:1013E000DD0752082A435B08641EE6D57246634651
:1013F00003B0F0BDFFE700200146C046C0462A46C4
:101400002346F5E7F8B5224C4E00069DA6420AD8C1
:10141000A64201D1002806D15E00A64203D8A6420A
:101420000AD1002A08D00D24240425422CD02946B4
:10143000002000F02FF8F8BD0C461C430CD4994254
:1014400002D0EFF30080F8BD904202D0EFF30080AD
:10145000F8BDEFF30080F8BD09242407E5008B42B6
:1014600006D0EFF30080A043591A06D2284304E0C7
:10147000101A05D3EFF30080A04380F30088F8BD75
:10148000EFF30080A043F1E7009500F01BF8F8BDF2
:101490000000E0FFC80212D54803400F002804D026
:1014A000C803C043012188407047EFF3008000016A
:1014B000000903210907084380F3008870470020D2
:1014C0007047000010B500200249029A00F02BF886
:1014D00010BD00000000F87F754600F053F8AE46DE
:1014E000050069465346C008C000854618B020B5BF
:1014F000FEF754FE60BC00274908B6460026C0C56A
:10150000C0C5C0C5C0C5C0C5C0C5C0C5C0C5403DBB
:1015100049008D46704710B50446C046C046204677
:10152000FEF70BFE10BD10B50C461107090F092977
:1015300004D00A290AD008290CD104E01146082059
:10154000FFF7A8FF06E0510606D501E0510601D5D8
:101550000120C007214610BDD10607D501010909A8
:10156000CC084907000E0006044309E0410F2002A1
:101570004907000A0143200E00061D22D141014304
:101580000846E7E700487047F006002001491820A8
:10159000ABBEFEE726000200704770B58C180578D8
:1015A000401C6B075B0F01D10378401C2A1106D148
:1015B0000278401C03E00678401C0E70491C5B1E3C
:1015C000F9D12B0705D40023521E0DD40B70491CF2
:1015D000FAE70378401CCB1A921C03E01D780D70CB
:1015E000491C5B1C521EF9D5A142D8D3002070BD06
:1015F00010B51F48C16A03221143C1621D4800F0A3
:10160000BDFC1C4C2088401C20801B490120887098
:10161000174840380089194948842220085E00F0A4
:10162000DFFB207907280CD1154A1649134800F032
:101630006FFA15480021415E144A0020105E00F048
:1016400083FD01F007FF124C6069C00602D4606997
:1016500080060BD50E480021803803F007F93020B2
:1016600060610C48018802221143018010BD000016
:10167000400401406C0100205C0100207C0100203E
:1016800028000020140400202C0400204C0000201E
:10169000800701402600002070B505460C46012158
:1016A000080203F059FB2088A866A178608A8902A5
:1016B0000843217DE2880903120111430843217C7C
:1016C0000902084380B268656189208909010843DD
:1016D000A189E2890902120311430843286570BDFC
:1016E0000748827C07487A21002A03D0064A026014
:1016F00041607047A522D20002604160704700003F
:1017000018060020400401402085000000210180CF
:1017100041808180C180018141818181C1810182BB
:1017200041828182C18201834183704710B588B0B4
:1017300001A8FFF7EBFF012000246946CC800622B8
:101740008A81CC81C8820C838C82888001A90A4856
:10175000FFF7A2FF0848FF214030C1624169C2146F
:1017600011434161FFF7BCFF054804498162C1058F
:101770008C61846208B010BD00040140837A0000CF
:10178000800000401FB504462146684603F0C8FAB1
:10179000009802900F496B460820185E4A6A504331
:1017A000C01300B220800A229A5E496A4A43D113CC
:1017B00009B261804218524212B2A280891A064AC6
:1017C000514309146182208200F036FA03490880EF
:1017D0001FBD000068020020CE9300004C000020D6
:1017E000024A11889278484310417047C403002090
:1017F000024A1189927A484310417047C40300207D
:1018000000B50A481022816D091481840848F52129
:10181000C08E890048430749800A8A5E0649801ABB
:101820000861084600F0FEFB00BD0000B00000208B
:101830007C01002048030020C806002072B6194A27
:1018400010201221105E515E404349434118164852
:101850000163406B62B601041448826A8B1A1B1242
:101860009A1813148262C26A891A49138918C162CC
:1018700009145A1A1304026B9B1A1B129A1802635A
:1018800010140B4A2023D35E8B4208DD002800DAB7
:1018900040422221515E884201DA012000E000200E
:1018A000907770477C010020000B01401C01002054
:1018B000480300201CB51548032141604168890791
:1018C00023D50021009101910AE04169890703D5E0
:1018D0006A461178491C00916A461179491C0191A8
:1018E000694609790529F0D36846007803280CD9A0
:1018F0000021074802F0BAFF0549302080314861D5
:10190000044801880222114301801CBD00020140ED
:10191000000701402600002070B504460121082080
:1019200003F03CFA6069616C40020143A06CA2695B
:1019300000025200104301432B4801602168626895
:101940000901D2001143A26811438160E169226A52
:10195000C90192011143626A52011143A26A120144
:101960001143E26CD2001143226D92001143626D6B
:1019700052001143A26D1143C160616BA26BC9019A
:1019800092011143E26B52011143226C1201114387
:10199000626ED2001143A26E92001143E26E5200B9
:1019A0001143226F11430161114A104991624305AD
:1019B0005969104D2940E56A2D032943E568ED0278
:1019C0002943E56D2D0229432569ED012943256B46
:1019D000246E2D012943A400214359610021916205
:1019E0000321416070BD000000020140837A0000C5
:1019F000800000404380000000210160012242601D
:101A00008160C260016141618161C16101624162C5
:101A10008162C162016341638163C16301644164A6
:101A20008164C164016541658165C1650166416686
:101A30008166C1660167704700B59DB06846FFF7D3
:101A4000DBFF01200021400303F086F90121880318
:101A500003F082F90A2000900221029101220692ED
:101A6000099200200A900C9103230B93119015907A
:101A7000169018910520179004926846FFF74CFFC6
:101A80001DB000BD10B504460846991A801A1922E7
:101A90005043FEF775FC201A00B210BD70B50D4E14
:101AA0000E4C0E4D307800220B4B0C49603C803DB3
:101AB000002808D0308AB081F08970810B632080C3
:101AC00028630A6370BD0648408BB0810548C06A30
:101AD0008089F2E7B0000020ADDE00008007014001
:101AE00038060020FC010020074806498162C10534
:101AF0000A69C3131A430A610168044A1143016069
:101B000070470000837A000080000040FF01000061
:101B100010B50021415E002901DB0B4600E04B427D
:101B20000024145FA34203DD002900DA494211803A
:101B30000221415E002901DB0B4600E04B420224FA
:101B4000145FA34203DD002900DA494251800421D9
:101B5000415E002901DB084600E048420423D35ED1
:101B6000984203DD002900DA4942918010BD00004F
:101B700010B50D4810221421825E415E0B4B8A4243
:101B800006DDDC8A121B12B202828A4200DC01826C
:101B90001022825E8A4206DC9B8AD21812B202822E
:101BA0008A4200DB018210BDBC010020A802002097
:101BB00010B50D480E221221825E415E0B4B8A4207
:101BC00006DDDC8A121B12B2C2818A4200DCC181AE
:101BD0000E22825E8A4206DC9B8AD21812B2C28131
:101BE0008A4200DBC18110BDBC010020A802002098
:101BF00010B50446204640300E230C21C35E615EC2
:101C000002465B1A403003601023D35E0E22A25EB0
:101C10009A1AC261074841802046703000F096F859
:101C2000A08220468C3000F091F8E08202F0C8F9E2
:101C300010BD00004C0000204043494341180248B9
:101C40000163406B80B27047000B014070B586B0F5
:101C500072B60026364C66616069E51428436061FF
:101C6000FFF73EFD334846858685C68501F0FCFFBB
:101C70000121314802F0FAFD0596304802E005994D
:101C8000491C059105998142F9D300960196049665
:101C9000039600202A4AA261E16AC907FCD0E16AE2
:101CA00003231943E1626169294361612049009B73
:101CB000403900268E5F9B1900930C268E5F019B96
:101CC0009B19019314268E5F029B9B1902930C268D
:101CD0008E5F039B99190391401C80B20121490238
:101CE0008842D8D3FFF722FDFFF7FAFC62B60098CE
:101CF000401201B20F484030C180019A521213B213
:101D00000381029A521212B242810E4C09196000EC
:101D1000814205D81919814202D81119814205D989
:101D200009490888FF2201321043088006B070BDBF
:101D3000400401407C01002000070140FFFF070034
:101D4000A55A0000AC0D0000260000200269416980
:101D50000389511A59434389090153435918C368E8
:101D60005918C1600368994201DDC36003E043680C
:101D7000994200DAC360C16809144261084670479D
:101D800010B50121C80202F0E7FF32204107C86206
:101D900010BD704710B50E480069002800DA4042B7
:101DA0000C4A0421515E0C4B0C4C884205DDD88A4C
:101DB000E083988AA083012007E04910814205DD75
:101DC000588AE083188AA08300205080002010BD2C
:101DD000F0020020B0000020680200205806002019
:101DE0000F49104A896A4143C8130104906C091ACB
:101DF0004910081890640014012800DA012001231A
:101E000009491B060B624862896A084B89B29983AB
:101E1000074BD886074B594309135164704700009C
:101E200068020020B0000020000B014038060020AE
:101E30007C010020354F0200F0B58446184D17484C
:101E4000A862174B174E40339913B2420FD1164870
:101E50001861164C164F54407C40276815480740BF
:101E60002760604648602068CF0338432060B24254
:101E70000BD10D4818611048104C42406240104888
:101E800010600868400040080860002018610A6877
:101E9000520052080A60A862F0BD0000837A000078
:101EA000800000401F360D9ACA8F00000A060CB051
:101EB0001530002AFF7FFF7F1A3401B015020D2A6A
:101EC000BADC547638B50E480178012916D10D498F
:101ED000C978002912D1017072B60B4A3F246402FE
:101EE00000212046FFF7A8FF0849054A009100237A
:101EF00034320421204602F0CBFD62B638BD00002A
:101F0000700000206C0100201F360D9A0CA4FD9A71
:101F1000F0B516481449C162154A01469389403903
:101F20000B87D3894B870346124E803B5E6777420F
:101F30001F670024DC67158985825289C282066189
:101F4000C76084610C4A02630246203A14737D2202
:101F50005201DA860C83642181872C22C2874030AB
:101F600001834283F0BD0000BA600000FC01002044
:101F700068020020000090E8693C000070B505464A
:101F8000264C2046FFF7FEFB28792546803503289E
:101F900011D004280FD007280DD009280AD1FFF747
:101FA0004DFC00206085A085E08520866086A086A7
:101FB000286B804770BDFFF771FD12201C21205E49
:101FC000615E1E224843C1131020205EA25E504372
:101FD000C013081AA08110201C21205E615E1E2201
:101FE0004843C1131220205EA25E5043C01308185C
:101FF000E0812046FFF7FCFD204602F0F5FD286B4E
:10200000804702F09DFC02F0D5FB0548006A000CF9
:1020100000B203F0D1FCE06170BD00007C01002043
:102020006802002030B50188438904690A04C56844
:1020300081886343EB180904C360934201DD1346B2
:1020400002E08B4200DA0B46C36000894443200162
:102050001818904201DD104602E0884200DA084676
:10206000001430BD70B5304C1620205E052802DA11
:10207000401CE08201E00120E0822C4DA87F012875
:102080000DD12B4E0221304601F07BF8284810215B
:10209000403001F076F80821304601F072F8162140
:1020A000615E244A2448254C0B0003F0C0FE060C58
:1020B000040D1C232F0CA87F002804D12220105EC1
:1020C0001F4900F0A5FB70BD00790728FBD11D4812
:1020D000807A0C21515E1A4B134A38331A326068E9
:1020E00000F0C2F970BD16493820285E703100F04A
:1020F00007FB70BD00790728FBD1114A0A488C32D2
:102100001146E0391A3000F0C9F870BD007907288F
:10211000FBD10C21515E0A4B034AA8331A32606886
:1021200000F086FA70BD00000E000020A00500201F
:10213000000801407C0100206C010020F00200201A
:10214000680400201806002010B50F4A884213DDED
:10215000508800280CD00020508000210B4802F04D
:1021600085FB09481830018801221143018010BD08
:102170005088401C508010BD50880028FBD05088EB
:10218000401E508010BD00000E00002000070140DE
:1021900070B5364803F0DEFDFFF722FB344D288092
:1021A0003448002404804480848028463C300480E5
:1021B0004480314803F0EEFD6880304803F0EAFDCA
:1021C000A8802846583004802D4803F0C3FDFFF74F
:1021D00007FB6881284674300480448084804482F0
:1021E000284803F0B7FDFFF7FBFA2882264803F0E2
:1021F000C1FDFFF7FDFA6861244803F0BBFDFFF75E
:10220000F7FAA861224803F0A5FDFFF7E9FA288450
:10221000204803F0AFFDFFF7EBFAE861AC854E20F4
:102220002885752068852846C8300480E038047009
:10223000048244828482448044608460C46016487E
:102240000480448084802846AC30048044808480AC
:10225000C4808460C460048244828482C482048313
:1022600038300480448044822C8770BD0000404098
:102270002C0400207C0100200000AF4300007743C5
:102280009A99193E3333B33F008009450000484214
:10229000CDCCCC3D0000F0412800002070B50446B4
:1022A0000020105E282802DA401C108070BD002536
:1022B0001580605F0221615E82108A4207DC8A100D
:1022C0000421615E8A4202DC891081420BDD00211B
:1022D000074802F0CBFA07480188402211430180E9
:1022E00005490120088625806580A58070BD000015
:1022F00000070140260000202C040020F0B54348D0
:102300000021807F012809D1414A1170414A117092
:10231000414A117091829181118251823E4A183254
:1023200013885B0702D413881B072AD53C4F3B4C0C
:1023300022230826E35EBE5F3D463C350424B342BB
:1023400015DB0626BE5FB34211DC1023EB5EFF26D1
:102350002D36B34202DA5B1C2B8209E01388A343BB
:10236000138013880826B3431380298200E0298252
:10237000012806D11188A1431180138808218B43BD
:1023800013801188890702D41188C90708D0012851
:1023900006D111880223994311801188814311804D
:1023A0001188C90605D5012803D111881023994346
:1023B00011801188490605D5012803D111884023D1
:1023C000994311801188090605D5012803D1118888
:1023D0008023994311801188890505D5012803D1EF
:1023E00011884302994311801188490502D411884C
:1023F00009050AD5012808D11088012189028843DE
:1024000010801088490088431080F0BDA00500208E
:1024100054000020510000200E0000207C0100200C
:102420002C04002010B50C49002008800B490882BC
:102430001C3108821C31088288825439088270312C
:102440000882074803F0A6FC044C583CE08005488D
:1024500003F0A0FC208110BD260000208404002091
:102460000000B44300008743FFB583B005460F4624
:102470001C461220205E282803DA401C608207B028
:10248000F0BD68420290002D01DB284600E0029872
:10249000634900264969884223DDA05F0A2802DAE1
:1024A000401C20801EE05E493420085E022808DAC5
:1024B000401C888600215B4802F0D8F95A48067112
:1024C0000BE00021574802F0D1F92680574A1088C6
:1024D0001021084310805248868651480121818589
:1024E00000E02680002D01DB284600E002984C49E0
:1024F000CA697942019190422EDA002F01DB3846F9
:1025000000E00198464920228A5E904224DD0220A4
:10251000205E142802DA401C60801EE0404934200E
:10252000085E022808DA401C888600213D4802F037
:102530009DF93D4806710BE000213A4802F096F9FA
:1025400066803A4A108810210843108034488686F5
:1025500033480221818500E0668005980022825E72
:102560002F491020085E824209DC059902228A5E0A
:10257000824204DC059904228A5E82421BDD2849DE
:102580003420085E022808DA401C8886002125488D
:1025900002F06CF9244806710AE00021214802F09B
:1025A00065F9224801881022114301801C48868663
:1025B0001B4803218185002D01DB284600E002989D
:1025C000174D6969884229DD002F00DA019F20201C
:1025D000285E4000874221DA0420205E322802DA99
:1025E000401CA0804BE73420285E022808DA401CFB
:1025F000A88600210B4802F039F90B4806710AE061
:102600000021084802F032F9A6800848018810220B
:1026100011430180AE860420A88530E7A6802EE70E
:102620002C040020000701406C010020260000203F
:10263000F8B52B482B4E008800242B4F2B4D00283B
:1026400004D05C823879072820D025E01220185E5B
:10265000642802DA401C5882F4E73220285E0228FF
:1026600007DA401C68860021214802F0FFF83C711F
:10267000E8E700211E4802F0F9F8308801214902FC
:10268000084330800120E8856C86DBE73820285E2F
:10269000642801DA401C2887288F642813D1154844
:1026A000807F00280FD1144814494068884214DA0A
:1026B0003220285E022807DA401C688600210C4878
:1026C00002F0D4F83C71F8BD30880121490208437A
:1026D00030800220E8856C86F8BD6C86F8BD00006D
:1026E000B2000020260000206C0100202C040020F5
:1026F00000070140A0050020F00200208813000020
:10270000F8B505460C4638490878012803D0374803
:10271000007801280FD1888A4B22401C80B2D20059
:102720008882904207D330481830028880231A43A9
:1027300002802F4888822F4928460B78C8382E4AB5
:1027400001270026002B2AD0904201D80E70A680C7
:102750002A490B78002B31D0904201D80E70E680C8
:10276000B42001F0FDFFA84209DAFF201E3001F07D
:10277000F7FFA84203DD1D48007800282FD0E6604F
:10278000E06864280ADBCD20E0601D481D4A01781E
:1027900011700670154807701B480770F8BDC82DEA
:1027A00003DAA3885B1CA38000E0A6800423E35E19
:1027B000642BCDDD0F701549A180C9E70E48C830E4
:1027C000854203DDE088401CE08000E0E6800620D2
:1027D000205E6428C4DD0F700C48E080C0E7E0682C
:1027E000401CE060CCE700000E00002051000020FB
:1027F000D50700005300002068740000520000203C
:1028000050000020AC00002054000020E90300002C
:10281000F8B50C46184902228A5E0025824203DC84
:102820002088401C208009E004228A5E824203DD69
:102830006088401C608001E0258065800020205E6B
:102840000E4F0F4E642808DB0021384602F00EF8C8
:10285000258030880421084330800220205E6428CF
:1028600008DB0021384602F001F865803088082135
:1028700008433080F8BD00002C0400200007014010
:10288000260000200246002001235B031146814000
:1028900089B2994203D8401C00B20D28F6DB70477C
:1028A00010B514480021018241826422C2821201C3
:1028B0008282114A0280AF22920042807D22120160
:1028C00082800E4AC2800E4A42630E4A82630E4CD8
:1028D0009620E086A1867D20C001A08100F018F836
:1028E000FFF716FB1E20A0810520A0730748608615
:1028F00010BD0000680200209411000010270000A5
:10290000CC600000F8600000580600206606000059
:10291000F0B5FF4E0A20756B8BB0285EB46BFEF7E6
:10292000E5FC0746FB49206903F06AFB6169FEF795
:10293000E3FBA169FEF7E0FB3946FEF7DDFBFEF79E
:102940008BFC70620020205EFEF7D0FCF24F0090FE
:102950003946206903F054FBE169FEF7CDFB00998D
:10296000FEF7CAFBFEF778FCB06201200007696839
:10297000FDF706FDF0620020205EFEF7B7FC009038
:102980003946206903F03CFB216AFEF7B5FB00994C
:10299000FEF7B2FBFEF760FC3063A289642042437D
:1029A0006868D317C117C608490731434007FDF7C8
:1029B00044FC0A05010BD94F11433983642168682F
:1029C000FDF7DEFC0004A189FDF7DAFCD44E788324
:1029D000B081D448C06A80897081384620308189AE
:1029E00000914900D048FDF7C1FCF081642168687E
:1029F000FDF7C6FC00040099FDF7C2FC30822A698D
:102A00000092D317019319214904E86803F0DFF914
:102A1000019B009AFDF711FCA2890023FDF70DFC34
:102A20000121C903081A3860C049E868695E03F0EB
:102A3000CEF9020F090111430022A25E0001D31753
:102A4000FDF7FBFB706564216868FDF799FC069053
:102A500002900A20285E0490C01705900298002674
:102A6000C017039068690090C0170190A05F08909C
:102A7000C0170990324603990298FDF7A3FB019B0A
:102A8000009AFDF7C2FB059B049AFDF7BEFB099B6C
:102A9000089AFDF7D2FBA64A0023FDF7CEFBA54915
:102AA000884202DA761C36B2E4E79D4A1065D68485
:102AB000A148029000980199C70C2A694E033E4331
:102AC000D31740033146FDF7B8FB80B2069F0026BE
:102AD0000090F8170390A089019038463246039978
:102AE000FDF770FB012252030023FDF7A6FB002334
:102AF000019AFDF7A2FB7D218901884202DA761C4A
:102B000036B2EAE7C1170023029AFDF77EFB0023E5
:102B1000009AFDF77AFBCA00410F804811434160DB
:102B20001E3E012146738902818200262A69002007
:102B3000D31700931746205E804903F048F93246C8
:102B4000FDF740FB3A46009BFDF777FB0A22AA5EA1
:102B5000D317FDF772FBA2890023FDF76EFB7D21E1
:102B6000C901884202DA761C36B2DFE7744903F005
:102B70002EF90903000D084368490E3E8860084697
:102B800086730022A25E6F48A9695043FDF7EEFBF1
:102B90006349C8640020205EFEF7A8FB06466A4928
:102BA000206903F02DFA216AFEF7A6FA3146FEF7F6
:102BB000A3FAFEF751FB564908630020205E6349E3
:102BC000484302140A200092285E614948430614D3
:102BD0007D21A089C900FDF7C9FB5E49F3178883F1
:102BE0004B480021008832460293FDF70EFB2A690C
:102BF000D317FDF70AFBFF23009A87335A4300924D
:102C0000D2170192019B009AFDF717FB404980B251
:102C100008810490A089FEF7ACF803913C4907466F
:102C20004988049803F0EBF8FEF7DAF800224A4BE3
:102C3000FEF7E4F83A46039BFDF7F4FDFEF74CF887
:102C4000334932464881084600880021029BFDF73F
:102C5000DCFA6A69D317FDF7D8FA019B009AFDF7F1
:102C6000ECFA2B4980B288810090A089FEF781F8A8
:102C70000F46274906464988009803F0C0F8FEF73A
:102C8000AFF80022344BFEF7B9F832463B46FDF769
:102C9000C9FDFEF721F81E490822C8810846825E58
:102CA0001F480A2382850846C35E1D480E26C38539
:102CB00008460C21415E1A48194F01861448865F68
:102CC000174846861248808842439212BA86104AB4
:102CD0004843D288801253439B12FB8639460887AB
:102CE0007243901248870A4801890C485830018184
:102CF0000748428909485830034642811C331981EC
:102D00005A81642115480A22818002837D2327E0AD
:102D1000680200200046E2460000204738060020F6
:102D2000B0000020FC010020006CDC020A00000062
:102D3000CFFD00001027000010C9000040420F0026
:102D40002F880600F266010080908A47CE9300002B
:102D50000A6A010048030020000024408403002088
:102D6000DB00038001818281018283820021418016
:102D700041814182C181C182C1804183605EA021C5
:102D80004843010C604E0846B183FFF77BFDF0839A
:102D900000230146E35EA02043431027781AC34076
:102DA000B38300203083FFF76DFD7083391AE12073
:102DB0000001C84030830A20285E54494843800CF3
:102DC0003080FFF75FFD014670800A20285E4F4A81
:102DD00050431222511AC84030800020205E4C49D6
:102DE0004843800DB080FFF74DFDF0800146002381
:102DF000E35E474843431620401AC340B3806868E7
:102E0000010C31810846FFF73DFD70816A68381A70
:102E1000C24032810A21695E3E48FDF7A7FA010CE3
:102E20003D4E08463180FFF72DFD708000900A214D
:102E3000695E3848FDF79AFA00990346781AC3404C
:102E400033800021615E3548FDF790FA000CB080B8
:102E5000FFF718FDF08000900021615E2F48FDF71C
:102E600085FA01460098381AC140B1803F033846C0
:102E70006968FDF77BFA80B23081FFF703FD70814E
:102E80003B46834018466968FDF770FA308112208E
:102E90003083FFF7F7FC87407083E1210901384652
:102EA000FDF764FA30830021615E0A200125414369
:102EB0002D032846FDF764FA80B2B083FFF7E2FCE9
:102EC000F0830021615E0A22514385402846FDF7C8
:102ED0004DFAB0831248134AC18E5143090CC18682
:102EE000818E92105143104A0914918004218173FC
:102EF00002201146C880A0890A2148438009114652
:102F000008810BB0F0BD0000A40300205B2300008B
:102F1000181700008DF61C00C4030020B172C50212
:102F200058060020402F0200B00000200748002271
:102F3000418E01814260818E0B045B4283610904F2
:102F40000262416102484266704700005806002054
:102F5000B0000020F0B52848857A284901270B8F5A
:102F6000274C0022022D0BD0867AE1252D01012E5F
:102F700012D0867A002E1BD0817A032928D02BE02C
:102F80005B1C9BB20B877D25ED00AB4224D982727E
:102F900002743C230B871FE0067C6423012E01D1C1
:102FA00082720B87868AAE4216D982720B8713E033
:102FB000002B02D05B1E0B870EE0818AA9420BD248
:102FC000017C012901D0877206E00221817203E0B1
:102FD0002188002900D182722188002901D0032193
:102FE0008172817A012904D0817A022900D1877403
:102FF000F0BD8274F0BD00001806002050000020D3
:1030000026000020704770B5002301252A469A400B
:103010000C681440944230D10C79002C04D0012C5F
:103020000AD0022C10D012E004681646264306602F
:103030004468944344600AE004689443046046682A
:1030400014463443446002E04468944344604C793D
:10305000012C04D0022C0AD0002C05D007E0046912
:1030600016462643066102E00469944304618469BC
:103070008E68012E05D0944384615B1C102BC5D350
:1030800070BD1443F8E70000F0B5384F1401150285
:1030900016030B0002F0CBFE10090E151B21262D86
:1030A00033393E454B51565D630D016A39408918ED
:1030B0000162F0BD016A2D4AE13A114061180162D6
:1030C000F0BD016A2A4A114069180162F0BD016A27
:1030D0000905090D71180162F0BD416A394089186E
:1030E0004162F0BD416A214AE13A114061184162F2
:1030F000F0BD416A1E4A114069184162F0BD416A43
:103100000905090D71184162F0BD816A39408918BD
:103110008162F0BD816A154AE13A1140611881620D
:10312000F0BD816A124A114069188162F0BD816A5E
:103130000905090D71188162F0BDC16A394089180D
:10314000C162F0BDC16A094AE13A11406118C16229
:10315000F0BDC16A064A11406918C162F0BDC16A7A
:103160000905090D7118C162F0BD0000F0FF0000F3
:10317000FFF000000246002092680A4200D00120C1
:10318000704741637047016370470021016001711E
:1031900041718160704700003EB56846FFF7F5FF5A
:1031A0000120694608717D2040020090114C2046A4
:1031B000FFF729FF032209212046FFF765FF0322BD
:1031C0000B212046FFF760FF03220C212046FFF76A
:1031D0005BFF03220D212046FFF756FF03220E213D
:1031E0002046FFF751FF03220F212046FFF74CFF37
:1031F0003EBD0000000801400B4881880B48418714
:103200003A21415E002901DA002141873A21415EDD
:10321000828F8918C903090C8187828F04498A42E9
:1032200000D98187808F7047000401405000002042
:10323000FF7F000070B522482249C08E0201086D50
:10324000121A921210180865001100B208861E4A60
:1032500001250C46AD024034904201DB25810FE090
:10326000AF23FF211B01F531984208DB101A83229E
:1032700092005043FDF784F8281A208100E0218154
:10328000124802F077FDFEF7B3FA8002104D800A73
:103290002860104E304602F06DFDFEF7A9FA0821B5
:1032A000615E4843800A6860304602F063FDFEF7C5
:1032B0009FFA0821615E4843800AA86070BD000043
:1032C0007C01002050000020E40C000000A0A64477
:1032D0000C06002000C0DA4410B50449024A084632
:1032E000083801F0A7FB10BD300500209001002038
:1032F0007047000010B504460121022001F04EFD88
:10330000A078218800040143E078227900051206A4
:1033100010430143607940060143A07980060143D0
:10332000E07900070143207A40070143207C8007B1
:10333000014303480160E168C1600021416010BDA4
:103340000003014000B585B00121022001F026FDF7
:10335000684600F015F80120400269460880002008
:103360008870C87001200871C87108720348039002
:103370006846FFF7BFFF05B000BD0000007C92006B
:1033800007490180002181700122C2700271C2715F
:103390004171817101727D22D200C2600174704757
:1033A000FF03000010B572B62648274988622848F6
:1033B000264901600F218902416001200004016853
:1033C000C200114301600121001201F0E7FCFEF789
:1033D000ADF900F08DFD02F097FCFFF7DDFEFEF782
:1033E000CFFC01F02DFAFEF727FBFFF7ABFF02F051
:1033F000D5FA642001F0FEFC01210A2002F030FD24
:103400000221072002F02CFD0221084602F028FDCF
:103410000021092002F024FD0221002002F020FDFD
:103420000221012002F01CFD0A2002F00DFD022005
:1034300002F00AFD012002F007FD092002F004FD60
:1034400062B610BD837A000080000040B4A6000080
:10345000000C0140F8B54D48002500794C4E072876
:1034600021D14C484C49006988421CDD4B480088FA
:10347000002818D1308A7D210901884213D3484899
:10348000807A01280FD14748007800280BD14648A0
:103490000078002807D145480078002803D1444827
:1034A000007800280BD0B57440214248FFF762FE37
:1034B000F074374C317D2034012903D01BE001200A
:1034C000B074F1E7002816D1B07C012813D1207028
:1034D0006078401CC0B26070227A3749012A20D03F
:1034E000632800D96570607A3222504362785208AE
:1034F0008018085CA072B07C304F01281CD01021CD
:103500002C48FFF740FEF5622570387800283AD045
:10351000F08C002801D0401EF084F08C00282DD0C3
:1035200031E0312800D96570607A322362785843DF
:103530004018105CA072DEE720780128E5D1F06A1F
:10354000401CF06231793229DFD1718C8842DCD3A2
:10355000F562A07A012806D010211648FFF713FE65
:1035600025703D70D1E710211248FFF70AFE257043
:1035700001203870FF204B30F084C6E710210D4841
:10358000FFF701FE3D70F07C3075F8BD6C01002046
:10359000A0050020F0020020983A0000260000203C
:1035A00018060020510000200E00002053000020CB
:1035B00052000020000801401C6100003000002083
:1035C00010B52B48012404720346203BDA7C2038D6
:1035D000408B0021012A02D0002A05D017E03228B2
:1035E00015D2401C588312E000280BD00F2807D2B8
:1035F000988B0F2804D2D87F642801D2401CD8773A
:1036000059839983988B322801D2401C9883988BD8
:103610000F2801D99C77D977588B0F2801D99C772F
:10362000D977D87F052800D9997712482222825E5F
:1036300011480423C35E9A4200DD82804278521C06
:10364000D2B24270142A12D941700423C35E0269B7
:10365000D218026183785B1CDBB28370102B05D318
:10366000034B121120339A8401618170818010BD57
:10367000C00500207C01002030000020F8B5394949
:103680002420085EFDF76DFB0022374BFDF7CAF8DA
:10369000364A374BFDF7C6F8364A374BFDF7AEFBD7
:1036A000FDF71AFB2F4C403CA0663448B427017844
:1036B0003348312600780025002902D001291FD087
:1036C00027E0012807D0022810D0A586E586A5644A
:1036D0006565E5641DE0442001F042F8A0864420C1
:1036E000E0860E20A0646565E06412E0B42001F07D
:1036F00037F8A086E7861E20A0646565E06408E0D0
:1037000001281BD0022824D0A586E586A56465651E
:10371000E5641C49E06CA76E48433946FCF726FE79
:103720003946FCF723FE00B2E064312800D9E66494
:1037300013480078002800D1E564F8BD412001F06D
:103740000FF8A0864120E0861120A0646565E06442
:10375000DFE7B42001F004F8A086E786A66465657B
:10376000E664D6E7E0050020C0FFDF4072DF92CEBE
:10377000F66A7D3FCDCCCCCCCCCC0C4055000020A3
:1037800050000020297001007047000070B55648B5
:103790000022807F5549012803D0554B002807D0CF
:1037A00015E00A734A738A73CA730A744A7497E0FD
:1037B000188800060BD40879002808D1188800283A
:1037C00005D1C878002802D1887800280ED0494C4D
:1037D0004B252089ED00A84230D20A734A738A73C0
:1037E000CA730A744A74401C208179E088790123E5
:1037F000002806D00A734A738A73CB730B744A7419
:103800006EE00878002804D0012809D0022867D18A
:103810000DE00B734A738A73CA730A744A745FE0CB
:103820000A734B738A73CA730A744A7458E00A7332
:103830004A738B73CA730A744A7451E0188840073C
:1038400002D41888000704D50121022000F0A8F94D
:1038500046E01888C00704D00121052000F0A0F937
:103860003EE01888800704D50121042000F098F973
:1038700036E01888800504D50121032000F090F976
:103880002EE01888400604D50121062000F088F9B2
:1038900026E01888C00604D50121084600F080F90A
:1038A0001EE01888000604D50121072000F078F9F1
:1038B00016E01888400502D41888000504D50121B7
:1038C000082000F06DF90BE01888C00504D501212F
:1038D000092000F065F903E001210A2000F060F9F9
:1038E00000F08AF870BD0000A00500205000002004
:1038F000260000202E060020F8B53A4F012189024B
:103900003846FFF737FC384EF0720024012802D009
:10391000002806D015E0F179322912D2491CF17144
:103920000FE0F179002907D00F2903D2317A0F294E
:1039300000D27472F4713472317A322901D2491C86
:103940003172317A01250F2900D97572F1790F2969
:1039500000D97572717A254A012901D174711470E8
:10396000002901D175711570B072FF2101313846FF
:10397000FFF700FC1C4902274C311D4A002810D0DB
:10398000F08D642801D2401CF085F08D322819D9C1
:10399000B38D322B16D9934214D28D700D70B4852D
:1039A000F8BDB08D134B984202D2401CB08500E0A8
:1039B000B385B08D0A2800D9F4859042F0D98D7076
:1039C0000F70F8BD322806D9B38D934203D98D709C
:1039D0000F70B485F8BD3228FCD9B08D3228F9D2E9
:1039E000B485F8BD0008014050000020B000002060
:1039F000B80B000010270000FEB5674C0026A07C25
:103A0000052800D9A674654D02212846FFF7B9FBA9
:103A1000624F102140373846FFF7B3FB0821284694
:103A2000FFF7AFFB6846FFF7B0FB01216846017165
:103A300046711020009069463846FFF7E4FA0121EC
:103A40006846017146710A20009069462846FFF7D2
:103A5000DAFA69462846FFF7D6FA02212846FFF728
:103A600090FB10213846FFF78CFB08212846FFF712
:103A700088FBA27C02200821130002F0D8F906047A
:103A80001C334A627A89217B002913D06946087168
:103A90004E71102000903846FFF7B5FA02212846F3
:103AA000FFF771FB10213846FFF76BFB0821284612
:103AB000FFF767FB6CE0617B002969D069460E71F6
:103AC0004E7100902846FFF79EFA02212846FFF724
:103AD00058FB10213846FFF756FB08212846FFF710
:103AE00050FB55E0A17B002952D069460E714E7102
:103AF00000902846FFF787FA02212846FFF741FB8E
:103B000010213846FFF73DFB08212846FFF73BFB15
:103B10003EE0E07B00283BD068460671467100918C
:103B200069462846FFF76FFA02212846FFF729FB6E
:103B300010213846FFF727FB08212846FFF721FB15
:103B400026E0207C002823D068460671467100914B
:103B500069462846FFF757FA02212846FFF713FB6C
:103B600010213846FFF70DFB08212846FFF709FB17
:103B70000EE0607C00280BD002212846FFF701FBF5
:103B800010213846FFF7FDFA08212846FFF7F9FA19
:103B9000A07C401CA074FEBD500000200008014025
:103BA00070B5174C154BE3806288002582421BD20A
:103BB0002088401C80B22080124BFA2806D20129AE
:103BC00003D1012018731874587470BDFF26F536A0
:103BD000B04205D20129F8D11D731D745D7470BD0A
:103BE0002580521C628070BDA088401C80B2A080DD
:103BF0009842F8D96580A58070BD0000E2040000FD
:103C00002E0600205000002070B50646308834692A
:103C10000004C1177569001B0822A941B25EFCF7B8
:103C2000E1FA00196941716130610904000C08432F
:103C3000706070BD10B50A4C6069C00602D460693E
:103C400080060BD506480021803800F00FFE30209A
:103C500060610448018802221143018010BD000008
:103C60008007014026000020F0B51048877C104AEC
:103C70002E25555F2A24145F2C236942D35E0EB291
:103C800061425A420B4809B212B2002F06D0068098
:103C900085800281838101828482F0BD06808580D7
:103CA0000181848102828382F0BD00001806002019
:103CB0007C0100200007014070470000F8B506466F
:103CC0000D460121102001F069F83046824980300C
:103CD00001636A79297992001143AA7AEB7A120179
:103CE0005B011A431143AA7992011143EA79D20187
:103CF00011432A7B120211436A7B52021143F1677E
:103D00002988316369887163E98B3162298C71621A
:103D1000698CB162A98CF162697A2A7A090211432D
:103D2000316729462031CB7D8A7D5B001A438B7F2A
:103D3000EC8A9B01E40123431A430B7E1B021A43C6
:103D40004B7E5B021A43CB7F9B031A432B8BDB0317
:103D50001A430262CB7E8A7E5B002C461A434034B3
:103D600023786F8B9B01FF013B431A430B7F497FF5
:103D70001B021A4349020A43617889030A43A98B4B
:103D8000C9030A434262A27B217B92001143A27ABB
:103D9000E37A12015B011A431143627B5200114323
:103DA000E27BD2001143227CD2011143227E120217
:103DB0001143E27D52021143A27E92021143627EC0
:103DC000D2021143227F12031143E27E52031143B8
:103DD0008162627DE17C92001143627CA37C1201CE
:103DE0005B011A431143227D52001143A27DD20090
:103DF0001143227CD2011143627F12021143A27F40
:103E000052021143C1622279A178120111436279F1
:103E1000237A52019B011A431143E27812021143A3
:103E2000A27912031143E27952031143627A920399
:103E300011437167E98C3165298D7165A18EB16778
:103E4000E989B164298AF1641221695EB1631421A0
:103E5000695EF16360352A78E17F520011436A7828
:103E6000AB789202DB021A43114301602A79E978A8
:103E7000520011436A79AB799202DB021A43114373
:103E80008160E97B2A7C0901520111436A7C92011D
:103E90001143AA7CD201114301612A7AE9795200C7
:103EA00011436A7AAB7A9200DB001A431143EA7A33
:103EB000120111432A7B520111436A7B9201114383
:103EC000AA7BD20111438161044931644160C16020
:103ED000416103490163F8BDADDE0000FFFF000052
:103EE000FECA000010B57621FCF73CFA10BD0000B8
:103EF00000B59FB001A8FFF7F5FF00206B461872D0
:103F0000012159729972D97258839883D8831D4AB6
:103F100010AB1A870C226B461A7359731A4A9A808F
:103F2000DA80194A0A3A5A84184A9A844C225A85E5
:103F30009A85DA851A865A869A8608AB9876D87654
:103F40000F9010AB9870D8701871D876179018AB86
:103F5000187010AB1875197258729972D87218AB24
:103F6000D870D874197510ABD9735974D87401A965
:103F70000748FFF7A3FE06488030006A054988839A
:103F80001FB000BDFF1F0000DC05000044FD000065
:103F900000070140E40300200849886D0007000F76
:103FA000C877032802D9002008707047032801D081
:103FB0000870704701208871704700005000002091
:103FC000F8B52D4D16222D4CAA5E22851421695E6E
:103FD0006185E88E2A4B2A4E58432B46DB8E00140F
:103FE00073431B145B42824201DD024602E09A42A7
:103FF00000DA1A4612B22285814201DD014602E052
:10400000994200DA194640435243801A09B21D4AC8
:1040100061851063506B002900B201DB0A4600E0A5
:104020004A42824203DD002900DC40426085164896
:10403000216C006A4018001401F0BEFCE8611C22EB
:104040001E21AA5E2826695E2A20A65F205E1746EA
:104050000B4677434343FB1A714342438818C0130E
:1040600001B2606CDB131BB24343DA1341432A8372
:10407000C8136883F8BD00007C010020B000002058
:1040800000130100000B014068020020F8B54C4805
:1040900080884C4C20810820205E0025002800DA12
:1040A00025810820205E61894018C003000C6081D2
:1040B00061894548AF27454E7F01814200D9608123
:1040C0006089FCF756FE424A424B01F065FF73D807
:1040D0006089FCF74EFE404A404B01F02BFF07D2AF
:1040E0003F4B618932461920FDF7CCFCE08064E04B
:1040F0006089FCF73EFE3B4A3B4B01F01BFF07D2B9
:10410000618933463A463220FDF7BCFCE08054E03A
:104110006089FCF72EFE354A354B01F00BFF07D2C4
:10412000344A61893B464B20FDF7ACFCE08044E01B
:104130006089FCF71EFE304A304B01F0FBFE07D2CF
:104140002C4B2F4A61896420FDF79CFCE08034E011
:104150006089FCF70EFE2B4A2B4B01F0EBFE07D2D9
:10416000274B2A4A61897D20FDF78CFCE08024E002
:104170006089FCF7FEFD264A264B01F0DBFE07D2E4
:10418000224B254A61899620FDF77CFCE08014E0F3
:104190006089FCF7EEFD214A214B01F0CBFE08D2ED
:1041A0001D4B204A6189AA20FDF76CFCE08004E0E9
:1041B00002E0AA20E08000E0E5800620205EF8BD55
:1041C0000004014030000020FF7F00004308000091
:1041D000130BA6AFACAD834095F0B1907E87A040A5
:1041E00075020000853A7A8293E0B5402339E95898
:1041F0007623C640462C00003738DDAC5645D1400A
:1042000015450000573C9EB99E24D64092580000A8
:10421000B0D759167D38D940E164000073F33AB63F
:10422000E7B4DA40D36A0000F8B501461D31F64E16
:10423000F64C132912D81E30FCF793FD3246F44B8E
:10424000FCF7DCFD0022D243FCF7FCFE0022F14B20
:10425000FCF7B8FAFCF70AFDA061D2E1014609318A
:1042600009290ED80A30FCF77CFDEB4AEB4BFCF732
:10427000C5FD0022EA4BFCF7A5FAFCF7F7FCA061AC
:10428000BFE1E14D411E6D421D2911D8FCF769FDCA
:104290002A46E44BFCF7B2FD0022E34BFCF7C2FADE
:1042A0002A46E24BFCF78EFAFCF7E0FCA061A8E19D
:1042B00001461F39132912D81E38FCF752FDDC4A7B
:1042C000DC4BFCF79BFD0022D243FCF7BBFE3246E1
:1042D000D94BFCF777FAFCF7C9FCA06191E10146E4
:1042E0003339D64E09290ED83238FCF73AFD32461A
:1042F000D34BFCF783FDD34AD34BFCF763FAFCF7AF
:10430000B5FCA0617DE101463D3909290ED83C3854
:10431000FCF727FDCD4ACE4BFCF770FD3246CD4B66
:10432000FCF750FAFCF7A2FCA0616AE101464739AC
:1043300009290FD84638FCF714FDC74AC74BFCF7CC
:104340005DFDC24AC64B921EFCF73CFAFCF78EFCA0
:10435000A06156E10146513909290ED85038FCF7C1
:1043600000FDC04AC04BFCF749FD0022BF4BFCF7E3
:1043700029FAFCF77BFCA06143E101465B3909297E
:104380000ED85A38FCF7EDFCB94ABA4BFCF736FDAB
:10439000B94ABA4BFCF716FAFCF768FCA06130E1A9
:1043A0000146653909290ED86438FCF7DAFCB44AAD
:1043B000B44BFCF723FDB44AB44BFCF703FAFCF70B
:1043C00055FCA0611DE101466F3909290ED86E38F0
:1043D000FCF7C7FCAE4AAF4BFCF710FDAE4AAF4B43
:1043E000FCF7F0F9FCF742FCA0610AE101467939DB
:1043F000AB4EAC4F09290ED87838FCF7B2FC3246E8
:10440000A94BFCF7FBFC3A46A84BFCF7DBF9FCF7A1
:104410002DFCA061F5E00146833909290ED88238C8
:10442000FCF79FFCA24AA34BFCF7E8FCA24AA34B73
:10443000FCF7C8F9FCF71AFCA061E2E001468D39EF
:1044400009290ED88C38FCF78CFC9D4A9D4BFCF753
:10445000D5FC9D4A9D4BFCF7B5F9FCF707FCA06124
:10446000CFE00146973909290ED89638FCF779FC38
:104470003246974BFCF7C2FC964A974BFCF7A2F9E1
:10448000FCF7F4FBA061BCE00146A13909290ED874
:10449000A038FCF766FC914A914BFCF7AFFC3A461A
:1044A000904BFCF78FF9FCF7E1FBA061A9E0014616
:1044B000AB39132912D8AA38FCF753FC8A4A8B4B24
:1044C000FCF79CFC0022D243FCF7BCFD884A894BD8
:1044D000FCF778F9FCF7CAFBA06192E00146D339FA
:1044E000132912D8D238FCF73CFC834A834BFCF7E3
:1044F00085FC0022D243FCF7A5FD814A814BFCF7E5
:1045000061F9FCF7B3FBA0617BE00146E7391329B1
:1045100012D8E638FCF725FC7B4A7C4BFCF76EFC96
:104520000022D243FCF78EFD794A7A4BFCF74AF918
:10453000FCF79CFBA06164E00146FB3909290ED819
:10454000FA38FCF70EFC744A744BFCF757FC744ABB
:10455000744BFCF737F9FCF789FBA06151E0C11FF0
:10456000FE3909290ED8481CFCF7FBFB6E4A6F4B3D
:10457000FCF744FC2A466E4BFCF724F9FCF776FB6B
:10458000A0613EE00146FF39103909290FD8481CC7
:10459000FCF7E7FB674A684BFCF730FC3E4A674B89
:1045A0005242FCF70FF9FCF761FBA06129E00146DC
:1045B000FF391A3909290ED8481CFCF7D2FB604A8A
:1045C000604BFCF71BFC604A604BFCF7FBF8FCF708
:1045D0004DFBA06115E00146FF39243909290ED8A9
:1045E000481CFCF7BEFB5A4A5A4BFCF707FC5A4AD8
:1045F0005A4BFCF7E7F8FCF739FBA06101E001201A
:10460000A061A069F8BD0000666666663000002003
:10461000662AA6C0C0DDE340B91E85EB515E80C0AE
:10462000000DC840992981C00000084019A4BB4072
:10463000F1D24D62101057C066C09840D8A3703DAB
:104640000AF735C01F85EB51B8AC8440A6703D0A0F
:10465000D7232CC00A9F7B40D8CEF753E36522C0F6
:10466000D7D37240A01A2FDD248618C000286A40D4
:10467000C09F1A2FDDA410C0AE47E17A147E6240BD
:10468000EE38454772F906C084EB51B81E955A4082
:10469000E8263108AC1C00C0BA490C022B67534015
:1046A0003867446923DBF97E6FF0F6BF6ABC4C4083
:1046B00020166A4DF38EF0BFE27A14AE4791454062
:1046C000F0F44A598638E8BFF853E3A59B644040AC
:1046D0006FF0E1BF643BDF4F8D37394020C9E53FC4
:1046E000A4DFDABF6A9C33400CE02D90A0F8E1BF54
:1046F0006CE7FBA9F1D22E40703480B74082CABF6C
:104700007E3F355EBAC91940E461A1D634EFC0BF1F
:104710001A2FDD2406811140B8627FD93D79A8BFE8
:10472000068195438B6C08404C158C4AEA04A4BF63
:104730009999044020386744696FA0BFD47801403C
:10474000C85D4BC8073D9BBF022B8716D9CEFD3FE6
:104750000066F7E461A196BF5A643BDF4F8DF93FD5
:1047600010B5FFF761FD0B4C6061FCF7FAFA00220F
:10477000094BFCF727F80022084BFCF723F8024608
:104780000B4600200649FCF74DF8FCF76FFA00B223
:10479000A08110BD30000020008049400000594039
:1047A000565C514102480021C160816181607047BF
:1047B0004803002030B50D480D4A0E4B0479986926
:1047C0001169042C0DD20C4D14682D8B64106C43B0
:1047D000DD696419DC611862516008490120487084
:1047E00030BD18625160D86130BD00006C010020FE
:1047F000F00200206802002038060020B0000020EF
:104800000421415EC90082688A4206DA0023C35E41
:10481000D21882608A4200DB816082688A4206DDAB
:104820000223C35ED21A82608A4200DA8160826803
:10483000D310C3808A4201D1012070470020704705
:1048400010B50121480200F087FA0749054888623F
:10485000C8050169890889000161016901221143C4
:10486000016110BD837A000080000040084A80305A
:104870000263012906D0816A064A11408162064915
:1048800001637047816A402211438162F7E70000AB
:10489000ADDE0000BFFF0000FECA000070B5214D74
:1048A0002148698A0181A98A418100241F4918226F
:1048B00004608A5EC460514241602C706C83AC839A
:1048C000143004601A49C4604160E98A0181298B6F
:1048D00041811549174838390A46434209C11C32FB
:1048E000D46009C20B463220603B4C60D88212482B
:1048F00006890E8046894E8081891180C189518048
:10490000EC650E4A2C661168696684611161AC65BC
:104910001C610A21AC66C1872C64FEF707FB6C8022
:1049200070BD0000B0000020C8060020BC010020BF
:10493000E0FCFFFF0000701768020020F00200207A
:10494000F0B5344E22213046415E26227588825EC3
:10495000046D436DC9003048AC46012D00682F4DF1
:104960003FD040350E27EF5F67437C131027EF5F82
:104970005F437B13C91A604310410818284940421D
:10498000884202DC4942884200DA0846F0833084DB
:1049900021482021C28B715E036A4A439A18026241
:1049A000838B52134B4319138A180260C18E8A42BB
:1049B00002DC0160490301620068716E0203521A51
:1049C000921151187166174A09131161B189164A7B
:1049D0004843F16B0918F16391616146002907D0E2
:1049E00007E00C27EF5F67437C130E27EF5FBFE7FD
:1049F00000203064308D7084084A16201421105E27
:104A0000515E40434943411808480163406B0849DF
:104A10000882F0BDB0000020580600207C01002074
:104A2000E02E0000F002002068020020000B014090
:104A30004803002010B5034614461348828A1348E1
:104A40004089101A6822105302200222185E8A5EE2
:104A5000504300D5404200229A5E0023CB5E5A4369
:104A60008018A0600013206120461030FFF7CCF8BA
:104A700060602921484340122060A06822214843F9
:104A80008015E06610BD000000040140BC0100205C
:104A9000FEB5089B01240094334C324DA562334C83
:104AA00001263604A3424FD12F4C314D403465616D
:104AB000304D314C6B4063401C68304D2C401C60C5
:104AC00070601C68F5022C431C601346C91C8F08DB
:104AD000BF000197029015E0029989088900716072
:104AE00019785C78240209199C78DD7824042D0655
:104AF00064190919B1601B1D0199091F01910299DF
:104B0000091D029101990029E6D10197029018E050
:104B10000298800880007060107853781B02C018DB
:104B20009378D4781B0424061B19C018F3688342B9
:104B300000D00091121D0198001F01900298001DE5
:104B4000029001980028E3D10749002040314861D4
:104B500031680B4A11403160034988626846007829
:104B6000FEBD0000837A0000800000400CA4FD9A86
:104B7000358F00000F045C6A03A0A0F0FF7FFF7F69
:104B8000FFF7FFF710B51548807F002814D11449AE
:104B90008878002810D0002088700C460B784C3C98
:104BA0002178A279491CC9B2012B06D0022B03D16E
:104BB000002A0ED0A071207010BD002A02D0A07172
:104BC000207010BD21700229FBD90121A171207034
:104BD00010BD21700229FBD9207010BDA005002056
:104BE0009C00002070470000FCB5418B182349420F
:104BF0000AB24283C35E69460B80474902254A4395
:104C0000990351184942CA17520C5118C9130CB2D2
:104C100069464C80191949420AB269468A800146A0
:104C20002031A3421CDC93420BDC944204DC0126BD
:104C30004E760E76164602E04D760D7626469E1985
:104C40001EE01619F70FBE1976109B1B6F463B80AE
:104C5000A31B7B80921BBA8003224A760D7629E043
:104C6000944218DC934205DC04264E7601260E762B
:104C7000164604E005264E7603260E761E46A61935
:104C8000F70FBE1976109B1B6F463B80A31B7B80E2
:104C9000921BBA800EE0D618F70FBE1976109B1B38
:104CA0006F463B80A31B7B80921BBA8006224A760C
:104CB00003220A760022194BBA5E0126B6031B882E
:104CC00092195A43D4131A46643A944201DD1446A9
:104CD00002E0392C00DA0024448502243C5FA41948
:104CE0005C43E413944201DD144602E0392C00DAFF
:104CF0000024848504243C5FA4195C43E31393429D
:104D000004DC392B01DA002200E01A46C2850120BA
:104D100048768D76FCBD0000DA6E0000BA000020F7
:104D20003EB50B4C22886B461A814031CA881B89DC
:104D3000D21AA4896B461C8109891B89C91A6B4642
:104D40001A80598006226946FBF7AFFA3EBD000083
:104D5000000401407047000010B50F4C0D4AA262DC
:104D600023151A0501290BD0410503D511691943F3
:104D7000116118431169814311610020A06210BDC7
:104D8000410503D5116999431161984311690143A4
:104D90001161F2E7837A000080000040084A074B67
:104DA0009362002903D0D1690143D16102E0D16946
:104DB0008143D1610020906270470000837A000037
:104DC0008000004010B50948007801280DD1084C3A
:104DD00002212046FEF7D5F9054810214030FEF7A4
:104DE000D0F908212046FEF7CCF910BD02000020C2
:104DF0000008014008B50021009103E000BF0099C0
:104E0000491C009100998142F8D308BD10B5426851
:104E10000168891A4162084A914201DD114604E0A5
:104E2000054A5242914200DA11464162183000F0C0
:104E30001BF80249C88110BDFF7F0000BC010020A3
:104E40000268C1688A4205DA836BD21802608A421E
:104E500000DB016002688A4205DDC36BD21A026082
:104E60008A4200DC01607047F1B588B0089800689C
:104E7000C117820A8D051543840508984068C1173B
:104E8000820A8F05174386050898089AC06807901C
:104E9000C117069152890023FBF7B7F9089AD1612F
:104EA00090610591049008980599036942690498F6
:104EB00018184A4108994A61086111460392029004
:104EC0000A462946201A914103DA0898456104618F
:104ED00007E002990398891BB84102DA08984761F4
:104EE0000661089A0023128906990798FBF78DF945
:104EF000420EC9011143C001089A13695269C018D2
:104F00005141089AD1619061019100902A46201A7E
:104F10008A4103DA0898C561846107E00099019825
:104F2000891BB84102DA0898C761866108988169CF
:104F3000007F8202880D104300B209B0F0BDC16845
:104F4000C90142698A4206DA1023C35ED21842615F
:104F50008A4200DB416142698A4206DD1223C35E58
:104F6000D21A42618A4200DC4161704770B516482E
:104F700000240460154A0220105E154B411C154D9B
:104F800009B20A2803DA51809888A88009E0142819
:104F900003DA51801888A88003E00F4904200871C3
:104FA00054800E4E304600F0D5FE2880304600F08A
:104FB000D1FE68800748FFF723FC0948C48144827A
:104FC0008482048270BD0000F002002004040020EE
:104FD000A80200206C0300206C0100200AD7233CAB
:104FE000BC010020F8B53C4E3C4FB07B3D468035BF
:104FF000002400280BD03A493A4B085F3A493B4A13
:10500000002814D0642823D0C82829D02FE00120FC
:10501000B073FF20C3307885B885F8854042388664
:105020007886B886286B80472D48048045E00B635E
:10503000908B2F4B18430862908B0C2210434862D0
:105040000C63294801218038FFF710FC00BF0EE0F7
:105050000B63908B274A104308620C6300BF06E085
:105060000B63908B0822104348620C6300BF1C49FD
:105070000020085EFF222D32904202DA401C088098
:105080001BE0194800218038FFF7F0FB72B67C85E1
:10509000BC85FC853C867C86BC86286B8047124993
:1050A000FF2040390860FEF723FF13484169C2140E
:1050B0001143416162B60120F073F07B01280AD1EF
:1050C000B47307480480F47300F028F806480121FF
:1050D0008038FFF7CBFBF8BDA80200207C01002040
:1050E00004040020ADDE000080070140E40300203E
:1050F000080C00000C0800004004014010B50549F0
:105100000020C87000210448FFF7B0FBFDF7F6F857
:1051100010BD00006C01002000070140F8B500211F
:105120008048FFF7A3FB804800F024FE7F490882F7
:105130007F4800F01FFE7D4948827E480024847726
:105140007C49782008840C20488408468480448068
:1051500004808460846144610482C460FFF722FBA0
:10516000754FBC7071488473C473002000F0E0FD7B
:105170006E498881714D284600F0ECFDFCF730FB4C
:105180006A498882284600F0E5FDFCF729FB67495B
:10519000C8826C4D6A4828806880A8802E46803678
:1051A000306B8047284640300482C481EC81AC815A
:1051B0002C826C82848244822C806C80AC802C8611
:1051C0006C86AC86B4613462EC6774602C836C834B
:1051D000EC82AC82AC84EC842C85002000F0BAFD1B
:1051E00052490860584800F0B5FD5049486057489A
:1051F00004824482446184808460C480544800F006
:10520000B9FD4A49886008468477848351484480C0
:105210000A20F8807D20504D400128844F48688442
:105220000021A962E9624E4E304600F093FDFCF782
:10523000D7FAA861304600F08DFDFCF7D1FA404264
:10524000E8616C622C60EC60464E304600F092FDE6
:10525000FCF7CEFAA863304600F08CFDFCF7C8FAE4
:10526000E8636C606C64304800F084FDFCF7C0FAC1
:1052700028643D48A8643D48007C002807D13C488C
:1052800000F068FDFCF7ACFA29464031C881394886
:1052900000F070FDFCF7ACFA2865374804608460C4
:1052A0000022026242620521018304614461FFF72A
:1052B000F5FA274800F05EFDFCF79AFA2F49888737
:1052C0002F4800F057FDFCF793FA184DE8632D487E
:1052D00000F050FDFCF78CFA28642B4804804480D1
:1052E0008480C480048144818481FCF751FF0025BF
:1052F0007D5FFCF71BFA3888401B02D43888401BBE
:1053000001E03888281A0228F5DB2048F021C18006
:10531000C82101814181AA21818144848484322170
:105320000171F8BD0007014000002041A8020020E3
:105330000000A041480300206C010020CDCCCC3DF2
:10534000EE0200007C010020CDCC0C3F6C0300205D
:105350000000704202000020F002002070170000E0
:105360009A99193F000040403904000018060020B7
:10537000CDCC0CBF0000AF433005002068020020F8
:105380000000F0410000FA4304040020A0050020C2
:10539000F8B5304DA87F00285BD12F4C2846A17866
:1053A00080682E4E002927D04042F060002000F097
:1053B000E1FC30822A4800F0DDFC70822748FFF7CC
:1053C000BEFD7069274EC011F060FCF711FA306025
:1053D00025488169C069081A2862002800DA40421D
:1053E000001428622149002640182149884205D22C
:1053F000A88C401CA88402E0F060D7E7AE840720A8
:1054000020710120A877A1781A481B4C002902D0EE
:10541000012906D00BE000F09DFCFCF7E1F9608269
:1054200005E000F097FCFCF7DBF940426082134F87
:10543000384600F08FFCFCF7D3F9A882384600F01C
:1054400089FCFCF7CDF9E882FCF792FBFCF7B0FB96
:10545000A682F8BDA80200206C0100206C03002089
:105460000000A041F0020020680200202FF8FFFF9A
:105470007F3E0000CDCC0C3FBC010020CDCCCC3D0C
:10548000F8B5744B0C21595E734F744E744D754CC6
:10549000022912DA74480088012809D128690028F5
:1054A00000DA40423A6C904202DD491C998101E0E9
:1054B00000209881FCF77CFB5EE006206849185EBE
:1054C000496802280EDA401CD8800E20205EC217E0
:1054D000830A92051A438005EA62A8622960FCF7F4
:1054E00067FB49E0BA8B521C12B2BA83002A43DB35
:1054F0000022BA8302280DD10320D8801220205E1A
:10550000C217830A92051A438005EA62A8622960DD
:10551000FCF74EFB5548827A5549012A03D0807A20
:10552000022806D007E05348007880000858E86059
:1055300001E00868E86050488078002802D001281F
:1055400006D00AE0E868002807DA4042E86004E094
:10555000E868002801DD4042E860307801281AD070
:10556000012070703E48FFF76BFC3D48FFF74EFC92
:10557000FCF746F9414908804148817F394840306D
:10558000012910D03949897A00290CD029690029CC
:105590002FDB0A462EE03B4900200880374908806F
:1055A000FCF706FBE8E7818F2187C18F61872D49D2
:1055B00080310A8B8282498BC1822C48007C284F23
:1055C0004037012806D1304800F0C4FBFCF708F949
:1055D0008010F881F88960820120307028690028E5
:1055E00000DA4042296D88422EDA234809210171F0
:1055F0002AE04A42254D264BAA420BDC9D8925878D
:10560000DA89628719898182C182B180F18035810E
:10561000728117E0002900DA49421E4A914211DBEB
:1056200099897D2292025143090C2187D9891A4A0E
:105630005143090C618719897D2292025143090C5B
:105640008182C182002030700C480088A082FCF763
:105650008FFAF8BD04040020A802002002000020F8
:10566000F0020020BC010020B2000020180600203B
:105670000C060020550000206C010020CA0000200C
:10568000A0050020CC000020CDCC0CBF701700007E
:10569000680200201027000000C4090006490A2003
:1056A000085EFA2802DA401C4881704700204881D1
:1056B00002490871C8707047040400206C01002082
:1056C00070470000F8B53B4C3B4F20793B4E00251E
:1056D000030000F0ACFB0C07201B292C52522F5268
:1056E00044474C52B87F002808D13548807A0028BA
:1056F00004D00120E070344932480860FFF70EFD05
:10570000E078002839D00220207136E0FFF76AFCEB
:105710000120207131E0FFF701FD01212B48FFF747
:10572000A5F80320207128E0FFF720FC25E0FFF713
:105730002FFE22E0388A7D210901884201D2401CD7
:105740003882FFF79DFEE078002816D130880028C7
:1057500013D100211D48FFF789F825710DE0FFF7EF
:105760009DFF0AE0E088002807D0257105E0FFF7DB
:10577000C5FC3088002800D12571E078002809D1C7
:105780003088002806D100211048FFF76FF8C820A4
:10579000E08025713088002805D000210B48FFF7F4
:1057A00065F80B202071B87F012802D10848858652
:1057B0004586F8BD6C010020A005002026000020D1
:1057C00018060020C0DA0000A000002000070140F9
:1057D0002C04002000B5FCF787F900BD70470000DD
:1057E0000948016A04221143016208480179491CF1
:1057F0000171C188491CC1800189491C018141890D
:10580000491C418170470000000601405C010020F6
:1058100070B505460C462748854203D1012120205A
:10582000FFF7BCFA2448854203D101214020FFF74D
:10583000B5FA20782179C007C9060843217A89067C
:105840000843217B09060843218A09050843A18AE8
:1058500009040843E16909030843216AC9020843AE
:10586000616A89020843A16A49020843E16A0902A0
:105870000843616B09010843A16BC9000843E16B50
:1058800089000843216C49000843616C0843286083
:10589000A0696860E06CA860A06CE860206B28617B
:1058A000206D6861606DA861A06DE86107202862C5
:1058B00070BD0000000501400006014000210160AC
:1058C00041608160C1600161416181610122C26109
:1058D000026241628162C162016341638263C163AA
:1058E000016441648164C1640165416581657047FB
:1058F00070B5234921480880224D002428790A28C0
:105900001BD32C71204EF088002801D0401EF0805F
:10591000FCF7A8FB00F0AEF8FDF78CFC1B480088F4
:10592000002801D00B203071FFF7CCFEFEF7AEFB54
:1059300017492220085EFCF72DFAE888642802D374
:10594000EC8000F079F828897D21C900884206D3CF
:105950002C811048807C012801D1FDF78FFE6889D9
:105960000D49884204D36C8100F0C8FA00F08EF82B
:10597000A878002800D0AC7070BD0000750200004F
:10598000000000205C0100206C01002026000020A7
:105990007C010020A00500208813000010B50549F7
:1059A0000348886201210803FFF7D6F910BD000003
:1059B000837A00008000004018B50121C903411816
:1059C00009048A0D032109020A400121C903401874
:1059D0008004010E4800FF24611A154B4900002A7B
:1059E00016D0FF3A013A1BD0FF3A013A03D0FF3AF2
:1059F000013A1BD105E0185A6A465080585A108067
:105A000014E0595A6A465180185A404210800DE0FD
:105A1000185A6A4640425080585A4042108005E069
:105A2000595A6A4649425180185A1080009818BD48
:105A3000E06A00007047000010B5FDF74DFCFDF76F
:105A400089FAFDF7D9FB07498881898906480187CA
:105A50000649098841870649098A8187FFF7B2F913
:105A600010BD000018060020A00500203600002010
:105A70000004014010B5FDF73FFFFFF783F8FDF785
:105A80009FFDFCF71FFAFDF781FE10BDF8B55C49DC
:105A90005C4C0D4638228B7F2046AA5E40300025A4
:105AA000002B03D042812576E575F8BD2576E57596
:105AB0004281607D401CC3B26375022BF5D351480F
:105AC000457534268E5F5048B71A504B38189842A7
:105AD00003D94C480423837516E04D484A4B3818C7
