:020000040000FA
:10000000B00D00209D010000AB010000AD0100001B
:1000100000000000000000000000000000000000E0
:10002000000000000000000000000000AF01000020
:100030000000000000000000B10100004D6200005F
:10004000C1630000C9630000D9400000994100006D
:100050005D3D0000ED520000C53400002138000075
:10006000C5660000B91800002914000051200000E6
:100070004169000081540000000000000000000001
:100080000000000000000000000000000000000070
:100090000000000000000000000000000000000060
:1000A0000000000000000000000000000000000050
:1000B0000000000000000000000000000000000040
:1000C00000F002F800F03EF80CA030C80838241800
:1000D0002D18A246671EAB4654465D46AC4201D180
:1000E00000F030F87E460F3E0FCCB6460126334274
:1000F00000D0FB1AA246AB4633431847D479000020
:10010000F4790000103A02D378C878C1FAD85207BF
:1001100001D330C830C101D504680C6070470000BD
:100120000023002400250026103A01D378C1FBD813
:10013000520700D330C100D50B6070471FB51FBDFB
:1001400010B510BD01F03CF91146FFF7F7FF06F0BE
:1001500081FC01F054F903B4FFF7F2FF03BC01F096
:100160005BF9000070B505460C46164602E00FCC60
:100170000FC5103E102EFAD2082E02D303CC03C5B1
:10018000083E042E07D301CC01C5361F03E02178B9
:100190002970641C6D1C761EF9D270BD094880F36D
:1001A00008880948804709480047FEE7FEE7FEE760
:1001B000FEE7FEE7FEE7000005480649064A074B52
:1001C00070470000B00D0020B9630000C1000000BE
:1001D000B0070020B00D0020B0090020B0090020B9
:1001E00010B5202A04DB0146203A9140002010BDC2
:1001F000914020239C1A0346E3401943904010BDD0
:1002000010B5202A06DB0846CB17203A1041C1174B
:100210000B4306E00B4620241341D040A21A914024
:100220000843194610BD4343514330B55C18010CD7
:10023000130C0D4692B25D4380B251432C19054612
:1002400055430A0C09044D1962415843010C00043E
:100250004019514130BD70B500252C46AD1A9C4166
:1002600012DA00252C462D1A8C4102DA01F027F80B
:1002700070BD002440428C41214601F020F800244A
:1002800040428C41214619E000252C462D1A8C4114
:100290000ADA002452429C41234601F010F800245F
:1002A00040428C41214670BD002452429C41404254
:1002B000234600248C41214601F001F800245242DB
:1002C0009C41234670BDF8B5042A2CD3830712D075
:1002D0000B78491C0370401C521E83070BD00B780F
:1002E000491C0370401C521E830704D00B78491C24
:1002F0000370401C521E8B079B0F05D0C91ADF00EC
:100300002023DE1B08C90AE0FFF72CFFF8BD1D46BD
:1003100008C9FD401C46B4402C4310C0121F042ADB
:10032000F5D2F308C91A521EF0D40B78491C037099
:10033000401C521EEAD40B78491C0370401C012A51
:10034000E4D409780170F8BD01E004C0091F042954
:10035000FBD28B0701D50280801CC90700D0027038
:10036000704700290BD0C30702D00270401C491E01
:10037000022904D3830702D50280801C891EE3E78B
:100380000022EEE70022DFE7002203098B422CD394
:10039000030A8B4211D300239C464EE003460B43D5
:1003A0003CD4002243088B4231D303098B421CD337
:1003B000030A8B4201D394463FE0C3098B4201D329
:1003C000CB01C01A524183098B4201D38B01C01A61
:1003D000524143098B4201D34B01C01A52410309D8
:1003E0008B4201D30B01C01A5241C3088B4201D387
:1003F000CB00C01A524183088B4201D38B00C01A34
:10040000524143088B4201D34B00C01A5241411A5A
:1004100000D201465241104670475DE0CA0F00D03D
:100420004942031000D34042534000229C46030936
:100430008B422DD3030A8B4212D3FC22890112BABC
:10044000030A8B420CD3890192118B4208D3890194
:1004500092118B4204D389013AD0921100E08909AC
:10046000C3098B4201D3CB01C01A524183098B428D
:1004700001D38B01C01A524143098B4201D34B0176
:10048000C01A524103098B4201D30B01C01A5241D9
:10049000C3088B4201D3CB00C01A524183088B4260
:1004A00001D38B00C01A5241D9D243088B4201D3E9
:1004B0004B00C01A5241411A00D2014663465241D4
:1004C0005B10104601D34042002B00D549427047D3
:1004D00063465B1000D3404201B50020C046C046D1
:1004E00002BD704770477047F0B50C46871A9C41B3
:1004F0000D46861A9D4103D2C01BA141D21963410A
:100500000D0D1F0DC94EEC1BAE435CD07F057F0D5A
:100510000026002F51D02D05AC46A943DD02012352
:10052000ED0A1B051D4320231B1B24D41746E7405F
:10053000381871412F46E740CC199D4028183146A4
:1005400061410C0D27D161449A4013D50023401C12
:10055000594152000ED14008400001224B00520583
:10056000D34207D305204007C14201D5B04900E07E
:10057000B0493046F0BD6B00002A00D001229A1825
:100580001F23203C1B1B01D5002302E0E540281857
:1005900071410C0DD7D0012424050919C407CD07DA
:1005A00040084908E40F28436144002CD5D00024BA
:1005B000401C61419A40D0D1CDE76A05520DD9D196
:1005C000C90FC907D5E79C4D4E00002801D0012472
:1005D00000E0002434195F00002A01D0012600E069
:1005E0000026BE19954FAC420CD8AE420AD8B44290
:1005F00006D001256D05EC42BCD010461946F0BD71
:100600009942FCD000203946F0BDF0B51FB40C462D
:100610000F46811A9F412546861A9D4106D2012523
:10062000ED076F40401ABC4152187B41210D1E0D51
:100630008D1BAC467D4D8D437ED075056D0D7CD0F8
:100640000D05AE46AC431B031B0B794D52429D4139
:10065000202366469B1B14D31746F7403818002604
:100660000090744160462F460741E41900989D4070
:100670002818664116D4714671189A4025D5012371
:1006800020E093182A466A415200002B00D0521CE9
:100690001E23203E9B1B002B61DD3541EE172818E1
:1006A0006641E8D5001876415B1C9A4000D3401C97
:1006B0004B05F3181524E34010D3002B52D071469C
:1006C0007118D30FC01802D3491C05B0F0BD012327
:1006D000DB079A42F9D140084000F6E701225205B3
:1006E000B21801D1002853D00123CC0ADB02994370
:1006F000891E002A08D1020C03D0020C0004103914
:1007000002E00246002020390023550B05D11202D9
:100710000823550B01D152010D23550C01D11201B3
:100720001B1DD50C01D192009B1C150D01D152004F
:100730005B1C2025EE1A01E02CE022E00546F54086
:1007400015439840CA1AE10769181305C918002A09
:10075000BBDA032040070818C10FC9070FE0714634
:100760006118B2E7F10740080843711071444A006C
:100770000CD001235B059A42A7D2C90FC9070020FC
:10078000A3E74905490D26D1002001E00028F4D156
:1007900000219AE7284D6600002801D0012100E0E1
:1007A000002171185F00002A01D0012600E0002618
:1007B000BE19224FA94210D8AE420ED8B14208D07D
:1007C00001256D05E94206D01946A80241401046B0
:1007D0007BE79C4201D0214677E70020394674E749
:1007E00010B50C465C4005D50124E4076340FFF7D3
:1007F0000CFF10BDFFF778FE10BD30B40C465C4016
:1008000004D50124E407634030BC6DE630BCFCE64F
:1008100070B50124E40761400D465D4002D4FFF746
:1008200063FE70BD6340FFF7F0FE70BDFF07000080
:100830000000F0FF0000F07F0000E0FF0000F87F04
:10084000F0B5F94D0C091E092C402E402F468BB0F7
:10085000A7437DD0B543FCD0002E7AD0002CFCD02D
:100860000D465D40ED0F2543AC1BFF25AD0464191B
:100870000894C502440DC9022143500DDC02044313
:100880000120C00701430443D2020191200C110C46
:1008900000958C46010423468B430A916146090466
:1008A000E24D8A430991010A7D444919803909784A
:1008B00005464D4301266D18F605751B6943C90CA5
:1008C000640B891C4C436418B5012C1B250C2E04A9
:1008D000B4434C434D43210C691889090591009D8F
:1008E000E90701D00121C90704912C460199670845
:1008F000CD072F434C08059DE10B4D432D0C294698
:100900006646754302950D4645432E46029D7D1B66
:10091000B44100950D465D4301942C0C2F040D4607
:100920005543AE462D0C3D43029503947546049CF9
:100930002D04641B049406D2029C039D641C0026B3
:1009400075410395029401AC70CC009F7D1B01E0C2
:100950003EE162E1B44109040095079101940599D3
:10096000A4086143090C0C464443650BE7040C469C
:1009700066467443A646640B3C4303950294744652
:10098000049DE4042C1B049406D2029C039D641C69
:10099000002675410395029401AC70CC009F7D1B2D
:1009A000B44101940C465C430095650FE7000C468A
:1009B0005443A646640F3C43039502947446049D39
:1009C000E4002C1B049406D2029C039D641C0026A8
:1009D00075410395029401AC70CC009F7D1BB4411E
:1009E000AE09AF06049DC900AD092F43049DA406BE
:1009F000AD060495079D344369180791059DE10BE9
:100A00004D432D0C29466646754302950D464543D8
:100A10002E46029D7D1BB44100950D465D43019419
:100A20002C0C2F040D465543AE462D0C3D4302952C
:100A300003947546049C2D04641B049406D2029C06
:100A4000039D641C002675410395029401AC70CC93
:100A5000009F7D1BB44101948C050694079C890A74
:100A6000611800950791019C0599A4086143090C40
:100A70000D464543680BEF040D46644665436C0B19
:100A80003C43049FED047D1BAC4602D20025641C50
:100A90006841009E019D371B8541084658430195DA
:100AA0000C46460FC5005443600F28436546E400DA
:100AB0002C1B02D20025401C6E41019D3F1AB541FE
:100AC0002846BD09800628438446A009BF064E0279
:100AD0000699A40676180743079D002068410A99E5
:100AE000079019430020099B00906046FF191343AB
:100AF0004041E20F64003A43A4460446D71A8C41B1
:100B0000A04203D90120009020463A46C70F94180E
:100B100040416246D20F2243644664000494009C24
:100B2000BE466400D71AA446044602978C41774615
:100B3000002F01D1A04204D96046401C8446029A8D
:100B40002046C40FA64694184041049A0546D20F89
:100B5000224364466400D31A8D417146002901D1B5
:100B6000A84202D928461A46641C104301220028D4
:100B700000D0164361020020079B891904465C419E
:100B80000223002C02DB491813466441089DCE0A5B
:100B90002D145D194B056705E10A2C050D190899FF
:100BA0003E43C9076940002B08D0934006D300227A
:100BB000761C5141002B01D1760876001C4A002D8D
:100BC00043DB154241D0AA433FD030460BB0F0BDC5
:100BD00006180D464D41174C7642AC411AD3951874
:100BE0001C465C41134A6D42A24113D301225205B7
:100BF0004C00D4420AD15C00D4420BD04B4002D509
:100C000092021143E2E749004908DFE75940C90F62
:100C1000C90718E000200849D8E7054801420DD16E
:100C20000342F7D0F2E700000000FF076471000004
:100C30000000F07F0000E0FF0000F87F11485940FD
:100C40000143C01241400020C0E70123089A9B06DF
:100C50009A4205DC032252078918C90FC907B5E774
:100C6000052252078918074A1143D2125140ADE7B5
:100C700070B515461C4602460B4628462146FFF72E
:100C8000DFFD70BDFFFFFF7F30B50346CA02400D98
:100C90001043164D164C0A1502D02043002A06DBDD
:100CA000AA1A002A12DDD040FF2A0BDC30BD520503
:100CB000520D01D140004008AA1A07D4D04040424A
:100CC000FF2A01DD002030BD0028FCDD4A00002B9A
:100CD00001D0012000E00020101801225205D0426E
:100CE000F0D8C817C043604030BD00001E040000AB
:100CF000000000800346CA02400D10B510430A15DB
:100D000004D00124E4072043002A05DB0A4CA21A80
:100D100004D4D040FF2A00DD002010BD4A00002B83
:100D200001D0012000E00020101801225205D0421D
:100D3000F2D8C817C04310BD1E0400001F22030CC8
:100D400002D10F22000402D0030E03D004E00020E1
:100D5000014670470002083A030F01D10001121F3B
:100D6000830F01D18000921E002801DB4000521E3B
:100D7000120551184205C012411810467047C10FA4
:100D8000C90700D04042012292071143D6E7012152
:100D90008907D3E710B50B1E01D0202301E0011E07
:100DA0002BD00C0C01D10904103B0C0E01D109020F
:100DB000083B0C0F01D109011B1F8C0F01D18900C9
:100DC0009B1E002901DB49005B1E0446DC402143D9
:100DD0001C05A4182022D21A90404B05C20AC90A49
:100DE0001A430919830501D1430818401623984076
:100DF00002D30020521C4141104610BDCA0FD20739
:100E000003D00B46002140429941024B1A43C1E7EF
:100E1000004ABFE70000D041F0B58B4C0F092546D2
:100E200089B0BD437BD01D092646AE43FAD00E469D
:100E30005E402740F60F3E43254071D024012142F9
:100E4000FBD0FF24AD19A4042D1B039501252D050E
:100E5000DB02DB0AC9022B43C90A29431E0109012F
:100E6000040F130F050121431701880B82039143DF
:100E70002D098C46A90B1E438A039543B30B9A0395
:100E800096433F09BA0B9403A74302962E467E432E
:100E90000497B6464E19D7190C4601965443059748
:100EA0007E43371B7646BF1B3601B646BE0B36194E
:100EB00000967646BC043719009C01D3641C00944C
:100EC0006400002F01D001263443029E049F754325
:100ED00066467E430496760034196E0034190094F9
:100EE000029C019E1C196643751BAE46069465461E
:100EF0004519059C05956C43594375460891691A37
:100F00000191049E01465143A41B0491611A009C67
:100F10000791E10605D061090122114302E072E068
:100F20006EE06109089D00272C0A2D066918049DB2
:100F30007C412A0A2D066918019D6241AC0DAD0263
:100F40006D185441079A910D920255196141029A08
:100F5000644658435443069B059A5A43121A131B7E
:100F60009A0E9B015B187A41010B0005C318514191
:100F7000220A200644195A419A4200D2491C0120F3
:100F80004002814203D315230226F64302E01423D4
:100F90000326F6432020C51AA9401746AF40DA4081
:100FA0000A4320460399D8400914731819055118AB
:100FB000039A3843D2075140AC4009D001229440F3
:100FC00006D30022401C5141002C01D140084000B2
:100FD0001E4A934212D3012203989206904207DBE5
:100FE0000520400709181A480143C012414004E097
:100FF000032040070818C10FC907002009B0F0BD41
:101000000020F107FAE705180C464C4111486D42E3
:10101000A04115D394181A465A410E486442904193
:101020000ED301204A004005824209D35A00824271
:1010300006D35940C90F084AC90700201143DDE70C
:1010400000200649DAE700000000FF07FE07000065
:10105000FFFFFF7F0000E0FF0000F07F0000F87F4F
:101060000121C9050123411842001B06D3185B0E5C
:101070000AD0C1100722D206891840075242D14235
:1010800001D5520089187047090208D50146002A87
:1010900003D0C10FC90700207047104670474202B5
:1010A00002D0002002497047072109050143F4E7F7
:1010B0000000F87FF0B5FF252D04C609C209FF27FF
:1010C00004462E400137CB093E4348402A402B407E
:1010D0000746002A6BD0002B69D0AA4267D0AB42EA
:1010E00065D0002800DA32460125ED0529432C435E
:1010F00009022002090AD21A4B0C7F24E31A434C3E
:10110000000A7C44E35C7D242404121914145B005F
:10111000A218884201D3521C00E0400049420C460C
:101120005C4324115C43DB016415E318040A5C434F
:10113000C502200D0C4644436419250A5D43230370
:10114000EC0C0D46654300030019EB184C42A3421A
:1011500001D35B18401CD4052018002B07D05B007E
:10116000C91804D3401C002901D1400840003F2188
:1011700089048A4209D3002A08DC1106090F04D029
:10118000032149074018C00FC007F0BD01224100EC
:10119000120689187F2252069142F6D2052149078C
:1011A000C84201D59010F0BDFF20C005F0BD002F52
:1011B00000DA32461648AA4207D2AB4205D21902DB
:1011C000090E17D0F80FC007F0BDFF2563002D06EC
:1011D000AB42F9D84900A942F6D8AB4201D1A942A5
:1011E000F2D0A94201D1002101E061004908D005F7
:1011F0000843F0BD1102090EFBD0FF200243D005C9
:10120000F0BD0A460146104654E700008A69000016
:101210000000C07F10B501469E240002CA15A30736
:10122000002A02D01843002A04DBA21A002A0CDD8F
:10123000D04010BD1206120E01D140004008A21A83
:1012400003D4D04040420028F3DDFF2248001206BC
:10125000904201D9002010BDC817C043584010BDAE
:101260001F22030C02D10F2200041CD0030E01D157
:101270000002083A030F01D10001121F830F01D1B0
:101280008000921E002801DB4000521ED20551183A
:10129000021251181922904004D3491C002801D190
:1012A0004908490008467047C10FC90700D04042AD
:1012B000012292071143D3E701218907D0E7FEB548
:1012C000054610460C46184373D0AE468C460020A7
:1012D000AD1A01469C4167D36646002701243D466E
:1012E000B61A9D4102D313463A46212465467646F6
:1012F0002F04360C3E432D0CB61A9D4104D3150C19
:101300001B042B4312041034654676462F06360A1A
:101310003E432D0AB61A9D4104D3150E1B022B43E2
:1013200012020834654676462F0736093E432D09DA
:10133000B61A9D4104D3150F1B012B431201241D26
:1013400065467646AF07B6083E43AD08B61A9D41DE
:1013500004D3950F9B002B439200A41C6546764650
:10136000EF0776083E436D08B61A9D411AD39218CE
:101370005B41641C16E00018764665464941B71A81
:101380009D410191009009D36046B11A98418E4663
:101390008446009801990025401C6941DD075208E8
:1013A0002A435B08641EE6D57246634603B0F0BD6F
:1013B000FFE700200146C046C0462A462346F5E71F
:1013C000754600F025F8AE46050069465346C0084C
:1013D000C000854618B020B5FEF7EEFE60BC0027C1
:1013E0004908B6460026C0C5C0C5C0C5C0C5C0C5F1
:1013F000C0C5C0C5C0C5403D49008D46704710B549
:101400000446C046C0462046FEF7A5FE10BD0000BB
:10141000004870474C07002001491820ABBEFEE78A
:10142000260002007047000010B51748C06A03216B
:1014300008431549C862154800F038FF1348008872
:10144000401C124908800120114988700E4840381C
:101450000089104948842220085E00F021FE0B48D4
:10146000007907280CD10C4A0C490A4800F01AFCF4
:101470000B480021415E0B4A0020105E01F022F86B
:1014800002F082FA10BD0000400401403801002043
:10149000280100204801002016000020E004002060
:1014A000F80400203C00002070B505460C460121E0
:1014B000080203F0E7FF2088A866A0788002618A0E
:1014C0000843217D09030843E18809010843217C81
:1014D0000902084386B26E652089618909010843C3
:1014E000A18909020843E18909030843286570BD01
:1014F0000848807C002806D1A520C0000649086065
:101500007A20486004E00548034908607A20486072
:10151000704700007C060020400401402085000048
:1015200002480349086055204860704722250000A2
:10153000400401400021018041808180C1800181FF
:1015400041818181C181018241828182C182018385
:101550004183704700B587B06846FFF7EBFF012174
:1015600068460180002141800621018100214181DE
:10157000012141820021818201820121018069468D
:101580000D48FFF791FFFF200B494031C862084624
:101590004069C9140843084940314861FFF7A8FF72
:1015A00006480749886205200002810588610020FD
:1015B0000349886207B000BD00040140837A00003F
:1015C000800000401FB504462146684603F02EFF08
:1015D000019900980391029069460820085E154918
:1015E000496A4843C01300B2208069460A20085E59
:1015F0001049496A4843C01300B26080208861885E
:101600004018404200B2A0800220205E0421615EAA
:10161000401A09494843C01301B2618220882082E0
:101620001221615E1020205E00F014FC00B203491C
:1016300008801FBD34020020E74900003C00002064
:101640000146044A12884A43024B9B781A411046CD
:1016500070470000900400200146044A12894A4362
:10166000024B9B7A1A4110467047000090040020FC
:1016700010B5174CF521206D89000014A083154882
:101680001022C08E48431449800A8A5E1349801A8A
:101690000861084600F086FE002801DD002106E012
:1016A0000C49182240318A5E5142814201DD61823B
:1016B00000E060821221615E401A0849143108611D
:1016C000084600F06FFEA0821220205E10BD0000D0
:1016D000840000204801002010030020240700207F
:1016E000F8B503884288484C991A09B2218180884C
:1016F000484E121AC01A12B2628100B2A081081AB2
:10170000424B511A58430014594309144218E081BE
:101710005242218212B26282891A3D4A51430A140E
:10172000A282316B4843C013514300B2C913608396
:1017300009B2A18300F0C0F9374A61781288002508
:10174000521E80B2914202DA491C617011E065704C
:10175000A188411A09B2E1800A03616A521A121182
:1017600051182E4A6162128809135143C91221840B
:10177000A0801A211C22615EA25E494352438A184E
:1017800027490A63496BE1836288264F801801224A
:101790009203801A2083FD82B9820004B061306216
:1017A0002020205E0A214843FFF756FF1E49606350
:1017B000498B41431D48016002F0CEFE384603F0DC
:1017C00097FD384680300090006B80470098194B99
:1017D0008561E08B0104F967FD82B882E0821448DC
:1017E000B1690160606B02031A60134A4003106222
:1017F0000E4800680818001404F000FFF8610F4953
:10180000208C8880F8BD0000E800002056550000BC
:10181000CE930000340200208A0000208C000020BB
:10182000000B01404801002094060020BC0000206D
:10183000B8000020E0000020B406002010030020C3
:1018400072B6194A10201221105E515E404349437E
:10185000411816480163406B62B601041448826A5D
:101860008B1A1B129A1813148262C26A891A4913BE
:101870008918C16209145A1A1304026B9B1A1B12AD
:101880009A18026310140B4A2023D35E8B4208DDA2
:10189000002800DA40422221515E884201DA01200C
:1018A00000E000209077704748010020000B0140C5
:1018B000E8000020100300201CB503201A494860EE
:1018C00008464068C007C00F00282BD000210091B7
:1018D00001910FE014484069C007C00F002804D0F0
:1018E00068460078401CC1B2009168460079401CEF
:1018F000C1B20191684600790528EBDB68460078A3
:1019000003280EDD0021094803F01AFA30200749A8
:10191000803148610648008802218843801C0449C0
:10192000088000BF1CBD000000020140000701400C
:101930001C00002010B504460121082003F0DCFD46
:1019400060694002A16C09020843A169490008438B
:10195000616C08432E490860206800016168C90075
:101960000843A16808432A498860E069C001216AE8
:1019700089010843616A49010843A16A09010843D2
:10198000E16CC9000843216D89000843616D49007D
:101990000843A16D08431E49C860606BC001A16B7C
:1019A00089010843E16B49010843216C090108439F
:1019B000616EC9000843A16E89000843E16E4900C9
:1019C0000843216F0843124908611248124988628E
:1019D000C805406911490840E16A09030843E16804
:1019E000C9020843E16D090208432169C90108439E
:1019F000216B09010843216E8900084301218907F1
:101A0000486100200449886203200149486010BDF4
:101A100000020140837A0000800000404380000003
:101A20000021016001214160002181600121C1602C
:101A30000021016141618161C16101624162816294
:101A4000C162016341638163C16301644164816474
:101A5000C164016541658165C16501664166816654
:101A6000C1660167704700B59DB06846FFF7D8FFB3
:101A700000210120400303F005FD0121880303F04C
:101A800001FD0A200090022002900120069009909A
:101A900000200A9002200C9003200B90002011904F
:101AA0001590169002201890052017906846FFF7B1
:101AB00041FF1DB000BD0000F8B54C1C6410A646E7
:101AC000CA030CB20092A446684A694B4C420028F3
:101AD00067DB451C6F10C50306B2002931DB884265
:101AE0001ADB002811D00098C01910625662906A63
:101AF000C1094900CA185288595A4006521A400E64
:101B000042434032D0090818ADE0002902D001203C
:101B10008003F8BD0020F8BD7046281810626046AA
:101B20005062906AC1094900CA185288595A400641
:101B3000521A400E42434032D0090818012189034D
:101B400090E0A04216DB002812D0E003C01910621A
:101B50005662906AC1094900CA185288595A40060B
:101B6000521A400E42434032D009081840427AE0EF
:101B70004048F8BD601C40102818106220B2506226
:101B8000906AC1094900CA185288595A4006521A27
:101B9000400E42434032D009081801218903401AFF
:101BA00061E001254042ED0300292EDB884215DB70
:101BB000441C009964100919116200B25062906AC5
:101BC000C1094900CA185288595A4006521A400E93
:101BD00042434032D0090818281A44E0C103704635
:101BE0000818106260465062906AC1094900CA181C
:101BF0005288595A4006521A400E42434032D00988
:101C000008180121890340182DE0A04215DB411C72
:101C1000E40349106118116200B25062906AC10970
:101C20004900CA185288595A4006521A400E424377
:101C30004032D0090818401B15E0C103601C401059
:101C40000818106220B25062906AC1094900CA188F
:101C50005288595A4006521A400E42434032D00927
:101C600008180449081A00B2F8BD0000000B014032
:101C7000F077000000C0FFFF074808498862C805E8
:101C80000069C9130843C90308610448006804498E
:101C90000843024908607047837A000080000040D2
:101CA000FF01000010B50B460021415E002902DB58
:101CB0000021415E02E00021415E49420024145FA0
:101CC000A1420BDD0021415E002902DB0021415EC3
:101CD00002E00021415E494209B211800221415EC9
:101CE000002902DB0221415E02E00221415E4942FD
:101CF0000224145FA1420BDD0221415E002902DBB8
:101D00000221415E02E00221415E494209B2518056
:101D10000421415E002902DB0421415E02E004212E
:101D2000415E49420424145FA1420BDD0421415E5F
:101D3000002902DB0421415E02E00421415E4942A8
:101D400009B2918010BD000016481021415E142296
:101D5000825E91420EDD008A1349C98A401A01B29F
:101D6000104801821021415E1422825E914201DC02
:101D7000818A01820B481021415E1422825E9142C9
:101D80000EDC008A0849898A401801B205480182A0
:101D90001021415E1422825E914201DB818A018220
:101DA00070470000880100207402002016480E21B0
:101DB000415E1222825E91420EDDC0891349C98ABA
:101DC000401A01B21048C1810E21415E1222825E8A
:101DD000914201DC418AC1810B480E21415E1222F1
:101DE000825E91420EDCC0890849898A401801B29E
:101DF0000548C1810E21415E1222825E914201DBC3
:101E0000418AC181704700008801002074020020CF
:101E100010B504464E20015F0C20205E091A802078
:101E200001515020015F0E22A25E891A9C200151AF
:101E3000A089074908802046703000F0DDF8A082B4
:101E400020468C3000F0D8F8E08202F085FB10BD0F
:101E50004200002010B50246134653430C464C4343
:101E60001B19034C236323465B6B98B210BD000023
:101E7000000B014010B586B0002472B6002057490F
:101E8000486108464069C914084354494861FFF74E
:101E90002FFB002052494885002151488185C1858A
:101EA00002F03CF901214F4802F04AFF0020059062
:101EB00002E00598401C05904B4905988842F8D3EC
:101EC0000020009001900490039000242DE04748EA
:101ED0004249886100BF4148C06AC007C00F00285E
:101EE000F9D03E48C06A032108433C49C86208460D
:101EF0004069C914084339494861384940390022CA
:101F00008A5E0098801800900C228A5E01988018E2
:101F1000019014228A5E0298801802900C228A5E38
:101F2000039880180390601C84B201204002844210
:101F3000CDDBFFF70FFBFFF7DBFA62B6009840122C
:101F400001B227484030C1800198401201B22448B4
:101F5000403001810298401201B221484030418155
:101F60000621415E002903DB01460620085E04E0ED
:101F70001B4840300621415E48421D49884223DC0F
:101F8000174840300821415E002903DB0146082044
:101F9000085E04E0124840300821415E484214497E
:101FA000884211DC0E4840300A21415E002903DBE3
:101FB00001460A20085E04E0094840300A21415EDB
:101FC00048420B49884207DD0A480088FF21013159
:101FD000884340180749088006B010BD40040140FE
:101FE0004801002000070140FFFF0700A55A00003C
:101FF000AC0D00001C00002010B501464C690B69B7
:102000001B1B0C8963431A464C890B6963431401FB
:102010001A19CB689B18CB600C68CB68A34202DD11
:102020000B68CB6005E04C68CB68A34201DA4B68D3
:10203000CB60CB6818140B694B6110BD10B5012142
:10204000C80203F01FFA232001218907C86210BDCE
:102050007047000010B50E480069002800DA4042C1
:102060000C4A0421515E0C4B0C4C884205DDD88A89
:10207000E083988AA083012007E04910814205DDB2
:10208000588AE083188AA08300205080002010BD69
:10209000B80200208400002034020020B406002092
:1020A0000F49104A896A4143C8130104106C091A88
:1020B0004910081810640014012800DA01200123D7
:1020C00009491B060B624862896A084B89B29983E9
:1020D000074BD886074B59430913D163704700005B
:1020E0003402002084000020000B014094060020F0
:1020F00048010020354F0200F0B503460D4600218F
:1021000000240020244E254FBE62254EB24217D136
:10211000244E224F40373E612349244C16464E4000
:10212000664030460668224F3E400660012636046F
:10213000736006688F073E4306600021002400207C
:10214000174EB24215D1174E144F40373E61194910
:10215000194C16464E4066403046184E0660BE1377
:10216000366876007608BF133E6000220021002406
:1021700000200026094F40373E61BE1336687600C6
:102180007608BF133E6000220021002400200026B4
:10219000024FBE62F0BD0000837A00008000004064
:1021A0001F360D9ACA8F00000A060CB01530002A9F
:1021B000FF7FFF7F1A3401B015020D2ABADC547676
:1021C00008B50E480078012816D10D48C0780028BF
:1021D00012D10A49087072B60A4A00213F20400213
:1021E000FFF78AFF08480023084A042100903F2097
:1021F000400202F031FF62B608BD00005800002026
:10220000380100201F360D9A0CA4FD9A4C000020C6
:1022100021492248C1622248818920481038018121
:102220001F48C1891D48103841811E4970384167D7
:1022300048421A4980390867002118488038C16728
:102240001748018915480C30018115484189134808
:102250000C3041811349416049420C38C160002172
:102260000C30C16010490C38016301212038017322
:102270007D20400109498039C8860021074840383F
:1022800001836421743001812C21418164211C303F
:1022900001812C2141817047CA6B0000C8010020D8
:1022A00034020020000090E81D410000F8B505460A
:1022B000384C2046FFF786F92879072810D006DC2D
:1022C00003280CD0042809D005285FD143E0092851
:1022D0004ED00D2806D0102858D102E000BF00BF14
:1022E00000BF00BF1221615E1C20205E4143CA1363
:1022F0001020205E1E23E35E5843C013101A00B264
:10230000A0811020205E1C21615E4843C213122070
:10231000205E1E23E35E5843C013101801B2E18112
:102320002046FFF775FD204602F0E2FFB021085974
:10233000804702F0B9FD02F09FFC1748006A060CC6
:1023400030B204F05BF9694600900988A1836946C0
:102350004988E1831BE011480088114908800F4833
:10236000808848800D488089888002F029FC0EE032
:10237000FFF766FA002060850021A185E1852086AF
:102380006186A186B0210859804700E000BF00BFE8
:10239000F8BD000048010020340200200004014084
:1023A0002001002030B50188438904690A04C5680A
:1023B00081886343EB180904C360934201DD13462F
:1023C00002E08B4200DA0B46C360008944432001DF
:1023D0001818904201DD104602E0884200DA0846F3
:1023E000001430BD10B52A480021415E052905DAE8
:1023F0000088401C00B22649088002E001202449E0
:10240000088023490020085E030004F0CAFA063E53
:10241000040F1F26303E1F48807F002805D11E492B
:102420002220085E1D4900F0E7FB2FE01C480079E0
:1024300007280AD11B48807A174A0C21515E1A4A94
:102440001A4B50681A4A00F017FA1FE0114934205D
:10245000085E184900F0A8FB18E011480079072829
:1024600004D1154A1549124800F002F90EE00C4853
:102470000079072808D1084A0C21515E0A4A104BFE
:1024800050680B4A00F008FB00E000BF00BF10BD21
:10249000200000202C0600204801002030050020EC
:1024A000380100207C060020B802002054050020DE
:1024B000160000206C05002078050020E0040020B4
:1024C0008405002070B505460C46A54218DD11486C
:1024D0000088012805DA0F480088401C0D49088053
:1024E00017E000200B49088000210B4802F028FC6F
:1024F0000A48008840084000401C0849088008E05D
:1025000004480088002804DD02480088401E014974
:10251000088070BD1E000020000701401C00002044
:1025200010B50120800704F091F90446FFF788F800
:1025300000B23C49088000203B49088048808880E0
:102540003A49088048803A4804F0ACF900B235496D
:102550004880384804F0A6F900B23249888000204B
:1025600035490880354804F071F90446FFF768F8EA
:1025700000B22C494881324804F07EF90446FFF746
:102580006BF82849C86000202E4908804880888060
:1025900008812D4804F05AF90446FFF751F800B2BB
:1025A00020490882294804F067F90446FFF754F8E7
:1025B0001C494861264804F05FF90446FFF74CF8CF
:1025C00018498861234804F041F90446FFF738F8B8
:1025D00000B214490884204804F04EF90446FFF77D
:1025E0003BF81049C861002088854E200885752079
:1025F00048850020194908801949087008824882D6
:102600008882488048608860C86016490880488091
:10261000888015490880154908804880088101494B
:10262000C88610BDF80400204801002030050020B5
:102630000000B44300007E433C0500209A99193EF7
:1026400000003443540500203333B33F0080094574
:1026500000004842CDCCCC3D0000F0417805002080
:10266000E0040020160000206C05002084050020F6
:1026700070B504460E4615460020285E282804DA68
:102680002888401C00B2288027E000202880205E97
:1026900080100221615E88420DDC0220205E8010E5
:1026A0000421615E884206DC0420205E8010002147
:1026B000615E88420DDD0021084802F041FB0848B8
:1026C00000884021884340300549088001200549A1
:1026D0000886002020806080A08070BD0007014037
:1026E0001C000020F804002010B546480088400770
:1026F000C00F002805D1434800880007C00F0028FC
:1027000030D041492220085E404908228A5E90422A
:1027100025DB3D492220085E3C4906228A5E904224
:102720001DDC3B490620085EFF212D31884206DA78
:102730003748C088401C00B23549C88012E0314893
:102740000088042188432F49088008460088082112
:1027500088432C49088000202D49C88002E00020D1
:102760002B49C88027480088C006C00F002809D020
:102770002848807F012805D12248008810218843FD
:10278000204908801F4800880006C00F002827D075
:1027900020483421415E78291FDD462002F0D6F919
:1027A0001C4934228A5E904217DD1B490620085ED0
:1027B0007D210901884206DA1748C088401C00B212
:1027C0001549C8800CE00F480088802188430D49D6
:1027D000088000201049C88002E000200E49C8800F
:1027E000084800888005C00F002809D00948807F6C
:1027F000012805D103480088102188430149088039
:1028000010BD00001C00002048010020F80400203A
:10281000300500202C0600206C05002010B500209B
:102820000C4908800C49C8800C49C8800C49C880F4
:1028300048810C49C8800C49C8800C4804F032F823
:1028400000B20B49C8800B4804F02CF800B20849CC
:10285000088110BD1C0000203C050020540500200C
:1028600060050020300500206C0500200000AF430B
:10287000F804002000008743F8B505460E461746C9
:102880001C460820205E282804DA2089401C00B25B
:102890002081F8E0002D01DB284600E068427A49FB
:1028A000496988422EDD0020205E0A2804DA20884B
:1028B000401C00B2208027E073483421415E022989
:1028C0000CDA808E401C00B26F49888600216F4868
:1028D00002F036FA00206E4908710FE000216B48C3
:1028E00002F02EFA002020806A48008810218843D8
:1028F00010306849088000206349888601206249B9
:10290000888501E000202080002D01DB284600E0C2
:1029100068425D49C969884238DA002E01DB3046D9
:1029200000E07042584920228A5E90422EDD02204B
:10293000205E142804DA6088401C00B2608027E022
:1029400051483421415E02290CDA808E401C00B2CD
:102950004D49888600214D4802F0F2F900204C498B
:1029600008710FE00021494802F0EAF90020608078
:1029700048480088102188431030464908800020CC
:102980004149888602204049888501E00020608016
:102990000020385E3C4910228A5E90420BDC022007
:1029A000385E10228A5E904205DC0420385E1022D8
:1029B0008A5E904222DD34483421415E02290CDADD
:1029C000808E401C00B23049888600212F4802F0DA
:1029D000B7F900202E4908710DE000212B4802F0C4
:1029E000AFF92C480088102188431030294908800D
:1029F000002025498886032023498885002D01DB96
:102A0000284600E0684220494969884239DD002EA5
:102A100001DB304600E070421B4920228A5E5100F3
:102A200088422EDA0420205E322804DAA088401C76
:102A300000B2A08027E014483421415E02290CDA5C
:102A4000808E401C00B21049888600210F4802F099
:102A500077F900200E4908710FE000210B4802F0C1
:102A60006FF90020A0800B480088102188431030A7
:102A70000849088000200449888604200249888586
:102A800001E00020A080F8BDF8040020000701400C
:102A9000380100201C000020F8B505460E461746F8
:102AA0001C463948008800282CD10820205E642864
:102AB00004DA2089401C00B2208125E0334832210D
:102AC000415E02290CDA408E401C00B22F49488634
:102AD00000212F4802F034F900202E49087113E03C
:102AE00000212B4802F02CF92B48008801214902D3
:102AF000884340182849088001202449C8850020BF
:102B0000488601E00020208122480079072809D169
:102B10001E483621415E642904DAC08E401C00B292
:102B20001A49C8861948C08E64282BD11B48807F5B
:102B3000002827D11A4840681A4988421FDA1348EA
:102B40003221415E02290CDA408E401C00B20F494E
:102B5000488600210E4802F0F3F800200D49087164
:102B600010E00D48008801214902884340180A49B5
:102B7000088002200549C8850020488602E0002020
:102B800002494886F8BD000086000020F8040020B5
:102B900000070140380100201C0000202C06002006
:102BA000B80200208813000070B505460C468C2042
:102BB00001F0CCFFA84201DB782D04DA2088401C0C
:102BC00000B2208001E0002020800020205E6428E8
:102BD0000CDD0021064802F0B3F806480088802189
:102BE00088438030034908800020208070BD0000A9
:102BF000000701401C00002070B505460C461D4929
:102C00000220085EA84204DC2088401C00B220801C
:102C10000CE018490420085EA84204DD6088401CCE
:102C200000B2608002E00020208060800020205EF2
:102C30000A280CDB0021104802F082F800202080D6
:102C40000E48008804218843001D0C49088002209A
:102C5000205E64280CDB0021074802F071F8002098
:102C600060800648008808218843083003490880AE
:102C700070BD0000F8040020000701401C00002087
:102C8000002801DA404200B2002901DA494209B2C3
:102C9000002A01DA524212B2884202DB904200DB83
:102CA0000123814202DB914200DB0223824202DBEC
:102CB0008A4200DB032318467047024600200123A6
:102CC0005B031146814089B2994203D8401C00B28F
:102CD0000D28F6DB7047000010B50020124908826D
:102CE00048826420C8820001888210480880AF2092
:102CF000800048800E4888800E48C8800E4848638F
:102D00000E48886396200E49C8860020888600F009
:102D10001BF8FFF77DFA1E2009498881052088737A
:102D20000848488610BD00003402002094110000BD
:102D30000A0D0000E0220000DC6B0000086C0000BF
:102D4000B406002066060000F0B5FF4E0A20756B41
:102D50008BB0285EB46BFEF7A7FA0746FB492069E3
:102D600003F0D6FE6169FEF7A5F9A169FEF7A2F9A5
:102D70003946FEF79FF9FEF74DFA70620020205E9B
:102D8000FEF792FAF24F00903946206903F0C0FE38
:102D9000E169FEF78FF90099FEF78CF9FEF73AFA30
:102DA000B062012000076968FDF7F8FAF0620020C0
:102DB000205EFEF779FA00903946206903F0A8FEFC
:102DC000216AFEF777F90099FEF774F9FEF722FA07
:102DD0003063A2896E6864204243F117F008490706
:102DE0000143D3177007FDF736FA0905000B0843B6
:102DF000D84E642130836868FDF7D0FA0004A189B9
:102E0000FDF7CCFA70832A691921D317009317466E
:102E10004904E86803F095FD3A46009BFDF71BFA6C
:102E2000A2890023FDF717FA0121C903081A3060AF
:102E3000C949E868695E03F084FD020F0901114386
:102E40000022A25E0001D317FDF705FAC349C8644A
:102E500064216868FDF7A2FA069004900A20285EB3
:102E60000290C017039004980026C0170590686967
:102E70000090C0170190A05F0890C01709903246DB
:102E800005990498FDF7ACF9019B009AFDF7CBF981
:102E9000039B029AFDF7C7F9099B089AFDF7DBF936
:102EA000AF4A0023FDF7D7F9AE49884202DA761C13
:102EB00036B2E4E7A94A9064D683AB480290009802
:102EC0000199C70C2A694E033E43D317400331468C
:102ED000FDF7C1F980B2069F00260090F817039015
:102EE000A0890190384632460399FDF779F901220D
:102EF00052030023FDF7AFF90023019AFDF7ABF968
:102F00007D218901884202DA761C36B2EAE7C117D0
:102F10000023029AFDF787F90023009AFDF783F951
:102F2000CA00410F8B48114341601E3E0121467388
:102F30008902818200262A690020D3170093174650
:102F4000205E8A4903F0FDFC3246FDF749F93A4616
:102F5000009BFDF780F90A27EF5FFB173A46FDF764
:102F60007AF9A2890023FDF776F97D21C90188420B
:102F700002DA761C36B2DEE77D4903F0E2FC090393
:102F8000000D084373490E3E886008468673002092
:102F9000205E784AA9695043FDF7F6F96F49486405
:102FA0000020205EFEF780F906467349206903F091
:102FB000AFFD216AFEF77EF83146FEF77BF8FEF79B
:102FC00029F9614908630020205E6C4948430214D6
:102FD0000A200092285E6A49484306147D21A08990
:102FE000C900FDF7D1F96749F317888356480021D6
:102FF000008832460593FDF716F92A69D317FDF7C5
:1030000012F9FF23009A87335A430092D217019294
:10301000019B009AFDF71FF94B4980B2088104908B
:10302000A089FDF7B4FE03910290474904984988AE
:1030300003F09FFCFDF7E2FE0022534BFDF7ECFE90
:10304000039B029AFDF7FCFBFDF754FE3E49324616
:103050004881084600880021059BFDF7E4F86A696D
:10306000D317FDF7E0F8019B009AFDF7F4F887B25B
:1030700035488781A089FDF78AFE064632480091CF
:103080004188384603F075FCFDF7B8FE00223E4B40
:10309000FDF7C2FE3246009BFDF7D2FBFDF72AFE8C
:1030A00029490822C8810846825E2C480A23828466
:1030B0000846C35E29480E26C38408460C21415E9B
:1030C0002648264F01852048865F244846851E48AD
:1030D000808842439212BA851B4AD28853439B127E
:1030E000FB8503464B43981239460886724390127B
:1030F00048861548254B02891648583002811248E7
:1031000041891448583041811C30028141811F4956
:10311000642088801D4A0A2111837D22D2001A80F2
:103120001A4610819181114608827D20C000888254
:103130000020488048814882C881C882C88048836E
:10314000205EA021484323E0340200200046E246EE
:1031500000002047940600200A00000084000020A0
:10316000CFFD00001027000010C9000040420F00F2
:103170002F880600F266010080908A47CE930000F7
:103180000A6A0100100300200000244050040020BF
:10319000010C794E0846B183FFF78FFDF0830023C1
:1031A0000146E35EA02043431027781AC340B3834F
:1031B00000203083FFF781FD7083391AE120000180
:1031C000C84030830A20285E6C494843800C308018
:1031D000FFF773FD014670800A20285E674A50435E
:1031E0001222511AC84030800020205E64494843B2
:1031F000800DB080FFF761FD0146F0800020205E69
:103200005F4A50431622511AC840B0806868000CCB
:103210003081FFF752FD70816B68381AC3403381EB
:103220000A21695E5748FDF7AFF8010C564E084673
:103230003180FFF742FD708000900A21695E51489D
:10324000FDF7A2F800990246781AC24032800021A8
:10325000615E4E48FDF798F8000CB080FFF72DFD39
:10326000F08000900021615E4848FDF78DF801462E
:103270000098381AC140B1803F0338466968FDF7AD
:1032800083F881B231810846FFF717FD70813B4614
:10329000834018466968FDF777F830811220308343
:1032A000FFF70BFD87407083E12109013846FDF7E8
:1032B0006BF830830021615E0A20012741433F0300
:1032C0003846FDF76BF881B2B1830846FFF7F5FC8D
:1032D000F08300210246615E0A2041439740384650
:1032E000FDF752F8B0832A4E2A49F08E1622484341
:1032F000000CF086B08E891048432749001488805E
:103300000420B0730020205E69695043FDF746F841
:103310000A21695EFDF742F880B2411EB08113298F
:103320000DD20020205E1D4A69695043FDF736F832
:103330000A21695EFDF732F8B081062010E01428FA
:1033400001D300200CE00020205E154A696950433B
:10335000FDF724F80A21695EFDF720F8B0810A2004
:10336000B0730D490220C880A0890A225043800909
:1033700008810BB0F0BD0000700400205B2300004A
:10338000181700008DF61C0090040020B172C502D1
:10339000B4060020402F0200840000206A050000CF
:1033A000A556000007480022418E01814260818EAF
:1033B0000B045B4283610904026241610248C265F9
:1033C00070470000B4060020840000203A48807A4C
:1033D000022814D139480088401C38490880084622
:1033E00000887D21C90088424EDD002033490880D5
:1033F0003149887208743C203049088044E02E48E6
:10340000807A012816D12C48007C012805D10020A3
:10341000294988726420294908802748808AE12147
:103420000901884230DD0020234988726420234945
:10343000088029E02048807A00281BD11F48008896
:10344000002805DD1D480088401E1C4908801BE03F
:103450001948808AE1210901884215DA1648007C62
:10346000012803D10220144988720DE0012012497D
:10347000887209E01048807A032805D11048008836
:10348000002801D10C4988720D480088002802D01C
:103490000320094988720848807A012803D1002056
:1034A0000549887406E00448807A022802D1012088
:1034B00001498874704700007C0600207E000020CF
:1034C0001C0000207047F0B50B46002200240025A8
:1034D000002100BF53E00126964034461E68264076
:1034E0003546A5424AD11E79002E0CD1016801262D
:1034F0009640314301604168012696400F46B7432C
:103500003946416018E01E79012E0BD101689640C2
:103510000F46B74339460160416801269640314362
:10352000416009E01E79022E06D1416801269640CD
:103530000F46B743394641605E79012E04D10169D7
:103540009640314301610CE05E79022E09D05E792C
:10355000002E06D10169012696400F46B743394631
:10356000016181699E68012E02D19640314304E0D9
:10357000012696400F46B74339468161521C102AF6
:10358000A9D3F0BD30B50C46230003F00AFA1009A8
:103590000F171E252B333A41474F565D636B7279E7
:1035A000016A394D29408B1803626AE0016A364D81
:1035B000E13D294013015B18036262E0016A334D6B
:1035C000294013025B1803625BE0036A1905090DC9
:1035D00013035B18036254E0416A2B4D29408B189A
:1035E00043624EE0416A284DE13D294013015B18DA
:1035F000436246E0416A254D294013025B1843624D
:103600003FE0436A1905090D13035B18436238E074
:10361000816A1D4D29408B18836232E0816A1A4D00
:10362000E13D294013015B1883622AE0816A174D4E
:10363000294013025B18836223E0836A1905090D90
:1036400013035B1883621CE0C16A0F4D29408B187D
:10365000C36216E0C16A0C4DE13D294013015B18BD
:10366000C3620EE0C16A094D294013025B18C362B0
:1036700007E0C36A1905090D13035B18C36200E074
:1036800000BF00BF30BD0000F0FF0000FFF00000F1
:103690000246002093680B40002B01D0012000E07F
:1036A000002070474163704701637047002101604B
:1036B00001714171816070470EB56846FFF7F6FFF2
:1036C0000120694608717D20400200901048FFF7F4
:1036D000FAFE032209210E48FFF754FF03220B21B3
:1036E0000B48FFF74FFF03220C210948FFF74AFF61
:1036F00003220D210648FFF745FF03220E2104484F
:10370000FFF740FF03220F210148FFF73BFF0EBDEB
:1037100000080140104880881049088008460021B0
:10372000415E002902DA00200C4908800B49002084
:10373000085E0B4909884018C003000C084908803E
:10374000084600880749884202DD08460449088087
:1037500003480088704700000004014080000020FA
:1037600082000020FF7F000010B51F48C08E0101BD
:1037700040181E490968401A80121C4909684018FF
:103780001A49086008460068001100B2184908800C
:103790000120800217490880174803F06DF804469D
:1037A000FDF75AFF134900228A5E5043800A1349ED
:1037B0000860134803F060F80446FDF74DFF0D491B
:1037C00000228A5E5043800A0C4948600D4803F08D
:1037D00053F80446FDF740FF064900228A5E504335
:1037E000800A0649886010BD480100207000002052
:1037F0006A0000206C0000200080BB44700600209E
:1038000000E0D54400C0DA4410B5034A0349084635
:10381000083801F0F5FB10BD900500205C01002088
:103820007047000010B504460121022001F064FE3B
:103830002088A17809040843E17809050843217923
:1038400009060843617949060843A17989060843B6
:10385000E17909070843217A49070843217C890750
:10386000084303490860E068C8600020486010BD54
:103870000003014000B585B00121022001F03CFEAB
:10388000684600F015F801214902684601800021D0
:103890008170C17001210171C171017203480390EF
:1038A0006846FFF7BFFF05B000BD0000007C920036
:1038B00008490180002181700121C1700171C1712D
:1038C00000214171817101727D21C900C160002117
:1038D00001747047FF03000010B572B626482749EF
:1038E00088622748274908600F208002486001202D
:1038F000000400680121C9040843C91008600121BF
:10390000080201F0F9FDFDF725FE00F0A9FD02F027
:1039100071FFFFF7D1FEFEF791FB01F0FBF9FEF717
:10392000A2F8FFF7A7FF02F05BFE642001F0FCFDA8
:1039300001210A2003F052F80221072003F04EF87B
:103940000221084603F04AF80021092003F046F856
:103950000221002003F042F80221012003F03EF88A
:103960000A2003F02BF8022003F028F8012003F0CE
:1039700025F862B610BD0000837A00008000004088
:10398000B4A60000000C014010B568480079072873
:1039900015D1674800696749884210DD664800888C
:1039A00000280CD16548008A7D210901884206DB88
:1039B0006348807A012802D16049887402E00020BF
:1039C0005E49887440215F48FFF762FE5B49C87416
:1039D0000846007D012844D10846C07C002840D11B
:1039E0000846807C01283CD10121544820300170D8
:1039F0004078401CC1B2514820304170007A012803
:103A000017D14E4820304078312803DD00214B4843
:103A10002030417049482030407A3221484347499C
:103A20002031497840184849095C44482030817267
:103A300017E0424820304078632803DD00213F48EA
:103A4000203041703D482030407A322148433B4984
:103A500020314978491040183B49095C37482030EB
:103A600081723648807C012837D134482030007874
:103A700001283DD13148C06A401C3049C86208461F
:103A80000079322828D10846C06A498C88422FD351
:103A900000202A49C86208462030807A01280FD1C8
:103AA00010212848FFF7FEFD002124482030017036
:103AB000012026490870FF204B302049C88417E0B8
:103AC00010212048FFF7F0FD00211C482030017034
:103AD00000201E4908700BE00AE010211948FFF78A
:103AE000E3FD00201549C862002114482030017010
:103AF00016480078002813D01048C08C012804DB39
:103B00000E48C08C401E0D49C8840C48C08C00284B
:103B100006D110210B48FFF7C7FD00200B490870A4
:103B20000648C07C0549087510BD0000380100201A
:103B3000B8020020983A00001C0000202C0600204B
:103B40007C060020000801402C6C000024000020AE
:103B50000121324801722038C07C01280CD12F4845
:103B60002038408B322838DA2C482038408B401CD3
:103B70002A492039488330E028482038C07C002872
:103B80002BD126482038408B00281ADD23482038C6
:103B9000408B0F2810DA21482038808B0F280BDA51
:103BA0001E482038C07F642806DA1C482038C07FB1
:103BB000401C1A492039C877002018492039488309
:103BC000888316482038808B322806DA134820383C
:103BD000808B401C11492039888310482038808B05
:103BE0000F2805DD01200D49203988770020C8778E
:103BF0000A482038408B0F2805DD0120074920396D
:103C000088770020C87705482038C07F052803DD65
:103C10000020024920398877704700004C060020B8
:103C200010B54B480078002822D14A480078012876
:103C300009D1322000F08AFF474948860F20886367
:103C40000864C8633AE043480078022809D13C2060
:103C500000F07CFF40494886242088630864C863DC
:103C60002CE000203C49488688630864C86325E04E
:103C700037480078012821D136480078012809D139
:103C8000502000F063FF344948860F2088630864A1
:103C9000C86313E02F480078022809D1642000F09F
:103CA00055FF2D4948862F2088630864C86305E0C6
:103CB00000202949488688630864C8632648203064
:103CC000407A2549C96B884206D823482030407A7B
:103CD0002149096C884205D21F48008FC1B21E4895
:103CE000203041721C493420085E32228A5E9042A4
:103CF00013DD08462030407AC96B884227D2164827
:103D00002030407A312822DA13482030407A401C93
:103D1000C1B211482030417219E00F493420085EC9
:103D200032228A5E904212DA08462030407A096CCC
:103D300088420CD908482030407A002807DD064820
:103D40002030407A401EC1B203482030417210BD7D
:103D50004A000020470000202C0600207047000089
:103D6000F8B5214F388A798A401805B2B88AF98A9D
:103D7000401804B2388B798B401806B2324621467F
:103D80002846FEF77DFFC0B2012811D002281CD0C2
:103D90001649281B4843C1137000401B144A001BDE
:103DA0005043C013FDF788FE11494018B881F8BD93
:103DB0000E49A01B4843C1136800001B0C4A801B1E
:103DC0005043C013FDF778FEF0E70849701B4843E5
:103DD000C1136000401B064A801B5043C013FDF70F
:103DE0006BFE0449E1E70000B0040020E749000051
:103DF000ABAA000055550000F8B50024374F384EE7
:103E000025463849887A012863D1C87A072860D2C4
:103E1000401CC0B2C87202F06DFD30488038418D40
:103E200049420186818D49424186C18D4942818640
:103E3000386B80472D492C4808632C482C4A403861
:103E400002602C48086329480121803800F078FF7F
:103E5000B560244A1068B1688142FCD32148807F54
:103E6000012813D01D48803845858585C585386B68
:103E700080471E4A1C4810631C491D484039086091
:103E80001C481063B560B068C828FCD302F000FE7F
:103E900002F0FEFD11480121603841760221817651
:103EA0002038FDF78FFB0F48C07A01F079F80F48F2
:103EB0000021803800F044FFB5600A4A5068B168BC
:103EC0008142FCD3D07A062803D1D5729572FFF7D0
:103ED00047FF641CE4B2062C93D3F8BDC801002050
:103EE00000030140B0040020ADDE00008007014067
:103EF000FFFF0000CDAB000010B5012189025B4837
:103F0000FFF7C6FB5A49087008460078012809D116
:103F100058480078322826DA56480078401C55491F
:103F2000087020E05248007800281CD151480078E1
:103F300000280FDD4F4800780F2806DA4E48007839
:103F40000F2802DA00204D49087000204949087006
:103F50004949087048480078322804DA4648007811
:103F6000401C45490870444800780F2802DD0120B4
:103F7000424908703F4800780F2802DD01203F4980
:103F800008703E480078012802D100203C490870A2
:103F90003A480078002802D1012039490870344895
:103FA000007838490870FF2101313048FFF770FB75
:103FB00000281FD1344800883449884205DA324845
:103FC0000088401C3049088002E030482E490880B3
:103FD0002D4800880A2802DD00202D4908802A4843
:103FE00000882C49884240DD01202B49887002203E
:103FF00008703AE026480088642804DA24480088DB
:10400000401C2349088022480088322810DD1E48C1
:10401000008832280CDD1C4800881E49884207DAD7
:1040200001201D49887008700020174908801CE095
:104030001748008832280DDD13480088154988424A
:1040400008DD0120144988700220087000200E4904
:1040500008800AE00E480088322806DD0A480088F9
:10406000322802DA00200849088010BD000801400B
:104070006500002061000020620000206300002035
:104080004A00002064000020660000201027000085
:1040900068000020B80B00004400002070B5044602
:1040A00020880004C11763692269851A9941082292
:1040B000A25E0E462846FCF7A3F8636922698018C1
:1040C000594161612061A18A09042069000C0843FB
:1040D0006060606870BD000010B50E484069102136
:1040E0000840002805D10B484069202108400028DD
:1040F0000ED000210748803800F022FE302005490C
:1041000048610548008802218843801C02490880D4
:1041100010BD0000800701401C0000201B48807C6F
:10412000002819D11A48C08D404200B219490880B0
:104130001748C08D88801648408D404200B20881E3
:104140001348408D88811248808D404200B2088219
:104150000F48808D888218E00D48C08D404200B223
:104160000C4908800A48C08D88800948808D4042EB
:1041700000B208810648808D88810548408D404204
:1041800000B208820248408D888270477C06002079
:1041900048010020000701407047000070B5054647
:1041A0000C460121102001F0A7F9A649B020415189
:1041B0002079617989000843A17A09010843E17AED
:1041C00049010843A17989010843E179C9010843FC
:1041D000217B09020843617B49020843E867208884
:1041E000286360886863E08B2862208C6862608C3A
:1041F000A862A08CE862607A0002217A08432867EE
:104200003620005D3721095D490008433E21095DE4
:1042100089010843E18AC90108433821095D09027F
:1042200008433921095D490208433F21095D89039B
:104230000843218BC9030843A02148513A20005D5F
:104240003B21095D490008434021095D890108437C
:10425000618BC90108433C21095D090208433D21E6
:10426000095D490208434121095D89030843A18B87
:10427000C9030843A42148514C20005D4E21095D2B
:10428000890008434A21095D090108434B21095D62
:10429000490108434D21095D490008434F21095D4B
:1042A000C90008435021095DC90108435821095D2F
:1042B000090208435721095D490208435A21095D53
:1042C000890208435921095DC90208435C21095D3F
:1042D000090308435B21095D49030843A8214851AC
:1042E0005320005D5521095D890008435121095D76
:1042F000090108435221095D490108435421095D20
:10430000490008435621095DC90008435021095D51
:10431000C90108435D21095D090208435E21095D69
:1043200049020843AC2148514220005D4421095D07
:10433000090108434521095D490108434821095DF8
:10434000890108434321095D090208434621095DAB
:10435000090308434721095D490308434921095DD1
:10436000890308436867E08C2865208D68657420A0
:10437000005BA867E089A864208AE8641220205EB8
:10438000A8631420205EE8635F20005D6021095D62
:10439000490008436121095D890208436221095DE2
:1043A000C9020843802148516320005D6421095DF2
:1043B000490008436521095D890208436621095DBA
:1043C000C9020843882148516F20005D0001702117
:1043D000095D490108437121095D89010843722182
:1043E000095DC9010843902148516720005D68219B
:1043F000095D490008436921095D890008436A2174
:10440000095DC90008436B21095D090108436C215E
:10441000095D490108436D21095D890108436E2149
:10442000095DC9010843982148510748286401469D
:10443000842041518C204151942041510349B020A6
:10444000415170BDADDE0000FFFF0000FECA00005C
:1044500010B5044676212046FBF792FF10BD000000
:1044600000B59FB001A8FFF7F3FF00216846017275
:10447000012141728172C172002141838183C18314
:10448000234910A801870C21684601734173214913
:104490008180C1801F49143941841F49818443218F
:1044A00041858185C185018641868186002108A8D4
:1044B0008176C176017741778177C17710A88170C5
:1044C000C1700171C176017741778177C17718A8F2
:1044D000017010A8017501210172002141720121B2
:1044E00081720021C17218A8C170C17401210175C7
:1044F00010A8C17341740021C17401A90748FFF7D6
:104500004DFE06488030006A054988831FB000BD13
:10451000FF1F000076040000AAFE00000007014013
:10452000B0040020094800780007000F084908700F
:1045300008460078032803DB00200649087003E0E2
:1045400003480078034908707047000054000020B9
:104550005000002047000020F8B52D4D16222D4CAC
:10456000AA5E22841421695E6184E88E2A4B2A4E59
:1045700058432B46DB8E001473431B145B4282426C
:1045800001DD024602E09A4200DA1A4612B22284A3
:10459000814201DD014602E0994200DA19464043BA
:1045A0005243801A09B21D4A61841063506B00297E
:1045B00000B201DB0A4600E04A42824203DD0029E4
:1045C00000DC404260841648A16B006A4018001469
:1045D00002F014F8E8611C221E21AA5E2026695E02
:1045E0002220A65F205E17460B4677434343FB1A03
:1045F000714342438818C01301B2E06BDB131BB256
:104600004343DA1341432A83C8136883F8BD00008B
:10461000480100208400002000130100000B01402D
:104620003402002070B586B004462720C04384427F
:1046300003DCFD48FD4908607DE22720C043844239
:104640001EDD801084421BDC20462830FCF797FBDF
:10465000F74AF84B01910090FCF7DEFB0022F64B85
:1046600003910290FCF7ECF805460022F34BFCF7AF
:10467000B7F805910490FCF707FBEC4908605AE293
:104680000920C04384421DDD002C1BDC201AFCF7EE
:1046900076FBE74A521EEA4B01910090FCF7BCFB07
:1046A00005460022E74BFCF7CBF80022E64B0391CE
:1046B0000290FCF795F805910490FCF7E5FADB49C8
:1046C000086038E2002C1CDD1E2C1ADC2046FCF7AA
:1046D00056FBDE4ADE4B01910090FCF79DFB054640
:1046E0000022D54BFCF7ACF80022DA4B0391029084
:1046F000FCF776F805910490FCF7C6FACB49086000
:1047000019E21E2C1EDD322C1CDC20461E38FCF764
:1047100036FBD14AD14B01910090FCF77DFB054659
:10472000002201239B07FCF78BF8CB4ACC4B03916B
:104730000290FCF755F805910490FCF7A5FABB49E7
:104740000860F8E1322C18DD3C2C16DC20463238AB
:10475000FCF715FBC34AC44B03910290FCF75CFBCA
:10476000B34AD243C14B05910490FCF739F8054692
:10477000FCF78AFAAD490860DDE13C2C18DD462CD7
:1047800016DC20463C38FCF7FAFA0546AF4A921E82
:10479000B74BFCF741FBA64AB64B03910290FCF7DE
:1047A0001FF805910490FCF76FFAA0490860C2E178
:1047B000462C18DD502C16DC20464638FCF7DFFA74
:1047C0000546AD4AAD4BFCF727FB0022AC4B0391ED
:1047D0000290FCF705F8024604920591FCF754FAA2
:1047E00092490860A7E1502C18DD5A2C16DC2046AF
:1047F0005038FCF7C4FAA34AA34B03910290FCF78C
:104800000BFB954A521EA14B05910490FBF7E8FF64
:104810000546FCF739FA854908608CE15A2C18DD09
:10482000642C16DC20465A38FCF7A9FA984A994BB2
:1048300003910290FCF7F0FA05467D4A521C964B14
:10484000FBF7CEFF05910490FCF71EFA774908604C
:1048500071E1642C17DD6E2C15DC20466438FCF702
:104860008EFA8E4A8E4B03910290FCF7D5FA8D4A50
:104870008D4B05910490FBF7B3FF0546FCF704FA56
:104880006A49086057E16E2C18DD782C16DC20464A
:104890006E38FCF774FA7E4A921C844B03910290A6
:1048A000FCF7BAFA0546824A824BFBF799FF05915D
:1048B0000490FCF7E9F95D4908603CE1782C17DDCC
:1048C000822C15DC20467838FCF759FA05467A4ADE
:1048D0007A4BFCF7A1FA7A4A7A4B03910290FBF7E4
:1048E0007FFF05910490FCF7CFF95049086022E161
:1048F000822C18DD8C2C16DC20468238FCF73FFA1F
:1049000005466F4A921E704BFCF786FA6F4A704B51
:1049100003910290FBF764FF05910490FCF7B4F952
:104920004249086007E18C2C18DD962C16DC2046E5
:104930008C38FCF724FA674A674B03910290FCF726
:104940006BFA5F4A5242654B05910490FBF748FFB2
:104950000546FCF799F935490860ECE0962C17DD1F
:10496000A02C15DC20469638FCF709FA05465C4A6F
:104970005C4BFCF751FA464A5B4B03910290FBF704
:104980002FFF05910490FCF77FF928490860D2E0D9
:10499000A02C17DDAA2C15DC2046A038FCF7EFF977
:1049A000524A534B03910290FCF736FA0022514BC6
:1049B00005910490FBF714FF0546FCF765F91B49C8
:1049C0000860B8E0AA2C1FDDBE2C1DDC2046AA38EA
:1049D000FCF7D5F9484A494B01910090FCF71CFAC5
:1049E0000546002201239B07FBF72AFF1D4A521EA2
:1049F000434B03910290FBF7F3FE05910490FCF703
:104A000043F90A49086096E0BE2C7DDDD22C7BDCA0
:104A10002046BE38FCF7B3F9314A5242394B019176
:104A20000090FCF7F9F970E0177C000038000020D6
:104A3000999999999995A4C000000840C005DF4054
:104A400099396BC00000F03F002BB54052B81E856D
:104A5000EB796EC00052A94034333333333346C050
:104A6000331789402085EB51B81E26C0666E76400C
:104A7000EB511DC099096F40E27A14AE47E113C0B3
:104A800000E0654084EB51B81E850BC033535F4096
:104A90005C8FC2F5285C03C099B95640480C022BC4
:104AA0008716FBBFCDCCCCCCCCAC5040285CF3BF40
:104AB000C3F5285C8FE24840A8C64B378941ECBF5C
:104AC000F6285C8FC2D54240C2F5E4BFD7A3703D43
:104AD0000AD73C405C643BDF4F8DDFBF3D4A364028
:104AE000E8FBA9F1D24DD2BF285C3140D022DBF9DE
:104AF0007E6AD4BF00002D40F4FDD478E926D9BFEA
:104B0000B89E26402DB2CDBF12E0002201239B07A4
:104B100003910290FBF794FE0546094A094BFBF707
:104B20005FFE05910490FCF7AFF80749086002E0CA
:104B30000520054908600448006806B070BD000003
:104B400085EB51B81E851D4038000020F1B584B0BA
:104B50000498FFF767FD1149086008460068FCF7F4
:104B60000EF9044600220E4BFBF73AFE06460022E1
:104B70000C4BFBF735FE02460B46019100900020DE
:104B80000949FBF75DFE03910290FCF77DF800B246
:104B9000064908800020085E05B0F0BD3000002006
:104BA0000080494000005940565C51412C000020D3
:104BB00002480021C16081618160704710030020BC
:104BC000F8B523480088002833D0224E012831D080
:104BD000022839D003282CD301211F4800F0B0F857
:104BE0001E4C0021A161F08A25460204803DEA673F
:104BF000E982A8821A4F1B48B96900680818B86191
:104C00003862FFF7A9FC284600F072FB206B804752
:104C10001549B8690860716B144B0A031A60144A8D
:104C2000490311620F4909684018001401F0E6FCBD
:104C3000E861F8BD07480A213830FCF751FD16201D
:104C40000C49305EC860F8BD00F0DCF8F8BD00002B
:104C500000000020E800002000070140C8010020FB
:104C600034020020BC000020B8000020E00000203A
:104C7000B40600201003002030B50D480D4A0E4B3D
:104C8000047998691169042C0DD20C4D14682D8B90
:104C900064106C43DD696419DC6118625160084975
:104CA0000120087030BD18625160D86130BD00002D
:104CB00038010020B80200203402002094060020B1
:104CC0008400002001460420085EC20088689042EB
:104CD00008DA0023CB5E8868C01888608868904234
:104CE00000DB8A608868904208DD0223CB5E88681A
:104CF000C01A88608868904200DA8A608868C010AC
:104D000000B2C8808868904201D10120704700201D
:104D1000FCE7000010B50121480200F0B3FB064893
:104D200006498862C805006980088000C9050861D5
:104D300008460069086110BD837A000080000040C9
:104D40000A4BB0221350012906D1A8221258402341
:104D50001A43A8231A5005E0A8221258044B1A40FF
:104D6000A8231A50034BB02213507047ADDE000049
:104D7000BFFF0000FECA00001F48006AC007C00F46
:104D800000280DD001201C4908621C49C8811A481E
:104D9000006908601848C068886000208882C8825E
:104DA0001548006A04210840002823D00420124935
:104DB00008621248C089002815D111488068491539
:104DC0000840002807D00D48808A401C0B49888283
:104DD0000020C8820BE00948C08A401C0749C882ED
:104DE0000020888203E0002004498882C8820020D5
:104DF0000249C88170470000000501400C060020F0
:104E00000008014070B5214D214869890181A989B7
:104E1000418100241F4A18210460515E621F5143E2
:104E20008910C46041606C82AC82143004601A49FD
:104E3000C4604160E9890181298A41811449174888
:104E400038390A46434209C11C32D46009C20B46B4
:104E50003220603B4C60D882114806890E8046891A
:104E60004E8081891180C18951806C650D4AAC6585
:104E70001168E965846111612C651C610A212C6649
:104E8000C187AC63FEF78EFA6C8070BD8400002091
:104E90002407002088010020E0FCFFFF00007017BD
:104EA00034020020B8020020F0B5354E1A213046F9
:104EB000415E1E227588825E846CC36CC9003148D5
:104EC000AC46012D0068304D41D040350E27EF5FD4
:104ED00067437C131027EF5F5F437B13C91A60435E
:104EE0001041081829494042884202DC4942884260
:104EF00000DA0846F082308322481821C28B715EA6
:104F0000036A4A439A180262838B52134B43191364
:104F10008A180260C18E8A4202DC01604903016284
:104F20000068F16D0203521A92115118F165184A86
:104F3000091311611349174A2039498B4843716B92
:104F40000918716391616146002907D007E00C27B9
:104F5000EF5F67437C130E27EF5FBDE70020B06370
:104F6000308C7083084A16201421105E515E404335
:104F70004943411808480163406B08490882F0BD65
:104F800084000020B406002048010020E02E00002C
:104F9000B802002034020020000B01401003002062
:104FA00010B51549154B8C7F00229A5E012C0DD04F
:104FB0000221595E1B885B185B421CB2030001F0A2
:104FC000F0FC0708090C0F121518080040004018E3
:104FD000C28110BD0848028210BD0748428210BD40
:104FE0000548818210BD0448C18210BD0248048377
:104FF00010BD0148448310BDB004002048010020CA
:1050000070B505460E4614461148818A11484089FC
:10501000081A01B2682001536821085F0D49403920
:1050200022228A5E5043A060A068001320612046BF
:105030001030FFF733F86060172160684843401272
:1050400020602221A06848438015E06670BD000002
:105050000004014088010020F0B586B004460D46EA
:105060000B9E0120039000200290019000234548F0
:10507000454FB862454886426DD14548424F40375A
:10508000786144480290444801903046029F78403D
:10509000019F784003461868404F3840186001204F
:1050A0000004446018680127FF0638431860002692
:1050B00000200290019000231146E81C8008800027
:1050C0000490059419E005988008800001273F04AA
:1050D000786008784F783F02C0198F783F04C01974
:1050E000CF783F06C01901273F04B860091D049816
:1050F000001F04900598001D059004980028E2D137
:105100001146E81C800880000490059420E0059872
:105110008008800001273F04786008784F783F02BC
:10512000C0198F783F04C019CF783F06C01900908E
:1051300001200004C7680098874201D00020039036
:10514000091D0498001F04900598001D059000BFDC
:1051500004980028DBD100200B4F40377861B8134A
:1051600000680F4F384001273F043860002002904C
:10517000019000230026044FB8626846007B06B009
:10518000F0BD0000837A0000800000400CA4FD9A6E
:10519000358F00000F045C6A03A0A0F0FF7FFF7F43
:1051A000FFF7FFF710B54B488078002831D000207A
:1051B0004849887008460078012802D0022826D184
:1051C0001EE045480078022803D1002043490870BA
:1051D00006E041480078002802D101203F490870CC
:1051E0003E480078012805D13B480078401C3A49E8
:1051F000087004E038480078401E3749087007E01E
:1052000001203749087400203349087000E000BFCE
:1052100000BF3448807F00284DD13148808AE12189
:105220000901884247DA2C48007800280ED1102165
:105230002D48FEF739FA02212B484038FEF732FAA2
:10524000082129484038FEF72DFA42E0224800782C
:1052500001280ED110212448FEF724FA0221224809
:105260004038FEF721FA08211F484038FEF71AFAA5
:105270002FE01948007802280ED110211A48FEF7B5
:1052800011FA022118484038FEF70CFA0821164896
:105290004038FEF709FA1CE010211348FEF702FA25
:1052A000022111484038FEF7FDF908210E48403828
:1052B000FEF7F8F90DE010210B48FEF7F3F9022193
:1052C00009484038FEF7EEF9082107484038FEF754
:1052D000E9F910BD440000204700002048000020EC
:1052E0007C0600202C06002040080140704700008A
:1052F000FCB5418B182349420AB24283C35E69461A
:105300000B80494902254A43990351184942CA175B
:10531000520C5118C9130CB269464C8019194942F4
:105320000AB269468A8001462031A3421CDC9342BE
:105330000BDC944204DC01264E760E76164602E023
:105340004D760D7626469E191EE01619F70FBE19EA
:1053500076109B1B6F463B80A31B7B80921BBA8001
:1053600003224A760D7629E0944218DC934205DC4C
:1053700004264E7601260E76164604E005264E7665
:1053800003260E761E46A619F70FBE1976109B1B34
:105390006F463B80A31B7B80921BBA800EE0D61821
:1053A000F70FBE1976109B1B6F463B80A31B7B80BB
:1053B000921BBA8006224A7603220A76AC23002288
:1053C0001B58BA5E0124A4039E8912197243D2139A
:1053D000643E964201DA324602E0392A00DA0022BF
:1053E00042850222BA5E9E8912197243D213643E2C
:1053F000964201DA324602E0392A00DA002282853A
:105400000422BA5E9B8912195A43D213643B934219
:1054100001DA1A4602E0392A00DA0022C2850120A8
:1054200048768D76FCBD0000DA6E0000F0B587B0DE
:1054300005460C46002600270020039002900190AC
:105440000E480188684601834620015B6846008B50
:10545000081A06B209488189684601834820015B21
:105460006846008B081A07B2684606824782062201
:1054700004A92846FAF727FF07B0F0BD0004014051
:10548000704700001A4A1B4B9A62012915D18A0203
:105490000240002A09D08A0712698B029A438B07BF
:1054A0001A618B0202469A43104601229207126942
:1054B000024301239B071A6115E001229202024078
:1054C000002A09D001229207126901239B021A4384
:1054D0001B051A611A1510430122920712698243B3
:1054E00001239B071A610022024B9A627047000059
:1054F000837A000080000040094A0A4B9A62002922
:1055000004D01A46D2690243DA6104E0054AD2693E
:105510008243044BDA610022024B9A62704700001A
:10552000837A00008000004008B50021009103E06C
:1055300000BF0099491C009100998142F8D308BD31
:1055400010B5044661682068411A61620B49606ABF
:10555000884201DD084607E008494942606A8842FE
:1055600001DA084600E0606A60622046183000F008
:1055700026F801B20248C18110BD0000FF7F000083
:1055800088010020C2680168914209DA826B0168D3
:1055900089180160C2680168914201DBC16801603D
:1055A000C2680168914209DDC26B0168891A016015
:1055B000C2680168914201DCC16801607047F0B5C2
:1055C0008FB004462068C117820A890511438505FA
:1055D0000E466068C117820A890511438005019152
:1055E0000090E768F9176089002203920591049002
:1055F0003846039B049AFAF716FEE161A06123691D
:10560000E269A169606959185041216160613246BF
:1056100061692069281A8A4102DA666125610AE017
:105620006369226901990098101A8B4103DA019984
:10563000009861612061E068C217218900230A9304
:105640000C920B910D9011460B9AFAF7ECFD80230A
:10565000002207930692089109901A46069BFAF7D2
:10566000E2FDE161A061A36962692169E0695918FD
:105670005041A161E0613246E169A069281A8A417E
:1056800002DAE661A5610AE0E369A269019900987E
:10569000101A8B4103DA01990098E161A061E16978
:1056A0008902A069800D08430290029800B20FB0F1
:1056B000F0BDC268D10142698A4208DA1023C35E94
:1056C0004269D218426142698A4200DB4161426903
:1056D0008A4208DD1223C35E4269D21A42614269DE
:1056E0008A4200DC4161704710B500201E49086005
:1056F0001E480221415E0A290ADA4088401C00B295
:105700001A4948801A48808800B21A49888015E0F2
:1057100016480221415E14290ADA4088401C00B272
:10572000124948801248008800B21249888005E07A
:1057300004201149087100200C4948800F4801F0ED
:1057400085F800B20B4908800C4801F07FF800B2E0
:10575000084948800846FFF7B5FA00210848C1818A
:1057600041828182018210BDB8020020D004002055
:105770007402002038040020380100200AD7233C9E
:105780008801002010B55C48807B002822D10120D0
:1057900059498873FF205730584948850146574872
:1057A0008185C185408D404200B254490886084633
:1057B000808D404201B251484186C08D404201B2C5
:1057C0004E48818601468031086B804700204C4955
:1057D00008807DE04A480088002817D149484A4996
:1057E00008634A48808B4A4908434749086247484A
:1057F000808B0C2108434449486200200863012142
:1058000041488038FFF79CFA00BF21E03C480088FF
:1058100064280CD13B483C4908633C48808B3D4997
:105820000843394908620020086300BF10E034488B
:105830000021415EC8290BD13248334908633348FF
:10584000808B08210843304948620020086300BF6C
:105850002B490020085EFF212D31884206DA2848B6
:105860000088401C00B22649088031E0002126480B
:105870008038FFF765FA72B600202049488500217C
:105880001E488185C185408D404200B21B49088673
:105890000846808D404201B218484186C08D404282
:1058A00001B21648818601468031086B8047FF208F
:1058B000154940390860FEF7D3FD174840690121BA
:1058C000C90208431449486162B601200A49C873F5
:1058D0000948C07B01280DD1002007498873084979
:1058E00008800549C87300F0A7F8012106488038F0
:1058F000FFF726FA10BD00007402002048010020C6
:10590000D0040020ADDE000080070140B00400207C
:10591000080C00000C0800004004014010B52548A8
:10592000008800280CD1FBF7FBFD2348C088002825
:105930003ED101201F49088064201F49C88037E0FC
:105940001C480088012815D11B48C08800282FD189
:105950001948C07800282BD01848C068642803DA9A
:1059600002201449088002E0032012490880FBF756
:10597000BFFD1DE00F480088022807D10121104813
:10598000FFF7DEF907200C49087111E0094800888B
:10599000032806D104200749088005200649C8804D
:1059A00006E004480088042802D107200249087153
:1059B00010BD00000000002038010020100300206E
:1059C0000007014010B500200449C87000210448B8
:1059D000FFF7B6F9FCF788FE10BD00003801002083
:1059E0000007014010B5114800F046FF0446FBF7E0
:1059F00033FE0F49C8600F4800F03EFF0446FBF736
:105A00002BFE0B4988630B4800F036FF0446FBF77A
:105A100023FE0749C8630846FFF7B4FD0448FFF7B3
:105A20008FFDFCF791F9FCF7C1F910BD0040E5448A
:105A3000B80200200000404070B500219F48FFF7E9
:105A40007FF99F4800F018FF00B29E4908829E48E7
:105A500000F012FF00B29B49488200209B498877E2
:105A6000782008840C2048840020888048800880A2
:105A70008860886148610882C860FFF799F8002053
:105A8000934988708F498873C87300F0C9FE8D49A7
:105A90008881904800F0DAFE0546FBF7D1FD00B2A0
:105AA000884988828B4800F0D1FE0546FBF7C8FD87
:105AB00000B28449C8828848884908804880888024
:105AC0008031086B80470021844840300182C181C9
:105AD0004038C181002081498881088200217F48A7
