:020000040000FA
:10000000800D002049010000570100005901000047
:1000100000000000000000000000000000000000E0
:100020000000000000000000000000005B01000074
:1000300000000000000000005D010000D955000034
:1000400009570000115700009D3800005D3900007D
:10005000B9360000C9490000FD2D000079310000CB
:10006000C9590000751600008D130000311C0000F6
:100070001D5C0000094B00000000000000000000B3
:100080000000000000000000000000000000000070
:100090000000000000000000000000000000000060
:1000A0000000000000000000000000000000000050
:1000B0000000000000000000000000000000000040
:1000C00000F002F800F030F80CA030C8083824180E
:1000D0002D18A246671EAB4654465D46AC4201D180
:1000E00000F022F87E460F3E0FCCB6460126334282
:1000F00000D0FB1AA246AB4633431847686A00009B
:10010000886A00000023002400250026103A01D34D
:1001100078C1FBD8520700D330C100D50B607047BF
:100120001FB51FBD10B510BD01F0E0F81146FFF777
:10013000F7FF05F0FDFD01F0F8F803B4FFF7F2FF5B
:1001400003BC01F0FFF80000094880F30888094863
:10015000804709480047FEE7FEE7FEE7FEE7FEE7C7
:10016000FEE7000005480649064A074B70470000B5
:10017000800D002001570000C10000008007002012
:10018000800D0020800900208009002010B5202A61
:1001900004DB0146203A9140002010BD914020230D
:1001A0009C1A0346E3401943904010BD10B5202A25
:1001B00006DB0846CB17203A1041C1170B4306E077
:1001C0000B4620241341D040A21A914008431946FF
:1001D00010BD4343514330B55C18010C130C0D4660
:1001E00092B25D4380B251432C19054655430A0C27
:1001F00009044D1962415843010C00044019514152
:1002000030BD70B500252C46AD1A9C4112DA002590
:100210002C462D1A8C4102DA00F0E7FF70BD002455
:1002200040428C41214600F0E0FF002440428C41D6
:10023000214619E000252C462D1A8C410ADA0024AB
:1002400052429C41234600F0D0FF002440428C41A2
:10025000214670BD002452429C4140422346002466
:100260008C41214600F0C1FF002452429C412346AC
:1002700070BD01E004C0091F0429FBD28B0701D522
:100280000280801CC90700D00270704700290BD083
:10029000C30702D00270401C491E022904D3830701
:1002A00002D50280801C891EE3E70022EEE70022CF
:1002B000DFE7002203098B422CD3030A8B4211D3C0
:1002C00000239C464EE003460B433CD400224308E7
:1002D0008B4231D303098B421CD3030A8B4201D3D7
:1002E00094463FE0C3098B4201D3CB01C01A52416F
:1002F00083098B4201D38B01C01A524143098B42BF
:1003000001D34B01C01A524103098B4201D30B01A7
:10031000C01A5241C3088B4201D3CB00C01A5241CC
:1003200083088B4201D38B00C01A524143088B4291
:1003300001D34B00C01A5241411A00D2014652412A
:10034000104670475DE0CA0F00D04942031000D349
:100350004042534000229C4603098B422DD3030A9E
:100360008B4212D3FC22890112BA030A8B420CD3AE
:10037000890192118B4208D3890192118B4204D3D7
:1003800089013AD0921100E08909C3098B4201D357
:10039000CB01C01A524183098B4201D38B01C01A91
:1003A000524143098B4201D34B01C01A5241030908
:1003B0008B4201D30B01C01A5241C3088B4201D3B7
:1003C000CB00C01A524183088B4201D38B00C01A64
:1003D0005241D9D243088B4201D34B00C01A52413B
:1003E000411A00D20146634652415B10104601D3C8
:1003F0004042002B00D54942704763465B1000D352
:10040000404201B50020C046C04602BD704770475B
:1004100070470000F0B50C46871A9C410D46861ABD
:100420009D4103D2C01BA141D21963410D0D1F0D87
:10043000C94EEC1BAE435CD07F057F0D0026002F1C
:1004400051D02D05AC46A943DD020123ED0A1B0561
:100450001D4320231B1B24D41746E7403818714145
:100460002F46E740CC199D402818314661410C0DBC
:1004700027D161449A4013D50023401C59415200B2
:100480000ED14008400001224B005205D34207D351
:1004900005204007C14201D5B04900E0B0493046CF
:1004A000F0BD6B00002A00D001229A181F23203CC7
:1004B0001B1B01D5002302E0E540281871410C0DFB
:1004C000D7D0012424050919C407CD0740084908DD
:1004D000E40F28436144002CD5D00024401C614126
:1004E0009A40D0D1CDE76A05520DD9D1C90FC907BD
:1004F000D5E79C4D4E00002801D0012400E00024E7
:1005000034195F00002A01D0012600E00026BE1940
:10051000954FAC420CD8AE420AD8B44206D0012561
:100520006D05EC42BCD010461946F0BD9942FCD096
:1005300000203946F0BDF0B51FB40C460F46811AB5
:100540009F412546861A9D4106D20125ED076F4041
:10055000401ABC4152187B41210D1E0D8D1BAC462B
:100560007D4D8D437ED075056D0D7CD00D05AE465D
:10057000AC431B031B0B794D52429D412023664621
:100580009B1B14D31746F74038180026009074417F
:1005900060462F460741E41900989D40281866419F
:1005A00016D4714671189A4025D5012320E093187E
:1005B0002A466A415200002B00D0521C1E23203EC6
:1005C0009B1B002B61DD3541EE1728186641E8D5ED
:1005D000001876415B1C9A4000D3401C4B05F31871
:1005E0001524E34010D3002B52D071467118D30F5D
:1005F000C01802D3491C05B0F0BD0123DB079A42A5
:10060000F9D140084000F6E701225205B21801D1A5
:10061000002853D00123CC0ADB029943891E002A0B
:1006200008D1020C03D0020C0004103902E002468B
:10063000002020390023550B05D112020823550B49
:1006400001D152010D23550C01D112011B1DD50CF6
:1006500001D192009B1C150D01D152005B1C20257D
:10066000EE1A01E02CE022E00546F54015439840E3
:10067000CA1AE10769181305C918002ABBDA032052
:1006800040070818C10FC9070FE071466118B2E7AB
:10069000F10740080843711071444A000CD001234F
:1006A0005B059A42A7D2C90FC9070020A3E74905F5
:1006B000490D26D1002001E00028F4D100219AE75D
:1006C000284D6600002801D0012100E000217118AA
:1006D0005F00002A01D0012600E00026BE19224F4B
:1006E000A94210D8AE420ED8B14208D001256D05FE
:1006F000E94206D01946A802414010467BE79C42D9
:1007000001D0214677E70020394674E710B50C4642
:100710005C4005D50124E4076340FFF70CFF10BDE2
:10072000FFF778FE10BD30B40C465C4004D50124C0
:10073000E407634030BC6DE630BCFCE670B50124D4
:10074000E40761400D465D4002D4FFF763FE70BDD3
:100750006340FFF7F0FE70BDFF0700000000F0FFF0
:100760000000F07F0000E0FF0000F87FF0B5F94DD9
:100770000C091E092C402E402F468BB0A7437DD07C
:10078000B543FCD0002E7AD0002CFCD00D465D4045
:10079000ED0F2543AC1BFF25AD0464190894C50279
:1007A000440DC9022143500DDC0204430120C0075F
:1007B00001430443D2020191200C110C00958C4698
:1007C000010423468B430A9161460904E24D8A43A2
:1007D0000991010A7D4449198039097805464D433C
:1007E00001266D18F605751B6943C90C640B891C3D
:1007F0004C436418B5012C1B250C2E04B4434C4308
:100800004D43210C691889090591009DE90701D024
:100810000121C90704912C4601996708CD072F4390
:100820004C08059DE10B4D432D0C2946664675434A
:1008300002950D4645432E46029D7D1BB441009511
:100840000D465D4301942C0C2F040D465543AE46D6
:100850002D0C3D43029503947546049C2D04641BA6
:10086000049406D2029C039D641C002675410395E6
:10087000029401AC70CC009F7D1B01E03EE162E17F
:10088000B44109040095079101940599A4086143B6
:10089000090C0C464443650BE7040C46664674435A
:1008A000A646640B3C43039502947446049DE404FD
:1008B0002C1B049406D2029C039D641C00267541E7
:1008C0000395029401AC70CC009F7D1BB441019450
:1008D0000C465C430095650FE7000C465443A64662
:1008E000640F3C43039502947446049DE4002C1B62
:1008F000049406D2029C039D641C00267541039556
:10090000029401AC70CC009F7D1BB441AE09AF06D0
:10091000049DC900AD092F43049DA406AD060495AE
:10092000079D344369180791059DE10B4D432D0C3C
:1009300029466646754302950D4645432E46029D5F
:100940007D1BB44100950D465D4301942C0C2F0492
:100950000D465543AE462D0C3D4302950394754616
:10096000049C2D04641B049406D2029C039D641C09
:10097000002675410395029401AC70CC009F7D1B4D
:10098000B44101948C050694079C890A611800956E
:100990000791019C0599A4086143090C0D46454344
:1009A000680BEF040D46644665436C0B3C43049FA3
:1009B000ED047D1BAC4602D20025641C6841009EFC
:1009C000019D371B85410846584301950C46460F4B
:1009D000C5005443600F28436546E4002C1B02D237
:1009E0000025401C6E41019D3F1AB5412846BD09B6
:1009F000800628438446A009BF064E020699A40635
:100A000076180743079D002068410A99079019430B
:100A10000020099B00906046FF1913434041E20FFC
:100A200064003A43A4460446D71A8C41A04203D935
:100A30000120009020463A46C70F94184041624674
:100A4000D20F2243644664000494009CBE466400B6
:100A5000D71AA446044602978C417746002F01D14D
:100A6000A04204D96046401C8446029A2046C40F26
:100A7000A64694184041049A0546D20F2243644684
:100A80006400D31A8D417146002901D1A84202D9D0
:100A900028461A46641C10430122002800D0164341
:100AA00061020020079B891904465C410223002C47
:100AB00002DB491813466441089DCE0A2D145D19C6
:100AC0004B056705E10A2C050D1908993E43C90736
:100AD0006940002B08D0934006D30022761C514178
:100AE000002B01D1760876001C4A002D43DB15420D
:100AF00041D0AA433FD030460BB0F0BD06180D469A
:100B00004D41174C7642AC411AD395181C465C41B6
:100B1000134A6D42A24113D3012252054C00D44224
:100B20000AD15C00D4420BD04B4002D59202114353
:100B3000E2E749004908DFE75940C90FC90718E053
:100B400000200849D8E7054801420DD10342F7D0FB
:100B5000F2E700000000FF07CC6200000000F07F19
:100B60000000E0FF0000F87F114859400143C01227
:100B700041400020C0E70123089A9B069A4205DC09
:100B8000032252078918C90FC907B5E70522520782
:100B90008918074A1143D2125140ADE770B5154686
:100BA0001C4602460B4628462146FFF7DFFD70BD76
:100BB000FFFFFF7F30B50346CA02400D1043164DBC
:100BC000164C0A1502D02043002A06DBAA1A002A76
:100BD00012DDD040FF2A0BDC30BD5205520D01D191
:100BE00040004008AA1A07D4D0404042FF2A01DD45
:100BF000002030BD0028FCDD4A00002B01D0012080
:100C000000E00020101801225205D042F0D8C81789
:100C1000C043604030BD00001E04000000000080A2
:100C20000346CA02400D10B510430A1504D0012432
:100C3000E4072043002A05DB0A4CA21A04D4D04062
:100C4000FF2A00DD002010BD4A00002B01D001204A
:100C500000E00020101801225205D042F2D8C81737
:100C6000C04310BD1E0400001F22030C02D10F223E
:100C7000000402D0030E03D004E0002001467047B8
:100C80000002083A030F01D10001121F830F01D1A6
:100C90008000921E002801DB4000521E12055118F0
:100CA0004205C012411810467047C10FC90700D055
:100CB0004042012292071143D6E701218907D3E779
:100CC00010B50B1E01D0202301E0011E2BD00C0C0F
:100CD00001D10904103B0C0E01D10902083B0C0F95
:100CE00001D109011B1F8C0F01D189009B1E002916
:100CF00001DB49005B1E0446DC4021431C05A418AF
:100D00002022D21A90404B05C20AC90A1A43091977
:100D1000830501D1430818401623984002D30020D0
:100D2000521C4141104610BDCA0FD20703D00B46DA
:100D3000002140429941024B1A43C1E7004ABFE7F4
:100D40000000D041F0B58B4C0F09254689B0BD435A
:100D50007BD01D092646AE43FAD00E465E402740A2
:100D6000F60F3E43254071D024012142FBD0FF24E1
:100D7000AD19A4042D1B039501252D05DB02DB0A0B
:100D8000C9022B43C90A29431E010901040F130F8D
:100D9000050121431701880B820391432D098C46DD
:100DA000A90B1E438A039543B30B9A0396433F094D
:100DB000BA0B9403A74302962E467E430497B64689
:100DC0004E19D7190C460196544305977E43371B9D
:100DD0007646BF1B3601B646BE0B361900967646E0
:100DE000BC043719009C01D3641C00946400002FDC
:100DF00001D001263443029E049F754366467E431C
:100E00000496760034196E0034190094029C019EF9
:100E10001C196643751BAE46069465464519059C2C
:100E200005956C43594375460891691A0191049ED2
:100E300001465143A41B0491611A009C0791E106ED
:100E400005D061090122114302E072E06EE0610900
:100E5000089D00272C0A2D066918049D7C412A0A4A
:100E60002D066918019D6241AC0DAD026D1854410B
:100E7000079A910D920255196141029A64465843AE
:100E80005443069B059A5A43121A131B9A0E9B0150
:100E90005B187A41010B0005C3185141220A200654
:100EA00044195A419A4200D2491C01204002814211
:100EB00003D315230226F64302E014230326F64348
:100EC0002020C51AA9401746AF40DA400A43204601
:100ED0000399D8400914731819055118039A384317
:100EE000D2075140AC4009D00122944006D30022E1
:100EF000401C5141002C01D1400840001E4A934241
:100F000012D3012203989206904207DB0520400786
:100F100009181A480143C012414004E00320400769
:100F20000818C10FC907002009B0F0BD0020F10763
:100F3000FAE705180C464C4111486D42A04115D303
:100F400094181A465A410E48644290410ED301202B
:100F50004A004005824209D35A00824206D35940D2
:100F6000C90F084AC90700201143DDE700200649E0
:100F7000DAE700000000FF07FE070000FFFFFF7F29
:100F80000000E0FF0000F07F0000F87F0121C905AC
:100F90000123411842001B06D3185B0E0AD0C11072
:100FA0000722D206891840075242D14201D5520089
:100FB00089187047090208D50146002A03D0C10FDD
:100FC000C9070020704710467047420202D0002037
:100FD00002497047072109050143F4E70000F87F43
:100FE000F0B5FF252D04C609C209FF2704462E408F
:100FF0000137CB093E4348402A402B400746002A90
:101000006BD0002B69D0AA4267D0AB4265D00028D4
:1010100000DA32460125ED0529432C43090220025E
:10102000090AD21A4B0C7F24E31A434C000A7C4471
:10103000E35C7D242404121914145B00A218884276
:1010400001D3521C00E0400049420C465C4324118D
:101050005C43DB016415E318040A5C43C502200D00
:101060000C4644436419250A5D432303EC0C0D46EA
:10107000654300030019EB184C42A34201D35B18EF
:10108000401CD4052018002B07D05B00C91804D3DE
:10109000401C002901D1400840003F2189048A42B8
:1010A00009D3002A08DC1106090F04D003214907DF
:1010B0004018C00FC007F0BD012241001206891878
:1010C0007F2252069142F6D205214907C84201D536
:1010D0009010F0BDFF20C005F0BD002F00DA3246B1
:1010E0001648AA4207D2AB4205D21902090E17D000
:1010F000F80FC007F0BDFF2563002D06AB42F9D8FD
:101100004900A942F6D8AB4201D1A942F2D0A94286
:1011100001D1002101E061004908D0050843F0BD7C
:101120001102090EFBD0FF200243D005F0BD0A4694
:101130000146104654E70000F25A00000000C07F4C
:1011400010B501469E240002CA15A307002A02D04A
:101150001843002A04DBA21A002A0CDDD04010BD7F
:101160001206120E01D140004008A21A03D4D0404A
:1011700040420028F3DDFF2248001206904201D9C8
:10118000002010BDC817C043584010BD1F22030CDB
:1011900002D10F2200041CD0030E01D10002083A34
:1011A000030F01D10001121F830F01D18000921E95
:1011B000002801DB4000521ED205511802125118BE
:1011C0001922904004D3491C002801D14908490044
:1011D00008467047C10FC90700D04042012292075C
:1011E0001143D3E701218907D0E7FEB50546104634
:1011F0000C46184373D0AE468C460020AD1A01460B
:101200009C4167D36646002701243D46B61A9D419E
:1012100002D313463A462124654676462F04360CFF
:101220003E432D0CB61A9D4104D3150C1B042B43D1
:1012300012041034654676462F06360A3E432D0AC0
:10124000B61A9D4104D3150E1B022B43120208341B
:10125000654676462F0736093E432D09B61A9D414D
:1012600004D3150F1B012B431201241D654676463E
:10127000AF07B6083E43AD08B61A9D4104D3950F9B
:101280009B002B439200A41C65467646EF07760828
:101290003E436D08B61A9D411AD392185B41641CF7
:1012A00016E00018764665464941B71A9D410191FE
:1012B000009009D36046B11A98418E468446009842
:1012C00001990025401C6941DD0752082A435B084B
:1012D000641EE6D57246634603B0F0BDFFE700200A
:1012E0000146C046C0462A462346F5E7754600F04B
:1012F00025F8AE46050069465346C008C00085463D
:1013000018B020B5FEF72EFF60BC00274908B6468E
:101310000026C0C5C0C5C0C5C0C5C0C5C0C5C0C504
:10132000C0C5403D49008D46704710B50446C046D3
:10133000C0462046FEF701FF10BD00000048704780
:101340001C07002001491820ABBEFEE72600020062
:10135000704730B58C180278401C13071B0F01D161
:101360000378401C120906D10278401C03E005787E
:10137000401C0D70491C5B1EF9D101E00B70491C2B
:10138000521EFBD1A142E6D3002030BD10B5244847
:10139000C06A032108432249C862224800F074FD54
:1013A00020480088401C1F49088001201E49887081
:1013B0001B48403800891D4948842220085E00F0FF
:1013C0005FFC1848007907280CD1194A19491748B9
:1013D00000F068FA18480021415E184A0020105EAB
:1013E00000F01EFE01F07EFF154840691021084004
:1013F000002805D1124840692021084000280ED05D
:1014000000210F48803803F025F830200C4948614E
:101410000C48008802218843801C0A49088010BDBE
:101420004004014040010020300100205001002014
:1014300016000020E8040020000500203C000020E9
:10144000800701401C00002070B505460C460121B4
:10145000080203F05BFB2088A866A0788002618AFE
:101460000843217D09030843E18809010843217CE1
:101470000902084386B26E65208961890901084323
:10148000A18909020843E18909030843286570BD61
:101490000848807C002806D1A520C00006490860C5
:1014A0007A20486004E00548034908607A204860D3
:1014B000704700004C0600204004014020850000D9
:1014C0000021018041808180C18001814181818131
:1014D000C181018241828182C1820183418370473F
:1014E00000B587B06846FFF7EBFF01216846018031
:1014F000002141800421018100214181012141829B
:101500000021818201820121018069460C48FFF798
:101510009BFFFF200A494031C86208464069C91450
:101520000843074940314861FFF7B2FF05480649C3
:1015300088620020C90588610349886207B000BD40
:1015400000040140837A0000800000400EB51E496F
:101550000A8869460A8046210A5A69460988511A4A
:101560000AB269468A8018498A8969460A804821F0
:101570000A5A69460988511A0AB26946CA80042281
:101580008A5E1249496A4A43D11309B201806A4608
:101590000621515E0D4A526A5143C91309B2418076
:1015A000018842888918494209B281800221415E3E
:1015B0000422825E891A064A5143C9130AB2428242
:1015C000018801820EBD0000000401403C020020A1
:1015D000E74900000146044A12884A43024B9B78BF
:1015E0001A41104670470000980400200146044A42
:1015F00012894A43024B9B7A1A41104670470000F9
:101600009804002010B5174CF521206D89000014B6
:10161000A08315481022C08E48431449800A8A5E70
:101620001349801A0861084600F08AFC002801DD91
:10163000002106E00C49182240318A5E5142814265
:1016400001DD618200E060821221615E401A08497A
:1016500014310861084600F073FCA0821220205E5D
:1016600010BD000088000020500100201803002059
:10167000F40600201CB503201A494860084640685B
:101680000221084000282BD00021009101910FE099
:101690001448406902210840002804D068460078B8
:1016A000401CC1B2009168460079401CC1B2019152
:1016B000684600790528EBDB6846007803280EDDD4
:1016C0000021094802F0C6FE3020074980314861F8
:1016D0000648008802218843801C0449088000BF16
:1016E0001CBD000000020140000701401C0000205A
:1016F00010B504460121082003F042FA6069400257
:10170000A16C09020843A16949000843616C0843C0
:101710002E490860206800016168C9000843A1687B
:1017200008432A498860E069C001216A89010843A9
:10173000616A49010843A16A09010843E16CC900D3
:101740000843216D89000843616D49000843A16D7C
:1017500008431E49C860606BC001A16B8901084342
:10176000E16B49010843216C09010843616EC9001E
:101770000843A16E89000843E16E49000843216FC8
:10178000084312490861124812498862C805406935
:1017900011490840E16A09030843E168C9020843A6
:1017A000E16D090208432169C9010843216B090160
:1017B0000843216E89000843012189074861002000
:1017C0000449886203200149486010BD00020140BD
:1017D000837A000080000040438000000021016007
:1017E00001214160002181600121C160002101616E
:1017F00041618161C161016241628162C1620163D3
:1018000041638163C163016441648164C1640165B2
:1018100041658165C165016641668166C166016792
:10182000704700B59DB06846FFF7D8FF0021012042
:10183000400303F06BF90121880303F067F90A20E4
:1018400000900220029001200690099000200A904A
:1018500002200C9003200B90002011901590169000
:101860000220189005201790012004906846FFF789
:101870003FFF1DB000BD0000074808498862C80549
:101880000069C9130843C903086104480068044992
:101890000843024908607047837A000080000040D6
:1018A000FF01000010B50B460021415E002902DB5C
:1018B0000021415E02E00021415E49420024145FA4
:1018C000A1420BDD0021415E002902DB0021415EC7
:1018D00002E00021415E494209B211800221415ECD
:1018E000002902DB0221415E02E00221415E494201
:1018F0000224145FA1420BDD0221415E002902DBBC
:101900000221415E02E00221415E494209B251805A
:101910000421415E002902DB0421415E02E0042132
:10192000415E49420424145FA1420BDD0421415E63
:10193000002902DB0421415E02E00421415E4942AC
:1019400009B2918010BD000016481021415E14229A
:10195000825E91420EDD008A1349C98A401A01B2A3
:10196000104801821021415E1422825E914201DC06
:10197000818A01820B481021415E1422825E9142CD
:101980000EDC008A0849898A401801B205480182A4
:101990001021415E1422825E914201DB818A018224
:1019A00070470000900100207C02002016480E21A4
:1019B000415E1222825E91420EDDC0891349C98ABE
:1019C000401A01B21048C1810E21415E1222825E8E
:1019D000914201DC418AC1810B480E21415E1222F5
:1019E000825E91420EDCC0890849898A401801B2A2
:1019F0000548C1810E21415E1222825E914201DBC7
:101A0000418AC18170470000900100207C020020C3
:101A100010B504464E20015F0C20205E091A80207C
:101A200001515020015F0E22A25E891A9C200151B3
:101A3000A089074908802046703000F0CDF8A082C8
:101A400020468C3000F0C8F8E08202F067F910BD43
:101A50004200002010B586B0002472B6002057491D
:101A6000486108464069C914084354494861FFF772
:101A70000FFD002052494885002151488185C185CC
:101A800001F02EFF01214F4802F0E4FC00200590F8
:101A900002E00598401C05904B4905988842F8D310
:101AA0000020009001900490039000242DE047480E
:101AB0004249886100BF4148C06AC007C00F002882
:101AC000F9D03E48C06A032108433C49C862084631
:101AD0004069C914084339494861384940390022EE
:101AE0008A5E0098801800900C228A5E0198801807
:101AF000019008228A5E0298801802900C228A5E69
:101B0000039880180390601C84B201204002844234
:101B1000CDDBFFF7E5FCFFF7BBFC62B60098401297
:101B200001B227484030C1800198401201B22448D8
:101B3000403001810298401201B221484030418179
:101B40000621415E002903DB01460620085E04E011
:101B50001B4840300621415E48421D49884223DC33
:101B6000174840300821415E002903DB0146082068
:101B7000085E04E0124840300821415E48421449A2
:101B8000884211DC0E4840300A21415E002903DB07
:101B900001460A20085E04E0094840300A21415EFF
:101BA00048420B49884207DD0A480088FF2101317D
:101BB000884340180749088006B010BD4004014022
:101BC0005001002000070140FFFF0700A55A000058
:101BD000AC0D00001C00002010B501464C690B69DB
:101BE0001B1B0C8963431A464C890B696343140120
:101BF0001A19CB689B18CB600C68CB68A34202DD36
:101C00000B68CB6005E04C68CB68A34201DA4B68F7
:101C1000CB60CB6818140B694B6110BD10B5012166
:101C2000C80202F073FF1E2001218907C86210BD9F
:101C30007047000010B50E480069002800DA4042E5
:101C40000C4A0421515E0C4B0C4C884205DDD88AAD
:101C5000E083988AA083012007E04910814205DDD6
:101C6000588AE083188AA08300205080002010BD8D
:101C7000C0020020880000203C02002084060020D2
:101C80000F49104A896A4143C8130104106C091AAC
:101C90004910081810640014012800DA01200123FB
:101CA00009491B060B624862896A084B89B299830D
:101CB000074BD886074B59430913D163704700007F
:101CC0003C02002088000020000B01406406002038
:101CD00050010020354F0200F0B503460D460021AB
:101CE00000240020244E254FBE62254EB24217D15B
:101CF000244E224F40373E612349244C16464E4025
:101D0000664030460668224F3E4006600126360493
:101D1000736006688F073E430660002100240020A0
:101D2000174EB24215D1174E144F40373E61194934
:101D3000194C16464E4066403046184E0660BE139B
:101D4000366876007608BF133E600022002100242A
:101D500000200026094F40373E61BE1336687600EA
:101D60007608BF133E6000220021002400200026D8
:101D7000024FBE62F0BD0000837A00008000004088
:101D80001F360D9ACA8F00000A060CB01530002AC3
:101D9000FF7FFF7F1A3401B015020D2ABADC54769A
:101DA00008B50E480078012816D10D48C0780028E3
:101DB00012D10A49087072B60A4A00213F20400237
:101DC000FFF78AFF08480023084A042100903F20BB
:101DD000400202F097FC62B608BD000058000020E7
:101DE000400100201F360D9A0CA4FD9A4C000020E3
:101DF00020492148C162214881891F48103801814A
:101E00001E48C1891C48103841811D4970384167FE
:101E10004842194980390867002117488038C1674E
:101E20001648018914480C30018114484189124830
:101E30000C3041811249416049420C38C160002197
:101E40000C30C1600F490C38016301212038017347
:101E50007D20400108498039C886811006484038F5
:101E60000183C8217430018141811C30018141818D
:101E7000704700007E5E0000D00100203C02002080
:101E8000000090E8E1380000F8B505462A4C2046ED
:101E9000FFF75CFB2879042805D02879032802D0B5
:101EA0002879072838D11221615E1C20205E414329
:101EB000CA131020205E1E23E35E5843C013101A7D
:101EC00000B2A0811020205E1C21615E4843C21335
:101ED0001220205E1E23E35E5843C013101801B287
:101EE000E1812046FFF794FD204602F06FFDB0210E
:101EF0000859804702F062FB02F044FA0F48006A7A
:101F0000060C30B203F0FCFC694600900988A183FE
:101F100069464988E1830DE0287909280AD1002023
:101F200060850021A185E18520866186A186B0219A
:101F300008598047F8BD0000500100203C020020F5
:101F400030B50188438904690A04C5688188634300
:101F5000EB180904C360934201DD134602E08B4293
:101F600000DA0B46C36000894443200118189042F0
:101F700001DD104602E0884200DA0846001430BD58
:101F800010B51E480021415E052905DA0088401C75
:101F900000B21A49088002E0012018490880174958
:101FA0000020085E030003F06AFE0625040B191AE0
:101FB000242513492220085E124900F0D3FA1AE0C2
:101FC00011480079072808D10D4A0C21515E0F4AAB
:101FD0000F4B50680F4A00F051FA0CE00BE00A4832
:101FE0000079072804D10C4A0C490A4800F0E4F8AB
:101FF00001E000E000BF00BF10BD00002000002095
:10200000500100202805002040010020C0020020CF
:102010003C050020160000205A050020E80400209E
:1020200070B505460C46A54218DD11480088012808
:1020300005DA0F480088401C0D49088017E0002091
:102040000B49088000210B4802F004FA0A48008876
:1020500040084000401C0849088008E00448008807
:10206000002804DD02480088401E0149088070BD38
:102070001E000020000701401C00002010B53C4855
:1020800003F078FD0446FFF7A5FA00B2394908804D
:102090000020394908804880888038490880488075
:1020A000374803F093FD00B232494880354803F0C9
:1020B0008DFD00B22F4988800020334908803348C5
:1020C00003F058FD0446FFF785FA00B2294948811C
:1020D0002F4803F065FD0446FFF788FA2549C860DC
:1020E00000202C4908804880C8800120800703F028
:1020F00041FD0446FFF76EFA00B21E4908822648E9
:1021000003F04EFD0446FFF771FA1A494861204872
:1021100003F046FD0446FFF769FA164988611F4837
:1021200003F028FD0446FFF755FA00B21149088470
:102130001B4803F035FD0446FFF758FA0D49C86106
:10214000002048841749088017490870088248828F
:102150008882488048608860C86014490880488048
:10216000888013490880134908804880C88010BDC2
:1021700033333340000500205001002028050020A3
:102180000000AA4300007E43320500209A99993E40
:10219000000048423C05002000C08F45CDCCCC3D1E
:1021A0000000F0415A050020E8040020160000203D
:1021B000500500206405002070B504460E46154603
:1021C0000020285EFF219131884204DA2888401CD3
:1021D00000B2288027E000202880205E80100221A5
:1021E000615E88420DDC0220205E80100421615E69
:1021F000884206DC0420205E80100021615E884257
:102200000DDD0021084802F025F90848008840212A
:10221000884340300549088001200549C8840020D2
:1022200020806080A08070BD000701401C0000205D
:1022300000050020704800884007C00F002805D125
:102240006D4800880007C00F002830D06B4922205D
:10225000085E6B4908228A5E904225DB674922208E
:10226000085E674906228A5E90421DDC65490420AB
:10227000085EFF212D31884206DA62488088401CC2
:1022800000B26049888012E05B48008804218843DE
:102290005949088008460088082188435649088023
:1022A00000205849888002E0002056498880524822
:1022B0000088C006C00F002818D053490420085ECB
:1022C000FF212D31884206DA4F488088401C00B239
:1022D0004D4988800AE048480088102188434649D3
:1022E0000880002048498880454948844248008841
:1022F0008006C00F002816D044490420085EFF2144
:102300002D31884206DA41488088401C00B23F499E
:10231000888008E0384800882021884336490880B2
:1023200000203A498880344800884006C00F0028C1
:1023300016D037490420085EFF212D31884206DA85
:1023400033488088401C00B23149888008E02A4820
:102350000088402188432849088000202C49888033
:10236000254800880006C00F002823D029482821CE
:10237000415E46291BDD2821415E782917DA26496E
:102380000420085EFF212D31884206DA2248808829
:10239000401C00B2204988800CE01748008880214A
:1023A00088431549088000201B49888002E00020EE
:1023B00019498880104800888005C00F002819D06E
:1023C00016490420085EFF212D31884206DA1348A1
:1023D0008088401C00B2114988800BE006480088C4
:1023E0000121490288430449088000200B49888064
:1023F00003498884704700001C0000205001002021
:1024000000050020280500203C05002032050020A2
:102410005A0500207C0200205005002064050020A1
:1024200010B500200C4908800C4988800C49888030
:102430000C49888008810C4988800C4988800C48A8
:1024400003F0C4FB00B20B49C8800B4803F0BEFB8D
:1024500000B20849088110BD1C0000203205002090
:102460003C050020460500202805002050050020DE
:102470000000AF430005002000008743F8B5054683
:102480000E4617461C460620205E282804DAE088FF
:10249000401C00B2E0805EE0002D01DB284600E039
:1024A00068422D494969884208DC002D01DB284635
:1024B00000E0684228498969884219DA0020205ED4
:1024C000642804DA2088401C00B2208012E0002139
:1024D000224801F0BFFF0020208021480088102101
:1024E000884310301E49088001201B49488401E0C0
:1024F00000202080002D01DB284600E068421649BC
:10250000C969884225DA002E01DB304600E07042BE
:10251000114920228A5E90421BDD0220205EFF21AD
:102520009131884204DA6088401C00B2608012E079
:1025300000210A4801F08EFF0020608008480088D2
:10254000102188431030064908800220024948843F
:1025500001E000206080F8BD000500200007014078
:102560001C00002070B505460C461F48807F0028DF
:1025700038D11E490220085EA84204DC2088401C95
:1025800000B220800CE019490420085EA84204DD56
:102590006088401C00B2608002E0002020806080E3
:1025A0000020205E28280CDB0021114801F052FF9A
:1025B000002020800F48008804218843001D0D4919
:1025C00008800220205E28280CDB0021084801F04A
:1025D00041FF0020608007480088082188430830B8
:1025E0000449088070BD0000FC05002000050020A3
:1025F000000701401C0000200246002001235B036D
:102600001146814089B2994203D8401C00B20D287E
:10261000F6DB704710B5002012490882488232204C
:10262000C8824B20000188827D20800108800E48EE
:10263000488088800D48C8800D4848630D488863ED
:1026400096200D49C8860020888600F019F8FFF70B
:10265000CFFB1E20084988810520887307484886DB
:1026600010BD00003C020020102700003075000063
:10267000905E0000BC5E000084060020660600003C
:10268000F0B5FF4E0A20756B8BB0285EB46BFEF779
:10269000A1FD0746FB49206903F094FB6169FEF741
:1026A0009FFCA169FEF79CFC3946FEF799FCFEF7FA
:1026B00047FD70620020205EFEF78CFDF24F009017
:1026C0003946206903F07EFBE169FEF789FC009939
:1026D000FEF786FCFEF734FDB06201200007696852
:1026E000FDF7F1FDF0620020205EFEF773FD009023
:1026F0003946206903F066FB216AFEF771FC0099F8
:10270000FEF76EFCFEF71CFD3063A2896E68642044
:102710004243F117F00849070143D3177007FDF74B
:1027200070FD0905000B0843D84E642130836868AA
:10273000FDF7C9FD0004A189FDF7C5FD70832A6975
:102740001921D317009317464904E86803F067FA84
:102750003A46009BFDF755FDA2890023FDF751FD88
:102760000121C903081A3060C949E868695E03F0AD
:1027700056FA020F090111430022A25E0001D3178D
:10278000FDF73FFDC349C86464216868FDF79BFD00
:10279000069004900A20285E0290C01703900498C7
:1027A0000026C017059068690090C0170190A05FCF
:1027B0000890C0170990324605990498FDF7E6FC89
:1027C000019B009AFDF705FD039B029AFDF701FDB1
:1027D000099B089AFDF715FDAF4A0023FDF711FD8F
:1027E000AE49884202DA761C36B2E4E7A94A906420
:1027F000D683AB48029000980199C70C2A694E0312
:102800003E43D31740033146FDF7FBFC80B2069FE1
:1028100000260090F8170390A089019038463246B0
:102820000399FDF7B3FC012252030023FDF7E9FCF5
:102830000023019AFDF7E5FC7D218901884202DA37
:10284000761C36B2EAE7C1170023029AFDF7C1FCF5
:102850000023009AFDF7BDFCCA00410F8B481143CD
:1028600041601E3E012146738902818200262A6949
:102870000020D31700931746205E8A4903F0CFF952
:102880003246FDF783FC3A46009BFDF7BAFC0A2767
:10289000EF5FFB173A46FDF7B4FCA2890023FDF772
:1028A000B0FC7D21C901884202DA761C36B2DEE72F
:1028B0007D4903F0B4F90903000D084373490E3E46
:1028C0008860084686730020205E784AA9695043D4
:1028D000FDF7EFFC6F4948640020205EFEF77AFCAC
:1028E00006467349206903F06DFA216AFEF778FB0A
:1028F0003146FEF775FBFEF723FC614908630020B3
:10290000205E6C49484302140A200092285E6A49FE
:10291000484306147D21A089C900FDF7CAFC674918
:10292000F317888356480021008832460593FDF747
:1029300050FC2A69D317FDF74CFCFF23009A87331C
:102940005A430092D2170192019B009AFDF759FC5D
:102950004B4980B208810490A089FEF7AEF903913B
:10296000029047490498498803F071F9FEF7DCF9B1
:102970000022534BFEF7E6F9039B029AFDF7F6FEA1
:10298000FEF74EF93E49324648810846008800214C
:10299000059BFDF71EFC6A69D317FDF71AFC019B26
:1029A000009AFDF72EFC87B235488781A089FEF793
:1029B00084F90646324800914188384603F047F9C9
:1029C000FEF7B2F900223E4BFEF7BCF93246009BFF
:1029D000FDF7CCFEFEF724F929490822C8810846F4
:1029E000825E2C480A2382840846C35E29480E264C
:1029F000C38408460C21415E2648264F01852048A5
:102A0000865F244846851E48808842439212BA85D4
:102A10001B4AD28853439B12FB8503464B439812B3
:102A2000394608867243901248861548254B02891C
:102A30001648583002811248418914485830418163
:102A40001C30028141811F49642088801D4A0A216F
:102A500011837D22D2001A801A461081918111467D
:102A600008827D20C00088820020488048814882FA
:102A7000C881C882C8804883205EA021484323E0E3
:102A80003C0200200046E246000020476406002089
:102A90000A00000088000020CFFD00001027000081
:102AA00010C9000040420F002F880600F2660100A6
:102AB00080908A47CE9300000A6A01001803002024
:102AC0000000244058040020010C794E0846B183D0
:102AD000FFF792FDF08300230146E35EA02043430D
:102AE0001027781AC340B38300203083FFF784FD9A
:102AF0007083391AE1200001C84030830A20285E23
:102B00006C494843800C3080FFF776FD01467080A9
:102B10000A20285E674A50431222511AC84030806A
:102B20000020205E64494843800DB080FFF764FDBB
:102B30000146F0800020205E5F4A50431622511A61
:102B4000C840B0806868000C3081FFF755FD708187
:102B50006B68381AC34033810A21695E5748FDF714
:102B6000A8FB010C564E08463180FFF745FD7080EA
:102B700000900A21695E5148FDF79BFB00990246CF
:102B8000781AC24032800021615E4E48FDF791FB09
:102B9000000CB080FFF730FDF08000900021615EF6
:102BA0004848FDF786FB01460098381AC140B180BD
:102BB0003F0338466968FDF77CFB81B231810846E6
:102BC000FFF71AFD70813B46834018466968FDF7A0
:102BD00070FB308112203083FFF70EFD8740708339
:102BE000E12109013846FDF764FB30830021615E75
:102BF0000A20012741433F033846FDF764FB81B2B9
:102C0000B1830846FFF7F8FCF08300210246615EBD
:102C10000A20414397403846FDF74BFBB0832A4ECC
:102C20002A49F08E16224843000CF086B08E891097
:102C300048432749001488800420B0730020205E98
:102C400069695043FDF73FFB0A21695EFDF73BFBD5
:102C500080B2411EB08113290DD20020205E1D4A92
:102C600069695043FDF72FFB0A21695EFDF72BFBD5
:102C7000B081062010E0142801D300200CE00020D1
:102C8000205E154A69695043FDF71DFB0A21695E04
:102C9000FDF719FBB0810A20B0730D490220C880EE
:102CA000A0890A225043800908810BB0F0BD0000C2
:102CB000780400205B230000181700008DF61C002C
:102CC00098040020B172C50284060020402F020043
:102CD000880000206A050000A55600000748002271
:102CE000418E01814260818E0B045B428361090445
:102CF000026241610248C2657047000084060020FC
:102D0000880000203A48807A022814D13948008887
:102D1000401C38490880084600887D21C900884247
:102D20004EDD0020334908803149887208743C2008
:102D30003049088044E02E48807A012816D12C487A
:102D4000007C012805D10020294988726420294986
:102D500008802748808AE1210901884230DD00206F
:102D60002349887264202349088029E02048807A1A
:102D700000281BD11F480088002805DD1D48008859
:102D8000401E1C4908801BE01948808AE121090186
:102D9000884215DA1648007C012803D10220144924
:102DA00088720DE001201249887209E01048807A8B
:102DB000032805D110480088002801D10C498872E9
:102DC0000D480088002802D003200949887208486D
:102DD000807A012803D100200549887406E0044860
:102DE000807A022802D101200149887470470000CE
:102DF0004C060020820000201C0000207047F0B527
:102E00000B46002200240025002100BF53E00126CC
:102E1000964034461E6826403546A5424AD11E7962
:102E2000002E0CD1016801269640314301604168B3
:102E3000012696400F46B7433946416018E01E7997
:102E4000012E0BD1016896400F46B7433946016009
:102E50004168012696403143416009E01E79022E07
:102E600006D14168012696400F46B7433946416076
:102E70005E79012E04D101699640314301610CE075
:102E80005E79022E09D05E79002E06D101690126F5
:102E900096400F46B7433946016181699E68012E0D
:102EA00002D19640314304E0012696400F46B743D5
:102EB00039468161521C102AA9D3F0BD30B50C46A9
:102EC000230002F0DCFE10090F171E252B333A41B8
:102ED000474F565D636B7279016A394D29408B18F3
:102EE00003626AE0016A364DE13D294013015B1837
:102EF000036262E0016A334D294013025B180362EA
:102F00005BE0036A1905090D13035B18036254E0C3
:102F1000416A2B4D29408B1843624EE0416A284D8F
:102F2000E13D294013015B18436246E0416A254DAB
:102F3000294013025B1843623FE0436A1905090DFB
:102F400013035B18436238E0816A1D4D29408B18DA
:102F5000836232E0816A1A4DE13D294013015B181A
:102F600083622AE0816A174D294013025B1883624D
:102F700023E0836A1905090D13035B1883621CE0C3
:102F8000C16A0F4D29408B18C36216E0C16A0C4D0F
:102F9000E13D294013015B18C3620EE0C16A094D8F
:102FA000294013025B18C36207E0C36A1905090DC3
:102FB00013035B18C36200E000BF00BF30BD000018
:102FC000F0FF0000FFF000000246002093680B4075
:102FD000002B01D0012000E00020704741637047C2
:102FE0000163704700210160017141718160704788
:102FF0000EB56846FFF7F6FF0121684601717D2096
:103000004002009069461948FFF7F9FE03220921A2
:103010001648FFF753FF03220B211448FFF74EFF1A
:1030200003220C211148FFF749FF03220D210F480D
:10303000FFF744FF03220E210C48FFF73FFF032256
:103040000F210A48FFF73AFF6846FFF7CBFF002140
:10305000684601714020009069460448FFF7CFFEA2
:10306000002206210148FFF729FF0EBD000801409C
:10307000104880881049088008460021415E0029D8
:1030800002DA00200C4908800B490020085E0B4939
:1030900009884018C003000C0849088008460088C9
:1030A0000749884202DD0846044908800348008831
:1030B00070470000000401408400002086000020CA
:1030C000FF7F000010B51F48C08E010140181E4947
:1030D0000968401A80121C49096840181A4908609A
:1030E00008460068001100B21849088001208002DB
:1030F00017490880174802F053FD0446FEF776FA98
:10310000134900228A5E5043800A1349086013481D
:1031100002F046FD0446FEF769FA0D4900228A5E78
:103120005043800A0C4948600C4802F039FD0446BF
:10313000FEF75CFA064900228A5E5043800A06497F
:10314000886010BD50010020740000206E00002037
:10315000700000200000B1444006002000C0DA44A6
:1031600010B5034A03490846083801F0A3FA10BD18
:1031700070050020640100207047000010B504466F
:103180000121022001F0FCFC2088A17809040843F9
:10319000E178090508432179090608436179490660
:1031A0000843A17989060843E17909070843217A90
:1031B00049070843217C8907084303490860E06800
:1031C000C8600020486010BD0003014000B585B014
:1031D0000121022001F0D4FC684600F015F801211D
:1031E00049026846018000218170C170012101718E
:1031F000C1710172034803906846FFF7BFFF05B035
:1032000000BD0000007C920008490180002181700F
:103210000121C1700171C17100214171817101727F
:103220007D21C900C160002101747047FF030000C7
:1032300010B572B62748284988622848284908608E
:103240000F20800248600120000400680121C904A9
:103250000843C91008600121080201F091FCFEF743
:103260003FF900F0DFFC02F03FFCFFF7C1FEFEF784
:10327000D5FC01F0D5F8FEF7D4FAFFF7A7FF02F06E
:1032800031FB642001F094FC01210A2002F014FDBE
:103290000221072002F010FD0221084602F00CFD79
:1032A0000021092002F008FD0221002002F004FDA7
:1032B0000221012002F000FD0A2002F0EDFC0020B6
:1032C00002F0EAFC012002F0E7FC092002F0E4FC35
:1032D00062B610BD837A000080000040B4A60000F2
:1032E000000C014010B568480079072815D16748DF
:1032F00000696749884210DD6648008800280CD1C3
:103300006548008A7D210901884206DB6348807A8E
:10331000012802D16049887402E000205E49887467
:1033200040215F48FFF750FE5B49C8740846007DA6
:10333000012844D10846C07C002840D10846807C42
:1033400001283CD101215448203001704078401CB4
:10335000C1B2514820304170007A012817D14E483F
:1033600020304078312803DD00214B482030417067
:1033700049482030407A3221484347492031497832
:1033800040184849095C44482030817217E042489F
:1033900020304078632803DD00213F482030417011
:1033A0003D482030407A322148433B49203149781A
:1033B000491040183B49095C374820308172364833
:1033C000807C012837D134482030007801283DD155
:1033D0003148C06A401C3049C8620846007932282A
:1033E00028D10846C06A498C88422FD300202A4938
:1033F000C86208462030807A01280FD1042128486D
:10340000FFF7ECFD002124482030017001202649FF
:103410000870FF204B302049C88417E00421204861
:10342000FFF7DEFD00211C482030017000201E49FE
:1034300008700BE00AE004211948FFF7D1FD0020D5
:103440001549C862002114482030017016480078E0
:10345000002813D01048C08C012804DB0E48C08C13
:10346000401E0D49C8840C48C08C002806D1042198
:103470000B48FFF7B5FD00200B4908700648C07CDB
:103480000549087510BD000040010020C002002061
:10349000983A00001C000020FC0500204C0600208B
:1034A00000080140E05E00002400002001213248B5
:1034B00001722038C07C01280CD12F482038408B65
:1034C000322838DA2C482038408B401C2A492039D1
:1034D000488330E028482038C07C00282BD126487B
:1034E0002038408B00281ADD23482038408B0F28D5
:1034F00010DA21482038808B0F280BDA1E4820383C
:10350000C07F642806DA1C482038C07F401C1A4956
:103510002039C87700201849203948838883164805
:103520002038808B322806DA13482038808B401CE4
:1035300011492039888310482038808B0F2805DDF9
:1035400001200D49203988770020C8770A482038A3
:10355000408B0F2805DD012007492039887700209E
:10356000C87705482038C07F052803DD00200249C0
:1035700020398877704700001C06002010B54B48A2
:103580000078002822D14A480078012809D1322049
:1035900000F0BEFE474948860F2088630864C86370
:1035A0003AE043480078022809D13C2000F0B0FE00
:1035B00040494886242088630864C8632CE00020C2
:1035C0003C49488688630864C86325E0374800782A
:1035D000012821D136480078012809D1502000F077
:1035E00097FE34494886142088630864C86313E052
:1035F0002F480078022809D1642000F089FE2D4967
:1036000048862F2088630864C86305E000202949A4
:10361000488688630864C86326482030407A254974
:10362000C96B884206D823482030407A2149096C6A
:10363000884205D21F48008FC1B21E482030417217
:103640001C493420085E32228A5E904213DD08460F
:103650002030407AC96B884227D216482030407A01
:10366000312822DA13482030407A401CC1B2114878
:103670002030417219E00F493420085E32228A5E00
:10368000904212DA08462030407A096C88420CD900
:1036900008482030407A002807DD06482030407A6C
:1036A000401EC1B203482030417210BD4A000020C4
:1036B00047000020FC0500207047000010B50121E4
:1036C00089025B48FFF780FC5A4908700846007879
:1036D000012809D158480078322826DA564800785F
:1036E000401C5549087020E05248007800281CD141
:1036F0005148007800280FDD4F4800780F2806DA7F
:103700004E4800780F2802DA00204D49087000204A
:10371000494908704949087048480078322804DA55
:1037200046480078401C45490870444800780F28F6
:1037300002DD0120424908703F4800780F2802DD71
:1037400001203F4908703E480078012802D100203E
:103750003C4908703A480078002802D101203949D4
:1037600008703448007838490870FF21013130482A
:10377000FFF72AFC00281FD03448008834498842CB
:1037800005DA32480088401C3049088002E03048A1
:103790002E4908802D4800880A2802DD00202D4986
:1037A00008802A4800882C49884240DD01202B49A6
:1037B0008870022008703AE026480088642804DAFD
:1037C00024480088401C2349088022480088322869
:1037D00010DD1E48008832280CDD1C4800881E4978
:1037E000884207DA01201D498870087000201749B7
:1037F00008801CE01748008832280DDD1348008837
:103800001549884208DD012014498870022008709B
:1038100000200E4908800AE00E480088322806DDA4
:103820000A480088322802DA00200849088010BDC2
:1038300000080140680000206400002065000020AE
:10384000660000204A000020670000206A00002077
:10385000102700006C000020B80B0000440000207E
:1038600070B5044620880004C11763692269851A6F
:1038700099410822A25E0E462846FCF797FC636930
:1038800022698018594161612061A18A0904206977
:10389000000C08436060606870BD000010B50E4801
:1038A000406910210840002805D10B4840692021BB
:1038B000084000280ED000210748803800F0CAFDDB
:1038C0003020054948610548008802218843801C52
:1038D0000249088010BD0000800701401C00002044
:1038E0001B48807C002819D11A48C08D404200B284
:1038F000194908801748C08D88801648408D40427D
:1039000000B208811348408D88811248808D404262
:1039100000B208820F48808D888218E00D48C08D63
:10392000404200B20C4908800A48C08D888009488E
:10393000808D404200B208810648808D888105480C
:10394000408D404200B208820248408D8882704714
:103950004C06002050010020000701407047000085
:1039600070B505460C460121102001F009F9A64961
:10397000B02041512079617989000843A17A090179
:103980000843E17A49010843A17989010843E179B3
:10399000C9010843217B09020843617B49020843AE
:1039A000E8672088286360886863E08B2862208C41
:1039B0006862608CA862A08CE862607A0002217A5A
:1039C000084328673620005D3721095D4900084318
:1039D0003E21095D89010843E18AC9010843382174
:1039E000095D090208433921095D490208433F2165
:1039F000095D89030843218BC9030843A02148516D
:103A00003A20005D3B21095D490008434021095DE2
:103A100089010843618BC90108433C21095D090202
:103A200008433D21095D490208434121095D89039D
:103A30000843A18BC9030843A42148514C20005DD1
:103A40004E21095D890008434A21095D09010843A7
:103A50004B21095D490108434D21095D4900084397
:103A60004F21095DC90008435021095DC901084380
:103A70005821095D090208435721095D490208439D
:103A80005A21095D890208435921095DC902084389
:103A90005C21095D090308435B21095D4903084373
:103AA000A82148515320005D5521095D8900084334
:103AB0005121095D090108435221095D490108436B
:103AC0005421095D490008435621095DC900084396
:103AD0005021095DC90108435D21095D09020843C0
:103AE0005E21095D49020843AC2148514220005D36
:103AF0004421095D090108434521095D4901084345
:103B00004821095D890108434321095D09020843F1
:103B10004621095D090308434721095D490308431C
:103B20004921095D890308436867E08C2865208D79
:103B300068657420005BA867E089A864208AE8644F
:103B40001220205EA8631420205EE8635F20005DE1
:103B50006021095D490008436121095D890208432C
:103B60006221095DC9020843802148516320005D3C
:103B70006421095D490008436521095D8902084304
:103B80006621095DC9020843882148516F20005D04
:103B900000017021095D490108437121095D890116
:103BA00008437221095DC9010843902148516720EB
:103BB000005D6821095D490008436921095D8900AC
:103BC00008436A21095DC90008436B21095D0901A9
:103BD00008436C21095D490108436D21095D890194
:103BE00008436E21095DC9010843982148510748DF
:103BF00028640146842041518C2041519420415138
:103C00000349B020415170BDADDE0000FFFF000050
:103C1000FECA000010B5044676212046FCF745FB9D
:103C200010BD000000B59FB001A8FFF7F3FF002111
:103C300068460172012141728172C1720021418383
:103C40008183C183254910A801870C21684601732F
:103C5000012141730F2189018180C180EB218900FD
:103C600041849F21C9438184432141858185C18548
:103C7000018641868186002108A88176C176017778
:103C800041778177C17710A88170C1700171C176C9
:103C9000017741778177C17718A8017010A8017565
:103CA0000121017200214172012181720021C17242
:103CB00018A8C170C1740121017510A8C1734174A5
:103CC0000021C17401A90648FFF74AFE044880306C
:103CD000006A044988831FB000BD0000FF1F000078
:103CE00000070140B8040020094800780007000FD1
:103CF0000849087008460078032803DB00200649BD
:103D0000087003E00348007803490870704700001A
:103D1000540000205000002047000020F8B52D4D31
:103D200016222D4CAA5E22841421695E6184E88EDD
:103D30002A4B2A4E58432B46DB8E001473431B1428
:103D40005B42824201DD024602E09A4200DA1A46F4
:103D500012B22284814201DD014602E0994200DA7A
:103D6000194640435243801A09B21D4A61841063C8
:103D7000506B002900B201DB0A4600E04A42824251
:103D800003DD002900DC404260841648A16B006A14
:103D90004018001401F0B4FDE8611C221E21AA5E47
:103DA0002026695E2220A65F205E17460B467743D9
:103DB0004343FB1A714342438818C01301B2E06BBE
:103DC000DB131BB24343DA1341432A83C8136883CE
:103DD000F8BD000050010020880000200013010001
:103DE000000B01403C02002070B586B0044627203D
:103DF000C043844203DCFD48FD4908607DE2272082
:103E0000C04384421EDD801084421BDC20462830E3
:103E1000FCF74BFFF74AF84B01910090FCF792FF3B
:103E20000022F64B03910290FCF7A0FC054600220D
:103E3000F34BFCF76BFC05910490FCF7BBFEEC49DF
:103E400008605AE20920C04384421DDD002C1BDCBF
:103E5000201AFCF72AFFE74A521EEA4B0191009014
:103E6000FCF770FF05460022E74BFCF77FFC0022C1
:103E7000E64B03910290FCF749FC05910490FCF796
:103E800099FEDB49086038E2002C1CDD1E2C1ADC90
:103E90002046FCF70AFFDE4ADE4B01910090FCF75A
:103EA00051FF05460022D54BFCF760FC0022DA4B9F
:103EB00003910290FCF72AFC05910490FCF77AFE2E
:103EC000CB49086019E21E2C1EDD322C1CDC20467A
:103ED0001E38FCF7EAFED14AD14B01910090FCF765
:103EE00031FF0546002201239B07FCF73FFCCB4A2C
:103EF000CC4B03910290FCF709FC05910490FCF770
:103F000059FEBB490860F8E1322C18DD3C2C16DC68
:103F100020463238FCF7C9FEC34AC44B03910290D5
:103F2000FCF710FFB34AD243C14B05910490FCF754
:103F3000EDFB0546FCF73EFEAD490860DDE13C2C9B
:103F400018DD462C16DC20463C38FCF7AEFE054654
:103F5000AF4A921EB74BFCF7F5FEA64AB64B03914B
:103F60000290FCF7D3FB05910490FCF723FEA049D7
:103F70000860C2E1462C18DD502C16DC204646387D
:103F8000FCF793FE0546AD4AAD4BFCF7DBFE002285
:103F9000AC4B03910290FCF7B9FB024604920591E9
:103FA000FCF708FE92490860A7E1502C18DD5A2C56
:103FB00016DC20465038FCF778FEA34AA34B039149
:103FC0000290FCF7BFFE954A521EA14B059104904A
:103FD000FCF79CFB0546FCF7EDFD854908608CE18C
:103FE0005A2C18DD642C16DC20465A38FCF75DFE8E
:103FF000984A994B03910290FCF7A4FE05467D4A2E
:10400000521C964BFCF782FB05910490FCF7D2FD05
:104010007749086071E1642C17DD6E2C15DC2046B1
:104020006438FCF742FE8E4A8E4B03910290FCF7F7
:1040300089FE8D4A8D4B05910490FCF767FB054680
:10404000FCF7B8FD6A49086057E16E2C18DD782C42
:1040500016DC20466E38FCF728FE7E4A921C844B04
:1040600003910290FCF76EFE0546824A824BFCF7F4
:104070004DFB05910490FCF79DFD5D4908603CE116
:10408000782C17DD822C15DC20467838FCF70DFEE5
:1040900005467A4A7A4BFCF755FE7A4A7A4B0391E9
:1040A0000290FCF733FB05910490FCF783FD504927
:1040B000086022E1822C18DD8C2C16DC2046823828
:1040C000FCF7F3FD05466F4A921E704BFCF73AFE73
:1040D0006F4A704B03910290FCF718FB0591049016
:1040E000FCF768FD4249086007E18C2C18DD962C2E
:1040F00016DC20468C38FCF7D8FD674A674B0391E5
:104100000290FCF71FFE5F4A5242654B05910490F6
:10411000FCF7FCFA0546FCF74DFD35490860ECE07C
:10412000962C17DDA02C15DC20469638FCF7BDFD3B
:1041300005465C4A5C4BFCF705FE464A5B4B039127
:104140000290FCF7E3FA05910490FCF733FD28494F
:104150000860D2E0A02C17DDAA2C15DC2046A03880
:10416000FCF7A3FD524A534B03910290FCF7EAFD82
:104170000022514B05910490FCF7C8FA0546FCF764
:1041800019FD1B490860B8E0AA2C1FDDBE2C1DDC00
:104190002046AA38FCF789FD484A494B0191009016
:1041A000FCF7D0FD0546002201239B07FCF7DEFA51
:1041B0001D4A521E434B03910290FCF7A7FA05914A
:1041C0000490FCF7F7FC0A49086096E0BE2C7DDD00
:1041D000D22C7BDC2046BE38FCF767FD314A5242C8
:1041E000394B01910090FCF7ADFD70E0177C0000A9
:1041F00038000020999999999995A4C00000084029
:10420000C005DF4099396BC00000F03F002BB5407E
:1042100052B81E85EB796EC00052A9403433333357
:10422000333346C0331789402085EB51B81E26C072
:10423000666E7640EB511DC099096F40E27A14AE6C
:1042400047E113C000E0654084EB51B81E850BC008
:1042500033535F405C8FC2F5285C03C099B9564068
:10426000480C022B8716FBBFCDCCCCCCCCAC50403D
:10427000285CF3BFC3F5285C8FE24840A8C64B37E3
:104280008941ECBFF6285C8FC2D54240C2F5E4BF3D
:10429000D7A3703D0AD73C405C643BDF4F8DDFBF46
:1042A0003D4A3640E8FBA9F1D24DD2BF285C3140EF
:1042B000D022DBF97E6AD4BF00002D40F4FDD47813
:1042C000E926D9BFB89E26402DB2CDBF12E000220C
:1042D00001239B0703910290FCF748FA0546094A1F
:1042E000094BFCF713FA05910490FCF763FC0749AE
:1042F000086002E00520054908600448006806B02F
:1043000070BD000085EB51B81E851D4038000020AF
:10431000F1B584B00498FFF767FD114908600846BD
:104320000068FCF7C2FC044600220E4BFCF7EEF9D5
:10433000064600220C4BFCF7E9F902460B460191B8
:10434000009000200949FCF711FA03910290FCF754
:1043500031FC00B2064908800020085E05B0F0BDBF
:10436000300000200080494000005940565C514117
:104370002C00002002480021C160816181607047EB
:104380001803002030B50D480D4A0E4B047998698A
:104390001169042C0DD20C4D14682D8B64106C43E4
:1043A000DD696419DC6118625160084901200870F8
:1043B00030BD18625160D86130BD0000400100205E
:1043C000C00200203C02002064060020880000207B
:1043D00001460420085EC2008868904208DA002383
:1043E000CB5E8868C01888608868904200DB8A606D
:1043F0008868904208DD0223CB5E8868C01A886016
:104400008868904200DA8A608868C01000B2C8806C
:104410008868904201D1012070470020FCE700002D
:1044200010B50121480200F071FB08480849886274
:10443000C805006980088000C90508610846006950
:10444000012108438907086110BD0000837A00003C
:10445000800000400A4BB0221350012906D1A82247
:10446000125840231A43A8231A5005E0A8221258D4
:10447000044B1A40A8231A50034BB0221350704724
:10448000ADDE0000BFFF0000FECA00001F48006A4A
:10449000C007C00F00280DD001201C4908621C492C
:1044A000C8811A48006908601848C0688860002000
:1044B0008882C8821548006A04210840002823D059
:1044C0000420124908621248C089002815D11148F9
:1044D000806849150840002807D00D48808A401C94
:1044E0000B4988820020C8820BE00948C08A401C22
:1044F0000749C8820020888203E00020044988829E
:10450000C88200200249C8817047000000050140B0
:10451000DC0500200008014070B5214D2148698963
:104520000181A989418100241F4A18210460515E3C
:10453000621F51438910C46041606C82AC821430A8
:1045400004601A49C4604160E9890181298A418176
:104550001449174838390A46434209C11C32D4600D
:1045600009C20B463220603B4C60D8821148068954
:104570000E8046894E8081891180C18951806C6589
:104580000D4AAC651168E965846111612C651C6197
:104590000A212C66C187AC63FEF7A0FB6C8070BD5E
:1045A00088000020F406002090010020E0FCFFFFBE
:1045B000000070173C020020C0020020F0B5354E0C
:1045C0001A213046415E1E227588825E846CC36C5F
:1045D000C9003148AC46012D0068304D41D040350E
:1045E0000E27EF5F67437C131027EF5F5F437B135A
:1045F000C91A60431041081829494042884202DC28
:104600004942884200DA0846F08230832248182165
:10461000C28B715E036A4A439A180262838B5213FB
:104620004B4319138A180260C18E8A4202DC016072
:10463000490301620068F16D0203521A9211511888
:10464000F165184A091311611349174A2039498B3A
:104650004843716B0918716391616146002907D065
:1046600007E00C27EF5F67437C130E27EF5FBDE782
:104670000020B063308C7083084A16201421105E2D
:10468000515E40434943411808480163406B084963
:104690000882F0BD88000020840600205001002020
:1046A000E02E0000C00200203C020020000B014070
:1046B0001803002070B505460E4614460220285EF9
:1046C0000221715E4843002805DB0220285E02219A
:1046D000715E484305E00220285E0221715E484376
:1046E00040420021695E0022B25E51434018606082
:1046F00060680013A06020460830FFF7B1F8206022
:1047000070BD0000F0B586B004460D460B9E01203A
:10471000039000200290019000234548454FB86265
:10472000454886426DD14548424F403778614448FC
:104730000290444801903046029F7840019F7840A3
:1047400003461868404F3840186001200004446058
:1047500018680127FF0638431860002600200290E1
:10476000019000231146E81C800880000490059405
:1047700019E005988008800001273F0478600878D8
:104780004F783F02C0198F783F04C019CF783F0699
:10479000C01901273F04B860091D0498001F049048
:1047A0000598001D059004980028E2D11146E81CE8
:1047B000800880000490059420E00598800880001F
:1047C00001273F04786008784F783F02C0198F783E
:1047D0003F04C019CF783F06C019009001200004A3
:1047E000C7680098874201D000200390091D0498F3
:1047F000001F04900598001D059000BF0498002834
:10480000DBD100200B4F40377861B81300680F4FA1
:10481000384001273F0438600020029001900023B7
:104820000026044FB8626846007B06B0F0BD000069
:10483000837A0000800000400CA4FD9A358F0000B0
:104840000F045C6A03A0A0F0FF7FFF7FFFF7FFF774
:1048500010B55448807F00283FD153488078002805
:104860003BD000205049887008460078012802D0CB
:10487000022830D119E04D48007800280FD14C486B
:104880000078401C4A4908700846007802280BDD71
:1048900001204649087000204549087004E00020C6
:1048A000424908704249087016E0404800780028E4
:1048B0000BD13F480078401C3D49087008460078FD
:1048C000022807DD0020087004E000203749087046
:1048D0003749087000E000BF00BF3248807F0028E1
:1048E0005ED13448808AE1210901884258DA2F4894
:1048F000007800282FD12E480078002808D1022106
:104900002D48FEF76DFB08212B48FEF769FB2AE0D6
:1049100027480078012808D102212748FEF760FBCC
:1049200008212548FEF75AFB1DE02148007802289F
:1049300008D102212048FEF751FB08211E48FEF74E
:104940004FFB10E002211C48FEF74AFB08211A48E1
:10495000FEF746FB07E002211748FEF73FFB082160
:104960001548FEF73BFB11480078012818D1134881
:104970000088401C11490880084600881049884278
:1049800002D100200D4908800C4800880D4988425A
:1049900003DA00200649087002E00220044908708A
:1049A00010BD0000FC050020440000204B0000204A
:1049B000470000204C060020000801406200002053
:1049C00070170000B80B000070470000FCB5418B69
:1049D000182349420AB24283C35E69460B804949A3
:1049E00002254A43990351184942CA17520C5118DB
:1049F000C9130CB269464C80191949420AB269467A
:104A00008A8001462031A3421CDC93420BDC944295
:104A100004DC01264E760E76164602E04D760D76C3
:104A200026469E191EE01619F70FBE1976109B1B1D
:104A30006F463B80A31B7B80921BBA8003224A7681
:104A40000D7629E0944218DC934205DC04264E766C
:104A500001260E76164604E005264E7603260E76CF
:104A60001E46A619F70FBE1976109B1B6F463B809A
:104A7000A31B7B80921BBA800EE0D618F70FBE19DD
:104A800076109B1B6F463B80A31B7B80921BBA80DA
:104A900006224A7603220A76AC2300221B58BA5E0D
:104AA0000124A4039E8912197243D213643E9642D4
:104AB00001DA324602E0392A00DA00224285022277
:104AC000BA5E9E8912197243D213643E964201DA8D
:104AD000324602E0392A00DA002282850422BA5ED8
:104AE0009B8912195A43D213643B934201DA1A4646
:104AF00002E0392A00DA0022C285012048768D764C
:104B0000FCBD0000DA6E0000704700001A4A1B4B23
:104B10009A62012915D18A020240002A09D08A0727
:104B200012698B029A438B071A618B0202469A43E1
:104B30001046012292071269024301239B071A6162
:104B400015E0012292020240002A09D001229207B8
:104B5000126901239B021A431B051A611A1510439F
:104B6000012292071269824301239B071A610022E6
:104B7000024B9A6270470000837A00008000004078
:104B8000094A0A4B9A62002904D01A46D2690243A4
:104B9000DA6104E0054AD2698243044BDA610022FB
:104BA000024B9A6270470000837A00008000004048
:104BB00008B50021009103E000BF0099491C009155
:104BC00000998142F8D308BD10B504466168206899
:104BD000411A61620B49606A884201DD084607E0BC
:104BE00008494942606A884201DA084600E0606A82
:104BF00060622046183000F026F801B20248C181F8
:104C000010BD0000FF7F000090010020C268016815
:104C1000914209DA826B016889180160C2680168F3
:104C2000914201DBC1680160C2680168914209DDFF
:104C3000C26B0168891A0160C2680168914201DC97
:104C4000C16801607047F0B58FB004462068C11795
:104C5000820A8905114385050E466068C117820ADC
:104C600089051143800501910090E768F917608973
:104C700000220392059104903846039B049AFBF7A7
:104C8000A8FAE161A0612369E269A1696069591824
:104C9000504121616061324661692069281A8A4168
:104CA00000DA0AE06369226901990098101A8B41C1
:104CB00003DA0199009861612061E068C2172189D7
:104CC00000230A930C920B910D9011460B9AFBF75F
:104CD00080FA8023002207930692089109901A46D1
:104CE000069BFBF776FAE161A061A369626921691D
:104CF000E06959185041A161E0613246E169A0695B
:104D0000281A8A4102DAE661A5610AE0E369A2692C
:104D100001990098101A8B4103DA01990098E1611A
:104D2000A061E1698902A069800D084302900298A0
:104D300000B20FB0F0BDC268D10142698A4208DA00
:104D40001023C35E4269D218426142698A4200DB85
:104D5000416142698A4208DD1223C35E4269D21A68
:104D6000426142698A4200DC4161704710B500200F
:104D70001E4908601E480221415E0A290ADA40885D
:104D8000401C00B21A4948801A48808800B21A496B
:104D9000888015E016480221415E14290ADA40880D
:104DA000401C00B2124948801248008800B21249E3
:104DB000888005E004201149087100200C494880D2
:104DC0000F4800F0D7FE00B20B4908800C4800F0F5
:104DD000D1FE00B2084948800846FFF7F9FA0021E1
:104DE0000848C18141828182018210BDC002002039
:104DF000D80400207C020020400400204001002054
:104E00000AD7233C9001002010B55C48807B002825
:104E100022D1012059498873FF2021305849488503
:104E2000014657488185C185408D404200B25449B2
:104E300008860846808D404201B251484186C08DA7
:104E4000404201B24E48818601468031086B80475E
:104E500000204C4908807DE04A480088002817D18E
:104E600049484A4908634A48808B4A4908434749A8
:104E700008624748808B0C2108434449486200205F
:104E80000863012141488038FFF7E4FA00BF21E0C0
:104E90003C48008864280CD13B483C4908633C48A6
:104EA000808B3D490843394908620020086300BFF0
:104EB00010E034480021415EC8290BD13248334903
:104EC00008633348808B082108433049486200203A
:104ED000086300BF2B490020085EFF212D31884266
:104EE00006DA28480088401C00B22649088031E0D4
:104EF000002126488038FFF7ADFA72B6002020491D
:104F0000488500211E488185C185408D404200B200
:104F10001B4908860846808D404201B218484186E8
:104F2000C08D404201B21648818601468031086B2F
:104F30008047FF20154940390860FEF773FE174887
:104F400040690121C90208431449486162B6012041
:104F50000A49C8730948C07B01280DD100200749C0
:104F60008873084908800549C87300F029F80121B1
:104F700006488038FFF76EFA10BD00007C02002062
:104F800050010020D8040020ADDE00008007014061
:104F9000B8040020080C00000C0800004004014088
:104FA00010B500200449C87000210448FFF752FAE8
:104FB000FDF740F910BD000040010020000701404E
:104FC00070B500219648FFF745FA964800F0E8FDD5
:104FD00000B295490882954800F0E2FD00B292497E
:104FE0004882002092498877782008840C204884E1
:104FF0000020888048800880886088614861088235
:10500000C860FFF7B7F900208A498870864988731D
:10501000C87300F099FD84498881874800F0AAFD93
:105020000546FCF7D7FA00B27F498882824800F033
:10503000A1FD0546FCF7CEFA00B27B49C882FF20ED
:10504000E1307E490880488088808031086B804745
:1050500000217A4840300182C1814038C18100205E
:1050600076498881088200217448418240308182DB
:10507000418200207149088048808880088600218C
:105080006E48418681868C30C16041618C38C16731
:1050900070304161002069490883002167484183DD
:1050A000C182002065498882888400216348C184C8
:1050B0000185002000F05EFD5B490860604800F05B
:1050C00059FD5949486000205E490882488248617C
:1050D00088808860C8805C4800F062FD5249886022
:1050E000002088778883594908800A205149C88060
:1050F0005749584801844910418400228262C262A3
:105100007F20C00500F036FD0546FCF763FA5149E3
:1051100088617F20C00500F02DFD0546FCF75AFA96
:1051200041424C48C1610021416200204949086068
:10513000C860494800F034FD0546FCF757FA454978
:105140008863384800F02CFD0546FCF74FFA4149CA
:10515000C863002048604864324800F021FD0546DD
:10516000FCF744FA3B490864FF20013088643B485F
:1051700000F000FD0546FCF72DFA01B2354840303D
:10518000C181374800F00CFD0546FCF72FFA314984
:105190000865FFF7C1F92C4800F002FD0546FCF751
:1051A00025FA30498887304800F0FAFC0546FCF7BC
:1051B0001DFA1D49C8632D4800F0F2FC0546FCF7B6
:1051C00015FA194908640020294908804880888018
:1051D000C880088148818881FCF750FF1548008805
:1051E00004B2FCF77DF900BF12480088001B03D40D
:1051F00010480088001B02E00E480088201A022890
:10520000F2DBF0201B49C880C82008814881AA2011
:1052100088810020488488843220087170BD000095
:1052200000070140000020417C0200200000A04156
:105230001803002040010020CDCCCC3D50010020BF
:105240003333333F40040020000070420000002050
:1052500010270000C00200200000E0409A9919BF0A
:10526000000096433C0200200000F0410000FA4399
:10527000D8040020FC05002010B54948807F002894
:105280007ED148488078002804D145488068464946
:10529000C86004E04248806840424349C86000203A
:1052A00000F07EFC00B240490882404800F078FCE3
:1052B00000B23D4948820846FFF73DFD3A48406943
:1052C000C0113B49C860C868FCF790F938490860CC
:1052D000384880693749C969401A31490862084627
:1052E000006A002802DB0846006A02E02C48006AD7
:1052F000404200142A4908620846006A7D210901DB
:1053000088420BDD2648006A2B49884206DA244889
:10531000808C401C00B22249888402E00020204991
:10532000888407201F49087101201D4988771D487E
:105330008078002809D1214800F01CFC0446FCF7C5
:1053400049F901B21E4841820DE0164880780128D3
:1053500009D11A4800F00EFC0446FCF73BF9404224
:1053600001B217484182174800F004FC0446FCF7DC
:1053700031F900B20A498882124800F0FBFB00E0D4
:105380000CE00446FCF726F900B20549C882FCF798
:10539000DBFAFCF70BFB00210948818210BD0000FD
:1053A0007C02002040010020400400200000A041B9
:1053B000C00200203C020020504600003333333F3F
:1053C00090010020CDCCCC3D10B56B480C21415E46
:1053D00002291EDA69480088012814D1684800694A
:1053E000002802DB6648006902E065480069404227
:1053F0006449096C884206DD5F488089401C00B220
:105400005D49888102E000205B498881FCF7CEFA83
:1054100078E059480621415E022915DAC088401C0F
:1054200000B25549C88058490E20085EC117820A4B
:1054300089051143820552488262C1624068504921
:105440000860FCF7B3FA5DE04E48808B401C00B268
:105450004C498883002855DB002088834648C08853
:10546000022815D14448C088401C00B24249C88077
:1054700045491220085EC117820A89051143820539
:105480003F488262C16240683D490860FCF78EFA7D
:105490003E48007880003E4908583949C8603D4878
:1054A0008078002808D10846C068002811DA08462C
:1054B000C0684042C8600CE036488078012808D1B6
:1054C0002F48C068002804DD2D48C06840422C49A0
:1054D000C86031480078012807D100202F49088092
:1054E0002F490880FCF762FA0CE001202D49087072
:1054F0002348FFF78BFB2248FFF766FBFCF782F897
:10550000274908802848807F01282AD11E48743006
:1055100001894438018144304189443841816030F7
:10552000018944380181443041894438418114481B
:105530004030C18914484182012017490870104841
:105540000069002802DB0E48006902E00C4800698F
:1055500040420B49096D884206DA09200D4908715D
:1055600002E000200C4908700D480021415E064809
:105570008182FCF7E9F910BDD80400208A000020E0
:10558000C00200207C020020900100204A00002080
:105590004006002040010020020000209C00002066
:1055A0009A00002014000020FC05002008480A2171
:1055B000415EFA2905DA4089401C00B2044948815D
:1055C00005E000200249488102490871C87070470F
:1055D000D8040020400100207047000010B5434867
:1055E0000079030000F04BFB0C07221C2C2F636397
:1055F00032634F525A633E48807F002806D13D48AF
:10560000807A002802DD01203849C8703748C07808
:10561000002804D0FFF7D4FC02203449087147E089
:10562000FFF7F2FB01203149087141E0FFF7C8FCA8
:1056300001213148FEF70EFF03202C49087137E0A5
:10564000FFF794FB34E0FFF717FE31E02848008AAB
:105650007D210901884204DA2548008A401C24493A
:105660000882FFF7B1FE2148C07800280AD12348FC
:105670000088002806D100211F48FEF7EBFE00201D
:105680001A49087114E0FFF791FF11E01748C0882C
:10569000002802D000201549087109E0FFF780FCBE
:1056A00016480088002801D11049087100E000BFA9
:1056B00000BF0E48C07800280CD110480088002890
:1056C00008D100210C48FEF7C5FEC8200749C88054
:1056D0000020087109480088002806D000210648EB
:1056E000FEF7B8FE0B200149087110BD40010020F3
:1056F000FC0500204C060020000701401C00002093
:1057000000B5FCF7B9F800BD10B5FEF7BFFE10BD3F
:105710000B48006A04210843094908620948C07817
:10572000401C0849C87008468088401C888008468C
:10573000C088401CC88008460089401C088170470A
:10574000000601403001002070B505460C46274890
:10575000854203D101212020FFF712FA2448854217
:1057600003D101214020FFF70BFA2078C0072179EF
:10577000C9060843217A89060843217B09060843A4
:10578000218A09050843A18A09040843E16909033C
:105790000843216AC9020843616A89020843A16A71
:1057A00049020843E16A09020843616B09010843A1
:1057B000A16BC9000843E16B89000843216C4900D3
:1057C0000843616C08432860A0696860E06CA860C9
:1057D000A06CE860206B2861206D6861606DA86135
:1057E000A06DE8610720286270BD0000000501403F
:1057F000000601400021016041608160C1600161DB
:10580000416181610121C1610162002141628162C6
:10581000C16201634163012181630021C1630164AD
:1058200041648164C1640165416581657047000020
:1058300010B52748C078022821DB00202449C87011
:1058400000BF2448C088002804D02248C088401ED9
:105850002049C88000BFFCF793FB00F0CBF8FDF7B0
:1058600031FC1D480088002802D00B20194908711E
:10587000FFF7B4FE19492220085EFCF7DBF9144853
:105880008088142804DB00201149888000F09EF8ED
:105890000F48C088C82808DB00200D49C880104880
:1058A000807C012801D1FDF769FE094800897D212E
:1058B000C900884204DB00200549088100F068FA2D
:1058C00003488078002802D000200149887010BD6C
:1058D00030010020400100201C0000205001002069
:1058E000FC05002010B50448044988620121080322
:1058F000FFF70CF910BD0000837A00008000004023
:1059000008B502460120C00310180004810D0846A6
:1059100003231B02184000282CD0FF380138002830
:105920003BD0FF380138002804D0FF380138002868
:1059300044D10EE00806C00D224B1B5A6846438036
:10594000C8B2FF23181A40001E4B1B5A684603803A
:1059500035E0C8B2FF23181A40001A4B1B5A68469C
:1059600043800806C00D174B185A404203B26846E0
:10597000038024E00806C00D124B185A404203B2BF
:1059800068464380C8B2FF23181A40000D4B185ACE
:10599000404203B26846038011E0C8B2FF23181AE0
:1059A0004000084B185A404203B26846438008063C
:1059B000C00D044B1B5A6846038000E000BF00BFC7
:1059C000009808BDA46800007047000010B5FDF7FE
:1059D000C7FBFDF797F9FDF74BFB044988810846A3
:1059E000808900B20249888610BD00004C06002064
:1059F000FC05002010B5FDF761FEFEF729FFFDF75D
:105A000055FDFCF7CDF910BD0EB56846FDF7EAFA75
:105A100002212948FDF7E4FA08212748FDF7E0FABA
:105A200001216846017141710A20009069462248AF
:105A3000FDF7E5F969462048FDF7E1F902211E4826
:105A4000FDF7CEFA08211C48FDF7CAFA0021684686
:105A50000171417105200002009069461648FDF76A
:105A6000CEF90021684601714171402000906946DD
:105A70001148FDF7C4F904210F48FDF7B1FA684653
:105A8000FDF7B0FA012168460171042000906946D3
:105A90000948FDF7B4F904210748FDF7A1FA0748C2
:105AA0000749886208464068202108430449486045
:105AB000002088620EBD000000080140837A0000CB
:105AC0008000004000B500200549887488728882F3
:105AD0003F204002006803490860FEF705F900BD59
